{
  "address": "0xA25D7619C9eC247a3DFB8b97a9f280a3c8Ae7488",
  "abi": [
    {
      "inputs": [
        {
          "internalType": "contract ISuperfluid",
          "name": "host",
          "type": "address"
        }
      ],
      "stateMutability": "nonpayable",
      "type": "constructor"
    },
    {
      "inputs": [],
      "name": "ApprovalCallerNotOwnerNorApproved",
      "type": "error"
    },
    {
      "inputs": [],
      "name": "ApprovalQueryForNonexistentToken",
      "type": "error"
    },
    {
      "inputs": [],
      "name": "ApprovalToCurrentOwner",
      "type": "error"
    },
    {
      "inputs": [],
      "name": "ApproveToCaller",
      "type": "error"
    },
    {
      "inputs": [],
      "name": "BalanceQueryForZeroAddress",
      "type": "error"
    },
    {
      "inputs": [],
      "name": "MintToZeroAddress",
      "type": "error"
    },
    {
      "inputs": [],
      "name": "MintZeroQuantity",
      "type": "error"
    },
    {
      "inputs": [],
      "name": "OwnerQueryForNonexistentToken",
      "type": "error"
    },
    {
      "inputs": [],
      "name": "TransferCallerNotOwnerNorApproved",
      "type": "error"
    },
    {
      "inputs": [],
      "name": "TransferFromIncorrectOwner",
      "type": "error"
    },
    {
      "inputs": [],
      "name": "TransferToNonERC721ReceiverImplementer",
      "type": "error"
    },
    {
      "inputs": [],
      "name": "TransferToZeroAddress",
      "type": "error"
    },
    {
      "anonymous": false,
      "inputs": [
        {
          "indexed": true,
          "internalType": "address",
          "name": "owner",
          "type": "address"
        },
        {
          "indexed": true,
          "internalType": "address",
          "name": "approved",
          "type": "address"
        },
        {
          "indexed": true,
          "internalType": "uint256",
          "name": "tokenId",
          "type": "uint256"
        }
      ],
      "name": "Approval",
      "type": "event"
    },
    {
      "anonymous": false,
      "inputs": [
        {
          "indexed": true,
          "internalType": "address",
          "name": "owner",
          "type": "address"
        },
        {
          "indexed": true,
          "internalType": "address",
          "name": "operator",
          "type": "address"
        },
        {
          "indexed": false,
          "internalType": "bool",
          "name": "approved",
          "type": "bool"
        }
      ],
      "name": "ApprovalForAll",
      "type": "event"
    },
    {
      "anonymous": false,
      "inputs": [
        {
          "indexed": true,
          "internalType": "address",
          "name": "from",
          "type": "address"
        },
        {
          "indexed": true,
          "internalType": "address",
          "name": "to",
          "type": "address"
        },
        {
          "indexed": true,
          "internalType": "uint256",
          "name": "tokenId",
          "type": "uint256"
        }
      ],
      "name": "Transfer",
      "type": "event"
    },
    {
      "inputs": [
        {
          "internalType": "contract ISuperToken",
          "name": "",
          "type": "address"
        },
        {
          "internalType": "address",
          "name": "",
          "type": "address"
        },
        {
          "internalType": "bytes32",
          "name": "",
          "type": "bytes32"
        },
        {
          "internalType": "bytes",
          "name": "",
          "type": "bytes"
        },
        {
          "internalType": "bytes",
          "name": "",
          "type": "bytes"
        },
        {
          "internalType": "bytes",
          "name": "",
          "type": "bytes"
        }
      ],
      "name": "afterAgreementCreated",
      "outputs": [
        {
          "internalType": "bytes",
          "name": "",
          "type": "bytes"
        }
      ],
      "stateMutability": "nonpayable",
      "type": "function"
    },
    {
      "inputs": [
        {
          "internalType": "contract ISuperToken",
          "name": "",
          "type": "address"
        },
        {
          "internalType": "address",
          "name": "",
          "type": "address"
        },
        {
          "internalType": "bytes32",
          "name": "",
          "type": "bytes32"
        },
        {
          "internalType": "bytes",
          "name": "",
          "type": "bytes"
        },
        {
          "internalType": "bytes",
          "name": "",
          "type": "bytes"
        },
        {
          "internalType": "bytes",
          "name": "",
          "type": "bytes"
        }
      ],
      "name": "afterAgreementTerminated",
      "outputs": [
        {
          "internalType": "bytes",
          "name": "",
          "type": "bytes"
        }
      ],
      "stateMutability": "nonpayable",
      "type": "function"
    },
    {
      "inputs": [
        {
          "internalType": "contract ISuperToken",
          "name": "",
          "type": "address"
        },
        {
          "internalType": "address",
          "name": "",
          "type": "address"
        },
        {
          "internalType": "bytes32",
          "name": "",
          "type": "bytes32"
        },
        {
          "internalType": "bytes",
          "name": "",
          "type": "bytes"
        },
        {
          "internalType": "bytes",
          "name": "",
          "type": "bytes"
        },
        {
          "internalType": "bytes",
          "name": "",
          "type": "bytes"
        }
      ],
      "name": "afterAgreementUpdated",
      "outputs": [
        {
          "internalType": "bytes",
          "name": "",
          "type": "bytes"
        }
      ],
      "stateMutability": "nonpayable",
      "type": "function"
    },
    {
      "inputs": [],
      "name": "agreement",
      "outputs": [
        {
          "internalType": "contract IConstantFlowAgreementV1",
          "name": "",
          "type": "address"
        }
      ],
      "stateMutability": "view",
      "type": "function"
    },
    {
      "inputs": [
        {
          "internalType": "address",
          "name": "to",
          "type": "address"
        },
        {
          "internalType": "uint256",
          "name": "tokenId",
          "type": "uint256"
        }
      ],
      "name": "approve",
      "outputs": [],
      "stateMutability": "nonpayable",
      "type": "function"
    },
    {
      "inputs": [
        {
          "internalType": "address",
          "name": "owner",
          "type": "address"
        }
      ],
      "name": "balanceOf",
      "outputs": [
        {
          "internalType": "uint256",
          "name": "",
          "type": "uint256"
        }
      ],
      "stateMutability": "view",
      "type": "function"
    },
    {
      "inputs": [
        {
          "internalType": "contract ISuperToken",
          "name": "",
          "type": "address"
        },
        {
          "internalType": "address",
          "name": "",
          "type": "address"
        },
        {
          "internalType": "bytes32",
          "name": "",
          "type": "bytes32"
        },
        {
          "internalType": "bytes",
          "name": "",
          "type": "bytes"
        },
        {
          "internalType": "bytes",
          "name": "",
          "type": "bytes"
        }
      ],
      "name": "beforeAgreementCreated",
      "outputs": [
        {
          "internalType": "bytes",
          "name": "",
          "type": "bytes"
        }
      ],
      "stateMutability": "view",
      "type": "function"
    },
    {
      "inputs": [
        {
          "internalType": "contract ISuperToken",
          "name": "",
          "type": "address"
        },
        {
          "internalType": "address",
          "name": "",
          "type": "address"
        },
        {
          "internalType": "bytes32",
          "name": "",
          "type": "bytes32"
        },
        {
          "internalType": "bytes",
          "name": "",
          "type": "bytes"
        },
        {
          "internalType": "bytes",
          "name": "",
          "type": "bytes"
        }
      ],
      "name": "beforeAgreementTerminated",
      "outputs": [
        {
          "internalType": "bytes",
          "name": "",
          "type": "bytes"
        }
      ],
      "stateMutability": "view",
      "type": "function"
    },
    {
      "inputs": [
        {
          "internalType": "contract ISuperToken",
          "name": "",
          "type": "address"
        },
        {
          "internalType": "address",
          "name": "",
          "type": "address"
        },
        {
          "internalType": "bytes32",
          "name": "",
          "type": "bytes32"
        },
        {
          "internalType": "bytes",
          "name": "",
          "type": "bytes"
        },
        {
          "internalType": "bytes",
          "name": "",
          "type": "bytes"
        }
      ],
      "name": "beforeAgreementUpdated",
      "outputs": [
        {
          "internalType": "bytes",
          "name": "",
          "type": "bytes"
        }
      ],
      "stateMutability": "view",
      "type": "function"
    },
    {
      "inputs": [
        {
          "internalType": "int96",
          "name": "flowRate",
          "type": "int96"
        },
        {
          "components": [
            {
              "internalType": "contract ISuperfluidToken",
              "name": "token",
              "type": "address"
            },
            {
              "internalType": "address",
              "name": "recipient",
              "type": "address"
            },
            {
              "internalType": "address",
              "name": "sender",
              "type": "address"
            },
            {
              "internalType": "string",
              "name": "description",
              "type": "string"
            },
            {
              "internalType": "string",
              "name": "logo",
              "type": "string"
            },
            {
              "internalType": "enum AgreementNFT.SUBSCRIPTION_TYPE",
              "name": "subscriptionType",
              "type": "uint8"
            },
            {
              "internalType": "uint256",
              "name": "createdAt",
              "type": "uint256"
            },
            {
              "internalType": "bool",
              "name": "isActive",
              "type": "bool"
            }
          ],
          "internalType": "struct AgreementNFT.PositionData",
          "name": "position",
          "type": "tuple"
        },
        {
          "internalType": "int256",
          "name": "senderBalance",
          "type": "int256"
        },
        {
          "internalType": "string",
          "name": "daysLeft",
          "type": "string"
        }
      ],
      "name": "generateSvg",
      "outputs": [
        {
          "internalType": "string",
          "name": "",
          "type": "string"
        }
      ],
      "stateMutability": "pure",
      "type": "function"
    },
    {
      "inputs": [
        {
          "internalType": "uint256",
          "name": "tokenId",
          "type": "uint256"
        }
      ],
      "name": "getApproved",
      "outputs": [
        {
          "internalType": "address",
          "name": "",
          "type": "address"
        }
      ],
      "stateMutability": "view",
      "type": "function"
    },
    {
      "inputs": [
        {
          "internalType": "address",
          "name": "owner",
          "type": "address"
        },
        {
          "internalType": "address",
          "name": "operator",
          "type": "address"
        }
      ],
      "name": "isApprovedForAll",
      "outputs": [
        {
          "internalType": "bool",
          "name": "",
          "type": "bool"
        }
      ],
      "stateMutability": "view",
      "type": "function"
    },
    {
      "inputs": [
        {
          "internalType": "address",
          "name": "sender",
          "type": "address"
        },
        {
          "internalType": "address",
          "name": "recipient",
          "type": "address"
        },
        {
          "internalType": "string",
          "name": "description",
          "type": "string"
        },
        {
          "internalType": "string",
          "name": "logo",
          "type": "string"
        },
        {
          "internalType": "enum AgreementNFT.SUBSCRIPTION_TYPE",
          "name": "subscriptionType",
          "type": "uint8"
        },
        {
          "internalType": "contract ISuperfluidToken",
          "name": "token",
          "type": "address"
        },
        {
          "internalType": "bytes",
          "name": "ctx",
          "type": "bytes"
        }
      ],
      "name": "mint",
      "outputs": [
        {
          "internalType": "bytes",
          "name": "",
          "type": "bytes"
        }
      ],
      "stateMutability": "nonpayable",
      "type": "function"
    },
    {
      "inputs": [],
      "name": "name",
      "outputs": [
        {
          "internalType": "string",
          "name": "",
          "type": "string"
        }
      ],
      "stateMutability": "view",
      "type": "function"
    },
    {
      "inputs": [
        {
          "internalType": "uint256",
          "name": "tokenId",
          "type": "uint256"
        }
      ],
      "name": "ownerOf",
      "outputs": [
        {
          "internalType": "address",
          "name": "",
          "type": "address"
        }
      ],
      "stateMutability": "view",
      "type": "function"
    },
    {
      "inputs": [
        {
          "internalType": "address",
          "name": "from",
          "type": "address"
        },
        {
          "internalType": "address",
          "name": "to",
          "type": "address"
        },
        {
          "internalType": "uint256",
          "name": "tokenId",
          "type": "uint256"
        }
      ],
      "name": "safeTransferFrom",
      "outputs": [],
      "stateMutability": "nonpayable",
      "type": "function"
    },
    {
      "inputs": [
        {
          "internalType": "address",
          "name": "from",
          "type": "address"
        },
        {
          "internalType": "address",
          "name": "to",
          "type": "address"
        },
        {
          "internalType": "uint256",
          "name": "tokenId",
          "type": "uint256"
        },
        {
          "internalType": "bytes",
          "name": "_data",
          "type": "bytes"
        }
      ],
      "name": "safeTransferFrom",
      "outputs": [],
      "stateMutability": "nonpayable",
      "type": "function"
    },
    {
      "inputs": [
        {
          "internalType": "address",
          "name": "operator",
          "type": "address"
        },
        {
          "internalType": "bool",
          "name": "approved",
          "type": "bool"
        }
      ],
      "name": "setApprovalForAll",
      "outputs": [],
      "stateMutability": "nonpayable",
      "type": "function"
    },
    {
      "inputs": [
        {
          "internalType": "bytes4",
          "name": "interfaceId",
          "type": "bytes4"
        }
      ],
      "name": "supportsInterface",
      "outputs": [
        {
          "internalType": "bool",
          "name": "",
          "type": "bool"
        }
      ],
      "stateMutability": "view",
      "type": "function"
    },
    {
      "inputs": [],
      "name": "symbol",
      "outputs": [
        {
          "internalType": "string",
          "name": "",
          "type": "string"
        }
      ],
      "stateMutability": "view",
      "type": "function"
    },
    {
      "inputs": [
        {
          "internalType": "uint256",
          "name": "tokenId",
          "type": "uint256"
        }
      ],
      "name": "tokenURI",
      "outputs": [
        {
          "internalType": "string",
          "name": "",
          "type": "string"
        }
      ],
      "stateMutability": "view",
      "type": "function"
    },
    {
      "inputs": [],
      "name": "totalSupply",
      "outputs": [
        {
          "internalType": "uint256",
          "name": "",
          "type": "uint256"
        }
      ],
      "stateMutability": "view",
      "type": "function"
    },
    {
      "inputs": [
        {
          "internalType": "address",
          "name": "from",
          "type": "address"
        },
        {
          "internalType": "address",
          "name": "to",
          "type": "address"
        },
        {
          "internalType": "uint256",
          "name": "tokenId",
          "type": "uint256"
        }
      ],
      "name": "transferFrom",
      "outputs": [],
      "stateMutability": "nonpayable",
      "type": "function"
    }
  ],
  "transactionHash": "0x853cb33443b521d1c4aec9b5fb0138d49bdf0e3106223b6e17e0cbb74472e5b8",
  "args": [
    "0xeD5B5b32110c3Ded02a07c8b8e97513FAfb883B6"
  ],
  "numDeployments": 6,
  "solcInputHash": "3df07526c0639f004c41647650078d8c",
  "bytecode": "0x608060405273f4c5310e51f6079f601a5fb7120bc72a70b96e2a600860006101000a81548173ffffffffffffffffffffffffffffffffffffffff021916908373ffffffffffffffffffffffffffffffffffffffff1602179055503480156200006657600080fd5b50604051620050783803806200507883398181016040528101906200008c91906200031c565b6040518060400160405280601181526020017f41677265656d656e74506f736974696f6e0000000000000000000000000000008152506040518060400160405280600381526020017f4147500000000000000000000000000000000000000000000000000000000000815250816002908051906020019062000110929190620001ee565b50806003908051906020019062000129929190620001ee565b506200013a620001e960201b60201c565b60008190555050506000642000000000641000000000640800000000640400000000640200000000640100000000600117171717171790508173ffffffffffffffffffffffffffffffffffffffff1663ad3915c8826040518263ffffffff1660e01b8152600401620001ad919062000369565b600060405180830381600087803b158015620001c857600080fd5b505af1158015620001dd573d6000803e3d6000fd5b505050505050620003ea565b600090565b828054620001fc90620003b5565b90600052602060002090601f0160209004810192826200022057600085556200026c565b82601f106200023b57805160ff19168380011785556200026c565b828001600101855582156200026c579182015b828111156200026b5782518255916020019190600101906200024e565b5b5090506200027b91906200027f565b5090565b5b808211156200029a57600081600090555060010162000280565b5090565b600080fd5b600073ffffffffffffffffffffffffffffffffffffffff82169050919050565b6000620002d082620002a3565b9050919050565b6000620002e482620002c3565b9050919050565b620002f681620002d7565b81146200030257600080fd5b50565b6000815190506200031681620002eb565b92915050565b6000602082840312156200033557620003346200029e565b5b6000620003458482850162000305565b91505092915050565b6000819050919050565b62000363816200034e565b82525050565b600060208201905062000380600083018462000358565b92915050565b7f4e487b7100000000000000000000000000000000000000000000000000000000600052602260045260246000fd5b60006002820490506001821680620003ce57607f821691505b602082108103620003e457620003e362000386565b5b50919050565b614c7e80620003fa6000396000f3fe608060405234801561001057600080fd5b506004361061014d5760003560e01c80636352211e116100c3578063b88d4fde1161007c578063b88d4fde146103ea578063c87b56dd14610406578063d86ed3e514610436578063dd4e919914610466578063dea4a47414610496578063e985e9c5146104c65761014d565b80636352211e1461030257806370a08231146103325780637db3a94614610362578063884d1f401461038057806395d89b41146103b0578063a22cb465146103ce5761014d565b8063230dbd2911610115578063230dbd291461020a57806323b872dd1461023a57806330d9c9151461025657806342842e0e1461028657806353c11f99146102a25780635f9e7d77146102d25761014d565b806301ffc9a71461015257806306fdde0314610182578063081812fc146101a0578063095ea7b3146101d057806318160ddd146101ec575b600080fd5b61016c60048036038101906101679190612bcb565b6104f6565b6040516101799190612c13565b60405180910390f35b61018a6105d8565b6040516101979190612cc7565b60405180910390f35b6101ba60048036038101906101b59190612d1f565b61066a565b6040516101c79190612d8d565b60405180910390f35b6101ea60048036038101906101e59190612dd4565b6106e6565b005b6101f46107f0565b6040516102019190612e23565b60405180910390f35b610224600480360381019061021f9190612f17565b610807565b604051610231919061305b565b60405180910390f35b610254600480360381019061024f919061307d565b610844565b005b610270600480360381019061026b91906130d0565b610854565b60405161027d919061305b565b60405180910390f35b6102a0600480360381019061029b919061307d565b610891565b005b6102bc60048036038101906102b79190612f17565b6108b1565b6040516102c9919061305b565b60405180910390f35b6102ec60048036038101906102e791906130d0565b6108ee565b6040516102f9919061305b565b60405180910390f35b61031c60048036038101906103179190612d1f565b61092b565b6040516103299190612d8d565b60405180910390f35b61034c6004803603810190610347919061318c565b610941565b6040516103599190612e23565b60405180910390f35b61036a610a10565b6040516103779190613218565b60405180910390f35b61039a600480360381019061039591906130d0565b610a36565b6040516103a7919061305b565b60405180910390f35b6103b8610a73565b6040516103c59190612cc7565b60405180910390f35b6103e860048036038101906103e3919061325f565b610b05565b005b61040460048036038101906103ff91906133cf565b610c7c565b005b610420600480360381019061041b9190612d1f565b610cf8565b60405161042d9190612cc7565b60405180910390f35b610450600480360381019061044b9190612f17565b611325565b60405161045d919061305b565b60405180910390f35b610480600480360381019061047b9190613556565b611362565b60405161048d919061305b565b60405180910390f35b6104b060048036038101906104ab91906137c7565b61159a565b6040516104bd9190612cc7565b60405180910390f35b6104e060048036038101906104db9190613866565b611669565b6040516104ed9190612c13565b60405180910390f35b60007f80ac58cd000000000000000000000000000000000000000000000000000000007bffffffffffffffffffffffffffffffffffffffffffffffffffffffff1916827bffffffffffffffffffffffffffffffffffffffffffffffffffffffff191614806105c157507f5b5e139f000000000000000000000000000000000000000000000000000000007bffffffffffffffffffffffffffffffffffffffffffffffffffffffff1916827bffffffffffffffffffffffffffffffffffffffffffffffffffffffff1916145b806105d157506105d0826116fd565b5b9050919050565b6060600280546105e7906138d5565b80601f0160208091040260200160405190810160405280929190818152602001828054610613906138d5565b80156106605780601f1061063557610100808354040283529160200191610660565b820191906000526020600020905b81548152906001019060200180831161064357829003601f168201915b5050505050905090565b600061067582611767565b6106ab576040517fcf4700e400000000000000000000000000000000000000000000000000000000815260040160405180910390fd5b6006600083815260200190815260200160002060009054906101000a900473ffffffffffffffffffffffffffffffffffffffff169050919050565b60006106f18261092b565b90508073ffffffffffffffffffffffffffffffffffffffff168373ffffffffffffffffffffffffffffffffffffffff1603610758576040517f943f7b8c00000000000000000000000000000000000000000000000000000000815260040160405180910390fd5b8073ffffffffffffffffffffffffffffffffffffffff166107776117b5565b73ffffffffffffffffffffffffffffffffffffffff16141580156107a957506107a7816107a26117b5565b611669565b155b156107e0576040517fcfb3b94200000000000000000000000000000000000000000000000000000000815260040160405180910390fd5b6107eb8383836117bd565b505050565b60006107fa61186f565b6001546000540303905090565b60606040517f08c379a000000000000000000000000000000000000000000000000000000000815260040161083b90613978565b60405180910390fd5b61084f838383611874565b505050565b60606040517f08c379a000000000000000000000000000000000000000000000000000000000815260040161088890613a0a565b60405180910390fd5b6108ac83838360405180602001604052806000815250610c7c565b505050565b60606040517f08c379a00000000000000000000000000000000000000000000000000000000081526004016108e590613a9c565b60405180910390fd5b60606040517f08c379a000000000000000000000000000000000000000000000000000000000815260040161092290613b2e565b60405180910390fd5b600061093682611d28565b600001519050919050565b60008073ffffffffffffffffffffffffffffffffffffffff168273ffffffffffffffffffffffffffffffffffffffff16036109a8576040517f8f4eb60400000000000000000000000000000000000000000000000000000000815260040160405180910390fd5b600560008373ffffffffffffffffffffffffffffffffffffffff1673ffffffffffffffffffffffffffffffffffffffff16815260200190815260200160002060000160009054906101000a900467ffffffffffffffff1667ffffffffffffffff169050919050565b600860009054906101000a900473ffffffffffffffffffffffffffffffffffffffff1681565b60606040517f08c379a0000000000000000000000000000000000000000000000000000000008152600401610a6a90613bc0565b60405180910390fd5b606060038054610a82906138d5565b80601f0160208091040260200160405190810160405280929190818152602001828054610aae906138d5565b8015610afb5780601f10610ad057610100808354040283529160200191610afb565b820191906000526020600020905b815481529060010190602001808311610ade57829003601f168201915b5050505050905090565b610b0d6117b5565b73ffffffffffffffffffffffffffffffffffffffff168273ffffffffffffffffffffffffffffffffffffffff1603610b71576040517fb06307db00000000000000000000000000000000000000000000000000000000815260040160405180910390fd5b8060076000610b7e6117b5565b73ffffffffffffffffffffffffffffffffffffffff1673ffffffffffffffffffffffffffffffffffffffff16815260200190815260200160002060008473ffffffffffffffffffffffffffffffffffffffff1673ffffffffffffffffffffffffffffffffffffffff16815260200190815260200160002060006101000a81548160ff0219169083151502179055508173ffffffffffffffffffffffffffffffffffffffff16610c2b6117b5565b73ffffffffffffffffffffffffffffffffffffffff167f17307eab39ab6107e8899845ad3d59bd9653f200f220920489ca2b5937696c3183604051610c709190612c13565b60405180910390a35050565b610c87848484611874565b610ca68373ffffffffffffffffffffffffffffffffffffffff16611fb7565b8015610cbb5750610cb984848484611fda565b155b15610cf2576040517fd1a57ed600000000000000000000000000000000000000000000000000000000815260040160405180910390fd5b50505050565b6060610d0382611767565b610d42576040517f08c379a0000000000000000000000000000000000000000000000000000000008152600401610d3990613c52565b60405180910390fd5b600060096000848152602001908152602001600020604051806101000160405290816000820160009054906101000a900473ffffffffffffffffffffffffffffffffffffffff1673ffffffffffffffffffffffffffffffffffffffff1673ffffffffffffffffffffffffffffffffffffffff1681526020016001820160009054906101000a900473ffffffffffffffffffffffffffffffffffffffff1673ffffffffffffffffffffffffffffffffffffffff1673ffffffffffffffffffffffffffffffffffffffff1681526020016002820160009054906101000a900473ffffffffffffffffffffffffffffffffffffffff1673ffffffffffffffffffffffffffffffffffffffff1673ffffffffffffffffffffffffffffffffffffffff168152602001600382018054610e75906138d5565b80601f0160208091040260200160405190810160405280929190818152602001828054610ea1906138d5565b8015610eee5780601f10610ec357610100808354040283529160200191610eee565b820191906000526020600020905b815481529060010190602001808311610ed157829003601f168201915b50505050508152602001600482018054610f07906138d5565b80601f0160208091040260200160405190810160405280929190818152602001828054610f33906138d5565b8015610f805780601f10610f5557610100808354040283529160200191610f80565b820191906000526020600020905b815481529060010190602001808311610f6357829003601f168201915b505050505081526020016005820160009054906101000a900460ff166001811115610fae57610fad613c72565b5b6001811115610fc057610fbf613c72565b5b8152602001600682015481526020016007820160009054906101000a900460ff16151515158152505090506000816000015173ffffffffffffffffffffffffffffffffffffffff16632ec8eec783604001516040518263ffffffff1660e01b815260040161102e9190612d8d565b608060405180830381865afa15801561104b573d6000803e3d6000fd5b505050506040513d601f19601f8201168201806040525081019061106f9190613ccb565b50505090506000806000600860009054906101000a900473ffffffffffffffffffffffffffffffffffffffff1673ffffffffffffffffffffffffffffffffffffffff1663e6a1e8888660000151876040015188602001516040518463ffffffff1660e01b81526004016110e493929190613d53565b608060405180830381865afa158015611101573d6000803e3d6000fd5b505050506040513d601f19601f820116820180604052508101906111259190613d9f565b9350935093505060606000600860009054906101000a900473ffffffffffffffffffffffffffffffffffffffff1673ffffffffffffffffffffffffffffffffffffffff1663e8e7e2d1886000015189604001516040518363ffffffff1660e01b8152600401611195929190613e06565b602060405180830381865afa1580156111b2573d6000803e3d6000fd5b505050506040513d601f19601f820116820180604052508101906111d69190613e2f565b9050600081600b0b12611220576040518060400160405280600881526020017f496e66696e697465000000000000000000000000000000000000000000000000815250915061128a565b60007fffffffffffffffffffffffffffffffffffffffffffffffffffffffffffffffff8261124e9190613e8b565b90506000816bffffffffffffffffffffffff168861126c9190613fa9565b905061128562015180826112809190613fa9565b61212a565b935050505b60006112a061129b878a8a8761159a565b6122b2565b905060006112b8878a8a8760008c600b0b141561242a565b90506112f66112c68c61212a565b8a606001518485856040516020016112e29594939291906142c2565b6040516020818303038152906040526122b2565b60405160200161130691906143d2565b6040516020818303038152906040529950505050505050505050919050565b60606040517f08c379a000000000000000000000000000000000000000000000000000000000815260040161135990614466565b60405180910390fd5b6060600061136e6107f0565b905061137b89600161250f565b6040518061010001604052808573ffffffffffffffffffffffffffffffffffffffff1681526020018973ffffffffffffffffffffffffffffffffffffffff1681526020018a73ffffffffffffffffffffffffffffffffffffffff1681526020018881526020018781526020018660018111156113fa576113f9613c72565b5b8152602001428152602001600115158152506009600083815260200190815260200160002060008201518160000160006101000a81548173ffffffffffffffffffffffffffffffffffffffff021916908373ffffffffffffffffffffffffffffffffffffffff16021790555060208201518160010160006101000a81548173ffffffffffffffffffffffffffffffffffffffff021916908373ffffffffffffffffffffffffffffffffffffffff16021790555060408201518160020160006101000a81548173ffffffffffffffffffffffffffffffffffffffff021916908373ffffffffffffffffffffffffffffffffffffffff1602179055506060820151816003019080519060200190611510929190612a79565b50608082015181600401908051906020019061152d929190612a79565b5060a08201518160050160006101000a81548160ff0219169083600181111561155957611558613c72565b5b021790555060c0820151816006015560e08201518160070160006101000a81548160ff02191690831515021790555090505082915050979650505050505050565b606073f221D1EA99E37666008BD42E6a6FDccD883E23Ba63746bb6e485606001516115c98760a001518961252d565b6115d68860a001516125e8565b6115f2670de0b6b3a7640000896115ed9190613fa9565b61212a565b878a608001516040518763ffffffff1660e01b8152600401611619969594939291906144d0565b600060405180830381865af4158015611636573d6000803e3d6000fd5b505050506040513d6000823e3d601f19601f8201168201806040525081019061165f91906145cb565b9050949350505050565b6000600760008473ffffffffffffffffffffffffffffffffffffffff1673ffffffffffffffffffffffffffffffffffffffff16815260200190815260200160002060008373ffffffffffffffffffffffffffffffffffffffff1673ffffffffffffffffffffffffffffffffffffffff16815260200190815260200160002060009054906101000a900460ff16905092915050565b60007f01ffc9a7000000000000000000000000000000000000000000000000000000007bffffffffffffffffffffffffffffffffffffffffffffffffffffffff1916827bffffffffffffffffffffffffffffffffffffffffffffffffffffffff1916149050919050565b60008161177261186f565b11158015611781575060005482105b80156117ae575060046000838152602001908152602001600020600001601c9054906101000a900460ff16155b9050919050565b600033905090565b826006600084815260200190815260200160002060006101000a81548173ffffffffffffffffffffffffffffffffffffffff021916908373ffffffffffffffffffffffffffffffffffffffff160217905550818373ffffffffffffffffffffffffffffffffffffffff168273ffffffffffffffffffffffffffffffffffffffff167f8c5be1e5ebec7d5bd14f71427d1e84f3dd0314c0f7b2291e5b200ac8c7c3b92560405160405180910390a4505050565b600090565b600061187f82611d28565b90508373ffffffffffffffffffffffffffffffffffffffff16816000015173ffffffffffffffffffffffffffffffffffffffff16146118ea576040517fa114810000000000000000000000000000000000000000000000000000000000815260040160405180910390fd5b60008473ffffffffffffffffffffffffffffffffffffffff1661190b6117b5565b73ffffffffffffffffffffffffffffffffffffffff16148061193a5750611939856119346117b5565b611669565b5b8061197f57506119486117b5565b73ffffffffffffffffffffffffffffffffffffffff166119678461066a565b73ffffffffffffffffffffffffffffffffffffffff16145b9050806119b8576040517f59c896be00000000000000000000000000000000000000000000000000000000815260040160405180910390fd5b600073ffffffffffffffffffffffffffffffffffffffff168473ffffffffffffffffffffffffffffffffffffffff1603611a1e576040517fea553b3400000000000000000000000000000000000000000000000000000000815260040160405180910390fd5b611a2b8585856001612691565b611a37600084876117bd565b6001600560008773ffffffffffffffffffffffffffffffffffffffff1673ffffffffffffffffffffffffffffffffffffffff16815260200190815260200160002060000160008282829054906101000a900467ffffffffffffffff160392506101000a81548167ffffffffffffffff021916908367ffffffffffffffff1602179055506001600560008673ffffffffffffffffffffffffffffffffffffffff1673ffffffffffffffffffffffffffffffffffffffff16815260200190815260200160002060000160008282829054906101000a900467ffffffffffffffff160192506101000a81548167ffffffffffffffff021916908367ffffffffffffffff1602179055506000600460008581526020019081526020016000209050848160000160006101000a81548173ffffffffffffffffffffffffffffffffffffffff021916908373ffffffffffffffffffffffffffffffffffffffff160217905550428160000160146101000a81548167ffffffffffffffff021916908367ffffffffffffffff16021790555060006001850190506000600460008381526020019081526020016000209050600073ffffffffffffffffffffffffffffffffffffffff168160000160009054906101000a900473ffffffffffffffffffffffffffffffffffffffff1673ffffffffffffffffffffffffffffffffffffffff1603611cb6576000548214611cb557878160000160006101000a81548173ffffffffffffffffffffffffffffffffffffffff021916908373ffffffffffffffffffffffffffffffffffffffff16021790555084602001518160000160146101000a81548167ffffffffffffffff021916908367ffffffffffffffff1602179055505b5b505050828473ffffffffffffffffffffffffffffffffffffffff168673ffffffffffffffffffffffffffffffffffffffff167fddf252ad1be2c89b69c2b068fc378daa952ba7f163c4a11628f55a4df523b3ef60405160405180910390a4611d218585856001612697565b5050505050565b611d30612aff565b600082905080611d3e61186f565b11158015611d4d575060005481105b15611f80576000600460008381526020019081526020016000206040518060600160405290816000820160009054906101000a900473ffffffffffffffffffffffffffffffffffffffff1673ffffffffffffffffffffffffffffffffffffffff1673ffffffffffffffffffffffffffffffffffffffff1681526020016000820160149054906101000a900467ffffffffffffffff1667ffffffffffffffff1667ffffffffffffffff16815260200160008201601c9054906101000a900460ff16151515158152505090508060400151611f7e57600073ffffffffffffffffffffffffffffffffffffffff16816000015173ffffffffffffffffffffffffffffffffffffffff1614611e62578092505050611fb2565b5b600115611f7d57818060019003925050600460008381526020019081526020016000206040518060600160405290816000820160009054906101000a900473ffffffffffffffffffffffffffffffffffffffff1673ffffffffffffffffffffffffffffffffffffffff1673ffffffffffffffffffffffffffffffffffffffff1681526020016000820160149054906101000a900467ffffffffffffffff1667ffffffffffffffff1667ffffffffffffffff16815260200160008201601c9054906101000a900460ff1615151515815250509050600073ffffffffffffffffffffffffffffffffffffffff16816000015173ffffffffffffffffffffffffffffffffffffffff1614611f78578092505050611fb2565b611e63565b5b505b6040517fdf2d9b4200000000000000000000000000000000000000000000000000000000815260040160405180910390fd5b919050565b6000808273ffffffffffffffffffffffffffffffffffffffff163b119050919050565b60008373ffffffffffffffffffffffffffffffffffffffff1663150b7a026120006117b5565b8786866040518563ffffffff1660e01b81526004016120229493929190614614565b6020604051808303816000875af192505050801561205e57506040513d601f19601f8201168201806040525081019061205b9190614675565b60015b6120d7573d806000811461208e576040519150601f19603f3d011682016040523d82523d6000602084013e612093565b606091505b5060008151036120cf576040517fd1a57ed600000000000000000000000000000000000000000000000000000000815260040160405180910390fd5b805181602001fd5b63150b7a0260e01b7bffffffffffffffffffffffffffffffffffffffffffffffffffffffff1916817bffffffffffffffffffffffffffffffffffffffffffffffffffffffff191614915050949350505050565b606060008203612171576040518060400160405280600181526020017f300000000000000000000000000000000000000000000000000000000000000081525090506122ad565b600082905060005b600082146121a357808061218c906146a2565b915050600a8261219c9190613fa9565b9150612179565b60008167ffffffffffffffff8111156121bf576121be6132a4565b5b6040519080825280601f01601f1916602001820160405280156121f15781602001600182028036833780820191505090505b50905060008290505b600086146122a55760018161220f91906146ea565b90506000600a80886122219190613fa9565b61222b919061471e565b8761223691906146ea565b60306122429190614785565b905060008160f81b9050808484815181106122605761225f6147bc565b5b60200101907effffffffffffffffffffffffffffffffffffffffffffffffffffffffffffff1916908160001a905350600a8861229c9190613fa9565b975050506121fa565b819450505050505b919050565b606060008251036122d457604051806020016040528060008152509050612425565b6000604051806060016040528060408152602001614c09604091399050600060036002855161230391906147eb565b61230d9190613fa9565b6004612319919061471e565b9050600060208261232a91906147eb565b67ffffffffffffffff811115612343576123426132a4565b5b6040519080825280601f01601f1916602001820160405280156123755781602001600182028036833780820191505090505b509050818152600183018586518101602084015b818310156123e4576003830192508251603f8160121c168501518253600182019150603f81600c1c168501518253600182019150603f8160061c168501518253600182019150603f8116850151825360018201915050612389565b6003895106600181146123fe576002811461240e57612419565b613d3d60f01b6002830352612419565b603d60f81b60018303525b50505050508093505050505b919050565b6060600061243b8660a001516125e8565b6124498760a001518961252d565b612465670de0b6b3a7640000886124609190613fa9565b61212a565b86866124a6576040518060400160405280600881526020017f696e6361746976650000000000000000000000000000000000000000000000008152506124dd565b6040518060400160405280600681526020017f61637469766500000000000000000000000000000000000000000000000000008152505b6040516020016124f1959493929190614b39565b60405160208183030381529060405290508091505095945050505050565b61252982826040518060200160405280600081525061269d565b5050565b60606000600181111561254357612542613c72565b5b83600181111561255657612555613c72565b5b036125a057600062278d00836bffffffffffffffffffffffff1661257a919061471e565b9050612598670de0b6b3a7640000826125939190613fa9565b61212a565b9150506125e2565b60006301e13380836bffffffffffffffffffffffff166125c0919061471e565b90506125de670de0b6b3a7640000826125d99190613fa9565b61212a565b9150505b92915050565b6060600060018111156125fe576125fd613c72565b5b82600181111561261157612610613c72565b5b03612653576040518060400160405280600581526020017f6d6f6e7468000000000000000000000000000000000000000000000000000000815250905061268c565b6040518060400160405280600481526020017f796561720000000000000000000000000000000000000000000000000000000081525090505b919050565b50505050565b50505050565b6126aa83838360016126af565b505050565b600080549050600073ffffffffffffffffffffffffffffffffffffffff168573ffffffffffffffffffffffffffffffffffffffff160361271b576040517f2e07630000000000000000000000000000000000000000000000000000000000815260040160405180910390fd5b60008403612755576040517fb562e8dd00000000000000000000000000000000000000000000000000000000815260040160405180910390fd5b6127626000868387612691565b83600560008773ffffffffffffffffffffffffffffffffffffffff1673ffffffffffffffffffffffffffffffffffffffff16815260200190815260200160002060000160008282829054906101000a900467ffffffffffffffff160192506101000a81548167ffffffffffffffff021916908367ffffffffffffffff16021790555083600560008773ffffffffffffffffffffffffffffffffffffffff1673ffffffffffffffffffffffffffffffffffffffff16815260200190815260200160002060000160088282829054906101000a900467ffffffffffffffff160192506101000a81548167ffffffffffffffff021916908367ffffffffffffffff160217905550846004600083815260200190815260200160002060000160006101000a81548173ffffffffffffffffffffffffffffffffffffffff021916908373ffffffffffffffffffffffffffffffffffffffff160217905550426004600083815260200190815260200160002060000160146101000a81548167ffffffffffffffff021916908367ffffffffffffffff16021790555060008190506000858201905083801561292c575061292b8773ffffffffffffffffffffffffffffffffffffffff16611fb7565b5b156129f1575b818773ffffffffffffffffffffffffffffffffffffffff16600073ffffffffffffffffffffffffffffffffffffffff167fddf252ad1be2c89b69c2b068fc378daa952ba7f163c4a11628f55a4df523b3ef60405160405180910390a46129a16000888480600101955088611fda565b6129d7576040517fd1a57ed600000000000000000000000000000000000000000000000000000000815260040160405180910390fd5b8082036129325782600054146129ec57600080fd5b612a5c565b5b818060010192508773ffffffffffffffffffffffffffffffffffffffff16600073ffffffffffffffffffffffffffffffffffffffff167fddf252ad1be2c89b69c2b068fc378daa952ba7f163c4a11628f55a4df523b3ef60405160405180910390a48082036129f2575b816000819055505050612a726000868387612697565b5050505050565b828054612a85906138d5565b90600052602060002090601f016020900481019282612aa75760008555612aee565b82601f10612ac057805160ff1916838001178555612aee565b82800160010185558215612aee579182015b82811115612aed578251825591602001919060010190612ad2565b5b509050612afb9190612b42565b5090565b6040518060600160405280600073ffffffffffffffffffffffffffffffffffffffff168152602001600067ffffffffffffffff1681526020016000151581525090565b5b80821115612b5b576000816000905550600101612b43565b5090565b6000604051905090565b600080fd5b600080fd5b60007fffffffff0000000000000000000000000000000000000000000000000000000082169050919050565b612ba881612b73565b8114612bb357600080fd5b50565b600081359050612bc581612b9f565b92915050565b600060208284031215612be157612be0612b69565b5b6000612bef84828501612bb6565b91505092915050565b60008115159050919050565b612c0d81612bf8565b82525050565b6000602082019050612c286000830184612c04565b92915050565b600081519050919050565b600082825260208201905092915050565b60005b83811015612c68578082015181840152602081019050612c4d565b83811115612c77576000848401525b50505050565b6000601f19601f8301169050919050565b6000612c9982612c2e565b612ca38185612c39565b9350612cb3818560208601612c4a565b612cbc81612c7d565b840191505092915050565b60006020820190508181036000830152612ce18184612c8e565b905092915050565b6000819050919050565b612cfc81612ce9565b8114612d0757600080fd5b50565b600081359050612d1981612cf3565b92915050565b600060208284031215612d3557612d34612b69565b5b6000612d4384828501612d0a565b91505092915050565b600073ffffffffffffffffffffffffffffffffffffffff82169050919050565b6000612d7782612d4c565b9050919050565b612d8781612d6c565b82525050565b6000602082019050612da26000830184612d7e565b92915050565b612db181612d6c565b8114612dbc57600080fd5b50565b600081359050612dce81612da8565b92915050565b60008060408385031215612deb57612dea612b69565b5b6000612df985828601612dbf565b9250506020612e0a85828601612d0a565b9150509250929050565b612e1d81612ce9565b82525050565b6000602082019050612e386000830184612e14565b92915050565b6000612e4982612d6c565b9050919050565b612e5981612e3e565b8114612e6457600080fd5b50565b600081359050612e7681612e50565b92915050565b6000819050919050565b612e8f81612e7c565b8114612e9a57600080fd5b50565b600081359050612eac81612e86565b92915050565b600080fd5b600080fd5b600080fd5b60008083601f840112612ed757612ed6612eb2565b5b8235905067ffffffffffffffff811115612ef457612ef3612eb7565b5b602083019150836001820283011115612f1057612f0f612ebc565b5b9250929050565b600080600080600080600080600060c08a8c031215612f3957612f38612b69565b5b6000612f478c828d01612e67565b9950506020612f588c828d01612dbf565b9850506040612f698c828d01612e9d565b97505060608a013567ffffffffffffffff811115612f8a57612f89612b6e565b5b612f968c828d01612ec1565b965096505060808a013567ffffffffffffffff811115612fb957612fb8612b6e565b5b612fc58c828d01612ec1565b945094505060a08a013567ffffffffffffffff811115612fe857612fe7612b6e565b5b612ff48c828d01612ec1565b92509250509295985092959850929598565b600081519050919050565b600082825260208201905092915050565b600061302d82613006565b6130378185613011565b9350613047818560208601612c4a565b61305081612c7d565b840191505092915050565b600060208201905081810360008301526130758184613022565b905092915050565b60008060006060848603121561309657613095612b69565b5b60006130a486828701612dbf565b93505060206130b586828701612dbf565b92505060406130c686828701612d0a565b9150509250925092565b600080600080600080600060a0888a0312156130ef576130ee612b69565b5b60006130fd8a828b01612e67565b975050602061310e8a828b01612dbf565b965050604061311f8a828b01612e9d565b955050606088013567ffffffffffffffff8111156131405761313f612b6e565b5b61314c8a828b01612ec1565b9450945050608088013567ffffffffffffffff81111561316f5761316e612b6e565b5b61317b8a828b01612ec1565b925092505092959891949750929550565b6000602082840312156131a2576131a1612b69565b5b60006131b084828501612dbf565b91505092915050565b6000819050919050565b60006131de6131d96131d484612d4c565b6131b9565b612d4c565b9050919050565b60006131f0826131c3565b9050919050565b6000613202826131e5565b9050919050565b613212816131f7565b82525050565b600060208201905061322d6000830184613209565b92915050565b61323c81612bf8565b811461324757600080fd5b50565b60008135905061325981613233565b92915050565b6000806040838503121561327657613275612b69565b5b600061328485828601612dbf565b92505060206132958582860161324a565b9150509250929050565b600080fd5b7f4e487b7100000000000000000000000000000000000000000000000000000000600052604160045260246000fd5b6132dc82612c7d565b810181811067ffffffffffffffff821117156132fb576132fa6132a4565b5b80604052505050565b600061330e612b5f565b905061331a82826132d3565b919050565b600067ffffffffffffffff82111561333a576133396132a4565b5b61334382612c7d565b9050602081019050919050565b82818337600083830152505050565b600061337261336d8461331f565b613304565b90508281526020810184848401111561338e5761338d61329f565b5b613399848285613350565b509392505050565b600082601f8301126133b6576133b5612eb2565b5b81356133c684826020860161335f565b91505092915050565b600080600080608085870312156133e9576133e8612b69565b5b60006133f787828801612dbf565b945050602061340887828801612dbf565b935050604061341987828801612d0a565b925050606085013567ffffffffffffffff81111561343a57613439612b6e565b5b613446878288016133a1565b91505092959194509250565b600067ffffffffffffffff82111561346d5761346c6132a4565b5b61347682612c7d565b9050602081019050919050565b600061349661349184613452565b613304565b9050828152602081018484840111156134b2576134b161329f565b5b6134bd848285613350565b509392505050565b600082601f8301126134da576134d9612eb2565b5b81356134ea848260208601613483565b91505092915050565b6002811061350057600080fd5b50565b600081359050613512816134f3565b92915050565b600061352382612d6c565b9050919050565b61353381613518565b811461353e57600080fd5b50565b6000813590506135508161352a565b92915050565b600080600080600080600060e0888a03121561357557613574612b69565b5b60006135838a828b01612dbf565b97505060206135948a828b01612dbf565b965050604088013567ffffffffffffffff8111156135b5576135b4612b6e565b5b6135c18a828b016134c5565b955050606088013567ffffffffffffffff8111156135e2576135e1612b6e565b5b6135ee8a828b016134c5565b94505060806135ff8a828b01613503565b93505060a06136108a828b01613541565b92505060c088013567ffffffffffffffff81111561363157613630612b6e565b5b61363d8a828b016133a1565b91505092959891949750929550565b600081600b0b9050919050565b6136628161364c565b811461366d57600080fd5b50565b60008135905061367f81613659565b92915050565b600080fd5b600080fd5b600061010082840312156136a6576136a5613685565b5b6136b1610100613304565b905060006136c184828501613541565b60008301525060206136d584828501612dbf565b60208301525060406136e984828501612dbf565b604083015250606082013567ffffffffffffffff81111561370d5761370c61368a565b5b613719848285016134c5565b606083015250608082013567ffffffffffffffff81111561373d5761373c61368a565b5b613749848285016134c5565b60808301525060a061375d84828501613503565b60a08301525060c061377184828501612d0a565b60c08301525060e06137858482850161324a565b60e08301525092915050565b6000819050919050565b6137a481613791565b81146137af57600080fd5b50565b6000813590506137c18161379b565b92915050565b600080600080608085870312156137e1576137e0612b69565b5b60006137ef87828801613670565b945050602085013567ffffffffffffffff8111156138105761380f612b6e565b5b61381c8782880161368f565b935050604061382d878288016137b2565b925050606085013567ffffffffffffffff81111561384e5761384d612b6e565b5b61385a878288016134c5565b91505092959194509250565b6000806040838503121561387d5761387c612b69565b5b600061388b85828601612dbf565b925050602061389c85828601612dbf565b9150509250929050565b7f4e487b7100000000000000000000000000000000000000000000000000000000600052602260045260246000fd5b600060028204905060018216806138ed57607f821691505b602082108103613900576138ff6138a6565b5b50919050565b7f556e737570706f727465642063616c6c6261636b202d2041667465722041677260008201527f65656d656e742055706461746564000000000000000000000000000000000000602082015250565b6000613962602e83612c39565b915061396d82613906565b604082019050919050565b6000602082019050818103600083015261399181613955565b9050919050565b7f556e737570706f727465642063616c6c6261636b202d204265666f726520416760008201527f7265656d656e7420437265617465640000000000000000000000000000000000602082015250565b60006139f4602f83612c39565b91506139ff82613998565b604082019050919050565b60006020820190508181036000830152613a23816139e7565b9050919050565b7f556e737570706f727465642063616c6c6261636b202d2041667465722041677260008201527f65656d656e74205465726d696e61746564000000000000000000000000000000602082015250565b6000613a86603183612c39565b9150613a9182613a2a565b604082019050919050565b60006020820190508181036000830152613ab581613a79565b9050919050565b7f556e737570706f727465642063616c6c6261636b202d20204265666f7265204160008201527f677265656d656e74205465726d696e6174656400000000000000000000000000602082015250565b6000613b18603383612c39565b9150613b2382613abc565b604082019050919050565b60006020820190508181036000830152613b4781613b0b565b9050919050565b7f556e737570706f727465642063616c6c6261636b202d204265666f726520416760008201527f7265656d656e7420757064617465640000000000000000000000000000000000602082015250565b6000613baa602f83612c39565b9150613bb582613b4e565b604082019050919050565b60006020820190508181036000830152613bd981613b9d565b9050919050565b7f41677265656d656e74506f736974696f6e3a20506f73736974696f6e20646f6560008201527f73206e6f74206578697374000000000000000000000000000000000000000000602082015250565b6000613c3c602b83612c39565b9150613c4782613be0565b604082019050919050565b60006020820190508181036000830152613c6b81613c2f565b9050919050565b7f4e487b7100000000000000000000000000000000000000000000000000000000600052602160045260246000fd5b600081519050613cb08161379b565b92915050565b600081519050613cc581612cf3565b92915050565b60008060008060808587031215613ce557613ce4612b69565b5b6000613cf387828801613ca1565b9450506020613d0487828801613cb6565b9350506040613d1587828801613cb6565b9250506060613d2687828801613cb6565b91505092959194509250565b6000613d3d826131e5565b9050919050565b613d4d81613d32565b82525050565b6000606082019050613d686000830186613d44565b613d756020830185612d7e565b613d826040830184612d7e565b949350505050565b600081519050613d9981613659565b92915050565b60008060008060808587031215613db957613db8612b69565b5b6000613dc787828801613cb6565b9450506020613dd887828801613d8a565b9350506040613de987828801613cb6565b9250506060613dfa87828801613cb6565b91505092959194509250565b6000604082019050613e1b6000830185613d44565b613e286020830184612d7e565b9392505050565b600060208284031215613e4557613e44612b69565b5b6000613e5384828501613d8a565b91505092915050565b7f4e487b7100000000000000000000000000000000000000000000000000000000600052601160045260246000fd5b6000613e968261364c565b9150613ea18361364c565b9250826b7fffffffffffffffffffffff0482116000841360008413161615613ecc57613ecb613e5c565b5b817fffffffffffffffffffffffffffffffffffffffff8000000000000000000000000583126000841260008413161615613f0957613f08613e5c565b5b827fffffffffffffffffffffffffffffffffffffffff8000000000000000000000000582126000841360008412161615613f4657613f45613e5c565b5b826b7fffffffffffffffffffffff0582126000841260008412161615613f6f57613f6e613e5c565b5b828202905092915050565b7f4e487b7100000000000000000000000000000000000000000000000000000000600052601260045260246000fd5b6000613fb482612ce9565b9150613fbf83612ce9565b925082613fcf57613fce613f7a565b5b828204905092915050565b600081905092915050565b7f7b00000000000000000000000000000000000000000000000000000000000000600082015250565b600061401b600183613fda565b915061402682613fe5565b600182019050919050565b7f226e616d65223a2241677265656d656e74506f736974696f6e20230000000000600082015250565b6000614067601b83613fda565b915061407282614031565b601b82019050919050565b600061408882612c2e565b6140928185613fda565b93506140a2818560208601612c4a565b80840191505092915050565b7f222c000000000000000000000000000000000000000000000000000000000000600082015250565b60006140e4600283613fda565b91506140ef826140ae565b600282019050919050565b7f226465736372697074696f6e223a220000000000000000000000000000000000600082015250565b6000614130600f83613fda565b915061413b826140fa565b600f82019050919050565b7f22696d6167655f64617461223a2022646174613a696d6167652f7376672b786d60008201527f6c3b6261736536342c0000000000000000000000000000000000000000000000602082015250565b60006141a2602983613fda565b91506141ad82614146565b602982019050919050565b7f22616e696d6174696f6e5f75726c223a2022646174613a696d6167652f73766760008201527f2b786d6c3b6261736536342c0000000000000000000000000000000000000000602082015250565b6000614214602c83613fda565b915061421f826141b8565b602c82019050919050565b7f2261747472696275746573223a20000000000000000000000000000000000000600082015250565b6000614260600e83613fda565b915061426b8261422a565b600e82019050919050565b7f7d00000000000000000000000000000000000000000000000000000000000000600082015250565b60006142ac600183613fda565b91506142b782614276565b600182019050919050565b60006142cd8261400e565b91506142d88261405a565b91506142e4828861407d565b91506142ef826140d7565b91506142fa82614123565b9150614306828761407d565b9150614311826140d7565b915061431c82614195565b9150614328828661407d565b9150614333826140d7565b915061433e82614207565b915061434a828561407d565b9150614355826140d7565b915061436082614253565b915061436c828461407d565b91506143778261429f565b91508190509695505050505050565b7f646174613a6170706c69636174696f6e2f6a736f6e3b6261736536342c000000600082015250565b60006143bc601d83613fda565b91506143c782614386565b601d82019050919050565b60006143dd826143af565b91506143e9828461407d565b915081905092915050565b7f556e737570706f727465642063616c6c6261636b202d2041667465722041677260008201527f65656d656e742043726561746564000000000000000000000000000000000000602082015250565b6000614450602e83612c39565b915061445b826143f4565b604082019050919050565b6000602082019050818103600083015261447f81614443565b9050919050565b600082825260208201905092915050565b60006144a282612c2e565b6144ac8185614486565b93506144bc818560208601612c4a565b6144c581612c7d565b840191505092915050565b600060c08201905081810360008301526144ea8189614497565b905081810360208301526144fe8188614497565b905081810360408301526145128187614497565b905081810360608301526145268186614497565b9050818103608083015261453a8185614497565b905081810360a083015261454e8184614497565b9050979650505050505050565b600061456e61456984613452565b613304565b90508281526020810184848401111561458a5761458961329f565b5b614595848285612c4a565b509392505050565b600082601f8301126145b2576145b1612eb2565b5b81516145c284826020860161455b565b91505092915050565b6000602082840312156145e1576145e0612b69565b5b600082015167ffffffffffffffff8111156145ff576145fe612b6e565b5b61460b8482850161459d565b91505092915050565b60006080820190506146296000830187612d7e565b6146366020830186612d7e565b6146436040830185612e14565b81810360608301526146558184613022565b905095945050505050565b60008151905061466f81612b9f565b92915050565b60006020828403121561468b5761468a612b69565b5b600061469984828501614660565b91505092915050565b60006146ad82612ce9565b91507fffffffffffffffffffffffffffffffffffffffffffffffffffffffffffffffff82036146df576146de613e5c565b5b600182019050919050565b60006146f582612ce9565b915061470083612ce9565b92508282101561471357614712613e5c565b5b828203905092915050565b600061472982612ce9565b915061473483612ce9565b9250817fffffffffffffffffffffffffffffffffffffffffffffffffffffffffffffffff048311821515161561476d5761476c613e5c565b5b828202905092915050565b600060ff82169050919050565b600061479082614778565b915061479b83614778565b92508260ff038211156147b1576147b0613e5c565b5b828201905092915050565b7f4e487b7100000000000000000000000000000000000000000000000000000000600052603260045260246000fd5b60006147f682612ce9565b915061480183612ce9565b9250827fffffffffffffffffffffffffffffffffffffffffffffffffffffffffffffffff0382111561483657614835613e5c565b5b828201905092915050565b7f5b00000000000000000000000000000000000000000000000000000000000000600082015250565b6000614877600183613fda565b915061488282614841565b600182019050919050565b7f7b2274726169745f74797065223a22696e74657276616c222c2276616c75652260008201527f3a22000000000000000000000000000000000000000000000000000000000000602082015250565b60006148e9602283613fda565b91506148f48261488d565b602282019050919050565b7f227d2c0000000000000000000000000000000000000000000000000000000000600082015250565b6000614935600383613fda565b9150614940826148ff565b600382019050919050565b7f7b2274726169745f74797065223a2272617465222c2276616c7565223a220000600082015250565b6000614981601e83613fda565b915061498c8261494b565b601e82019050919050565b7f7b2274726169745f74797065223a22637265646974222c2276616c7565223a22600082015250565b60006149cd602083613fda565b91506149d882614997565b602082019050919050565b7f7b2274726169745f74797065223a2264617973206c656674222c2276616c756560008201527f223a220000000000000000000000000000000000000000000000000000000000602082015250565b6000614a3f602383613fda565b9150614a4a826149e3565b602382019050919050565b7f7b2274726169745f74797065223a22737461747573222c2276616c7565223a22600082015250565b6000614a8b602083613fda565b9150614a9682614a55565b602082019050919050565b7f227d000000000000000000000000000000000000000000000000000000000000600082015250565b6000614ad7600283613fda565b9150614ae282614aa1565b600282019050919050565b7f5d00000000000000000000000000000000000000000000000000000000000000600082015250565b6000614b23600183613fda565b9150614b2e82614aed565b600182019050919050565b6000614b448261486a565b9150614b4f826148dc565b9150614b5b828861407d565b9150614b6682614928565b9150614b7182614974565b9150614b7d828761407d565b9150614b8882614928565b9150614b93826149c0565b9150614b9f828661407d565b9150614baa82614928565b9150614bb582614a32565b9150614bc1828561407d565b9150614bcc82614928565b9150614bd782614a7e565b9150614be3828461407d565b9150614bee82614aca565b9150614bf982614b16565b9150819050969550505050505056fe4142434445464748494a4b4c4d4e4f505152535455565758595a6162636465666768696a6b6c6d6e6f707172737475767778797a303132333435363738392b2fa264697066735822122024b16385e2dec321b4be2b729a3f565b6ed0880a632f84c71c1ebedc5a3b184a64736f6c634300080d0033",
  "deployedBytecode": "0x608060405234801561001057600080fd5b506004361061014d5760003560e01c80636352211e116100c3578063b88d4fde1161007c578063b88d4fde146103ea578063c87b56dd14610406578063d86ed3e514610436578063dd4e919914610466578063dea4a47414610496578063e985e9c5146104c65761014d565b80636352211e1461030257806370a08231146103325780637db3a94614610362578063884d1f401461038057806395d89b41146103b0578063a22cb465146103ce5761014d565b8063230dbd2911610115578063230dbd291461020a57806323b872dd1461023a57806330d9c9151461025657806342842e0e1461028657806353c11f99146102a25780635f9e7d77146102d25761014d565b806301ffc9a71461015257806306fdde0314610182578063081812fc146101a0578063095ea7b3146101d057806318160ddd146101ec575b600080fd5b61016c60048036038101906101679190612bcb565b6104f6565b6040516101799190612c13565b60405180910390f35b61018a6105d8565b6040516101979190612cc7565b60405180910390f35b6101ba60048036038101906101b59190612d1f565b61066a565b6040516101c79190612d8d565b60405180910390f35b6101ea60048036038101906101e59190612dd4565b6106e6565b005b6101f46107f0565b6040516102019190612e23565b60405180910390f35b610224600480360381019061021f9190612f17565b610807565b604051610231919061305b565b60405180910390f35b610254600480360381019061024f919061307d565b610844565b005b610270600480360381019061026b91906130d0565b610854565b60405161027d919061305b565b60405180910390f35b6102a0600480360381019061029b919061307d565b610891565b005b6102bc60048036038101906102b79190612f17565b6108b1565b6040516102c9919061305b565b60405180910390f35b6102ec60048036038101906102e791906130d0565b6108ee565b6040516102f9919061305b565b60405180910390f35b61031c60048036038101906103179190612d1f565b61092b565b6040516103299190612d8d565b60405180910390f35b61034c6004803603810190610347919061318c565b610941565b6040516103599190612e23565b60405180910390f35b61036a610a10565b6040516103779190613218565b60405180910390f35b61039a600480360381019061039591906130d0565b610a36565b6040516103a7919061305b565b60405180910390f35b6103b8610a73565b6040516103c59190612cc7565b60405180910390f35b6103e860048036038101906103e3919061325f565b610b05565b005b61040460048036038101906103ff91906133cf565b610c7c565b005b610420600480360381019061041b9190612d1f565b610cf8565b60405161042d9190612cc7565b60405180910390f35b610450600480360381019061044b9190612f17565b611325565b60405161045d919061305b565b60405180910390f35b610480600480360381019061047b9190613556565b611362565b60405161048d919061305b565b60405180910390f35b6104b060048036038101906104ab91906137c7565b61159a565b6040516104bd9190612cc7565b60405180910390f35b6104e060048036038101906104db9190613866565b611669565b6040516104ed9190612c13565b60405180910390f35b60007f80ac58cd000000000000000000000000000000000000000000000000000000007bffffffffffffffffffffffffffffffffffffffffffffffffffffffff1916827bffffffffffffffffffffffffffffffffffffffffffffffffffffffff191614806105c157507f5b5e139f000000000000000000000000000000000000000000000000000000007bffffffffffffffffffffffffffffffffffffffffffffffffffffffff1916827bffffffffffffffffffffffffffffffffffffffffffffffffffffffff1916145b806105d157506105d0826116fd565b5b9050919050565b6060600280546105e7906138d5565b80601f0160208091040260200160405190810160405280929190818152602001828054610613906138d5565b80156106605780601f1061063557610100808354040283529160200191610660565b820191906000526020600020905b81548152906001019060200180831161064357829003601f168201915b5050505050905090565b600061067582611767565b6106ab576040517fcf4700e400000000000000000000000000000000000000000000000000000000815260040160405180910390fd5b6006600083815260200190815260200160002060009054906101000a900473ffffffffffffffffffffffffffffffffffffffff169050919050565b60006106f18261092b565b90508073ffffffffffffffffffffffffffffffffffffffff168373ffffffffffffffffffffffffffffffffffffffff1603610758576040517f943f7b8c00000000000000000000000000000000000000000000000000000000815260040160405180910390fd5b8073ffffffffffffffffffffffffffffffffffffffff166107776117b5565b73ffffffffffffffffffffffffffffffffffffffff16141580156107a957506107a7816107a26117b5565b611669565b155b156107e0576040517fcfb3b94200000000000000000000000000000000000000000000000000000000815260040160405180910390fd5b6107eb8383836117bd565b505050565b60006107fa61186f565b6001546000540303905090565b60606040517f08c379a000000000000000000000000000000000000000000000000000000000815260040161083b90613978565b60405180910390fd5b61084f838383611874565b505050565b60606040517f08c379a000000000000000000000000000000000000000000000000000000000815260040161088890613a0a565b60405180910390fd5b6108ac83838360405180602001604052806000815250610c7c565b505050565b60606040517f08c379a00000000000000000000000000000000000000000000000000000000081526004016108e590613a9c565b60405180910390fd5b60606040517f08c379a000000000000000000000000000000000000000000000000000000000815260040161092290613b2e565b60405180910390fd5b600061093682611d28565b600001519050919050565b60008073ffffffffffffffffffffffffffffffffffffffff168273ffffffffffffffffffffffffffffffffffffffff16036109a8576040517f8f4eb60400000000000000000000000000000000000000000000000000000000815260040160405180910390fd5b600560008373ffffffffffffffffffffffffffffffffffffffff1673ffffffffffffffffffffffffffffffffffffffff16815260200190815260200160002060000160009054906101000a900467ffffffffffffffff1667ffffffffffffffff169050919050565b600860009054906101000a900473ffffffffffffffffffffffffffffffffffffffff1681565b60606040517f08c379a0000000000000000000000000000000000000000000000000000000008152600401610a6a90613bc0565b60405180910390fd5b606060038054610a82906138d5565b80601f0160208091040260200160405190810160405280929190818152602001828054610aae906138d5565b8015610afb5780601f10610ad057610100808354040283529160200191610afb565b820191906000526020600020905b815481529060010190602001808311610ade57829003601f168201915b5050505050905090565b610b0d6117b5565b73ffffffffffffffffffffffffffffffffffffffff168273ffffffffffffffffffffffffffffffffffffffff1603610b71576040517fb06307db00000000000000000000000000000000000000000000000000000000815260040160405180910390fd5b8060076000610b7e6117b5565b73ffffffffffffffffffffffffffffffffffffffff1673ffffffffffffffffffffffffffffffffffffffff16815260200190815260200160002060008473ffffffffffffffffffffffffffffffffffffffff1673ffffffffffffffffffffffffffffffffffffffff16815260200190815260200160002060006101000a81548160ff0219169083151502179055508173ffffffffffffffffffffffffffffffffffffffff16610c2b6117b5565b73ffffffffffffffffffffffffffffffffffffffff167f17307eab39ab6107e8899845ad3d59bd9653f200f220920489ca2b5937696c3183604051610c709190612c13565b60405180910390a35050565b610c87848484611874565b610ca68373ffffffffffffffffffffffffffffffffffffffff16611fb7565b8015610cbb5750610cb984848484611fda565b155b15610cf2576040517fd1a57ed600000000000000000000000000000000000000000000000000000000815260040160405180910390fd5b50505050565b6060610d0382611767565b610d42576040517f08c379a0000000000000000000000000000000000000000000000000000000008152600401610d3990613c52565b60405180910390fd5b600060096000848152602001908152602001600020604051806101000160405290816000820160009054906101000a900473ffffffffffffffffffffffffffffffffffffffff1673ffffffffffffffffffffffffffffffffffffffff1673ffffffffffffffffffffffffffffffffffffffff1681526020016001820160009054906101000a900473ffffffffffffffffffffffffffffffffffffffff1673ffffffffffffffffffffffffffffffffffffffff1673ffffffffffffffffffffffffffffffffffffffff1681526020016002820160009054906101000a900473ffffffffffffffffffffffffffffffffffffffff1673ffffffffffffffffffffffffffffffffffffffff1673ffffffffffffffffffffffffffffffffffffffff168152602001600382018054610e75906138d5565b80601f0160208091040260200160405190810160405280929190818152602001828054610ea1906138d5565b8015610eee5780601f10610ec357610100808354040283529160200191610eee565b820191906000526020600020905b815481529060010190602001808311610ed157829003601f168201915b50505050508152602001600482018054610f07906138d5565b80601f0160208091040260200160405190810160405280929190818152602001828054610f33906138d5565b8015610f805780601f10610f5557610100808354040283529160200191610f80565b820191906000526020600020905b815481529060010190602001808311610f6357829003601f168201915b505050505081526020016005820160009054906101000a900460ff166001811115610fae57610fad613c72565b5b6001811115610fc057610fbf613c72565b5b8152602001600682015481526020016007820160009054906101000a900460ff16151515158152505090506000816000015173ffffffffffffffffffffffffffffffffffffffff16632ec8eec783604001516040518263ffffffff1660e01b815260040161102e9190612d8d565b608060405180830381865afa15801561104b573d6000803e3d6000fd5b505050506040513d601f19601f8201168201806040525081019061106f9190613ccb565b50505090506000806000600860009054906101000a900473ffffffffffffffffffffffffffffffffffffffff1673ffffffffffffffffffffffffffffffffffffffff1663e6a1e8888660000151876040015188602001516040518463ffffffff1660e01b81526004016110e493929190613d53565b608060405180830381865afa158015611101573d6000803e3d6000fd5b505050506040513d601f19601f820116820180604052508101906111259190613d9f565b9350935093505060606000600860009054906101000a900473ffffffffffffffffffffffffffffffffffffffff1673ffffffffffffffffffffffffffffffffffffffff1663e8e7e2d1886000015189604001516040518363ffffffff1660e01b8152600401611195929190613e06565b602060405180830381865afa1580156111b2573d6000803e3d6000fd5b505050506040513d601f19601f820116820180604052508101906111d69190613e2f565b9050600081600b0b12611220576040518060400160405280600881526020017f496e66696e697465000000000000000000000000000000000000000000000000815250915061128a565b60007fffffffffffffffffffffffffffffffffffffffffffffffffffffffffffffffff8261124e9190613e8b565b90506000816bffffffffffffffffffffffff168861126c9190613fa9565b905061128562015180826112809190613fa9565b61212a565b935050505b60006112a061129b878a8a8761159a565b6122b2565b905060006112b8878a8a8760008c600b0b141561242a565b90506112f66112c68c61212a565b8a606001518485856040516020016112e29594939291906142c2565b6040516020818303038152906040526122b2565b60405160200161130691906143d2565b6040516020818303038152906040529950505050505050505050919050565b60606040517f08c379a000000000000000000000000000000000000000000000000000000000815260040161135990614466565b60405180910390fd5b6060600061136e6107f0565b905061137b89600161250f565b6040518061010001604052808573ffffffffffffffffffffffffffffffffffffffff1681526020018973ffffffffffffffffffffffffffffffffffffffff1681526020018a73ffffffffffffffffffffffffffffffffffffffff1681526020018881526020018781526020018660018111156113fa576113f9613c72565b5b8152602001428152602001600115158152506009600083815260200190815260200160002060008201518160000160006101000a81548173ffffffffffffffffffffffffffffffffffffffff021916908373ffffffffffffffffffffffffffffffffffffffff16021790555060208201518160010160006101000a81548173ffffffffffffffffffffffffffffffffffffffff021916908373ffffffffffffffffffffffffffffffffffffffff16021790555060408201518160020160006101000a81548173ffffffffffffffffffffffffffffffffffffffff021916908373ffffffffffffffffffffffffffffffffffffffff1602179055506060820151816003019080519060200190611510929190612a79565b50608082015181600401908051906020019061152d929190612a79565b5060a08201518160050160006101000a81548160ff0219169083600181111561155957611558613c72565b5b021790555060c0820151816006015560e08201518160070160006101000a81548160ff02191690831515021790555090505082915050979650505050505050565b606073__$ad5092d2d81381a97940758c959052a4e8$__63746bb6e485606001516115c98760a001518961252d565b6115d68860a001516125e8565b6115f2670de0b6b3a7640000896115ed9190613fa9565b61212a565b878a608001516040518763ffffffff1660e01b8152600401611619969594939291906144d0565b600060405180830381865af4158015611636573d6000803e3d6000fd5b505050506040513d6000823e3d601f19601f8201168201806040525081019061165f91906145cb565b9050949350505050565b6000600760008473ffffffffffffffffffffffffffffffffffffffff1673ffffffffffffffffffffffffffffffffffffffff16815260200190815260200160002060008373ffffffffffffffffffffffffffffffffffffffff1673ffffffffffffffffffffffffffffffffffffffff16815260200190815260200160002060009054906101000a900460ff16905092915050565b60007f01ffc9a7000000000000000000000000000000000000000000000000000000007bffffffffffffffffffffffffffffffffffffffffffffffffffffffff1916827bffffffffffffffffffffffffffffffffffffffffffffffffffffffff1916149050919050565b60008161177261186f565b11158015611781575060005482105b80156117ae575060046000838152602001908152602001600020600001601c9054906101000a900460ff16155b9050919050565b600033905090565b826006600084815260200190815260200160002060006101000a81548173ffffffffffffffffffffffffffffffffffffffff021916908373ffffffffffffffffffffffffffffffffffffffff160217905550818373ffffffffffffffffffffffffffffffffffffffff168273ffffffffffffffffffffffffffffffffffffffff167f8c5be1e5ebec7d5bd14f71427d1e84f3dd0314c0f7b2291e5b200ac8c7c3b92560405160405180910390a4505050565b600090565b600061187f82611d28565b90508373ffffffffffffffffffffffffffffffffffffffff16816000015173ffffffffffffffffffffffffffffffffffffffff16146118ea576040517fa114810000000000000000000000000000000000000000000000000000000000815260040160405180910390fd5b60008473ffffffffffffffffffffffffffffffffffffffff1661190b6117b5565b73ffffffffffffffffffffffffffffffffffffffff16148061193a5750611939856119346117b5565b611669565b5b8061197f57506119486117b5565b73ffffffffffffffffffffffffffffffffffffffff166119678461066a565b73ffffffffffffffffffffffffffffffffffffffff16145b9050806119b8576040517f59c896be00000000000000000000000000000000000000000000000000000000815260040160405180910390fd5b600073ffffffffffffffffffffffffffffffffffffffff168473ffffffffffffffffffffffffffffffffffffffff1603611a1e576040517fea553b3400000000000000000000000000000000000000000000000000000000815260040160405180910390fd5b611a2b8585856001612691565b611a37600084876117bd565b6001600560008773ffffffffffffffffffffffffffffffffffffffff1673ffffffffffffffffffffffffffffffffffffffff16815260200190815260200160002060000160008282829054906101000a900467ffffffffffffffff160392506101000a81548167ffffffffffffffff021916908367ffffffffffffffff1602179055506001600560008673ffffffffffffffffffffffffffffffffffffffff1673ffffffffffffffffffffffffffffffffffffffff16815260200190815260200160002060000160008282829054906101000a900467ffffffffffffffff160192506101000a81548167ffffffffffffffff021916908367ffffffffffffffff1602179055506000600460008581526020019081526020016000209050848160000160006101000a81548173ffffffffffffffffffffffffffffffffffffffff021916908373ffffffffffffffffffffffffffffffffffffffff160217905550428160000160146101000a81548167ffffffffffffffff021916908367ffffffffffffffff16021790555060006001850190506000600460008381526020019081526020016000209050600073ffffffffffffffffffffffffffffffffffffffff168160000160009054906101000a900473ffffffffffffffffffffffffffffffffffffffff1673ffffffffffffffffffffffffffffffffffffffff1603611cb6576000548214611cb557878160000160006101000a81548173ffffffffffffffffffffffffffffffffffffffff021916908373ffffffffffffffffffffffffffffffffffffffff16021790555084602001518160000160146101000a81548167ffffffffffffffff021916908367ffffffffffffffff1602179055505b5b505050828473ffffffffffffffffffffffffffffffffffffffff168673ffffffffffffffffffffffffffffffffffffffff167fddf252ad1be2c89b69c2b068fc378daa952ba7f163c4a11628f55a4df523b3ef60405160405180910390a4611d218585856001612697565b5050505050565b611d30612aff565b600082905080611d3e61186f565b11158015611d4d575060005481105b15611f80576000600460008381526020019081526020016000206040518060600160405290816000820160009054906101000a900473ffffffffffffffffffffffffffffffffffffffff1673ffffffffffffffffffffffffffffffffffffffff1673ffffffffffffffffffffffffffffffffffffffff1681526020016000820160149054906101000a900467ffffffffffffffff1667ffffffffffffffff1667ffffffffffffffff16815260200160008201601c9054906101000a900460ff16151515158152505090508060400151611f7e57600073ffffffffffffffffffffffffffffffffffffffff16816000015173ffffffffffffffffffffffffffffffffffffffff1614611e62578092505050611fb2565b5b600115611f7d57818060019003925050600460008381526020019081526020016000206040518060600160405290816000820160009054906101000a900473ffffffffffffffffffffffffffffffffffffffff1673ffffffffffffffffffffffffffffffffffffffff1673ffffffffffffffffffffffffffffffffffffffff1681526020016000820160149054906101000a900467ffffffffffffffff1667ffffffffffffffff1667ffffffffffffffff16815260200160008201601c9054906101000a900460ff1615151515815250509050600073ffffffffffffffffffffffffffffffffffffffff16816000015173ffffffffffffffffffffffffffffffffffffffff1614611f78578092505050611fb2565b611e63565b5b505b6040517fdf2d9b4200000000000000000000000000000000000000000000000000000000815260040160405180910390fd5b919050565b6000808273ffffffffffffffffffffffffffffffffffffffff163b119050919050565b60008373ffffffffffffffffffffffffffffffffffffffff1663150b7a026120006117b5565b8786866040518563ffffffff1660e01b81526004016120229493929190614614565b6020604051808303816000875af192505050801561205e57506040513d601f19601f8201168201806040525081019061205b9190614675565b60015b6120d7573d806000811461208e576040519150601f19603f3d011682016040523d82523d6000602084013e612093565b606091505b5060008151036120cf576040517fd1a57ed600000000000000000000000000000000000000000000000000000000815260040160405180910390fd5b805181602001fd5b63150b7a0260e01b7bffffffffffffffffffffffffffffffffffffffffffffffffffffffff1916817bffffffffffffffffffffffffffffffffffffffffffffffffffffffff191614915050949350505050565b606060008203612171576040518060400160405280600181526020017f300000000000000000000000000000000000000000000000000000000000000081525090506122ad565b600082905060005b600082146121a357808061218c906146a2565b915050600a8261219c9190613fa9565b9150612179565b60008167ffffffffffffffff8111156121bf576121be6132a4565b5b6040519080825280601f01601f1916602001820160405280156121f15781602001600182028036833780820191505090505b50905060008290505b600086146122a55760018161220f91906146ea565b90506000600a80886122219190613fa9565b61222b919061471e565b8761223691906146ea565b60306122429190614785565b905060008160f81b9050808484815181106122605761225f6147bc565b5b60200101907effffffffffffffffffffffffffffffffffffffffffffffffffffffffffffff1916908160001a905350600a8861229c9190613fa9565b975050506121fa565b819450505050505b919050565b606060008251036122d457604051806020016040528060008152509050612425565b6000604051806060016040528060408152602001614c09604091399050600060036002855161230391906147eb565b61230d9190613fa9565b6004612319919061471e565b9050600060208261232a91906147eb565b67ffffffffffffffff811115612343576123426132a4565b5b6040519080825280601f01601f1916602001820160405280156123755781602001600182028036833780820191505090505b509050818152600183018586518101602084015b818310156123e4576003830192508251603f8160121c168501518253600182019150603f81600c1c168501518253600182019150603f8160061c168501518253600182019150603f8116850151825360018201915050612389565b6003895106600181146123fe576002811461240e57612419565b613d3d60f01b6002830352612419565b603d60f81b60018303525b50505050508093505050505b919050565b6060600061243b8660a001516125e8565b6124498760a001518961252d565b612465670de0b6b3a7640000886124609190613fa9565b61212a565b86866124a6576040518060400160405280600881526020017f696e6361746976650000000000000000000000000000000000000000000000008152506124dd565b6040518060400160405280600681526020017f61637469766500000000000000000000000000000000000000000000000000008152505b6040516020016124f1959493929190614b39565b60405160208183030381529060405290508091505095945050505050565b61252982826040518060200160405280600081525061269d565b5050565b60606000600181111561254357612542613c72565b5b83600181111561255657612555613c72565b5b036125a057600062278d00836bffffffffffffffffffffffff1661257a919061471e565b9050612598670de0b6b3a7640000826125939190613fa9565b61212a565b9150506125e2565b60006301e13380836bffffffffffffffffffffffff166125c0919061471e565b90506125de670de0b6b3a7640000826125d99190613fa9565b61212a565b9150505b92915050565b6060600060018111156125fe576125fd613c72565b5b82600181111561261157612610613c72565b5b03612653576040518060400160405280600581526020017f6d6f6e7468000000000000000000000000000000000000000000000000000000815250905061268c565b6040518060400160405280600481526020017f796561720000000000000000000000000000000000000000000000000000000081525090505b919050565b50505050565b50505050565b6126aa83838360016126af565b505050565b600080549050600073ffffffffffffffffffffffffffffffffffffffff168573ffffffffffffffffffffffffffffffffffffffff160361271b576040517f2e07630000000000000000000000000000000000000000000000000000000000815260040160405180910390fd5b60008403612755576040517fb562e8dd00000000000000000000000000000000000000000000000000000000815260040160405180910390fd5b6127626000868387612691565b83600560008773ffffffffffffffffffffffffffffffffffffffff1673ffffffffffffffffffffffffffffffffffffffff16815260200190815260200160002060000160008282829054906101000a900467ffffffffffffffff160192506101000a81548167ffffffffffffffff021916908367ffffffffffffffff16021790555083600560008773ffffffffffffffffffffffffffffffffffffffff1673ffffffffffffffffffffffffffffffffffffffff16815260200190815260200160002060000160088282829054906101000a900467ffffffffffffffff160192506101000a81548167ffffffffffffffff021916908367ffffffffffffffff160217905550846004600083815260200190815260200160002060000160006101000a81548173ffffffffffffffffffffffffffffffffffffffff021916908373ffffffffffffffffffffffffffffffffffffffff160217905550426004600083815260200190815260200160002060000160146101000a81548167ffffffffffffffff021916908367ffffffffffffffff16021790555060008190506000858201905083801561292c575061292b8773ffffffffffffffffffffffffffffffffffffffff16611fb7565b5b156129f1575b818773ffffffffffffffffffffffffffffffffffffffff16600073ffffffffffffffffffffffffffffffffffffffff167fddf252ad1be2c89b69c2b068fc378daa952ba7f163c4a11628f55a4df523b3ef60405160405180910390a46129a16000888480600101955088611fda565b6129d7576040517fd1a57ed600000000000000000000000000000000000000000000000000000000815260040160405180910390fd5b8082036129325782600054146129ec57600080fd5b612a5c565b5b818060010192508773ffffffffffffffffffffffffffffffffffffffff16600073ffffffffffffffffffffffffffffffffffffffff167fddf252ad1be2c89b69c2b068fc378daa952ba7f163c4a11628f55a4df523b3ef60405160405180910390a48082036129f2575b816000819055505050612a726000868387612697565b5050505050565b828054612a85906138d5565b90600052602060002090601f016020900481019282612aa75760008555612aee565b82601f10612ac057805160ff1916838001178555612aee565b82800160010185558215612aee579182015b82811115612aed578251825591602001919060010190612ad2565b5b509050612afb9190612b42565b5090565b6040518060600160405280600073ffffffffffffffffffffffffffffffffffffffff168152602001600067ffffffffffffffff1681526020016000151581525090565b5b80821115612b5b576000816000905550600101612b43565b5090565b6000604051905090565b600080fd5b600080fd5b60007fffffffff0000000000000000000000000000000000000000000000000000000082169050919050565b612ba881612b73565b8114612bb357600080fd5b50565b600081359050612bc581612b9f565b92915050565b600060208284031215612be157612be0612b69565b5b6000612bef84828501612bb6565b91505092915050565b60008115159050919050565b612c0d81612bf8565b82525050565b6000602082019050612c286000830184612c04565b92915050565b600081519050919050565b600082825260208201905092915050565b60005b83811015612c68578082015181840152602081019050612c4d565b83811115612c77576000848401525b50505050565b6000601f19601f8301169050919050565b6000612c9982612c2e565b612ca38185612c39565b9350612cb3818560208601612c4a565b612cbc81612c7d565b840191505092915050565b60006020820190508181036000830152612ce18184612c8e565b905092915050565b6000819050919050565b612cfc81612ce9565b8114612d0757600080fd5b50565b600081359050612d1981612cf3565b92915050565b600060208284031215612d3557612d34612b69565b5b6000612d4384828501612d0a565b91505092915050565b600073ffffffffffffffffffffffffffffffffffffffff82169050919050565b6000612d7782612d4c565b9050919050565b612d8781612d6c565b82525050565b6000602082019050612da26000830184612d7e565b92915050565b612db181612d6c565b8114612dbc57600080fd5b50565b600081359050612dce81612da8565b92915050565b60008060408385031215612deb57612dea612b69565b5b6000612df985828601612dbf565b9250506020612e0a85828601612d0a565b9150509250929050565b612e1d81612ce9565b82525050565b6000602082019050612e386000830184612e14565b92915050565b6000612e4982612d6c565b9050919050565b612e5981612e3e565b8114612e6457600080fd5b50565b600081359050612e7681612e50565b92915050565b6000819050919050565b612e8f81612e7c565b8114612e9a57600080fd5b50565b600081359050612eac81612e86565b92915050565b600080fd5b600080fd5b600080fd5b60008083601f840112612ed757612ed6612eb2565b5b8235905067ffffffffffffffff811115612ef457612ef3612eb7565b5b602083019150836001820283011115612f1057612f0f612ebc565b5b9250929050565b600080600080600080600080600060c08a8c031215612f3957612f38612b69565b5b6000612f478c828d01612e67565b9950506020612f588c828d01612dbf565b9850506040612f698c828d01612e9d565b97505060608a013567ffffffffffffffff811115612f8a57612f89612b6e565b5b612f968c828d01612ec1565b965096505060808a013567ffffffffffffffff811115612fb957612fb8612b6e565b5b612fc58c828d01612ec1565b945094505060a08a013567ffffffffffffffff811115612fe857612fe7612b6e565b5b612ff48c828d01612ec1565b92509250509295985092959850929598565b600081519050919050565b600082825260208201905092915050565b600061302d82613006565b6130378185613011565b9350613047818560208601612c4a565b61305081612c7d565b840191505092915050565b600060208201905081810360008301526130758184613022565b905092915050565b60008060006060848603121561309657613095612b69565b5b60006130a486828701612dbf565b93505060206130b586828701612dbf565b92505060406130c686828701612d0a565b9150509250925092565b600080600080600080600060a0888a0312156130ef576130ee612b69565b5b60006130fd8a828b01612e67565b975050602061310e8a828b01612dbf565b965050604061311f8a828b01612e9d565b955050606088013567ffffffffffffffff8111156131405761313f612b6e565b5b61314c8a828b01612ec1565b9450945050608088013567ffffffffffffffff81111561316f5761316e612b6e565b5b61317b8a828b01612ec1565b925092505092959891949750929550565b6000602082840312156131a2576131a1612b69565b5b60006131b084828501612dbf565b91505092915050565b6000819050919050565b60006131de6131d96131d484612d4c565b6131b9565b612d4c565b9050919050565b60006131f0826131c3565b9050919050565b6000613202826131e5565b9050919050565b613212816131f7565b82525050565b600060208201905061322d6000830184613209565b92915050565b61323c81612bf8565b811461324757600080fd5b50565b60008135905061325981613233565b92915050565b6000806040838503121561327657613275612b69565b5b600061328485828601612dbf565b92505060206132958582860161324a565b9150509250929050565b600080fd5b7f4e487b7100000000000000000000000000000000000000000000000000000000600052604160045260246000fd5b6132dc82612c7d565b810181811067ffffffffffffffff821117156132fb576132fa6132a4565b5b80604052505050565b600061330e612b5f565b905061331a82826132d3565b919050565b600067ffffffffffffffff82111561333a576133396132a4565b5b61334382612c7d565b9050602081019050919050565b82818337600083830152505050565b600061337261336d8461331f565b613304565b90508281526020810184848401111561338e5761338d61329f565b5b613399848285613350565b509392505050565b600082601f8301126133b6576133b5612eb2565b5b81356133c684826020860161335f565b91505092915050565b600080600080608085870312156133e9576133e8612b69565b5b60006133f787828801612dbf565b945050602061340887828801612dbf565b935050604061341987828801612d0a565b925050606085013567ffffffffffffffff81111561343a57613439612b6e565b5b613446878288016133a1565b91505092959194509250565b600067ffffffffffffffff82111561346d5761346c6132a4565b5b61347682612c7d565b9050602081019050919050565b600061349661349184613452565b613304565b9050828152602081018484840111156134b2576134b161329f565b5b6134bd848285613350565b509392505050565b600082601f8301126134da576134d9612eb2565b5b81356134ea848260208601613483565b91505092915050565b6002811061350057600080fd5b50565b600081359050613512816134f3565b92915050565b600061352382612d6c565b9050919050565b61353381613518565b811461353e57600080fd5b50565b6000813590506135508161352a565b92915050565b600080600080600080600060e0888a03121561357557613574612b69565b5b60006135838a828b01612dbf565b97505060206135948a828b01612dbf565b965050604088013567ffffffffffffffff8111156135b5576135b4612b6e565b5b6135c18a828b016134c5565b955050606088013567ffffffffffffffff8111156135e2576135e1612b6e565b5b6135ee8a828b016134c5565b94505060806135ff8a828b01613503565b93505060a06136108a828b01613541565b92505060c088013567ffffffffffffffff81111561363157613630612b6e565b5b61363d8a828b016133a1565b91505092959891949750929550565b600081600b0b9050919050565b6136628161364c565b811461366d57600080fd5b50565b60008135905061367f81613659565b92915050565b600080fd5b600080fd5b600061010082840312156136a6576136a5613685565b5b6136b1610100613304565b905060006136c184828501613541565b60008301525060206136d584828501612dbf565b60208301525060406136e984828501612dbf565b604083015250606082013567ffffffffffffffff81111561370d5761370c61368a565b5b613719848285016134c5565b606083015250608082013567ffffffffffffffff81111561373d5761373c61368a565b5b613749848285016134c5565b60808301525060a061375d84828501613503565b60a08301525060c061377184828501612d0a565b60c08301525060e06137858482850161324a565b60e08301525092915050565b6000819050919050565b6137a481613791565b81146137af57600080fd5b50565b6000813590506137c18161379b565b92915050565b600080600080608085870312156137e1576137e0612b69565b5b60006137ef87828801613670565b945050602085013567ffffffffffffffff8111156138105761380f612b6e565b5b61381c8782880161368f565b935050604061382d878288016137b2565b925050606085013567ffffffffffffffff81111561384e5761384d612b6e565b5b61385a878288016134c5565b91505092959194509250565b6000806040838503121561387d5761387c612b69565b5b600061388b85828601612dbf565b925050602061389c85828601612dbf565b9150509250929050565b7f4e487b7100000000000000000000000000000000000000000000000000000000600052602260045260246000fd5b600060028204905060018216806138ed57607f821691505b602082108103613900576138ff6138a6565b5b50919050565b7f556e737570706f727465642063616c6c6261636b202d2041667465722041677260008201527f65656d656e742055706461746564000000000000000000000000000000000000602082015250565b6000613962602e83612c39565b915061396d82613906565b604082019050919050565b6000602082019050818103600083015261399181613955565b9050919050565b7f556e737570706f727465642063616c6c6261636b202d204265666f726520416760008201527f7265656d656e7420437265617465640000000000000000000000000000000000602082015250565b60006139f4602f83612c39565b91506139ff82613998565b604082019050919050565b60006020820190508181036000830152613a23816139e7565b9050919050565b7f556e737570706f727465642063616c6c6261636b202d2041667465722041677260008201527f65656d656e74205465726d696e61746564000000000000000000000000000000602082015250565b6000613a86603183612c39565b9150613a9182613a2a565b604082019050919050565b60006020820190508181036000830152613ab581613a79565b9050919050565b7f556e737570706f727465642063616c6c6261636b202d20204265666f7265204160008201527f677265656d656e74205465726d696e6174656400000000000000000000000000602082015250565b6000613b18603383612c39565b9150613b2382613abc565b604082019050919050565b60006020820190508181036000830152613b4781613b0b565b9050919050565b7f556e737570706f727465642063616c6c6261636b202d204265666f726520416760008201527f7265656d656e7420757064617465640000000000000000000000000000000000602082015250565b6000613baa602f83612c39565b9150613bb582613b4e565b604082019050919050565b60006020820190508181036000830152613bd981613b9d565b9050919050565b7f41677265656d656e74506f736974696f6e3a20506f73736974696f6e20646f6560008201527f73206e6f74206578697374000000000000000000000000000000000000000000602082015250565b6000613c3c602b83612c39565b9150613c4782613be0565b604082019050919050565b60006020820190508181036000830152613c6b81613c2f565b9050919050565b7f4e487b7100000000000000000000000000000000000000000000000000000000600052602160045260246000fd5b600081519050613cb08161379b565b92915050565b600081519050613cc581612cf3565b92915050565b60008060008060808587031215613ce557613ce4612b69565b5b6000613cf387828801613ca1565b9450506020613d0487828801613cb6565b9350506040613d1587828801613cb6565b9250506060613d2687828801613cb6565b91505092959194509250565b6000613d3d826131e5565b9050919050565b613d4d81613d32565b82525050565b6000606082019050613d686000830186613d44565b613d756020830185612d7e565b613d826040830184612d7e565b949350505050565b600081519050613d9981613659565b92915050565b60008060008060808587031215613db957613db8612b69565b5b6000613dc787828801613cb6565b9450506020613dd887828801613d8a565b9350506040613de987828801613cb6565b9250506060613dfa87828801613cb6565b91505092959194509250565b6000604082019050613e1b6000830185613d44565b613e286020830184612d7e565b9392505050565b600060208284031215613e4557613e44612b69565b5b6000613e5384828501613d8a565b91505092915050565b7f4e487b7100000000000000000000000000000000000000000000000000000000600052601160045260246000fd5b6000613e968261364c565b9150613ea18361364c565b9250826b7fffffffffffffffffffffff0482116000841360008413161615613ecc57613ecb613e5c565b5b817fffffffffffffffffffffffffffffffffffffffff8000000000000000000000000583126000841260008413161615613f0957613f08613e5c565b5b827fffffffffffffffffffffffffffffffffffffffff8000000000000000000000000582126000841360008412161615613f4657613f45613e5c565b5b826b7fffffffffffffffffffffff0582126000841260008412161615613f6f57613f6e613e5c565b5b828202905092915050565b7f4e487b7100000000000000000000000000000000000000000000000000000000600052601260045260246000fd5b6000613fb482612ce9565b9150613fbf83612ce9565b925082613fcf57613fce613f7a565b5b828204905092915050565b600081905092915050565b7f7b00000000000000000000000000000000000000000000000000000000000000600082015250565b600061401b600183613fda565b915061402682613fe5565b600182019050919050565b7f226e616d65223a2241677265656d656e74506f736974696f6e20230000000000600082015250565b6000614067601b83613fda565b915061407282614031565b601b82019050919050565b600061408882612c2e565b6140928185613fda565b93506140a2818560208601612c4a565b80840191505092915050565b7f222c000000000000000000000000000000000000000000000000000000000000600082015250565b60006140e4600283613fda565b91506140ef826140ae565b600282019050919050565b7f226465736372697074696f6e223a220000000000000000000000000000000000600082015250565b6000614130600f83613fda565b915061413b826140fa565b600f82019050919050565b7f22696d6167655f64617461223a2022646174613a696d6167652f7376672b786d60008201527f6c3b6261736536342c0000000000000000000000000000000000000000000000602082015250565b60006141a2602983613fda565b91506141ad82614146565b602982019050919050565b7f22616e696d6174696f6e5f75726c223a2022646174613a696d6167652f73766760008201527f2b786d6c3b6261736536342c0000000000000000000000000000000000000000602082015250565b6000614214602c83613fda565b915061421f826141b8565b602c82019050919050565b7f2261747472696275746573223a20000000000000000000000000000000000000600082015250565b6000614260600e83613fda565b915061426b8261422a565b600e82019050919050565b7f7d00000000000000000000000000000000000000000000000000000000000000600082015250565b60006142ac600183613fda565b91506142b782614276565b600182019050919050565b60006142cd8261400e565b91506142d88261405a565b91506142e4828861407d565b91506142ef826140d7565b91506142fa82614123565b9150614306828761407d565b9150614311826140d7565b915061431c82614195565b9150614328828661407d565b9150614333826140d7565b915061433e82614207565b915061434a828561407d565b9150614355826140d7565b915061436082614253565b915061436c828461407d565b91506143778261429f565b91508190509695505050505050565b7f646174613a6170706c69636174696f6e2f6a736f6e3b6261736536342c000000600082015250565b60006143bc601d83613fda565b91506143c782614386565b601d82019050919050565b60006143dd826143af565b91506143e9828461407d565b915081905092915050565b7f556e737570706f727465642063616c6c6261636b202d2041667465722041677260008201527f65656d656e742043726561746564000000000000000000000000000000000000602082015250565b6000614450602e83612c39565b915061445b826143f4565b604082019050919050565b6000602082019050818103600083015261447f81614443565b9050919050565b600082825260208201905092915050565b60006144a282612c2e565b6144ac8185614486565b93506144bc818560208601612c4a565b6144c581612c7d565b840191505092915050565b600060c08201905081810360008301526144ea8189614497565b905081810360208301526144fe8188614497565b905081810360408301526145128187614497565b905081810360608301526145268186614497565b9050818103608083015261453a8185614497565b905081810360a083015261454e8184614497565b9050979650505050505050565b600061456e61456984613452565b613304565b90508281526020810184848401111561458a5761458961329f565b5b614595848285612c4a565b509392505050565b600082601f8301126145b2576145b1612eb2565b5b81516145c284826020860161455b565b91505092915050565b6000602082840312156145e1576145e0612b69565b5b600082015167ffffffffffffffff8111156145ff576145fe612b6e565b5b61460b8482850161459d565b91505092915050565b60006080820190506146296000830187612d7e565b6146366020830186612d7e565b6146436040830185612e14565b81810360608301526146558184613022565b905095945050505050565b60008151905061466f81612b9f565b92915050565b60006020828403121561468b5761468a612b69565b5b600061469984828501614660565b91505092915050565b60006146ad82612ce9565b91507fffffffffffffffffffffffffffffffffffffffffffffffffffffffffffffffff82036146df576146de613e5c565b5b600182019050919050565b60006146f582612ce9565b915061470083612ce9565b92508282101561471357614712613e5c565b5b828203905092915050565b600061472982612ce9565b915061473483612ce9565b9250817fffffffffffffffffffffffffffffffffffffffffffffffffffffffffffffffff048311821515161561476d5761476c613e5c565b5b828202905092915050565b600060ff82169050919050565b600061479082614778565b915061479b83614778565b92508260ff038211156147b1576147b0613e5c565b5b828201905092915050565b7f4e487b7100000000000000000000000000000000000000000000000000000000600052603260045260246000fd5b60006147f682612ce9565b915061480183612ce9565b9250827fffffffffffffffffffffffffffffffffffffffffffffffffffffffffffffffff0382111561483657614835613e5c565b5b828201905092915050565b7f5b00000000000000000000000000000000000000000000000000000000000000600082015250565b6000614877600183613fda565b915061488282614841565b600182019050919050565b7f7b2274726169745f74797065223a22696e74657276616c222c2276616c75652260008201527f3a22000000000000000000000000000000000000000000000000000000000000602082015250565b60006148e9602283613fda565b91506148f48261488d565b602282019050919050565b7f227d2c0000000000000000000000000000000000000000000000000000000000600082015250565b6000614935600383613fda565b9150614940826148ff565b600382019050919050565b7f7b2274726169745f74797065223a2272617465222c2276616c7565223a220000600082015250565b6000614981601e83613fda565b915061498c8261494b565b601e82019050919050565b7f7b2274726169745f74797065223a22637265646974222c2276616c7565223a22600082015250565b60006149cd602083613fda565b91506149d882614997565b602082019050919050565b7f7b2274726169745f74797065223a2264617973206c656674222c2276616c756560008201527f223a220000000000000000000000000000000000000000000000000000000000602082015250565b6000614a3f602383613fda565b9150614a4a826149e3565b602382019050919050565b7f7b2274726169745f74797065223a22737461747573222c2276616c7565223a22600082015250565b6000614a8b602083613fda565b9150614a9682614a55565b602082019050919050565b7f227d000000000000000000000000000000000000000000000000000000000000600082015250565b6000614ad7600283613fda565b9150614ae282614aa1565b600282019050919050565b7f5d00000000000000000000000000000000000000000000000000000000000000600082015250565b6000614b23600183613fda565b9150614b2e82614aed565b600182019050919050565b6000614b448261486a565b9150614b4f826148dc565b9150614b5b828861407d565b9150614b6682614928565b9150614b7182614974565b9150614b7d828761407d565b9150614b8882614928565b9150614b93826149c0565b9150614b9f828661407d565b9150614baa82614928565b9150614bb582614a32565b9150614bc1828561407d565b9150614bcc82614928565b9150614bd782614a7e565b9150614be3828461407d565b9150614bee82614aca565b9150614bf982614b16565b9150819050969550505050505056fe4142434445464748494a4b4c4d4e4f505152535455565758595a6162636465666768696a6b6c6d6e6f707172737475767778797a303132333435363738392b2fa264697066735822122024b16385e2dec321b4be2b729a3f565b6ed0880a632f84c71c1ebedc5a3b184a64736f6c634300080d0033",
  "libraries": {
    "SVG": "0xf221D1EA99E37666008BD42E6a6FDccD883E23Ba"
  },
  "devdoc": {
    "kind": "dev",
    "methods": {
      "approve(address,uint256)": {
        "details": "See {IERC721-approve}."
      },
      "balanceOf(address)": {
        "details": "See {IERC721-balanceOf}."
      },
      "getApproved(uint256)": {
        "details": "See {IERC721-getApproved}."
      },
      "isApprovedForAll(address,address)": {
        "details": "See {IERC721-isApprovedForAll}."
      },
      "name()": {
        "details": "See {IERC721Metadata-name}."
      },
      "ownerOf(uint256)": {
        "details": "See {IERC721-ownerOf}."
      },
      "safeTransferFrom(address,address,uint256)": {
        "details": "See {IERC721-safeTransferFrom}."
      },
      "safeTransferFrom(address,address,uint256,bytes)": {
        "details": "See {IERC721-safeTransferFrom}."
      },
      "setApprovalForAll(address,bool)": {
        "details": "See {IERC721-setApprovalForAll}."
      },
      "supportsInterface(bytes4)": {
        "details": "See {IERC165-supportsInterface}."
      },
      "symbol()": {
        "details": "See {IERC721Metadata-symbol}."
      },
      "tokenURI(uint256)": {
        "details": "See {IERC721Metadata-tokenURI}."
      },
      "totalSupply()": {
        "details": "Burned tokens are calculated here, use _totalMinted() if you want to count just minted tokens."
      },
      "transferFrom(address,address,uint256)": {
        "details": "See {IERC721-transferFrom}."
      }
    },
    "version": 1
  },
  "userdoc": {
    "kind": "user",
    "methods": {},
    "version": 1
  },
  "storageLayout": {
    "storage": [
      {
        "astId": 4467,
        "contract": "contracts/AgreementNFT.sol:AgreementNFT",
        "label": "_currentIndex",
        "offset": 0,
        "slot": "0",
        "type": "t_uint256"
      },
      {
        "astId": 4469,
        "contract": "contracts/AgreementNFT.sol:AgreementNFT",
        "label": "_burnCounter",
        "offset": 0,
        "slot": "1",
        "type": "t_uint256"
      },
      {
        "astId": 4471,
        "contract": "contracts/AgreementNFT.sol:AgreementNFT",
        "label": "_name",
        "offset": 0,
        "slot": "2",
        "type": "t_string_storage"
      },
      {
        "astId": 4473,
        "contract": "contracts/AgreementNFT.sol:AgreementNFT",
        "label": "_symbol",
        "offset": 0,
        "slot": "3",
        "type": "t_string_storage"
      },
      {
        "astId": 4478,
        "contract": "contracts/AgreementNFT.sol:AgreementNFT",
        "label": "_ownerships",
        "offset": 0,
        "slot": "4",
        "type": "t_mapping(t_uint256,t_struct(TokenOwnership)4456_storage)"
      },
      {
        "astId": 4483,
        "contract": "contracts/AgreementNFT.sol:AgreementNFT",
        "label": "_addressData",
        "offset": 0,
        "slot": "5",
        "type": "t_mapping(t_address,t_struct(AddressData)4465_storage)"
      },
      {
        "astId": 4487,
        "contract": "contracts/AgreementNFT.sol:AgreementNFT",
        "label": "_tokenApprovals",
        "offset": 0,
        "slot": "6",
        "type": "t_mapping(t_uint256,t_address)"
      },
      {
        "astId": 4493,
        "contract": "contracts/AgreementNFT.sol:AgreementNFT",
        "label": "_operatorApprovals",
        "offset": 0,
        "slot": "7",
        "type": "t_mapping(t_address,t_mapping(t_address,t_bool))"
      },
      {
        "astId": 3169,
        "contract": "contracts/AgreementNFT.sol:AgreementNFT",
        "label": "agreement",
        "offset": 0,
        "slot": "8",
        "type": "t_contract(IConstantFlowAgreementV1)4096"
      },
      {
        "astId": 3193,
        "contract": "contracts/AgreementNFT.sol:AgreementNFT",
        "label": "_positionsById",
        "offset": 0,
        "slot": "9",
        "type": "t_mapping(t_uint256,t_struct(PositionData)3188_storage)"
      }
    ],
    "types": {
      "t_address": {
        "encoding": "inplace",
        "label": "address",
        "numberOfBytes": "20"
      },
      "t_bool": {
        "encoding": "inplace",
        "label": "bool",
        "numberOfBytes": "1"
      },
      "t_contract(IConstantFlowAgreementV1)4096": {
        "encoding": "inplace",
        "label": "contract IConstantFlowAgreementV1",
        "numberOfBytes": "20"
      },
      "t_contract(ISuperfluidToken)4399": {
        "encoding": "inplace",
        "label": "contract ISuperfluidToken",
        "numberOfBytes": "20"
      },
      "t_enum(SUBSCRIPTION_TYPE)3163": {
        "encoding": "inplace",
        "label": "enum AgreementNFT.SUBSCRIPTION_TYPE",
        "numberOfBytes": "1"
      },
      "t_mapping(t_address,t_bool)": {
        "encoding": "mapping",
        "key": "t_address",
        "label": "mapping(address => bool)",
        "numberOfBytes": "32",
        "value": "t_bool"
      },
      "t_mapping(t_address,t_mapping(t_address,t_bool))": {
        "encoding": "mapping",
        "key": "t_address",
        "label": "mapping(address => mapping(address => bool))",
        "numberOfBytes": "32",
        "value": "t_mapping(t_address,t_bool)"
      },
      "t_mapping(t_address,t_struct(AddressData)4465_storage)": {
        "encoding": "mapping",
        "key": "t_address",
        "label": "mapping(address => struct ERC721A.AddressData)",
        "numberOfBytes": "32",
        "value": "t_struct(AddressData)4465_storage"
      },
      "t_mapping(t_uint256,t_address)": {
        "encoding": "mapping",
        "key": "t_uint256",
        "label": "mapping(uint256 => address)",
        "numberOfBytes": "32",
        "value": "t_address"
      },
      "t_mapping(t_uint256,t_struct(PositionData)3188_storage)": {
        "encoding": "mapping",
        "key": "t_uint256",
        "label": "mapping(uint256 => struct AgreementNFT.PositionData)",
        "numberOfBytes": "32",
        "value": "t_struct(PositionData)3188_storage"
      },
      "t_mapping(t_uint256,t_struct(TokenOwnership)4456_storage)": {
        "encoding": "mapping",
        "key": "t_uint256",
        "label": "mapping(uint256 => struct ERC721A.TokenOwnership)",
        "numberOfBytes": "32",
        "value": "t_struct(TokenOwnership)4456_storage"
      },
      "t_string_storage": {
        "encoding": "bytes",
        "label": "string",
        "numberOfBytes": "32"
      },
      "t_struct(AddressData)4465_storage": {
        "encoding": "inplace",
        "label": "struct ERC721A.AddressData",
        "members": [
          {
            "astId": 4458,
            "contract": "contracts/AgreementNFT.sol:AgreementNFT",
            "label": "balance",
            "offset": 0,
            "slot": "0",
            "type": "t_uint64"
          },
          {
            "astId": 4460,
            "contract": "contracts/AgreementNFT.sol:AgreementNFT",
            "label": "numberMinted",
            "offset": 8,
            "slot": "0",
            "type": "t_uint64"
          },
          {
            "astId": 4462,
            "contract": "contracts/AgreementNFT.sol:AgreementNFT",
            "label": "numberBurned",
            "offset": 16,
            "slot": "0",
            "type": "t_uint64"
          },
          {
            "astId": 4464,
            "contract": "contracts/AgreementNFT.sol:AgreementNFT",
            "label": "aux",
            "offset": 24,
            "slot": "0",
            "type": "t_uint64"
          }
        ],
        "numberOfBytes": "32"
      },
      "t_struct(PositionData)3188_storage": {
        "encoding": "inplace",
        "label": "struct AgreementNFT.PositionData",
        "members": [
          {
            "astId": 3172,
            "contract": "contracts/AgreementNFT.sol:AgreementNFT",
            "label": "token",
            "offset": 0,
            "slot": "0",
            "type": "t_contract(ISuperfluidToken)4399"
          },
          {
            "astId": 3174,
            "contract": "contracts/AgreementNFT.sol:AgreementNFT",
            "label": "recipient",
            "offset": 0,
            "slot": "1",
            "type": "t_address"
          },
          {
            "astId": 3176,
            "contract": "contracts/AgreementNFT.sol:AgreementNFT",
            "label": "sender",
            "offset": 0,
            "slot": "2",
            "type": "t_address"
          },
          {
            "astId": 3178,
            "contract": "contracts/AgreementNFT.sol:AgreementNFT",
            "label": "description",
            "offset": 0,
            "slot": "3",
            "type": "t_string_storage"
          },
          {
            "astId": 3180,
            "contract": "contracts/AgreementNFT.sol:AgreementNFT",
            "label": "logo",
            "offset": 0,
            "slot": "4",
            "type": "t_string_storage"
          },
          {
            "astId": 3183,
            "contract": "contracts/AgreementNFT.sol:AgreementNFT",
            "label": "subscriptionType",
            "offset": 0,
            "slot": "5",
            "type": "t_enum(SUBSCRIPTION_TYPE)3163"
          },
          {
            "astId": 3185,
            "contract": "contracts/AgreementNFT.sol:AgreementNFT",
            "label": "createdAt",
            "offset": 0,
            "slot": "6",
            "type": "t_uint256"
          },
          {
            "astId": 3187,
            "contract": "contracts/AgreementNFT.sol:AgreementNFT",
            "label": "isActive",
            "offset": 0,
            "slot": "7",
            "type": "t_bool"
          }
        ],
        "numberOfBytes": "256"
      },
      "t_struct(TokenOwnership)4456_storage": {
        "encoding": "inplace",
        "label": "struct ERC721A.TokenOwnership",
        "members": [
          {
            "astId": 4451,
            "contract": "contracts/AgreementNFT.sol:AgreementNFT",
            "label": "addr",
            "offset": 0,
            "slot": "0",
            "type": "t_address"
          },
          {
            "astId": 4453,
            "contract": "contracts/AgreementNFT.sol:AgreementNFT",
            "label": "startTimestamp",
            "offset": 20,
            "slot": "0",
            "type": "t_uint64"
          },
          {
            "astId": 4455,
            "contract": "contracts/AgreementNFT.sol:AgreementNFT",
            "label": "burned",
            "offset": 28,
            "slot": "0",
            "type": "t_bool"
          }
        ],
        "numberOfBytes": "32"
      },
      "t_uint256": {
        "encoding": "inplace",
        "label": "uint256",
        "numberOfBytes": "32"
      },
      "t_uint64": {
        "encoding": "inplace",
        "label": "uint64",
        "numberOfBytes": "8"
      }
    }
  }
}