{
  "address": "0x76E19f21c23587C58CbAbB4052F3dC9265f52c60",
  "abi": [
    {
      "inputs": [
        {
          "internalType": "contract ISuperfluid",
          "name": "host",
          "type": "address"
        }
      ],
      "stateMutability": "nonpayable",
      "type": "constructor"
    },
    {
      "inputs": [],
      "name": "ApprovalCallerNotOwnerNorApproved",
      "type": "error"
    },
    {
      "inputs": [],
      "name": "ApprovalQueryForNonexistentToken",
      "type": "error"
    },
    {
      "inputs": [],
      "name": "ApprovalToCurrentOwner",
      "type": "error"
    },
    {
      "inputs": [],
      "name": "ApproveToCaller",
      "type": "error"
    },
    {
      "inputs": [],
      "name": "BalanceQueryForZeroAddress",
      "type": "error"
    },
    {
      "inputs": [],
      "name": "MintToZeroAddress",
      "type": "error"
    },
    {
      "inputs": [],
      "name": "MintZeroQuantity",
      "type": "error"
    },
    {
      "inputs": [],
      "name": "OwnerQueryForNonexistentToken",
      "type": "error"
    },
    {
      "inputs": [],
      "name": "TransferCallerNotOwnerNorApproved",
      "type": "error"
    },
    {
      "inputs": [],
      "name": "TransferFromIncorrectOwner",
      "type": "error"
    },
    {
      "inputs": [],
      "name": "TransferToNonERC721ReceiverImplementer",
      "type": "error"
    },
    {
      "inputs": [],
      "name": "TransferToZeroAddress",
      "type": "error"
    },
    {
      "anonymous": false,
      "inputs": [
        {
          "indexed": true,
          "internalType": "address",
          "name": "owner",
          "type": "address"
        },
        {
          "indexed": true,
          "internalType": "address",
          "name": "approved",
          "type": "address"
        },
        {
          "indexed": true,
          "internalType": "uint256",
          "name": "tokenId",
          "type": "uint256"
        }
      ],
      "name": "Approval",
      "type": "event"
    },
    {
      "anonymous": false,
      "inputs": [
        {
          "indexed": true,
          "internalType": "address",
          "name": "owner",
          "type": "address"
        },
        {
          "indexed": true,
          "internalType": "address",
          "name": "operator",
          "type": "address"
        },
        {
          "indexed": false,
          "internalType": "bool",
          "name": "approved",
          "type": "bool"
        }
      ],
      "name": "ApprovalForAll",
      "type": "event"
    },
    {
      "anonymous": false,
      "inputs": [
        {
          "indexed": true,
          "internalType": "address",
          "name": "from",
          "type": "address"
        },
        {
          "indexed": true,
          "internalType": "address",
          "name": "to",
          "type": "address"
        },
        {
          "indexed": true,
          "internalType": "uint256",
          "name": "tokenId",
          "type": "uint256"
        }
      ],
      "name": "Transfer",
      "type": "event"
    },
    {
      "inputs": [
        {
          "internalType": "contract ISuperToken",
          "name": "",
          "type": "address"
        },
        {
          "internalType": "address",
          "name": "",
          "type": "address"
        },
        {
          "internalType": "bytes32",
          "name": "",
          "type": "bytes32"
        },
        {
          "internalType": "bytes",
          "name": "",
          "type": "bytes"
        },
        {
          "internalType": "bytes",
          "name": "",
          "type": "bytes"
        },
        {
          "internalType": "bytes",
          "name": "",
          "type": "bytes"
        }
      ],
      "name": "afterAgreementCreated",
      "outputs": [
        {
          "internalType": "bytes",
          "name": "",
          "type": "bytes"
        }
      ],
      "stateMutability": "nonpayable",
      "type": "function"
    },
    {
      "inputs": [
        {
          "internalType": "contract ISuperToken",
          "name": "",
          "type": "address"
        },
        {
          "internalType": "address",
          "name": "",
          "type": "address"
        },
        {
          "internalType": "bytes32",
          "name": "",
          "type": "bytes32"
        },
        {
          "internalType": "bytes",
          "name": "",
          "type": "bytes"
        },
        {
          "internalType": "bytes",
          "name": "",
          "type": "bytes"
        },
        {
          "internalType": "bytes",
          "name": "",
          "type": "bytes"
        }
      ],
      "name": "afterAgreementTerminated",
      "outputs": [
        {
          "internalType": "bytes",
          "name": "",
          "type": "bytes"
        }
      ],
      "stateMutability": "nonpayable",
      "type": "function"
    },
    {
      "inputs": [
        {
          "internalType": "contract ISuperToken",
          "name": "",
          "type": "address"
        },
        {
          "internalType": "address",
          "name": "",
          "type": "address"
        },
        {
          "internalType": "bytes32",
          "name": "",
          "type": "bytes32"
        },
        {
          "internalType": "bytes",
          "name": "",
          "type": "bytes"
        },
        {
          "internalType": "bytes",
          "name": "",
          "type": "bytes"
        },
        {
          "internalType": "bytes",
          "name": "",
          "type": "bytes"
        }
      ],
      "name": "afterAgreementUpdated",
      "outputs": [
        {
          "internalType": "bytes",
          "name": "",
          "type": "bytes"
        }
      ],
      "stateMutability": "nonpayable",
      "type": "function"
    },
    {
      "inputs": [],
      "name": "agreement",
      "outputs": [
        {
          "internalType": "contract IConstantFlowAgreementV1",
          "name": "",
          "type": "address"
        }
      ],
      "stateMutability": "view",
      "type": "function"
    },
    {
      "inputs": [
        {
          "internalType": "address",
          "name": "to",
          "type": "address"
        },
        {
          "internalType": "uint256",
          "name": "tokenId",
          "type": "uint256"
        }
      ],
      "name": "approve",
      "outputs": [],
      "stateMutability": "nonpayable",
      "type": "function"
    },
    {
      "inputs": [
        {
          "internalType": "address",
          "name": "owner",
          "type": "address"
        }
      ],
      "name": "balanceOf",
      "outputs": [
        {
          "internalType": "uint256",
          "name": "",
          "type": "uint256"
        }
      ],
      "stateMutability": "view",
      "type": "function"
    },
    {
      "inputs": [
        {
          "internalType": "contract ISuperToken",
          "name": "",
          "type": "address"
        },
        {
          "internalType": "address",
          "name": "",
          "type": "address"
        },
        {
          "internalType": "bytes32",
          "name": "",
          "type": "bytes32"
        },
        {
          "internalType": "bytes",
          "name": "",
          "type": "bytes"
        },
        {
          "internalType": "bytes",
          "name": "",
          "type": "bytes"
        }
      ],
      "name": "beforeAgreementCreated",
      "outputs": [
        {
          "internalType": "bytes",
          "name": "",
          "type": "bytes"
        }
      ],
      "stateMutability": "view",
      "type": "function"
    },
    {
      "inputs": [
        {
          "internalType": "contract ISuperToken",
          "name": "",
          "type": "address"
        },
        {
          "internalType": "address",
          "name": "",
          "type": "address"
        },
        {
          "internalType": "bytes32",
          "name": "",
          "type": "bytes32"
        },
        {
          "internalType": "bytes",
          "name": "",
          "type": "bytes"
        },
        {
          "internalType": "bytes",
          "name": "",
          "type": "bytes"
        }
      ],
      "name": "beforeAgreementTerminated",
      "outputs": [
        {
          "internalType": "bytes",
          "name": "",
          "type": "bytes"
        }
      ],
      "stateMutability": "view",
      "type": "function"
    },
    {
      "inputs": [
        {
          "internalType": "contract ISuperToken",
          "name": "",
          "type": "address"
        },
        {
          "internalType": "address",
          "name": "",
          "type": "address"
        },
        {
          "internalType": "bytes32",
          "name": "",
          "type": "bytes32"
        },
        {
          "internalType": "bytes",
          "name": "",
          "type": "bytes"
        },
        {
          "internalType": "bytes",
          "name": "",
          "type": "bytes"
        }
      ],
      "name": "beforeAgreementUpdated",
      "outputs": [
        {
          "internalType": "bytes",
          "name": "",
          "type": "bytes"
        }
      ],
      "stateMutability": "view",
      "type": "function"
    },
    {
      "inputs": [
        {
          "internalType": "int96",
          "name": "flowRate",
          "type": "int96"
        },
        {
          "components": [
            {
              "internalType": "contract ISuperfluidToken",
              "name": "token",
              "type": "address"
            },
            {
              "internalType": "address",
              "name": "recipient",
              "type": "address"
            },
            {
              "internalType": "address",
              "name": "sender",
              "type": "address"
            },
            {
              "internalType": "string",
              "name": "description",
              "type": "string"
            },
            {
              "internalType": "enum AgreementNFT.SUBSCRIPTION_TYPE",
              "name": "subscriptionType",
              "type": "uint8"
            },
            {
              "internalType": "uint256",
              "name": "createdAt",
              "type": "uint256"
            },
            {
              "internalType": "bool",
              "name": "isActive",
              "type": "bool"
            }
          ],
          "internalType": "struct AgreementNFT.PositionData",
          "name": "position",
          "type": "tuple"
        },
        {
          "internalType": "int256",
          "name": "senderBalance",
          "type": "int256"
        },
        {
          "internalType": "string",
          "name": "daysLeft",
          "type": "string"
        }
      ],
      "name": "generateSvg",
      "outputs": [
        {
          "internalType": "string",
          "name": "",
          "type": "string"
        }
      ],
      "stateMutability": "pure",
      "type": "function"
    },
    {
      "inputs": [
        {
          "internalType": "uint256",
          "name": "tokenId",
          "type": "uint256"
        }
      ],
      "name": "getApproved",
      "outputs": [
        {
          "internalType": "address",
          "name": "",
          "type": "address"
        }
      ],
      "stateMutability": "view",
      "type": "function"
    },
    {
      "inputs": [
        {
          "internalType": "address",
          "name": "owner",
          "type": "address"
        },
        {
          "internalType": "address",
          "name": "operator",
          "type": "address"
        }
      ],
      "name": "isApprovedForAll",
      "outputs": [
        {
          "internalType": "bool",
          "name": "",
          "type": "bool"
        }
      ],
      "stateMutability": "view",
      "type": "function"
    },
    {
      "inputs": [
        {
          "internalType": "address",
          "name": "sender",
          "type": "address"
        },
        {
          "internalType": "address",
          "name": "recipient",
          "type": "address"
        },
        {
          "internalType": "string",
          "name": "description",
          "type": "string"
        },
        {
          "internalType": "enum AgreementNFT.SUBSCRIPTION_TYPE",
          "name": "subscriptionType",
          "type": "uint8"
        },
        {
          "internalType": "contract ISuperfluidToken",
          "name": "token",
          "type": "address"
        },
        {
          "internalType": "bytes",
          "name": "ctx",
          "type": "bytes"
        }
      ],
      "name": "mint",
      "outputs": [
        {
          "internalType": "bytes",
          "name": "",
          "type": "bytes"
        }
      ],
      "stateMutability": "nonpayable",
      "type": "function"
    },
    {
      "inputs": [],
      "name": "name",
      "outputs": [
        {
          "internalType": "string",
          "name": "",
          "type": "string"
        }
      ],
      "stateMutability": "view",
      "type": "function"
    },
    {
      "inputs": [
        {
          "internalType": "uint256",
          "name": "tokenId",
          "type": "uint256"
        }
      ],
      "name": "ownerOf",
      "outputs": [
        {
          "internalType": "address",
          "name": "",
          "type": "address"
        }
      ],
      "stateMutability": "view",
      "type": "function"
    },
    {
      "inputs": [
        {
          "internalType": "address",
          "name": "from",
          "type": "address"
        },
        {
          "internalType": "address",
          "name": "to",
          "type": "address"
        },
        {
          "internalType": "uint256",
          "name": "tokenId",
          "type": "uint256"
        }
      ],
      "name": "safeTransferFrom",
      "outputs": [],
      "stateMutability": "nonpayable",
      "type": "function"
    },
    {
      "inputs": [
        {
          "internalType": "address",
          "name": "from",
          "type": "address"
        },
        {
          "internalType": "address",
          "name": "to",
          "type": "address"
        },
        {
          "internalType": "uint256",
          "name": "tokenId",
          "type": "uint256"
        },
        {
          "internalType": "bytes",
          "name": "_data",
          "type": "bytes"
        }
      ],
      "name": "safeTransferFrom",
      "outputs": [],
      "stateMutability": "nonpayable",
      "type": "function"
    },
    {
      "inputs": [
        {
          "internalType": "address",
          "name": "operator",
          "type": "address"
        },
        {
          "internalType": "bool",
          "name": "approved",
          "type": "bool"
        }
      ],
      "name": "setApprovalForAll",
      "outputs": [],
      "stateMutability": "nonpayable",
      "type": "function"
    },
    {
      "inputs": [
        {
          "internalType": "bytes4",
          "name": "interfaceId",
          "type": "bytes4"
        }
      ],
      "name": "supportsInterface",
      "outputs": [
        {
          "internalType": "bool",
          "name": "",
          "type": "bool"
        }
      ],
      "stateMutability": "view",
      "type": "function"
    },
    {
      "inputs": [],
      "name": "symbol",
      "outputs": [
        {
          "internalType": "string",
          "name": "",
          "type": "string"
        }
      ],
      "stateMutability": "view",
      "type": "function"
    },
    {
      "inputs": [
        {
          "internalType": "uint256",
          "name": "tokenId",
          "type": "uint256"
        }
      ],
      "name": "tokenURI",
      "outputs": [
        {
          "internalType": "string",
          "name": "",
          "type": "string"
        }
      ],
      "stateMutability": "view",
      "type": "function"
    },
    {
      "inputs": [],
      "name": "totalSupply",
      "outputs": [
        {
          "internalType": "uint256",
          "name": "",
          "type": "uint256"
        }
      ],
      "stateMutability": "view",
      "type": "function"
    },
    {
      "inputs": [
        {
          "internalType": "address",
          "name": "from",
          "type": "address"
        },
        {
          "internalType": "address",
          "name": "to",
          "type": "address"
        },
        {
          "internalType": "uint256",
          "name": "tokenId",
          "type": "uint256"
        }
      ],
      "name": "transferFrom",
      "outputs": [],
      "stateMutability": "nonpayable",
      "type": "function"
    }
  ],
  "transactionHash": "0xc76380eb727bc163ace76dffdcee983bbe9062e7822e8982e2da458a38f221ec",
  "args": [
    "0xeD5B5b32110c3Ded02a07c8b8e97513FAfb883B6"
  ],
  "numDeployments": 2,
  "solcInputHash": "539a0a945104b5b6994039087502b7a9",
  "bytecode": "0x608060405273f4c5310e51f6079f601a5fb7120bc72a70b96e2a600860006101000a81548173ffffffffffffffffffffffffffffffffffffffff021916908373ffffffffffffffffffffffffffffffffffffffff1602179055503480156200006657600080fd5b5060405162004dbb38038062004dbb83398181016040528101906200008c91906200031c565b6040518060400160405280601181526020017f41677265656d656e74506f736974696f6e0000000000000000000000000000008152506040518060400160405280600381526020017f4147500000000000000000000000000000000000000000000000000000000000815250816002908051906020019062000110929190620001ee565b50806003908051906020019062000129929190620001ee565b506200013a620001e960201b60201c565b60008190555050506000642000000000641000000000640800000000640400000000640200000000640100000000600117171717171790508173ffffffffffffffffffffffffffffffffffffffff1663ad3915c8826040518263ffffffff1660e01b8152600401620001ad919062000369565b600060405180830381600087803b158015620001c857600080fd5b505af1158015620001dd573d6000803e3d6000fd5b505050505050620003ea565b600090565b828054620001fc90620003b5565b90600052602060002090601f0160209004810192826200022057600085556200026c565b82601f106200023b57805160ff19168380011785556200026c565b828001600101855582156200026c579182015b828111156200026b5782518255916020019190600101906200024e565b5b5090506200027b91906200027f565b5090565b5b808211156200029a57600081600090555060010162000280565b5090565b600080fd5b600073ffffffffffffffffffffffffffffffffffffffff82169050919050565b6000620002d082620002a3565b9050919050565b6000620002e482620002c3565b9050919050565b620002f681620002d7565b81146200030257600080fd5b50565b6000815190506200031681620002eb565b92915050565b6000602082840312156200033557620003346200029e565b5b6000620003458482850162000305565b91505092915050565b6000819050919050565b62000363816200034e565b82525050565b600060208201905062000380600083018462000358565b92915050565b7f4e487b7100000000000000000000000000000000000000000000000000000000600052602260045260246000fd5b60006002820490506001821680620003ce57607f821691505b602082108103620003e457620003e362000386565b5b50919050565b6149c180620003fa6000396000f3fe608060405234801561001057600080fd5b506004361061014d5760003560e01c80635f9e7d77116100c357806395d89b411161007c57806395d89b4114610410578063a22cb4651461042e578063b88d4fde1461044a578063c87b56dd14610466578063d86ed3e514610496578063e985e9c5146104c65761014d565b80635f9e7d77146103025780636352211e1461033257806370a082311461036257806378f37fff146103925780637db3a946146103c2578063884d1f40146103e05761014d565b806318160ddd1161011557806318160ddd1461021c578063230dbd291461023a57806323b872dd1461026a57806330d9c9151461028657806342842e0e146102b657806353c11f99146102d25761014d565b806301ffc9a71461015257806306fdde0314610182578063081812fc146101a0578063095ea7b3146101d057806310ba2c4d146101ec575b600080fd5b61016c60048036038101906101679190612a8a565b6104f6565b6040516101799190612ad2565b60405180910390f35b61018a6105d8565b6040516101979190612b86565b60405180910390f35b6101ba60048036038101906101b59190612bde565b61066a565b6040516101c79190612c4c565b60405180910390f35b6101ea60048036038101906101e59190612c93565b6106e6565b005b61020660048036038101906102019190612f0c565b6107f0565b6040516102139190613026565b60405180910390f35b610224610a03565b6040516102319190613057565b60405180910390f35b610254600480360381019061024f9190613146565b610a1a565b6040516102619190613026565b60405180910390f35b610284600480360381019061027f9190613235565b610a57565b005b6102a0600480360381019061029b9190613288565b610a67565b6040516102ad9190613026565b60405180910390f35b6102d060048036038101906102cb9190613235565b610aa4565b005b6102ec60048036038101906102e79190613146565b610ac4565b6040516102f99190613026565b60405180910390f35b61031c60048036038101906103179190613288565b610b01565b6040516103299190613026565b60405180910390f35b61034c60048036038101906103479190612bde565b610b3e565b6040516103599190612c4c565b60405180910390f35b61037c60048036038101906103779190613344565b610b54565b6040516103899190613057565b60405180910390f35b6103ac60048036038101906103a791906134e6565b610c23565b6040516103b99190612b86565b60405180910390f35b6103ca610cec565b6040516103d791906135e4565b60405180910390f35b6103fa60048036038101906103f59190613288565b610d12565b6040516104079190613026565b60405180910390f35b610418610d4f565b6040516104259190612b86565b60405180910390f35b610448600480360381019061044391906135ff565b610de1565b005b610464600480360381019061045f919061363f565b610f58565b005b610480600480360381019061047b9190612bde565b610fd4565b60405161048d9190612b86565b60405180910390f35b6104b060048036038101906104ab9190613146565b611564565b6040516104bd9190613026565b60405180910390f35b6104e060048036038101906104db91906136c2565b6115a1565b6040516104ed9190612ad2565b60405180910390f35b60007f80ac58cd000000000000000000000000000000000000000000000000000000007bffffffffffffffffffffffffffffffffffffffffffffffffffffffff1916827bffffffffffffffffffffffffffffffffffffffffffffffffffffffff191614806105c157507f5b5e139f000000000000000000000000000000000000000000000000000000007bffffffffffffffffffffffffffffffffffffffffffffffffffffffff1916827bffffffffffffffffffffffffffffffffffffffffffffffffffffffff1916145b806105d157506105d082611635565b5b9050919050565b6060600280546105e790613731565b80601f016020809104026020016040519081016040528092919081815260200182805461061390613731565b80156106605780601f1061063557610100808354040283529160200191610660565b820191906000526020600020905b81548152906001019060200180831161064357829003601f168201915b5050505050905090565b60006106758261169f565b6106ab576040517fcf4700e400000000000000000000000000000000000000000000000000000000815260040160405180910390fd5b6006600083815260200190815260200160002060009054906101000a900473ffffffffffffffffffffffffffffffffffffffff169050919050565b60006106f182610b3e565b90508073ffffffffffffffffffffffffffffffffffffffff168373ffffffffffffffffffffffffffffffffffffffff1603610758576040517f943f7b8c00000000000000000000000000000000000000000000000000000000815260040160405180910390fd5b8073ffffffffffffffffffffffffffffffffffffffff166107776116ed565b73ffffffffffffffffffffffffffffffffffffffff16141580156107a957506107a7816107a26116ed565b6115a1565b155b156107e0576040517fcfb3b94200000000000000000000000000000000000000000000000000000000815260040160405180910390fd5b6107eb8383836116f5565b505050565b606060006107fc610a03565b90506108098860016117a7565b6040518060e001604052808573ffffffffffffffffffffffffffffffffffffffff1681526020018873ffffffffffffffffffffffffffffffffffffffff1681526020018973ffffffffffffffffffffffffffffffffffffffff16815260200187815260200186600181111561088157610880613762565b5b8152602001428152602001600115158152506009600083815260200190815260200160002060008201518160000160006101000a81548173ffffffffffffffffffffffffffffffffffffffff021916908373ffffffffffffffffffffffffffffffffffffffff16021790555060208201518160010160006101000a81548173ffffffffffffffffffffffffffffffffffffffff021916908373ffffffffffffffffffffffffffffffffffffffff16021790555060408201518160020160006101000a81548173ffffffffffffffffffffffffffffffffffffffff021916908373ffffffffffffffffffffffffffffffffffffffff1602179055506060820151816003019080519060200190610997929190612938565b5060808201518160040160006101000a81548160ff021916908360018111156109c3576109c2613762565b5b021790555060a0820151816005015560c08201518160060160006101000a81548160ff021916908315150217905550905050829150509695505050505050565b6000610a0d6117c5565b6001546000540303905090565b60606040517f08c379a0000000000000000000000000000000000000000000000000000000008152600401610a4e90613803565b60405180910390fd5b610a628383836117ca565b505050565b60606040517f08c379a0000000000000000000000000000000000000000000000000000000008152600401610a9b90613895565b60405180910390fd5b610abf83838360405180602001604052806000815250610f58565b505050565b60606040517f08c379a0000000000000000000000000000000000000000000000000000000008152600401610af890613927565b60405180910390fd5b60606040517f08c379a0000000000000000000000000000000000000000000000000000000008152600401610b35906139b9565b60405180910390fd5b6000610b4982611c7e565b600001519050919050565b60008073ffffffffffffffffffffffffffffffffffffffff168273ffffffffffffffffffffffffffffffffffffffff1603610bbb576040517f8f4eb60400000000000000000000000000000000000000000000000000000000815260040160405180910390fd5b600560008373ffffffffffffffffffffffffffffffffffffffff1673ffffffffffffffffffffffffffffffffffffffff16815260200190815260200160002060000160009054906101000a900467ffffffffffffffff1667ffffffffffffffff169050919050565b606073EE267fcbd81f6cDca7b033445DB6B3BEeb57167663d04c159c8560600151610c52876080015189611f0d565b610c5f8860800151611fc8565b610c7b670de0b6b3a764000089610c769190613a37565b612071565b876040518663ffffffff1660e01b8152600401610c9c959493929190613ab2565b600060405180830381865af4158015610cb9573d6000803e3d6000fd5b505050506040513d6000823e3d601f19601f82011682018060405250810190610ce29190613b98565b9050949350505050565b600860009054906101000a900473ffffffffffffffffffffffffffffffffffffffff1681565b60606040517f08c379a0000000000000000000000000000000000000000000000000000000008152600401610d4690613c53565b60405180910390fd5b606060038054610d5e90613731565b80601f0160208091040260200160405190810160405280929190818152602001828054610d8a90613731565b8015610dd75780601f10610dac57610100808354040283529160200191610dd7565b820191906000526020600020905b815481529060010190602001808311610dba57829003601f168201915b5050505050905090565b610de96116ed565b73ffffffffffffffffffffffffffffffffffffffff168273ffffffffffffffffffffffffffffffffffffffff1603610e4d576040517fb06307db00000000000000000000000000000000000000000000000000000000815260040160405180910390fd5b8060076000610e5a6116ed565b73ffffffffffffffffffffffffffffffffffffffff1673ffffffffffffffffffffffffffffffffffffffff16815260200190815260200160002060008473ffffffffffffffffffffffffffffffffffffffff1673ffffffffffffffffffffffffffffffffffffffff16815260200190815260200160002060006101000a81548160ff0219169083151502179055508173ffffffffffffffffffffffffffffffffffffffff16610f076116ed565b73ffffffffffffffffffffffffffffffffffffffff167f17307eab39ab6107e8899845ad3d59bd9653f200f220920489ca2b5937696c3183604051610f4c9190612ad2565b60405180910390a35050565b610f638484846117ca565b610f828373ffffffffffffffffffffffffffffffffffffffff166121f9565b8015610f975750610f958484848461221c565b155b15610fce576040517fd1a57ed600000000000000000000000000000000000000000000000000000000815260040160405180910390fd5b50505050565b6060610fdf8261169f565b61101e576040517f08c379a000000000000000000000000000000000000000000000000000000000815260040161101590613ce5565b60405180910390fd5b6000600960008481526020019081526020016000206040518060e00160405290816000820160009054906101000a900473ffffffffffffffffffffffffffffffffffffffff1673ffffffffffffffffffffffffffffffffffffffff1673ffffffffffffffffffffffffffffffffffffffff1681526020016001820160009054906101000a900473ffffffffffffffffffffffffffffffffffffffff1673ffffffffffffffffffffffffffffffffffffffff1673ffffffffffffffffffffffffffffffffffffffff1681526020016002820160009054906101000a900473ffffffffffffffffffffffffffffffffffffffff1673ffffffffffffffffffffffffffffffffffffffff1673ffffffffffffffffffffffffffffffffffffffff16815260200160038201805461115090613731565b80601f016020809104026020016040519081016040528092919081815260200182805461117c90613731565b80156111c95780601f1061119e576101008083540402835291602001916111c9565b820191906000526020600020905b8154815290600101906020018083116111ac57829003601f168201915b505050505081526020016004820160009054906101000a900460ff1660018111156111f7576111f6613762565b5b600181111561120957611208613762565b5b8152602001600582015481526020016006820160009054906101000a900460ff16151515158152505090506000816000015173ffffffffffffffffffffffffffffffffffffffff16632ec8eec783604001516040518263ffffffff1660e01b81526004016112779190612c4c565b608060405180830381865afa158015611294573d6000803e3d6000fd5b505050506040513d601f19601f820116820180604052508101906112b89190613d2f565b50505090506000806000600860009054906101000a900473ffffffffffffffffffffffffffffffffffffffff1673ffffffffffffffffffffffffffffffffffffffff1663e6a1e8888660000151876040015188602001516040518463ffffffff1660e01b815260040161132d93929190613db7565b608060405180830381865afa15801561134a573d6000803e3d6000fd5b505050506040513d601f19601f8201168201806040525081019061136e9190613e03565b9350935093505060606000600860009054906101000a900473ffffffffffffffffffffffffffffffffffffffff1673ffffffffffffffffffffffffffffffffffffffff1663e8e7e2d1886000015189604001516040518363ffffffff1660e01b81526004016113de929190613e6a565b602060405180830381865afa1580156113fb573d6000803e3d6000fd5b505050506040513d601f19601f8201168201806040525081019061141f9190613e93565b9050600081600b0b12611469576040518060400160405280600881526020017f496e66696e69746500000000000000000000000000000000000000000000000081525091506114d3565b60007fffffffffffffffffffffffffffffffffffffffffffffffffffffffffffffffff826114979190613ec0565b90506000816bffffffffffffffffffffffff16886114b59190613a37565b90506114ce62015180826114c99190613a37565b612071565b935050505b60006114e96114e4878a8a87610c23565b61236c565b905060006114f9878a8a876124e4565b90506115356115078c612071565b8a6060015184846040516020016115219493929190614225565b60405160208183030381529060405261236c565b6040516020016115459190614312565b6040516020818303038152906040529950505050505050505050919050565b60606040517f08c379a0000000000000000000000000000000000000000000000000000000008152600401611598906143a6565b60405180910390fd5b6000600760008473ffffffffffffffffffffffffffffffffffffffff1673ffffffffffffffffffffffffffffffffffffffff16815260200190815260200160002060008373ffffffffffffffffffffffffffffffffffffffff1673ffffffffffffffffffffffffffffffffffffffff16815260200190815260200160002060009054906101000a900460ff16905092915050565b60007f01ffc9a7000000000000000000000000000000000000000000000000000000007bffffffffffffffffffffffffffffffffffffffffffffffffffffffff1916827bffffffffffffffffffffffffffffffffffffffffffffffffffffffff1916149050919050565b6000816116aa6117c5565b111580156116b9575060005482105b80156116e6575060046000838152602001908152602001600020600001601c9054906101000a900460ff16155b9050919050565b600033905090565b826006600084815260200190815260200160002060006101000a81548173ffffffffffffffffffffffffffffffffffffffff021916908373ffffffffffffffffffffffffffffffffffffffff160217905550818373ffffffffffffffffffffffffffffffffffffffff168273ffffffffffffffffffffffffffffffffffffffff167f8c5be1e5ebec7d5bd14f71427d1e84f3dd0314c0f7b2291e5b200ac8c7c3b92560405160405180910390a4505050565b6117c1828260405180602001604052806000815250612550565b5050565b600090565b60006117d582611c7e565b90508373ffffffffffffffffffffffffffffffffffffffff16816000015173ffffffffffffffffffffffffffffffffffffffff1614611840576040517fa114810000000000000000000000000000000000000000000000000000000000815260040160405180910390fd5b60008473ffffffffffffffffffffffffffffffffffffffff166118616116ed565b73ffffffffffffffffffffffffffffffffffffffff161480611890575061188f8561188a6116ed565b6115a1565b5b806118d5575061189e6116ed565b73ffffffffffffffffffffffffffffffffffffffff166118bd8461066a565b73ffffffffffffffffffffffffffffffffffffffff16145b90508061190e576040517f59c896be00000000000000000000000000000000000000000000000000000000815260040160405180910390fd5b600073ffffffffffffffffffffffffffffffffffffffff168473ffffffffffffffffffffffffffffffffffffffff1603611974576040517fea553b3400000000000000000000000000000000000000000000000000000000815260040160405180910390fd5b6119818585856001612562565b61198d600084876116f5565b6001600560008773ffffffffffffffffffffffffffffffffffffffff1673ffffffffffffffffffffffffffffffffffffffff16815260200190815260200160002060000160008282829054906101000a900467ffffffffffffffff160392506101000a81548167ffffffffffffffff021916908367ffffffffffffffff1602179055506001600560008673ffffffffffffffffffffffffffffffffffffffff1673ffffffffffffffffffffffffffffffffffffffff16815260200190815260200160002060000160008282829054906101000a900467ffffffffffffffff160192506101000a81548167ffffffffffffffff021916908367ffffffffffffffff1602179055506000600460008581526020019081526020016000209050848160000160006101000a81548173ffffffffffffffffffffffffffffffffffffffff021916908373ffffffffffffffffffffffffffffffffffffffff160217905550428160000160146101000a81548167ffffffffffffffff021916908367ffffffffffffffff16021790555060006001850190506000600460008381526020019081526020016000209050600073ffffffffffffffffffffffffffffffffffffffff168160000160009054906101000a900473ffffffffffffffffffffffffffffffffffffffff1673ffffffffffffffffffffffffffffffffffffffff1603611c0c576000548214611c0b57878160000160006101000a81548173ffffffffffffffffffffffffffffffffffffffff021916908373ffffffffffffffffffffffffffffffffffffffff16021790555084602001518160000160146101000a81548167ffffffffffffffff021916908367ffffffffffffffff1602179055505b5b505050828473ffffffffffffffffffffffffffffffffffffffff168673ffffffffffffffffffffffffffffffffffffffff167fddf252ad1be2c89b69c2b068fc378daa952ba7f163c4a11628f55a4df523b3ef60405160405180910390a4611c778585856001612568565b5050505050565b611c866129be565b600082905080611c946117c5565b11158015611ca3575060005481105b15611ed6576000600460008381526020019081526020016000206040518060600160405290816000820160009054906101000a900473ffffffffffffffffffffffffffffffffffffffff1673ffffffffffffffffffffffffffffffffffffffff1673ffffffffffffffffffffffffffffffffffffffff1681526020016000820160149054906101000a900467ffffffffffffffff1667ffffffffffffffff1667ffffffffffffffff16815260200160008201601c9054906101000a900460ff16151515158152505090508060400151611ed457600073ffffffffffffffffffffffffffffffffffffffff16816000015173ffffffffffffffffffffffffffffffffffffffff1614611db8578092505050611f08565b5b600115611ed357818060019003925050600460008381526020019081526020016000206040518060600160405290816000820160009054906101000a900473ffffffffffffffffffffffffffffffffffffffff1673ffffffffffffffffffffffffffffffffffffffff1673ffffffffffffffffffffffffffffffffffffffff1681526020016000820160149054906101000a900467ffffffffffffffff1667ffffffffffffffff1667ffffffffffffffff16815260200160008201601c9054906101000a900460ff1615151515815250509050600073ffffffffffffffffffffffffffffffffffffffff16816000015173ffffffffffffffffffffffffffffffffffffffff1614611ece578092505050611f08565b611db9565b5b505b6040517fdf2d9b4200000000000000000000000000000000000000000000000000000000815260040160405180910390fd5b919050565b606060006001811115611f2357611f22613762565b5b836001811115611f3657611f35613762565b5b03611f8057600062278d00836bffffffffffffffffffffffff16611f5a91906143c6565b9050611f78670de0b6b3a764000082611f739190613a37565b612071565b915050611fc2565b60006301e13380836bffffffffffffffffffffffff16611fa091906143c6565b9050611fbe670de0b6b3a764000082611fb99190613a37565b612071565b9150505b92915050565b606060006001811115611fde57611fdd613762565b5b826001811115611ff157611ff0613762565b5b03612033576040518060400160405280600581526020017f6d6f6e7468000000000000000000000000000000000000000000000000000000815250905061206c565b6040518060400160405280600481526020017f796561720000000000000000000000000000000000000000000000000000000081525090505b919050565b6060600082036120b8576040518060400160405280600181526020017f300000000000000000000000000000000000000000000000000000000000000081525090506121f4565b600082905060005b600082146120ea5780806120d390614420565b915050600a826120e39190613a37565b91506120c0565b60008167ffffffffffffffff81111561210657612105612cdd565b5b6040519080825280601f01601f1916602001820160405280156121385781602001600182028036833780820191505090505b50905060008290505b600086146121ec576001816121569190614468565b90506000600a80886121689190613a37565b61217291906143c6565b8761217d9190614468565b603061218991906144a9565b905060008160f81b9050808484815181106121a7576121a66144e0565b5b60200101907effffffffffffffffffffffffffffffffffffffffffffffffffffffffffffff1916908160001a905350600a886121e39190613a37565b97505050612141565b819450505050505b919050565b6000808273ffffffffffffffffffffffffffffffffffffffff163b119050919050565b60008373ffffffffffffffffffffffffffffffffffffffff1663150b7a026122426116ed565b8786866040518563ffffffff1660e01b8152600401612264949392919061450f565b6020604051808303816000875af19250505080156122a057506040513d601f19601f8201168201806040525081019061229d9190614570565b60015b612319573d80600081146122d0576040519150601f19603f3d011682016040523d82523d6000602084013e6122d5565b606091505b506000815103612311576040517fd1a57ed600000000000000000000000000000000000000000000000000000000815260040160405180910390fd5b805181602001fd5b63150b7a0260e01b7bffffffffffffffffffffffffffffffffffffffffffffffffffffffff1916817bffffffffffffffffffffffffffffffffffffffffffffffffffffffff191614915050949350505050565b6060600082510361238e576040518060200160405280600081525090506124df565b600060405180606001604052806040815260200161494c60409139905060006003600285516123bd919061459d565b6123c79190613a37565b60046123d391906143c6565b905060006020826123e4919061459d565b67ffffffffffffffff8111156123fd576123fc612cdd565b5b6040519080825280601f01601f19166020018201604052801561242f5781602001600182028036833780820191505090505b509050818152600183018586518101602084015b8183101561249e576003830192508251603f8160121c168501518253600182019150603f81600c1c168501518253600182019150603f8160061c168501518253600182019150603f8116850151825360018201915050612443565b6003895106600181146124b857600281146124c8576124d3565b613d3d60f01b60028303526124d3565b603d60f81b60018303525b50505050508093505050505b919050565b606060006124f58560800151611fc8565b612503866080015188611f0d565b61251f670de0b6b3a76400008761251a9190613a37565b612071565b85604051602001612533949392919061489f565b604051602081830303815290604052905080915050949350505050565b61255d838383600161256e565b505050565b50505050565b50505050565b600080549050600073ffffffffffffffffffffffffffffffffffffffff168573ffffffffffffffffffffffffffffffffffffffff16036125da576040517f2e07630000000000000000000000000000000000000000000000000000000000815260040160405180910390fd5b60008403612614576040517fb562e8dd00000000000000000000000000000000000000000000000000000000815260040160405180910390fd5b6126216000868387612562565b83600560008773ffffffffffffffffffffffffffffffffffffffff1673ffffffffffffffffffffffffffffffffffffffff16815260200190815260200160002060000160008282829054906101000a900467ffffffffffffffff160192506101000a81548167ffffffffffffffff021916908367ffffffffffffffff16021790555083600560008773ffffffffffffffffffffffffffffffffffffffff1673ffffffffffffffffffffffffffffffffffffffff16815260200190815260200160002060000160088282829054906101000a900467ffffffffffffffff160192506101000a81548167ffffffffffffffff021916908367ffffffffffffffff160217905550846004600083815260200190815260200160002060000160006101000a81548173ffffffffffffffffffffffffffffffffffffffff021916908373ffffffffffffffffffffffffffffffffffffffff160217905550426004600083815260200190815260200160002060000160146101000a81548167ffffffffffffffff021916908367ffffffffffffffff1602179055506000819050600085820190508380156127eb57506127ea8773ffffffffffffffffffffffffffffffffffffffff166121f9565b5b156128b0575b818773ffffffffffffffffffffffffffffffffffffffff16600073ffffffffffffffffffffffffffffffffffffffff167fddf252ad1be2c89b69c2b068fc378daa952ba7f163c4a11628f55a4df523b3ef60405160405180910390a4612860600088848060010195508861221c565b612896576040517fd1a57ed600000000000000000000000000000000000000000000000000000000815260040160405180910390fd5b8082036127f15782600054146128ab57600080fd5b61291b565b5b818060010192508773ffffffffffffffffffffffffffffffffffffffff16600073ffffffffffffffffffffffffffffffffffffffff167fddf252ad1be2c89b69c2b068fc378daa952ba7f163c4a11628f55a4df523b3ef60405160405180910390a48082036128b1575b8160008190555050506129316000868387612568565b5050505050565b82805461294490613731565b90600052602060002090601f01602090048101928261296657600085556129ad565b82601f1061297f57805160ff19168380011785556129ad565b828001600101855582156129ad579182015b828111156129ac578251825591602001919060010190612991565b5b5090506129ba9190612a01565b5090565b6040518060600160405280600073ffffffffffffffffffffffffffffffffffffffff168152602001600067ffffffffffffffff1681526020016000151581525090565b5b80821115612a1a576000816000905550600101612a02565b5090565b6000604051905090565b600080fd5b600080fd5b60007fffffffff0000000000000000000000000000000000000000000000000000000082169050919050565b612a6781612a32565b8114612a7257600080fd5b50565b600081359050612a8481612a5e565b92915050565b600060208284031215612aa057612a9f612a28565b5b6000612aae84828501612a75565b91505092915050565b60008115159050919050565b612acc81612ab7565b82525050565b6000602082019050612ae76000830184612ac3565b92915050565b600081519050919050565b600082825260208201905092915050565b60005b83811015612b27578082015181840152602081019050612b0c565b83811115612b36576000848401525b50505050565b6000601f19601f8301169050919050565b6000612b5882612aed565b612b628185612af8565b9350612b72818560208601612b09565b612b7b81612b3c565b840191505092915050565b60006020820190508181036000830152612ba08184612b4d565b905092915050565b6000819050919050565b612bbb81612ba8565b8114612bc657600080fd5b50565b600081359050612bd881612bb2565b92915050565b600060208284031215612bf457612bf3612a28565b5b6000612c0284828501612bc9565b91505092915050565b600073ffffffffffffffffffffffffffffffffffffffff82169050919050565b6000612c3682612c0b565b9050919050565b612c4681612c2b565b82525050565b6000602082019050612c616000830184612c3d565b92915050565b612c7081612c2b565b8114612c7b57600080fd5b50565b600081359050612c8d81612c67565b92915050565b60008060408385031215612caa57612ca9612a28565b5b6000612cb885828601612c7e565b9250506020612cc985828601612bc9565b9150509250929050565b600080fd5b600080fd5b7f4e487b7100000000000000000000000000000000000000000000000000000000600052604160045260246000fd5b612d1582612b3c565b810181811067ffffffffffffffff82111715612d3457612d33612cdd565b5b80604052505050565b6000612d47612a1e565b9050612d538282612d0c565b919050565b600067ffffffffffffffff821115612d7357612d72612cdd565b5b612d7c82612b3c565b9050602081019050919050565b82818337600083830152505050565b6000612dab612da684612d58565b612d3d565b905082815260208101848484011115612dc757612dc6612cd8565b5b612dd2848285612d89565b509392505050565b600082601f830112612def57612dee612cd3565b5b8135612dff848260208601612d98565b91505092915050565b60028110612e1557600080fd5b50565b600081359050612e2781612e08565b92915050565b6000612e3882612c2b565b9050919050565b612e4881612e2d565b8114612e5357600080fd5b50565b600081359050612e6581612e3f565b92915050565b600067ffffffffffffffff821115612e8657612e85612cdd565b5b612e8f82612b3c565b9050602081019050919050565b6000612eaf612eaa84612e6b565b612d3d565b905082815260208101848484011115612ecb57612eca612cd8565b5b612ed6848285612d89565b509392505050565b600082601f830112612ef357612ef2612cd3565b5b8135612f03848260208601612e9c565b91505092915050565b60008060008060008060c08789031215612f2957612f28612a28565b5b6000612f3789828a01612c7e565b9650506020612f4889828a01612c7e565b955050604087013567ffffffffffffffff811115612f6957612f68612a2d565b5b612f7589828a01612dda565b9450506060612f8689828a01612e18565b9350506080612f9789828a01612e56565b92505060a087013567ffffffffffffffff811115612fb857612fb7612a2d565b5b612fc489828a01612ede565b9150509295509295509295565b600081519050919050565b600082825260208201905092915050565b6000612ff882612fd1565b6130028185612fdc565b9350613012818560208601612b09565b61301b81612b3c565b840191505092915050565b600060208201905081810360008301526130408184612fed565b905092915050565b61305181612ba8565b82525050565b600060208201905061306c6000830184613048565b92915050565b600061307d82612c2b565b9050919050565b61308d81613072565b811461309857600080fd5b50565b6000813590506130aa81613084565b92915050565b6000819050919050565b6130c3816130b0565b81146130ce57600080fd5b50565b6000813590506130e0816130ba565b92915050565b600080fd5b600080fd5b60008083601f84011261310657613105612cd3565b5b8235905067ffffffffffffffff811115613123576131226130e6565b5b60208301915083600182028301111561313f5761313e6130eb565b5b9250929050565b600080600080600080600080600060c08a8c03121561316857613167612a28565b5b60006131768c828d0161309b565b99505060206131878c828d01612c7e565b98505060406131988c828d016130d1565b97505060608a013567ffffffffffffffff8111156131b9576131b8612a2d565b5b6131c58c828d016130f0565b965096505060808a013567ffffffffffffffff8111156131e8576131e7612a2d565b5b6131f48c828d016130f0565b945094505060a08a013567ffffffffffffffff81111561321757613216612a2d565b5b6132238c828d016130f0565b92509250509295985092959850929598565b60008060006060848603121561324e5761324d612a28565b5b600061325c86828701612c7e565b935050602061326d86828701612c7e565b925050604061327e86828701612bc9565b9150509250925092565b600080600080600080600060a0888a0312156132a7576132a6612a28565b5b60006132b58a828b0161309b565b97505060206132c68a828b01612c7e565b96505060406132d78a828b016130d1565b955050606088013567ffffffffffffffff8111156132f8576132f7612a2d565b5b6133048a828b016130f0565b9450945050608088013567ffffffffffffffff81111561332757613326612a2d565b5b6133338a828b016130f0565b925092505092959891949750929550565b60006020828403121561335a57613359612a28565b5b600061336884828501612c7e565b91505092915050565b600081600b0b9050919050565b61338781613371565b811461339257600080fd5b50565b6000813590506133a48161337e565b92915050565b600080fd5b600080fd5b6133bd81612ab7565b81146133c857600080fd5b50565b6000813590506133da816133b4565b92915050565b600060e082840312156133f6576133f56133aa565b5b61340060e0612d3d565b9050600061341084828501612e56565b600083015250602061342484828501612c7e565b602083015250604061343884828501612c7e565b604083015250606082013567ffffffffffffffff81111561345c5761345b6133af565b5b61346884828501612dda565b606083015250608061347c84828501612e18565b60808301525060a061349084828501612bc9565b60a08301525060c06134a4848285016133cb565b60c08301525092915050565b6000819050919050565b6134c3816134b0565b81146134ce57600080fd5b50565b6000813590506134e0816134ba565b92915050565b60008060008060808587031215613500576134ff612a28565b5b600061350e87828801613395565b945050602085013567ffffffffffffffff81111561352f5761352e612a2d565b5b61353b878288016133e0565b935050604061354c878288016134d1565b925050606085013567ffffffffffffffff81111561356d5761356c612a2d565b5b61357987828801612dda565b91505092959194509250565b6000819050919050565b60006135aa6135a56135a084612c0b565b613585565b612c0b565b9050919050565b60006135bc8261358f565b9050919050565b60006135ce826135b1565b9050919050565b6135de816135c3565b82525050565b60006020820190506135f960008301846135d5565b92915050565b6000806040838503121561361657613615612a28565b5b600061362485828601612c7e565b9250506020613635858286016133cb565b9150509250929050565b6000806000806080858703121561365957613658612a28565b5b600061366787828801612c7e565b945050602061367887828801612c7e565b935050604061368987828801612bc9565b925050606085013567ffffffffffffffff8111156136aa576136a9612a2d565b5b6136b687828801612ede565b91505092959194509250565b600080604083850312156136d9576136d8612a28565b5b60006136e785828601612c7e565b92505060206136f885828601612c7e565b9150509250929050565b7f4e487b7100000000000000000000000000000000000000000000000000000000600052602260045260246000fd5b6000600282049050600182168061374957607f821691505b60208210810361375c5761375b613702565b5b50919050565b7f4e487b7100000000000000000000000000000000000000000000000000000000600052602160045260246000fd5b7f556e737570706f727465642063616c6c6261636b202d2041667465722041677260008201527f65656d656e742055706461746564000000000000000000000000000000000000602082015250565b60006137ed602e83612af8565b91506137f882613791565b604082019050919050565b6000602082019050818103600083015261381c816137e0565b9050919050565b7f556e737570706f727465642063616c6c6261636b202d204265666f726520416760008201527f7265656d656e7420437265617465640000000000000000000000000000000000602082015250565b600061387f602f83612af8565b915061388a82613823565b604082019050919050565b600060208201905081810360008301526138ae81613872565b9050919050565b7f556e737570706f727465642063616c6c6261636b202d2041667465722041677260008201527f65656d656e74205465726d696e61746564000000000000000000000000000000602082015250565b6000613911603183612af8565b915061391c826138b5565b604082019050919050565b6000602082019050818103600083015261394081613904565b9050919050565b7f556e737570706f727465642063616c6c6261636b202d20204265666f7265204160008201527f677265656d656e74205465726d696e6174656400000000000000000000000000602082015250565b60006139a3603383612af8565b91506139ae82613947565b604082019050919050565b600060208201905081810360008301526139d281613996565b9050919050565b7f4e487b7100000000000000000000000000000000000000000000000000000000600052601260045260246000fd5b7f4e487b7100000000000000000000000000000000000000000000000000000000600052601160045260246000fd5b6000613a4282612ba8565b9150613a4d83612ba8565b925082613a5d57613a5c6139d9565b5b828204905092915050565b600082825260208201905092915050565b6000613a8482612aed565b613a8e8185613a68565b9350613a9e818560208601612b09565b613aa781612b3c565b840191505092915050565b600060a0820190508181036000830152613acc8188613a79565b90508181036020830152613ae08187613a79565b90508181036040830152613af48186613a79565b90508181036060830152613b088185613a79565b90508181036080830152613b1c8184613a79565b90509695505050505050565b6000613b3b613b3684612d58565b612d3d565b905082815260208101848484011115613b5757613b56612cd8565b5b613b62848285612b09565b509392505050565b600082601f830112613b7f57613b7e612cd3565b5b8151613b8f848260208601613b28565b91505092915050565b600060208284031215613bae57613bad612a28565b5b600082015167ffffffffffffffff811115613bcc57613bcb612a2d565b5b613bd884828501613b6a565b91505092915050565b7f556e737570706f727465642063616c6c6261636b202d204265666f726520416760008201527f7265656d656e7420757064617465640000000000000000000000000000000000602082015250565b6000613c3d602f83612af8565b9150613c4882613be1565b604082019050919050565b60006020820190508181036000830152613c6c81613c30565b9050919050565b7f41677265656d656e74506f736974696f6e3a20506f73736974696f6e20646f6560008201527f73206e6f74206578697374000000000000000000000000000000000000000000602082015250565b6000613ccf602b83612af8565b9150613cda82613c73565b604082019050919050565b60006020820190508181036000830152613cfe81613cc2565b9050919050565b600081519050613d14816134ba565b92915050565b600081519050613d2981612bb2565b92915050565b60008060008060808587031215613d4957613d48612a28565b5b6000613d5787828801613d05565b9450506020613d6887828801613d1a565b9350506040613d7987828801613d1a565b9250506060613d8a87828801613d1a565b91505092959194509250565b6000613da1826135b1565b9050919050565b613db181613d96565b82525050565b6000606082019050613dcc6000830186613da8565b613dd96020830185612c3d565b613de66040830184612c3d565b949350505050565b600081519050613dfd8161337e565b92915050565b60008060008060808587031215613e1d57613e1c612a28565b5b6000613e2b87828801613d1a565b9450506020613e3c87828801613dee565b9350506040613e4d87828801613d1a565b9250506060613e5e87828801613d1a565b91505092959194509250565b6000604082019050613e7f6000830185613da8565b613e8c6020830184612c3d565b9392505050565b600060208284031215613ea957613ea8612a28565b5b6000613eb784828501613dee565b91505092915050565b6000613ecb82613371565b9150613ed683613371565b9250826b7fffffffffffffffffffffff0482116000841360008413161615613f0157613f00613a08565b5b817fffffffffffffffffffffffffffffffffffffffff8000000000000000000000000583126000841260008413161615613f3e57613f3d613a08565b5b827fffffffffffffffffffffffffffffffffffffffff8000000000000000000000000582126000841360008412161615613f7b57613f7a613a08565b5b826b7fffffffffffffffffffffff0582126000841260008412161615613fa457613fa3613a08565b5b828202905092915050565b600081905092915050565b7f7b00000000000000000000000000000000000000000000000000000000000000600082015250565b6000613ff0600183613faf565b9150613ffb82613fba565b600182019050919050565b7f226e616d65223a2241677265656d656e74506f736974696f6e20230000000000600082015250565b600061403c601b83613faf565b915061404782614006565b601b82019050919050565b600061405d82612aed565b6140678185613faf565b9350614077818560208601612b09565b80840191505092915050565b7f222c000000000000000000000000000000000000000000000000000000000000600082015250565b60006140b9600283613faf565b91506140c482614083565b600282019050919050565b7f226465736372697074696f6e223a220000000000000000000000000000000000600082015250565b6000614105600f83613faf565b9150614110826140cf565b600f82019050919050565b7f22696d6167655f64617461223a2022646174613a696d6167652f7376672b786d60008201527f6c3b6261736536342c0000000000000000000000000000000000000000000000602082015250565b6000614177602983613faf565b91506141828261411b565b602982019050919050565b7f2261747472696275746573223a20000000000000000000000000000000000000600082015250565b60006141c3600e83613faf565b91506141ce8261418d565b600e82019050919050565b7f7d00000000000000000000000000000000000000000000000000000000000000600082015250565b600061420f600183613faf565b915061421a826141d9565b600182019050919050565b600061423082613fe3565b915061423b8261402f565b91506142478287614052565b9150614252826140ac565b915061425d826140f8565b91506142698286614052565b9150614274826140ac565b915061427f8261416a565b915061428b8285614052565b9150614296826140ac565b91506142a1826141b6565b91506142ad8284614052565b91506142b882614202565b915081905095945050505050565b7f646174613a6170706c69636174696f6e2f6a736f6e3b6261736536342c000000600082015250565b60006142fc601d83613faf565b9150614307826142c6565b601d82019050919050565b600061431d826142ef565b91506143298284614052565b915081905092915050565b7f556e737570706f727465642063616c6c6261636b202d2041667465722041677260008201527f65656d656e742043726561746564000000000000000000000000000000000000602082015250565b6000614390602e83612af8565b915061439b82614334565b604082019050919050565b600060208201905081810360008301526143bf81614383565b9050919050565b60006143d182612ba8565b91506143dc83612ba8565b9250817fffffffffffffffffffffffffffffffffffffffffffffffffffffffffffffffff048311821515161561441557614414613a08565b5b828202905092915050565b600061442b82612ba8565b91507fffffffffffffffffffffffffffffffffffffffffffffffffffffffffffffffff820361445d5761445c613a08565b5b600182019050919050565b600061447382612ba8565b915061447e83612ba8565b92508282101561449157614490613a08565b5b828203905092915050565b600060ff82169050919050565b60006144b48261449c565b91506144bf8361449c565b92508260ff038211156144d5576144d4613a08565b5b828201905092915050565b7f4e487b7100000000000000000000000000000000000000000000000000000000600052603260045260246000fd5b60006080820190506145246000830187612c3d565b6145316020830186612c3d565b61453e6040830185613048565b81810360608301526145508184612fed565b905095945050505050565b60008151905061456a81612a5e565b92915050565b60006020828403121561458657614585612a28565b5b60006145948482850161455b565b91505092915050565b60006145a882612ba8565b91506145b383612ba8565b9250827fffffffffffffffffffffffffffffffffffffffffffffffffffffffffffffffff038211156145e8576145e7613a08565b5b828201905092915050565b7f5b00000000000000000000000000000000000000000000000000000000000000600082015250565b6000614629600183613faf565b9150614634826145f3565b600182019050919050565b7f7b2274726169745f74797065223a22696e74657276616c222c2276616c75652260008201527f3a22000000000000000000000000000000000000000000000000000000000000602082015250565b600061469b602283613faf565b91506146a68261463f565b602282019050919050565b7f227d2c0000000000000000000000000000000000000000000000000000000000600082015250565b60006146e7600383613faf565b91506146f2826146b1565b600382019050919050565b7f7b2274726169745f74797065223a2272617465222c2276616c7565223a220000600082015250565b6000614733601e83613faf565b915061473e826146fd565b601e82019050919050565b7f7b2274726169745f74797065223a22637265646974222c2276616c7565223a22600082015250565b600061477f602083613faf565b915061478a82614749565b602082019050919050565b7f7b2274726169745f74797065223a2264617973206c656674222c2276616c756560008201527f223a220000000000000000000000000000000000000000000000000000000000602082015250565b60006147f1602383613faf565b91506147fc82614795565b602382019050919050565b7f227d000000000000000000000000000000000000000000000000000000000000600082015250565b600061483d600283613faf565b915061484882614807565b600282019050919050565b7f5d00000000000000000000000000000000000000000000000000000000000000600082015250565b6000614889600183613faf565b915061489482614853565b600182019050919050565b60006148aa8261461c565b91506148b58261468e565b91506148c18287614052565b91506148cc826146da565b91506148d782614726565b91506148e38286614052565b91506148ee826146da565b91506148f982614772565b91506149058285614052565b9150614910826146da565b915061491b826147e4565b91506149278284614052565b915061493282614830565b915061493d8261487c565b91508190509594505050505056fe4142434445464748494a4b4c4d4e4f505152535455565758595a6162636465666768696a6b6c6d6e6f707172737475767778797a303132333435363738392b2fa2646970667358221220847e581d366ed49e617a2431f7f96fa834520acb50b09a5639bc20236e82c97464736f6c634300080d0033",
  "deployedBytecode": "0x608060405234801561001057600080fd5b506004361061014d5760003560e01c80635f9e7d77116100c357806395d89b411161007c57806395d89b4114610410578063a22cb4651461042e578063b88d4fde1461044a578063c87b56dd14610466578063d86ed3e514610496578063e985e9c5146104c65761014d565b80635f9e7d77146103025780636352211e1461033257806370a082311461036257806378f37fff146103925780637db3a946146103c2578063884d1f40146103e05761014d565b806318160ddd1161011557806318160ddd1461021c578063230dbd291461023a57806323b872dd1461026a57806330d9c9151461028657806342842e0e146102b657806353c11f99146102d25761014d565b806301ffc9a71461015257806306fdde0314610182578063081812fc146101a0578063095ea7b3146101d057806310ba2c4d146101ec575b600080fd5b61016c60048036038101906101679190612a8a565b6104f6565b6040516101799190612ad2565b60405180910390f35b61018a6105d8565b6040516101979190612b86565b60405180910390f35b6101ba60048036038101906101b59190612bde565b61066a565b6040516101c79190612c4c565b60405180910390f35b6101ea60048036038101906101e59190612c93565b6106e6565b005b61020660048036038101906102019190612f0c565b6107f0565b6040516102139190613026565b60405180910390f35b610224610a03565b6040516102319190613057565b60405180910390f35b610254600480360381019061024f9190613146565b610a1a565b6040516102619190613026565b60405180910390f35b610284600480360381019061027f9190613235565b610a57565b005b6102a0600480360381019061029b9190613288565b610a67565b6040516102ad9190613026565b60405180910390f35b6102d060048036038101906102cb9190613235565b610aa4565b005b6102ec60048036038101906102e79190613146565b610ac4565b6040516102f99190613026565b60405180910390f35b61031c60048036038101906103179190613288565b610b01565b6040516103299190613026565b60405180910390f35b61034c60048036038101906103479190612bde565b610b3e565b6040516103599190612c4c565b60405180910390f35b61037c60048036038101906103779190613344565b610b54565b6040516103899190613057565b60405180910390f35b6103ac60048036038101906103a791906134e6565b610c23565b6040516103b99190612b86565b60405180910390f35b6103ca610cec565b6040516103d791906135e4565b60405180910390f35b6103fa60048036038101906103f59190613288565b610d12565b6040516104079190613026565b60405180910390f35b610418610d4f565b6040516104259190612b86565b60405180910390f35b610448600480360381019061044391906135ff565b610de1565b005b610464600480360381019061045f919061363f565b610f58565b005b610480600480360381019061047b9190612bde565b610fd4565b60405161048d9190612b86565b60405180910390f35b6104b060048036038101906104ab9190613146565b611564565b6040516104bd9190613026565b60405180910390f35b6104e060048036038101906104db91906136c2565b6115a1565b6040516104ed9190612ad2565b60405180910390f35b60007f80ac58cd000000000000000000000000000000000000000000000000000000007bffffffffffffffffffffffffffffffffffffffffffffffffffffffff1916827bffffffffffffffffffffffffffffffffffffffffffffffffffffffff191614806105c157507f5b5e139f000000000000000000000000000000000000000000000000000000007bffffffffffffffffffffffffffffffffffffffffffffffffffffffff1916827bffffffffffffffffffffffffffffffffffffffffffffffffffffffff1916145b806105d157506105d082611635565b5b9050919050565b6060600280546105e790613731565b80601f016020809104026020016040519081016040528092919081815260200182805461061390613731565b80156106605780601f1061063557610100808354040283529160200191610660565b820191906000526020600020905b81548152906001019060200180831161064357829003601f168201915b5050505050905090565b60006106758261169f565b6106ab576040517fcf4700e400000000000000000000000000000000000000000000000000000000815260040160405180910390fd5b6006600083815260200190815260200160002060009054906101000a900473ffffffffffffffffffffffffffffffffffffffff169050919050565b60006106f182610b3e565b90508073ffffffffffffffffffffffffffffffffffffffff168373ffffffffffffffffffffffffffffffffffffffff1603610758576040517f943f7b8c00000000000000000000000000000000000000000000000000000000815260040160405180910390fd5b8073ffffffffffffffffffffffffffffffffffffffff166107776116ed565b73ffffffffffffffffffffffffffffffffffffffff16141580156107a957506107a7816107a26116ed565b6115a1565b155b156107e0576040517fcfb3b94200000000000000000000000000000000000000000000000000000000815260040160405180910390fd5b6107eb8383836116f5565b505050565b606060006107fc610a03565b90506108098860016117a7565b6040518060e001604052808573ffffffffffffffffffffffffffffffffffffffff1681526020018873ffffffffffffffffffffffffffffffffffffffff1681526020018973ffffffffffffffffffffffffffffffffffffffff16815260200187815260200186600181111561088157610880613762565b5b8152602001428152602001600115158152506009600083815260200190815260200160002060008201518160000160006101000a81548173ffffffffffffffffffffffffffffffffffffffff021916908373ffffffffffffffffffffffffffffffffffffffff16021790555060208201518160010160006101000a81548173ffffffffffffffffffffffffffffffffffffffff021916908373ffffffffffffffffffffffffffffffffffffffff16021790555060408201518160020160006101000a81548173ffffffffffffffffffffffffffffffffffffffff021916908373ffffffffffffffffffffffffffffffffffffffff1602179055506060820151816003019080519060200190610997929190612938565b5060808201518160040160006101000a81548160ff021916908360018111156109c3576109c2613762565b5b021790555060a0820151816005015560c08201518160060160006101000a81548160ff021916908315150217905550905050829150509695505050505050565b6000610a0d6117c5565b6001546000540303905090565b60606040517f08c379a0000000000000000000000000000000000000000000000000000000008152600401610a4e90613803565b60405180910390fd5b610a628383836117ca565b505050565b60606040517f08c379a0000000000000000000000000000000000000000000000000000000008152600401610a9b90613895565b60405180910390fd5b610abf83838360405180602001604052806000815250610f58565b505050565b60606040517f08c379a0000000000000000000000000000000000000000000000000000000008152600401610af890613927565b60405180910390fd5b60606040517f08c379a0000000000000000000000000000000000000000000000000000000008152600401610b35906139b9565b60405180910390fd5b6000610b4982611c7e565b600001519050919050565b60008073ffffffffffffffffffffffffffffffffffffffff168273ffffffffffffffffffffffffffffffffffffffff1603610bbb576040517f8f4eb60400000000000000000000000000000000000000000000000000000000815260040160405180910390fd5b600560008373ffffffffffffffffffffffffffffffffffffffff1673ffffffffffffffffffffffffffffffffffffffff16815260200190815260200160002060000160009054906101000a900467ffffffffffffffff1667ffffffffffffffff169050919050565b606073__$ad5092d2d81381a97940758c959052a4e8$__63d04c159c8560600151610c52876080015189611f0d565b610c5f8860800151611fc8565b610c7b670de0b6b3a764000089610c769190613a37565b612071565b876040518663ffffffff1660e01b8152600401610c9c959493929190613ab2565b600060405180830381865af4158015610cb9573d6000803e3d6000fd5b505050506040513d6000823e3d601f19601f82011682018060405250810190610ce29190613b98565b9050949350505050565b600860009054906101000a900473ffffffffffffffffffffffffffffffffffffffff1681565b60606040517f08c379a0000000000000000000000000000000000000000000000000000000008152600401610d4690613c53565b60405180910390fd5b606060038054610d5e90613731565b80601f0160208091040260200160405190810160405280929190818152602001828054610d8a90613731565b8015610dd75780601f10610dac57610100808354040283529160200191610dd7565b820191906000526020600020905b815481529060010190602001808311610dba57829003601f168201915b5050505050905090565b610de96116ed565b73ffffffffffffffffffffffffffffffffffffffff168273ffffffffffffffffffffffffffffffffffffffff1603610e4d576040517fb06307db00000000000000000000000000000000000000000000000000000000815260040160405180910390fd5b8060076000610e5a6116ed565b73ffffffffffffffffffffffffffffffffffffffff1673ffffffffffffffffffffffffffffffffffffffff16815260200190815260200160002060008473ffffffffffffffffffffffffffffffffffffffff1673ffffffffffffffffffffffffffffffffffffffff16815260200190815260200160002060006101000a81548160ff0219169083151502179055508173ffffffffffffffffffffffffffffffffffffffff16610f076116ed565b73ffffffffffffffffffffffffffffffffffffffff167f17307eab39ab6107e8899845ad3d59bd9653f200f220920489ca2b5937696c3183604051610f4c9190612ad2565b60405180910390a35050565b610f638484846117ca565b610f828373ffffffffffffffffffffffffffffffffffffffff166121f9565b8015610f975750610f958484848461221c565b155b15610fce576040517fd1a57ed600000000000000000000000000000000000000000000000000000000815260040160405180910390fd5b50505050565b6060610fdf8261169f565b61101e576040517f08c379a000000000000000000000000000000000000000000000000000000000815260040161101590613ce5565b60405180910390fd5b6000600960008481526020019081526020016000206040518060e00160405290816000820160009054906101000a900473ffffffffffffffffffffffffffffffffffffffff1673ffffffffffffffffffffffffffffffffffffffff1673ffffffffffffffffffffffffffffffffffffffff1681526020016001820160009054906101000a900473ffffffffffffffffffffffffffffffffffffffff1673ffffffffffffffffffffffffffffffffffffffff1673ffffffffffffffffffffffffffffffffffffffff1681526020016002820160009054906101000a900473ffffffffffffffffffffffffffffffffffffffff1673ffffffffffffffffffffffffffffffffffffffff1673ffffffffffffffffffffffffffffffffffffffff16815260200160038201805461115090613731565b80601f016020809104026020016040519081016040528092919081815260200182805461117c90613731565b80156111c95780601f1061119e576101008083540402835291602001916111c9565b820191906000526020600020905b8154815290600101906020018083116111ac57829003601f168201915b505050505081526020016004820160009054906101000a900460ff1660018111156111f7576111f6613762565b5b600181111561120957611208613762565b5b8152602001600582015481526020016006820160009054906101000a900460ff16151515158152505090506000816000015173ffffffffffffffffffffffffffffffffffffffff16632ec8eec783604001516040518263ffffffff1660e01b81526004016112779190612c4c565b608060405180830381865afa158015611294573d6000803e3d6000fd5b505050506040513d601f19601f820116820180604052508101906112b89190613d2f565b50505090506000806000600860009054906101000a900473ffffffffffffffffffffffffffffffffffffffff1673ffffffffffffffffffffffffffffffffffffffff1663e6a1e8888660000151876040015188602001516040518463ffffffff1660e01b815260040161132d93929190613db7565b608060405180830381865afa15801561134a573d6000803e3d6000fd5b505050506040513d601f19601f8201168201806040525081019061136e9190613e03565b9350935093505060606000600860009054906101000a900473ffffffffffffffffffffffffffffffffffffffff1673ffffffffffffffffffffffffffffffffffffffff1663e8e7e2d1886000015189604001516040518363ffffffff1660e01b81526004016113de929190613e6a565b602060405180830381865afa1580156113fb573d6000803e3d6000fd5b505050506040513d601f19601f8201168201806040525081019061141f9190613e93565b9050600081600b0b12611469576040518060400160405280600881526020017f496e66696e69746500000000000000000000000000000000000000000000000081525091506114d3565b60007fffffffffffffffffffffffffffffffffffffffffffffffffffffffffffffffff826114979190613ec0565b90506000816bffffffffffffffffffffffff16886114b59190613a37565b90506114ce62015180826114c99190613a37565b612071565b935050505b60006114e96114e4878a8a87610c23565b61236c565b905060006114f9878a8a876124e4565b90506115356115078c612071565b8a6060015184846040516020016115219493929190614225565b60405160208183030381529060405261236c565b6040516020016115459190614312565b6040516020818303038152906040529950505050505050505050919050565b60606040517f08c379a0000000000000000000000000000000000000000000000000000000008152600401611598906143a6565b60405180910390fd5b6000600760008473ffffffffffffffffffffffffffffffffffffffff1673ffffffffffffffffffffffffffffffffffffffff16815260200190815260200160002060008373ffffffffffffffffffffffffffffffffffffffff1673ffffffffffffffffffffffffffffffffffffffff16815260200190815260200160002060009054906101000a900460ff16905092915050565b60007f01ffc9a7000000000000000000000000000000000000000000000000000000007bffffffffffffffffffffffffffffffffffffffffffffffffffffffff1916827bffffffffffffffffffffffffffffffffffffffffffffffffffffffff1916149050919050565b6000816116aa6117c5565b111580156116b9575060005482105b80156116e6575060046000838152602001908152602001600020600001601c9054906101000a900460ff16155b9050919050565b600033905090565b826006600084815260200190815260200160002060006101000a81548173ffffffffffffffffffffffffffffffffffffffff021916908373ffffffffffffffffffffffffffffffffffffffff160217905550818373ffffffffffffffffffffffffffffffffffffffff168273ffffffffffffffffffffffffffffffffffffffff167f8c5be1e5ebec7d5bd14f71427d1e84f3dd0314c0f7b2291e5b200ac8c7c3b92560405160405180910390a4505050565b6117c1828260405180602001604052806000815250612550565b5050565b600090565b60006117d582611c7e565b90508373ffffffffffffffffffffffffffffffffffffffff16816000015173ffffffffffffffffffffffffffffffffffffffff1614611840576040517fa114810000000000000000000000000000000000000000000000000000000000815260040160405180910390fd5b60008473ffffffffffffffffffffffffffffffffffffffff166118616116ed565b73ffffffffffffffffffffffffffffffffffffffff161480611890575061188f8561188a6116ed565b6115a1565b5b806118d5575061189e6116ed565b73ffffffffffffffffffffffffffffffffffffffff166118bd8461066a565b73ffffffffffffffffffffffffffffffffffffffff16145b90508061190e576040517f59c896be00000000000000000000000000000000000000000000000000000000815260040160405180910390fd5b600073ffffffffffffffffffffffffffffffffffffffff168473ffffffffffffffffffffffffffffffffffffffff1603611974576040517fea553b3400000000000000000000000000000000000000000000000000000000815260040160405180910390fd5b6119818585856001612562565b61198d600084876116f5565b6001600560008773ffffffffffffffffffffffffffffffffffffffff1673ffffffffffffffffffffffffffffffffffffffff16815260200190815260200160002060000160008282829054906101000a900467ffffffffffffffff160392506101000a81548167ffffffffffffffff021916908367ffffffffffffffff1602179055506001600560008673ffffffffffffffffffffffffffffffffffffffff1673ffffffffffffffffffffffffffffffffffffffff16815260200190815260200160002060000160008282829054906101000a900467ffffffffffffffff160192506101000a81548167ffffffffffffffff021916908367ffffffffffffffff1602179055506000600460008581526020019081526020016000209050848160000160006101000a81548173ffffffffffffffffffffffffffffffffffffffff021916908373ffffffffffffffffffffffffffffffffffffffff160217905550428160000160146101000a81548167ffffffffffffffff021916908367ffffffffffffffff16021790555060006001850190506000600460008381526020019081526020016000209050600073ffffffffffffffffffffffffffffffffffffffff168160000160009054906101000a900473ffffffffffffffffffffffffffffffffffffffff1673ffffffffffffffffffffffffffffffffffffffff1603611c0c576000548214611c0b57878160000160006101000a81548173ffffffffffffffffffffffffffffffffffffffff021916908373ffffffffffffffffffffffffffffffffffffffff16021790555084602001518160000160146101000a81548167ffffffffffffffff021916908367ffffffffffffffff1602179055505b5b505050828473ffffffffffffffffffffffffffffffffffffffff168673ffffffffffffffffffffffffffffffffffffffff167fddf252ad1be2c89b69c2b068fc378daa952ba7f163c4a11628f55a4df523b3ef60405160405180910390a4611c778585856001612568565b5050505050565b611c866129be565b600082905080611c946117c5565b11158015611ca3575060005481105b15611ed6576000600460008381526020019081526020016000206040518060600160405290816000820160009054906101000a900473ffffffffffffffffffffffffffffffffffffffff1673ffffffffffffffffffffffffffffffffffffffff1673ffffffffffffffffffffffffffffffffffffffff1681526020016000820160149054906101000a900467ffffffffffffffff1667ffffffffffffffff1667ffffffffffffffff16815260200160008201601c9054906101000a900460ff16151515158152505090508060400151611ed457600073ffffffffffffffffffffffffffffffffffffffff16816000015173ffffffffffffffffffffffffffffffffffffffff1614611db8578092505050611f08565b5b600115611ed357818060019003925050600460008381526020019081526020016000206040518060600160405290816000820160009054906101000a900473ffffffffffffffffffffffffffffffffffffffff1673ffffffffffffffffffffffffffffffffffffffff1673ffffffffffffffffffffffffffffffffffffffff1681526020016000820160149054906101000a900467ffffffffffffffff1667ffffffffffffffff1667ffffffffffffffff16815260200160008201601c9054906101000a900460ff1615151515815250509050600073ffffffffffffffffffffffffffffffffffffffff16816000015173ffffffffffffffffffffffffffffffffffffffff1614611ece578092505050611f08565b611db9565b5b505b6040517fdf2d9b4200000000000000000000000000000000000000000000000000000000815260040160405180910390fd5b919050565b606060006001811115611f2357611f22613762565b5b836001811115611f3657611f35613762565b5b03611f8057600062278d00836bffffffffffffffffffffffff16611f5a91906143c6565b9050611f78670de0b6b3a764000082611f739190613a37565b612071565b915050611fc2565b60006301e13380836bffffffffffffffffffffffff16611fa091906143c6565b9050611fbe670de0b6b3a764000082611fb99190613a37565b612071565b9150505b92915050565b606060006001811115611fde57611fdd613762565b5b826001811115611ff157611ff0613762565b5b03612033576040518060400160405280600581526020017f6d6f6e7468000000000000000000000000000000000000000000000000000000815250905061206c565b6040518060400160405280600481526020017f796561720000000000000000000000000000000000000000000000000000000081525090505b919050565b6060600082036120b8576040518060400160405280600181526020017f300000000000000000000000000000000000000000000000000000000000000081525090506121f4565b600082905060005b600082146120ea5780806120d390614420565b915050600a826120e39190613a37565b91506120c0565b60008167ffffffffffffffff81111561210657612105612cdd565b5b6040519080825280601f01601f1916602001820160405280156121385781602001600182028036833780820191505090505b50905060008290505b600086146121ec576001816121569190614468565b90506000600a80886121689190613a37565b61217291906143c6565b8761217d9190614468565b603061218991906144a9565b905060008160f81b9050808484815181106121a7576121a66144e0565b5b60200101907effffffffffffffffffffffffffffffffffffffffffffffffffffffffffffff1916908160001a905350600a886121e39190613a37565b97505050612141565b819450505050505b919050565b6000808273ffffffffffffffffffffffffffffffffffffffff163b119050919050565b60008373ffffffffffffffffffffffffffffffffffffffff1663150b7a026122426116ed565b8786866040518563ffffffff1660e01b8152600401612264949392919061450f565b6020604051808303816000875af19250505080156122a057506040513d601f19601f8201168201806040525081019061229d9190614570565b60015b612319573d80600081146122d0576040519150601f19603f3d011682016040523d82523d6000602084013e6122d5565b606091505b506000815103612311576040517fd1a57ed600000000000000000000000000000000000000000000000000000000815260040160405180910390fd5b805181602001fd5b63150b7a0260e01b7bffffffffffffffffffffffffffffffffffffffffffffffffffffffff1916817bffffffffffffffffffffffffffffffffffffffffffffffffffffffff191614915050949350505050565b6060600082510361238e576040518060200160405280600081525090506124df565b600060405180606001604052806040815260200161494c60409139905060006003600285516123bd919061459d565b6123c79190613a37565b60046123d391906143c6565b905060006020826123e4919061459d565b67ffffffffffffffff8111156123fd576123fc612cdd565b5b6040519080825280601f01601f19166020018201604052801561242f5781602001600182028036833780820191505090505b509050818152600183018586518101602084015b8183101561249e576003830192508251603f8160121c168501518253600182019150603f81600c1c168501518253600182019150603f8160061c168501518253600182019150603f8116850151825360018201915050612443565b6003895106600181146124b857600281146124c8576124d3565b613d3d60f01b60028303526124d3565b603d60f81b60018303525b50505050508093505050505b919050565b606060006124f58560800151611fc8565b612503866080015188611f0d565b61251f670de0b6b3a76400008761251a9190613a37565b612071565b85604051602001612533949392919061489f565b604051602081830303815290604052905080915050949350505050565b61255d838383600161256e565b505050565b50505050565b50505050565b600080549050600073ffffffffffffffffffffffffffffffffffffffff168573ffffffffffffffffffffffffffffffffffffffff16036125da576040517f2e07630000000000000000000000000000000000000000000000000000000000815260040160405180910390fd5b60008403612614576040517fb562e8dd00000000000000000000000000000000000000000000000000000000815260040160405180910390fd5b6126216000868387612562565b83600560008773ffffffffffffffffffffffffffffffffffffffff1673ffffffffffffffffffffffffffffffffffffffff16815260200190815260200160002060000160008282829054906101000a900467ffffffffffffffff160192506101000a81548167ffffffffffffffff021916908367ffffffffffffffff16021790555083600560008773ffffffffffffffffffffffffffffffffffffffff1673ffffffffffffffffffffffffffffffffffffffff16815260200190815260200160002060000160088282829054906101000a900467ffffffffffffffff160192506101000a81548167ffffffffffffffff021916908367ffffffffffffffff160217905550846004600083815260200190815260200160002060000160006101000a81548173ffffffffffffffffffffffffffffffffffffffff021916908373ffffffffffffffffffffffffffffffffffffffff160217905550426004600083815260200190815260200160002060000160146101000a81548167ffffffffffffffff021916908367ffffffffffffffff1602179055506000819050600085820190508380156127eb57506127ea8773ffffffffffffffffffffffffffffffffffffffff166121f9565b5b156128b0575b818773ffffffffffffffffffffffffffffffffffffffff16600073ffffffffffffffffffffffffffffffffffffffff167fddf252ad1be2c89b69c2b068fc378daa952ba7f163c4a11628f55a4df523b3ef60405160405180910390a4612860600088848060010195508861221c565b612896576040517fd1a57ed600000000000000000000000000000000000000000000000000000000815260040160405180910390fd5b8082036127f15782600054146128ab57600080fd5b61291b565b5b818060010192508773ffffffffffffffffffffffffffffffffffffffff16600073ffffffffffffffffffffffffffffffffffffffff167fddf252ad1be2c89b69c2b068fc378daa952ba7f163c4a11628f55a4df523b3ef60405160405180910390a48082036128b1575b8160008190555050506129316000868387612568565b5050505050565b82805461294490613731565b90600052602060002090601f01602090048101928261296657600085556129ad565b82601f1061297f57805160ff19168380011785556129ad565b828001600101855582156129ad579182015b828111156129ac578251825591602001919060010190612991565b5b5090506129ba9190612a01565b5090565b6040518060600160405280600073ffffffffffffffffffffffffffffffffffffffff168152602001600067ffffffffffffffff1681526020016000151581525090565b5b80821115612a1a576000816000905550600101612a02565b5090565b6000604051905090565b600080fd5b600080fd5b60007fffffffff0000000000000000000000000000000000000000000000000000000082169050919050565b612a6781612a32565b8114612a7257600080fd5b50565b600081359050612a8481612a5e565b92915050565b600060208284031215612aa057612a9f612a28565b5b6000612aae84828501612a75565b91505092915050565b60008115159050919050565b612acc81612ab7565b82525050565b6000602082019050612ae76000830184612ac3565b92915050565b600081519050919050565b600082825260208201905092915050565b60005b83811015612b27578082015181840152602081019050612b0c565b83811115612b36576000848401525b50505050565b6000601f19601f8301169050919050565b6000612b5882612aed565b612b628185612af8565b9350612b72818560208601612b09565b612b7b81612b3c565b840191505092915050565b60006020820190508181036000830152612ba08184612b4d565b905092915050565b6000819050919050565b612bbb81612ba8565b8114612bc657600080fd5b50565b600081359050612bd881612bb2565b92915050565b600060208284031215612bf457612bf3612a28565b5b6000612c0284828501612bc9565b91505092915050565b600073ffffffffffffffffffffffffffffffffffffffff82169050919050565b6000612c3682612c0b565b9050919050565b612c4681612c2b565b82525050565b6000602082019050612c616000830184612c3d565b92915050565b612c7081612c2b565b8114612c7b57600080fd5b50565b600081359050612c8d81612c67565b92915050565b60008060408385031215612caa57612ca9612a28565b5b6000612cb885828601612c7e565b9250506020612cc985828601612bc9565b9150509250929050565b600080fd5b600080fd5b7f4e487b7100000000000000000000000000000000000000000000000000000000600052604160045260246000fd5b612d1582612b3c565b810181811067ffffffffffffffff82111715612d3457612d33612cdd565b5b80604052505050565b6000612d47612a1e565b9050612d538282612d0c565b919050565b600067ffffffffffffffff821115612d7357612d72612cdd565b5b612d7c82612b3c565b9050602081019050919050565b82818337600083830152505050565b6000612dab612da684612d58565b612d3d565b905082815260208101848484011115612dc757612dc6612cd8565b5b612dd2848285612d89565b509392505050565b600082601f830112612def57612dee612cd3565b5b8135612dff848260208601612d98565b91505092915050565b60028110612e1557600080fd5b50565b600081359050612e2781612e08565b92915050565b6000612e3882612c2b565b9050919050565b612e4881612e2d565b8114612e5357600080fd5b50565b600081359050612e6581612e3f565b92915050565b600067ffffffffffffffff821115612e8657612e85612cdd565b5b612e8f82612b3c565b9050602081019050919050565b6000612eaf612eaa84612e6b565b612d3d565b905082815260208101848484011115612ecb57612eca612cd8565b5b612ed6848285612d89565b509392505050565b600082601f830112612ef357612ef2612cd3565b5b8135612f03848260208601612e9c565b91505092915050565b60008060008060008060c08789031215612f2957612f28612a28565b5b6000612f3789828a01612c7e565b9650506020612f4889828a01612c7e565b955050604087013567ffffffffffffffff811115612f6957612f68612a2d565b5b612f7589828a01612dda565b9450506060612f8689828a01612e18565b9350506080612f9789828a01612e56565b92505060a087013567ffffffffffffffff811115612fb857612fb7612a2d565b5b612fc489828a01612ede565b9150509295509295509295565b600081519050919050565b600082825260208201905092915050565b6000612ff882612fd1565b6130028185612fdc565b9350613012818560208601612b09565b61301b81612b3c565b840191505092915050565b600060208201905081810360008301526130408184612fed565b905092915050565b61305181612ba8565b82525050565b600060208201905061306c6000830184613048565b92915050565b600061307d82612c2b565b9050919050565b61308d81613072565b811461309857600080fd5b50565b6000813590506130aa81613084565b92915050565b6000819050919050565b6130c3816130b0565b81146130ce57600080fd5b50565b6000813590506130e0816130ba565b92915050565b600080fd5b600080fd5b60008083601f84011261310657613105612cd3565b5b8235905067ffffffffffffffff811115613123576131226130e6565b5b60208301915083600182028301111561313f5761313e6130eb565b5b9250929050565b600080600080600080600080600060c08a8c03121561316857613167612a28565b5b60006131768c828d0161309b565b99505060206131878c828d01612c7e565b98505060406131988c828d016130d1565b97505060608a013567ffffffffffffffff8111156131b9576131b8612a2d565b5b6131c58c828d016130f0565b965096505060808a013567ffffffffffffffff8111156131e8576131e7612a2d565b5b6131f48c828d016130f0565b945094505060a08a013567ffffffffffffffff81111561321757613216612a2d565b5b6132238c828d016130f0565b92509250509295985092959850929598565b60008060006060848603121561324e5761324d612a28565b5b600061325c86828701612c7e565b935050602061326d86828701612c7e565b925050604061327e86828701612bc9565b9150509250925092565b600080600080600080600060a0888a0312156132a7576132a6612a28565b5b60006132b58a828b0161309b565b97505060206132c68a828b01612c7e565b96505060406132d78a828b016130d1565b955050606088013567ffffffffffffffff8111156132f8576132f7612a2d565b5b6133048a828b016130f0565b9450945050608088013567ffffffffffffffff81111561332757613326612a2d565b5b6133338a828b016130f0565b925092505092959891949750929550565b60006020828403121561335a57613359612a28565b5b600061336884828501612c7e565b91505092915050565b600081600b0b9050919050565b61338781613371565b811461339257600080fd5b50565b6000813590506133a48161337e565b92915050565b600080fd5b600080fd5b6133bd81612ab7565b81146133c857600080fd5b50565b6000813590506133da816133b4565b92915050565b600060e082840312156133f6576133f56133aa565b5b61340060e0612d3d565b9050600061341084828501612e56565b600083015250602061342484828501612c7e565b602083015250604061343884828501612c7e565b604083015250606082013567ffffffffffffffff81111561345c5761345b6133af565b5b61346884828501612dda565b606083015250608061347c84828501612e18565b60808301525060a061349084828501612bc9565b60a08301525060c06134a4848285016133cb565b60c08301525092915050565b6000819050919050565b6134c3816134b0565b81146134ce57600080fd5b50565b6000813590506134e0816134ba565b92915050565b60008060008060808587031215613500576134ff612a28565b5b600061350e87828801613395565b945050602085013567ffffffffffffffff81111561352f5761352e612a2d565b5b61353b878288016133e0565b935050604061354c878288016134d1565b925050606085013567ffffffffffffffff81111561356d5761356c612a2d565b5b61357987828801612dda565b91505092959194509250565b6000819050919050565b60006135aa6135a56135a084612c0b565b613585565b612c0b565b9050919050565b60006135bc8261358f565b9050919050565b60006135ce826135b1565b9050919050565b6135de816135c3565b82525050565b60006020820190506135f960008301846135d5565b92915050565b6000806040838503121561361657613615612a28565b5b600061362485828601612c7e565b9250506020613635858286016133cb565b9150509250929050565b6000806000806080858703121561365957613658612a28565b5b600061366787828801612c7e565b945050602061367887828801612c7e565b935050604061368987828801612bc9565b925050606085013567ffffffffffffffff8111156136aa576136a9612a2d565b5b6136b687828801612ede565b91505092959194509250565b600080604083850312156136d9576136d8612a28565b5b60006136e785828601612c7e565b92505060206136f885828601612c7e565b9150509250929050565b7f4e487b7100000000000000000000000000000000000000000000000000000000600052602260045260246000fd5b6000600282049050600182168061374957607f821691505b60208210810361375c5761375b613702565b5b50919050565b7f4e487b7100000000000000000000000000000000000000000000000000000000600052602160045260246000fd5b7f556e737570706f727465642063616c6c6261636b202d2041667465722041677260008201527f65656d656e742055706461746564000000000000000000000000000000000000602082015250565b60006137ed602e83612af8565b91506137f882613791565b604082019050919050565b6000602082019050818103600083015261381c816137e0565b9050919050565b7f556e737570706f727465642063616c6c6261636b202d204265666f726520416760008201527f7265656d656e7420437265617465640000000000000000000000000000000000602082015250565b600061387f602f83612af8565b915061388a82613823565b604082019050919050565b600060208201905081810360008301526138ae81613872565b9050919050565b7f556e737570706f727465642063616c6c6261636b202d2041667465722041677260008201527f65656d656e74205465726d696e61746564000000000000000000000000000000602082015250565b6000613911603183612af8565b915061391c826138b5565b604082019050919050565b6000602082019050818103600083015261394081613904565b9050919050565b7f556e737570706f727465642063616c6c6261636b202d20204265666f7265204160008201527f677265656d656e74205465726d696e6174656400000000000000000000000000602082015250565b60006139a3603383612af8565b91506139ae82613947565b604082019050919050565b600060208201905081810360008301526139d281613996565b9050919050565b7f4e487b7100000000000000000000000000000000000000000000000000000000600052601260045260246000fd5b7f4e487b7100000000000000000000000000000000000000000000000000000000600052601160045260246000fd5b6000613a4282612ba8565b9150613a4d83612ba8565b925082613a5d57613a5c6139d9565b5b828204905092915050565b600082825260208201905092915050565b6000613a8482612aed565b613a8e8185613a68565b9350613a9e818560208601612b09565b613aa781612b3c565b840191505092915050565b600060a0820190508181036000830152613acc8188613a79565b90508181036020830152613ae08187613a79565b90508181036040830152613af48186613a79565b90508181036060830152613b088185613a79565b90508181036080830152613b1c8184613a79565b90509695505050505050565b6000613b3b613b3684612d58565b612d3d565b905082815260208101848484011115613b5757613b56612cd8565b5b613b62848285612b09565b509392505050565b600082601f830112613b7f57613b7e612cd3565b5b8151613b8f848260208601613b28565b91505092915050565b600060208284031215613bae57613bad612a28565b5b600082015167ffffffffffffffff811115613bcc57613bcb612a2d565b5b613bd884828501613b6a565b91505092915050565b7f556e737570706f727465642063616c6c6261636b202d204265666f726520416760008201527f7265656d656e7420757064617465640000000000000000000000000000000000602082015250565b6000613c3d602f83612af8565b9150613c4882613be1565b604082019050919050565b60006020820190508181036000830152613c6c81613c30565b9050919050565b7f41677265656d656e74506f736974696f6e3a20506f73736974696f6e20646f6560008201527f73206e6f74206578697374000000000000000000000000000000000000000000602082015250565b6000613ccf602b83612af8565b9150613cda82613c73565b604082019050919050565b60006020820190508181036000830152613cfe81613cc2565b9050919050565b600081519050613d14816134ba565b92915050565b600081519050613d2981612bb2565b92915050565b60008060008060808587031215613d4957613d48612a28565b5b6000613d5787828801613d05565b9450506020613d6887828801613d1a565b9350506040613d7987828801613d1a565b9250506060613d8a87828801613d1a565b91505092959194509250565b6000613da1826135b1565b9050919050565b613db181613d96565b82525050565b6000606082019050613dcc6000830186613da8565b613dd96020830185612c3d565b613de66040830184612c3d565b949350505050565b600081519050613dfd8161337e565b92915050565b60008060008060808587031215613e1d57613e1c612a28565b5b6000613e2b87828801613d1a565b9450506020613e3c87828801613dee565b9350506040613e4d87828801613d1a565b9250506060613e5e87828801613d1a565b91505092959194509250565b6000604082019050613e7f6000830185613da8565b613e8c6020830184612c3d565b9392505050565b600060208284031215613ea957613ea8612a28565b5b6000613eb784828501613dee565b91505092915050565b6000613ecb82613371565b9150613ed683613371565b9250826b7fffffffffffffffffffffff0482116000841360008413161615613f0157613f00613a08565b5b817fffffffffffffffffffffffffffffffffffffffff8000000000000000000000000583126000841260008413161615613f3e57613f3d613a08565b5b827fffffffffffffffffffffffffffffffffffffffff8000000000000000000000000582126000841360008412161615613f7b57613f7a613a08565b5b826b7fffffffffffffffffffffff0582126000841260008412161615613fa457613fa3613a08565b5b828202905092915050565b600081905092915050565b7f7b00000000000000000000000000000000000000000000000000000000000000600082015250565b6000613ff0600183613faf565b9150613ffb82613fba565b600182019050919050565b7f226e616d65223a2241677265656d656e74506f736974696f6e20230000000000600082015250565b600061403c601b83613faf565b915061404782614006565b601b82019050919050565b600061405d82612aed565b6140678185613faf565b9350614077818560208601612b09565b80840191505092915050565b7f222c000000000000000000000000000000000000000000000000000000000000600082015250565b60006140b9600283613faf565b91506140c482614083565b600282019050919050565b7f226465736372697074696f6e223a220000000000000000000000000000000000600082015250565b6000614105600f83613faf565b9150614110826140cf565b600f82019050919050565b7f22696d6167655f64617461223a2022646174613a696d6167652f7376672b786d60008201527f6c3b6261736536342c0000000000000000000000000000000000000000000000602082015250565b6000614177602983613faf565b91506141828261411b565b602982019050919050565b7f2261747472696275746573223a20000000000000000000000000000000000000600082015250565b60006141c3600e83613faf565b91506141ce8261418d565b600e82019050919050565b7f7d00000000000000000000000000000000000000000000000000000000000000600082015250565b600061420f600183613faf565b915061421a826141d9565b600182019050919050565b600061423082613fe3565b915061423b8261402f565b91506142478287614052565b9150614252826140ac565b915061425d826140f8565b91506142698286614052565b9150614274826140ac565b915061427f8261416a565b915061428b8285614052565b9150614296826140ac565b91506142a1826141b6565b91506142ad8284614052565b91506142b882614202565b915081905095945050505050565b7f646174613a6170706c69636174696f6e2f6a736f6e3b6261736536342c000000600082015250565b60006142fc601d83613faf565b9150614307826142c6565b601d82019050919050565b600061431d826142ef565b91506143298284614052565b915081905092915050565b7f556e737570706f727465642063616c6c6261636b202d2041667465722041677260008201527f65656d656e742043726561746564000000000000000000000000000000000000602082015250565b6000614390602e83612af8565b915061439b82614334565b604082019050919050565b600060208201905081810360008301526143bf81614383565b9050919050565b60006143d182612ba8565b91506143dc83612ba8565b9250817fffffffffffffffffffffffffffffffffffffffffffffffffffffffffffffffff048311821515161561441557614414613a08565b5b828202905092915050565b600061442b82612ba8565b91507fffffffffffffffffffffffffffffffffffffffffffffffffffffffffffffffff820361445d5761445c613a08565b5b600182019050919050565b600061447382612ba8565b915061447e83612ba8565b92508282101561449157614490613a08565b5b828203905092915050565b600060ff82169050919050565b60006144b48261449c565b91506144bf8361449c565b92508260ff038211156144d5576144d4613a08565b5b828201905092915050565b7f4e487b7100000000000000000000000000000000000000000000000000000000600052603260045260246000fd5b60006080820190506145246000830187612c3d565b6145316020830186612c3d565b61453e6040830185613048565b81810360608301526145508184612fed565b905095945050505050565b60008151905061456a81612a5e565b92915050565b60006020828403121561458657614585612a28565b5b60006145948482850161455b565b91505092915050565b60006145a882612ba8565b91506145b383612ba8565b9250827fffffffffffffffffffffffffffffffffffffffffffffffffffffffffffffffff038211156145e8576145e7613a08565b5b828201905092915050565b7f5b00000000000000000000000000000000000000000000000000000000000000600082015250565b6000614629600183613faf565b9150614634826145f3565b600182019050919050565b7f7b2274726169745f74797065223a22696e74657276616c222c2276616c75652260008201527f3a22000000000000000000000000000000000000000000000000000000000000602082015250565b600061469b602283613faf565b91506146a68261463f565b602282019050919050565b7f227d2c0000000000000000000000000000000000000000000000000000000000600082015250565b60006146e7600383613faf565b91506146f2826146b1565b600382019050919050565b7f7b2274726169745f74797065223a2272617465222c2276616c7565223a220000600082015250565b6000614733601e83613faf565b915061473e826146fd565b601e82019050919050565b7f7b2274726169745f74797065223a22637265646974222c2276616c7565223a22600082015250565b600061477f602083613faf565b915061478a82614749565b602082019050919050565b7f7b2274726169745f74797065223a2264617973206c656674222c2276616c756560008201527f223a220000000000000000000000000000000000000000000000000000000000602082015250565b60006147f1602383613faf565b91506147fc82614795565b602382019050919050565b7f227d000000000000000000000000000000000000000000000000000000000000600082015250565b600061483d600283613faf565b915061484882614807565b600282019050919050565b7f5d00000000000000000000000000000000000000000000000000000000000000600082015250565b6000614889600183613faf565b915061489482614853565b600182019050919050565b60006148aa8261461c565b91506148b58261468e565b91506148c18287614052565b91506148cc826146da565b91506148d782614726565b91506148e38286614052565b91506148ee826146da565b91506148f982614772565b91506149058285614052565b9150614910826146da565b915061491b826147e4565b91506149278284614052565b915061493282614830565b915061493d8261487c565b91508190509594505050505056fe4142434445464748494a4b4c4d4e4f505152535455565758595a6162636465666768696a6b6c6d6e6f707172737475767778797a303132333435363738392b2fa2646970667358221220847e581d366ed49e617a2431f7f96fa834520acb50b09a5639bc20236e82c97464736f6c634300080d0033",
  "libraries": {
    "SVG": "0xEE267fcbd81f6cDca7b033445DB6B3BEeb571676"
  },
  "devdoc": {
    "kind": "dev",
    "methods": {
      "approve(address,uint256)": {
        "details": "See {IERC721-approve}."
      },
      "balanceOf(address)": {
        "details": "See {IERC721-balanceOf}."
      },
      "getApproved(uint256)": {
        "details": "See {IERC721-getApproved}."
      },
      "isApprovedForAll(address,address)": {
        "details": "See {IERC721-isApprovedForAll}."
      },
      "name()": {
        "details": "See {IERC721Metadata-name}."
      },
      "ownerOf(uint256)": {
        "details": "See {IERC721-ownerOf}."
      },
      "safeTransferFrom(address,address,uint256)": {
        "details": "See {IERC721-safeTransferFrom}."
      },
      "safeTransferFrom(address,address,uint256,bytes)": {
        "details": "See {IERC721-safeTransferFrom}."
      },
      "setApprovalForAll(address,bool)": {
        "details": "See {IERC721-setApprovalForAll}."
      },
      "supportsInterface(bytes4)": {
        "details": "See {IERC165-supportsInterface}."
      },
      "symbol()": {
        "details": "See {IERC721Metadata-symbol}."
      },
      "tokenURI(uint256)": {
        "details": "See {IERC721Metadata-tokenURI}."
      },
      "totalSupply()": {
        "details": "Burned tokens are calculated here, use _totalMinted() if you want to count just minted tokens."
      },
      "transferFrom(address,address,uint256)": {
        "details": "See {IERC721-transferFrom}."
      }
    },
    "version": 1
  },
  "userdoc": {
    "kind": "user",
    "methods": {},
    "version": 1
  },
  "storageLayout": {
    "storage": [
      {
        "astId": 4455,
        "contract": "contracts/AgreementNFT.sol:AgreementNFT",
        "label": "_currentIndex",
        "offset": 0,
        "slot": "0",
        "type": "t_uint256"
      },
      {
        "astId": 4457,
        "contract": "contracts/AgreementNFT.sol:AgreementNFT",
        "label": "_burnCounter",
        "offset": 0,
        "slot": "1",
        "type": "t_uint256"
      },
      {
        "astId": 4459,
        "contract": "contracts/AgreementNFT.sol:AgreementNFT",
        "label": "_name",
        "offset": 0,
        "slot": "2",
        "type": "t_string_storage"
      },
      {
        "astId": 4461,
        "contract": "contracts/AgreementNFT.sol:AgreementNFT",
        "label": "_symbol",
        "offset": 0,
        "slot": "3",
        "type": "t_string_storage"
      },
      {
        "astId": 4466,
        "contract": "contracts/AgreementNFT.sol:AgreementNFT",
        "label": "_ownerships",
        "offset": 0,
        "slot": "4",
        "type": "t_mapping(t_uint256,t_struct(TokenOwnership)4444_storage)"
      },
      {
        "astId": 4471,
        "contract": "contracts/AgreementNFT.sol:AgreementNFT",
        "label": "_addressData",
        "offset": 0,
        "slot": "5",
        "type": "t_mapping(t_address,t_struct(AddressData)4453_storage)"
      },
      {
        "astId": 4475,
        "contract": "contracts/AgreementNFT.sol:AgreementNFT",
        "label": "_tokenApprovals",
        "offset": 0,
        "slot": "6",
        "type": "t_mapping(t_uint256,t_address)"
      },
      {
        "astId": 4481,
        "contract": "contracts/AgreementNFT.sol:AgreementNFT",
        "label": "_operatorApprovals",
        "offset": 0,
        "slot": "7",
        "type": "t_mapping(t_address,t_mapping(t_address,t_bool))"
      },
      {
        "astId": 3169,
        "contract": "contracts/AgreementNFT.sol:AgreementNFT",
        "label": "agreement",
        "offset": 0,
        "slot": "8",
        "type": "t_contract(IConstantFlowAgreementV1)4084"
      },
      {
        "astId": 3191,
        "contract": "contracts/AgreementNFT.sol:AgreementNFT",
        "label": "_positionsById",
        "offset": 0,
        "slot": "9",
        "type": "t_mapping(t_uint256,t_struct(PositionData)3186_storage)"
      }
    ],
    "types": {
      "t_address": {
        "encoding": "inplace",
        "label": "address",
        "numberOfBytes": "20"
      },
      "t_bool": {
        "encoding": "inplace",
        "label": "bool",
        "numberOfBytes": "1"
      },
      "t_contract(IConstantFlowAgreementV1)4084": {
        "encoding": "inplace",
        "label": "contract IConstantFlowAgreementV1",
        "numberOfBytes": "20"
      },
      "t_contract(ISuperfluidToken)4387": {
        "encoding": "inplace",
        "label": "contract ISuperfluidToken",
        "numberOfBytes": "20"
      },
      "t_enum(SUBSCRIPTION_TYPE)3163": {
        "encoding": "inplace",
        "label": "enum AgreementNFT.SUBSCRIPTION_TYPE",
        "numberOfBytes": "1"
      },
      "t_mapping(t_address,t_bool)": {
        "encoding": "mapping",
        "key": "t_address",
        "label": "mapping(address => bool)",
        "numberOfBytes": "32",
        "value": "t_bool"
      },
      "t_mapping(t_address,t_mapping(t_address,t_bool))": {
        "encoding": "mapping",
        "key": "t_address",
        "label": "mapping(address => mapping(address => bool))",
        "numberOfBytes": "32",
        "value": "t_mapping(t_address,t_bool)"
      },
      "t_mapping(t_address,t_struct(AddressData)4453_storage)": {
        "encoding": "mapping",
        "key": "t_address",
        "label": "mapping(address => struct ERC721A.AddressData)",
        "numberOfBytes": "32",
        "value": "t_struct(AddressData)4453_storage"
      },
      "t_mapping(t_uint256,t_address)": {
        "encoding": "mapping",
        "key": "t_uint256",
        "label": "mapping(uint256 => address)",
        "numberOfBytes": "32",
        "value": "t_address"
      },
      "t_mapping(t_uint256,t_struct(PositionData)3186_storage)": {
        "encoding": "mapping",
        "key": "t_uint256",
        "label": "mapping(uint256 => struct AgreementNFT.PositionData)",
        "numberOfBytes": "32",
        "value": "t_struct(PositionData)3186_storage"
      },
      "t_mapping(t_uint256,t_struct(TokenOwnership)4444_storage)": {
        "encoding": "mapping",
        "key": "t_uint256",
        "label": "mapping(uint256 => struct ERC721A.TokenOwnership)",
        "numberOfBytes": "32",
        "value": "t_struct(TokenOwnership)4444_storage"
      },
      "t_string_storage": {
        "encoding": "bytes",
        "label": "string",
        "numberOfBytes": "32"
      },
      "t_struct(AddressData)4453_storage": {
        "encoding": "inplace",
        "label": "struct ERC721A.AddressData",
        "members": [
          {
            "astId": 4446,
            "contract": "contracts/AgreementNFT.sol:AgreementNFT",
            "label": "balance",
            "offset": 0,
            "slot": "0",
            "type": "t_uint64"
          },
          {
            "astId": 4448,
            "contract": "contracts/AgreementNFT.sol:AgreementNFT",
            "label": "numberMinted",
            "offset": 8,
            "slot": "0",
            "type": "t_uint64"
          },
          {
            "astId": 4450,
            "contract": "contracts/AgreementNFT.sol:AgreementNFT",
            "label": "numberBurned",
            "offset": 16,
            "slot": "0",
            "type": "t_uint64"
          },
          {
            "astId": 4452,
            "contract": "contracts/AgreementNFT.sol:AgreementNFT",
            "label": "aux",
            "offset": 24,
            "slot": "0",
            "type": "t_uint64"
          }
        ],
        "numberOfBytes": "32"
      },
      "t_struct(PositionData)3186_storage": {
        "encoding": "inplace",
        "label": "struct AgreementNFT.PositionData",
        "members": [
          {
            "astId": 3172,
            "contract": "contracts/AgreementNFT.sol:AgreementNFT",
            "label": "token",
            "offset": 0,
            "slot": "0",
            "type": "t_contract(ISuperfluidToken)4387"
          },
          {
            "astId": 3174,
            "contract": "contracts/AgreementNFT.sol:AgreementNFT",
            "label": "recipient",
            "offset": 0,
            "slot": "1",
            "type": "t_address"
          },
          {
            "astId": 3176,
            "contract": "contracts/AgreementNFT.sol:AgreementNFT",
            "label": "sender",
            "offset": 0,
            "slot": "2",
            "type": "t_address"
          },
          {
            "astId": 3178,
            "contract": "contracts/AgreementNFT.sol:AgreementNFT",
            "label": "description",
            "offset": 0,
            "slot": "3",
            "type": "t_string_storage"
          },
          {
            "astId": 3181,
            "contract": "contracts/AgreementNFT.sol:AgreementNFT",
            "label": "subscriptionType",
            "offset": 0,
            "slot": "4",
            "type": "t_enum(SUBSCRIPTION_TYPE)3163"
          },
          {
            "astId": 3183,
            "contract": "contracts/AgreementNFT.sol:AgreementNFT",
            "label": "createdAt",
            "offset": 0,
            "slot": "5",
            "type": "t_uint256"
          },
          {
            "astId": 3185,
            "contract": "contracts/AgreementNFT.sol:AgreementNFT",
            "label": "isActive",
            "offset": 0,
            "slot": "6",
            "type": "t_bool"
          }
        ],
        "numberOfBytes": "224"
      },
      "t_struct(TokenOwnership)4444_storage": {
        "encoding": "inplace",
        "label": "struct ERC721A.TokenOwnership",
        "members": [
          {
            "astId": 4439,
            "contract": "contracts/AgreementNFT.sol:AgreementNFT",
            "label": "addr",
            "offset": 0,
            "slot": "0",
            "type": "t_address"
          },
          {
            "astId": 4441,
            "contract": "contracts/AgreementNFT.sol:AgreementNFT",
            "label": "startTimestamp",
            "offset": 20,
            "slot": "0",
            "type": "t_uint64"
          },
          {
            "astId": 4443,
            "contract": "contracts/AgreementNFT.sol:AgreementNFT",
            "label": "burned",
            "offset": 28,
            "slot": "0",
            "type": "t_bool"
          }
        ],
        "numberOfBytes": "32"
      },
      "t_uint256": {
        "encoding": "inplace",
        "label": "uint256",
        "numberOfBytes": "32"
      },
      "t_uint64": {
        "encoding": "inplace",
        "label": "uint64",
        "numberOfBytes": "8"
      }
    }
  }
}