{
  "address": "0x3A31E1C9a23204E3D0043Be1D66E96c5De9B7722",
  "abi": [
    {
      "inputs": [],
      "stateMutability": "nonpayable",
      "type": "constructor"
    },
    {
      "inputs": [],
      "name": "ApprovalCallerNotOwnerNorApproved",
      "type": "error"
    },
    {
      "inputs": [],
      "name": "ApprovalQueryForNonexistentToken",
      "type": "error"
    },
    {
      "inputs": [],
      "name": "ApprovalToCurrentOwner",
      "type": "error"
    },
    {
      "inputs": [],
      "name": "ApproveToCaller",
      "type": "error"
    },
    {
      "inputs": [],
      "name": "BalanceQueryForZeroAddress",
      "type": "error"
    },
    {
      "inputs": [],
      "name": "MintToZeroAddress",
      "type": "error"
    },
    {
      "inputs": [],
      "name": "MintZeroQuantity",
      "type": "error"
    },
    {
      "inputs": [],
      "name": "OwnerQueryForNonexistentToken",
      "type": "error"
    },
    {
      "inputs": [],
      "name": "TransferCallerNotOwnerNorApproved",
      "type": "error"
    },
    {
      "inputs": [],
      "name": "TransferFromIncorrectOwner",
      "type": "error"
    },
    {
      "inputs": [],
      "name": "TransferToNonERC721ReceiverImplementer",
      "type": "error"
    },
    {
      "inputs": [],
      "name": "TransferToZeroAddress",
      "type": "error"
    },
    {
      "anonymous": false,
      "inputs": [
        {
          "indexed": true,
          "internalType": "address",
          "name": "owner",
          "type": "address"
        },
        {
          "indexed": true,
          "internalType": "address",
          "name": "approved",
          "type": "address"
        },
        {
          "indexed": true,
          "internalType": "uint256",
          "name": "tokenId",
          "type": "uint256"
        }
      ],
      "name": "Approval",
      "type": "event"
    },
    {
      "anonymous": false,
      "inputs": [
        {
          "indexed": true,
          "internalType": "address",
          "name": "owner",
          "type": "address"
        },
        {
          "indexed": true,
          "internalType": "address",
          "name": "operator",
          "type": "address"
        },
        {
          "indexed": false,
          "internalType": "bool",
          "name": "approved",
          "type": "bool"
        }
      ],
      "name": "ApprovalForAll",
      "type": "event"
    },
    {
      "anonymous": false,
      "inputs": [
        {
          "indexed": true,
          "internalType": "address",
          "name": "from",
          "type": "address"
        },
        {
          "indexed": true,
          "internalType": "address",
          "name": "to",
          "type": "address"
        },
        {
          "indexed": true,
          "internalType": "uint256",
          "name": "tokenId",
          "type": "uint256"
        }
      ],
      "name": "Transfer",
      "type": "event"
    },
    {
      "inputs": [],
      "name": "agreement",
      "outputs": [
        {
          "internalType": "contract IConstantFlowAgreementV1",
          "name": "",
          "type": "address"
        }
      ],
      "stateMutability": "view",
      "type": "function"
    },
    {
      "inputs": [
        {
          "internalType": "address",
          "name": "to",
          "type": "address"
        },
        {
          "internalType": "uint256",
          "name": "tokenId",
          "type": "uint256"
        }
      ],
      "name": "approve",
      "outputs": [],
      "stateMutability": "nonpayable",
      "type": "function"
    },
    {
      "inputs": [
        {
          "internalType": "address",
          "name": "owner",
          "type": "address"
        }
      ],
      "name": "balanceOf",
      "outputs": [
        {
          "internalType": "uint256",
          "name": "",
          "type": "uint256"
        }
      ],
      "stateMutability": "view",
      "type": "function"
    },
    {
      "inputs": [
        {
          "internalType": "int96",
          "name": "flowRate",
          "type": "int96"
        },
        {
          "components": [
            {
              "internalType": "contract ISuperfluidToken",
              "name": "token",
              "type": "address"
            },
            {
              "internalType": "address",
              "name": "recipient",
              "type": "address"
            },
            {
              "internalType": "address",
              "name": "sender",
              "type": "address"
            },
            {
              "internalType": "string",
              "name": "description",
              "type": "string"
            },
            {
              "internalType": "enum AgreementNFT.SUBSCRIPTION_TYPE",
              "name": "subscriptionType",
              "type": "uint8"
            },
            {
              "internalType": "uint256",
              "name": "createdAt",
              "type": "uint256"
            },
            {
              "internalType": "bool",
              "name": "isActive",
              "type": "bool"
            }
          ],
          "internalType": "struct AgreementNFT.PositionData",
          "name": "position",
          "type": "tuple"
        },
        {
          "internalType": "int256",
          "name": "senderBalance",
          "type": "int256"
        },
        {
          "internalType": "string",
          "name": "daysLeft",
          "type": "string"
        }
      ],
      "name": "generateSvg",
      "outputs": [
        {
          "internalType": "string",
          "name": "",
          "type": "string"
        }
      ],
      "stateMutability": "pure",
      "type": "function"
    },
    {
      "inputs": [
        {
          "internalType": "uint256",
          "name": "tokenId",
          "type": "uint256"
        }
      ],
      "name": "getApproved",
      "outputs": [
        {
          "internalType": "address",
          "name": "",
          "type": "address"
        }
      ],
      "stateMutability": "view",
      "type": "function"
    },
    {
      "inputs": [
        {
          "internalType": "address",
          "name": "owner",
          "type": "address"
        },
        {
          "internalType": "address",
          "name": "operator",
          "type": "address"
        }
      ],
      "name": "isApprovedForAll",
      "outputs": [
        {
          "internalType": "bool",
          "name": "",
          "type": "bool"
        }
      ],
      "stateMutability": "view",
      "type": "function"
    },
    {
      "inputs": [
        {
          "internalType": "address",
          "name": "sender",
          "type": "address"
        },
        {
          "internalType": "address",
          "name": "recipient",
          "type": "address"
        },
        {
          "internalType": "string",
          "name": "description",
          "type": "string"
        },
        {
          "internalType": "enum AgreementNFT.SUBSCRIPTION_TYPE",
          "name": "subscriptionType",
          "type": "uint8"
        },
        {
          "internalType": "contract ISuperfluidToken",
          "name": "token",
          "type": "address"
        }
      ],
      "name": "mint",
      "outputs": [],
      "stateMutability": "payable",
      "type": "function"
    },
    {
      "inputs": [],
      "name": "name",
      "outputs": [
        {
          "internalType": "string",
          "name": "",
          "type": "string"
        }
      ],
      "stateMutability": "view",
      "type": "function"
    },
    {
      "inputs": [
        {
          "internalType": "uint256",
          "name": "tokenId",
          "type": "uint256"
        }
      ],
      "name": "ownerOf",
      "outputs": [
        {
          "internalType": "address",
          "name": "",
          "type": "address"
        }
      ],
      "stateMutability": "view",
      "type": "function"
    },
    {
      "inputs": [
        {
          "internalType": "address",
          "name": "from",
          "type": "address"
        },
        {
          "internalType": "address",
          "name": "to",
          "type": "address"
        },
        {
          "internalType": "uint256",
          "name": "tokenId",
          "type": "uint256"
        }
      ],
      "name": "safeTransferFrom",
      "outputs": [],
      "stateMutability": "nonpayable",
      "type": "function"
    },
    {
      "inputs": [
        {
          "internalType": "address",
          "name": "from",
          "type": "address"
        },
        {
          "internalType": "address",
          "name": "to",
          "type": "address"
        },
        {
          "internalType": "uint256",
          "name": "tokenId",
          "type": "uint256"
        },
        {
          "internalType": "bytes",
          "name": "_data",
          "type": "bytes"
        }
      ],
      "name": "safeTransferFrom",
      "outputs": [],
      "stateMutability": "nonpayable",
      "type": "function"
    },
    {
      "inputs": [
        {
          "internalType": "address",
          "name": "operator",
          "type": "address"
        },
        {
          "internalType": "bool",
          "name": "approved",
          "type": "bool"
        }
      ],
      "name": "setApprovalForAll",
      "outputs": [],
      "stateMutability": "nonpayable",
      "type": "function"
    },
    {
      "inputs": [
        {
          "internalType": "bytes4",
          "name": "interfaceId",
          "type": "bytes4"
        }
      ],
      "name": "supportsInterface",
      "outputs": [
        {
          "internalType": "bool",
          "name": "",
          "type": "bool"
        }
      ],
      "stateMutability": "view",
      "type": "function"
    },
    {
      "inputs": [],
      "name": "symbol",
      "outputs": [
        {
          "internalType": "string",
          "name": "",
          "type": "string"
        }
      ],
      "stateMutability": "view",
      "type": "function"
    },
    {
      "inputs": [
        {
          "internalType": "uint256",
          "name": "tokenId",
          "type": "uint256"
        }
      ],
      "name": "tokenURI",
      "outputs": [
        {
          "internalType": "string",
          "name": "",
          "type": "string"
        }
      ],
      "stateMutability": "view",
      "type": "function"
    },
    {
      "inputs": [],
      "name": "totalSupply",
      "outputs": [
        {
          "internalType": "uint256",
          "name": "",
          "type": "uint256"
        }
      ],
      "stateMutability": "view",
      "type": "function"
    },
    {
      "inputs": [
        {
          "internalType": "address",
          "name": "from",
          "type": "address"
        },
        {
          "internalType": "address",
          "name": "to",
          "type": "address"
        },
        {
          "internalType": "uint256",
          "name": "tokenId",
          "type": "uint256"
        }
      ],
      "name": "transferFrom",
      "outputs": [],
      "stateMutability": "nonpayable",
      "type": "function"
    }
  ],
  "transactionHash": "0xa8162cb2a7f5d901108891501d11ef8191baa60eb9c5946c1224b782fa8d4472",
  "args": [],
  "numDeployments": 15,
  "solcInputHash": "a27dd444a0e71648d0d78144a692fc3e",
  "bytecode": "0x608060405273f4c5310e51f6079f601a5fb7120bc72a70b96e2a600860006101000a81548173ffffffffffffffffffffffffffffffffffffffff021916908373ffffffffffffffffffffffffffffffffffffffff1602179055503480156200006657600080fd5b506040518060400160405280601181526020017f41677265656d656e74506f736974696f6e0000000000000000000000000000008152506040518060400160405280600381526020017f41475000000000000000000000000000000000000000000000000000000000008152508160029080519060200190620000eb92919062000128565b5080600390805190602001906200010492919062000128565b50620001156200012360201b60201c565b60008190555050506200023c565b600090565b828054620001369062000207565b90600052602060002090601f0160209004810192826200015a5760008555620001a6565b82601f106200017557805160ff1916838001178555620001a6565b82800160010185558215620001a6579182015b82811115620001a557825182559160200191906001019062000188565b5b509050620001b59190620001b9565b5090565b5b80821115620001d4576000816000905550600101620001ba565b5090565b7f4e487b7100000000000000000000000000000000000000000000000000000000600052602260045260246000fd5b600060028204905060018216806200022057607f821691505b602082108103620002365762000235620001d8565b5b50919050565b61415d806200024c6000396000f3fe6080604052600436106100fe5760003560e01c80636c7379981161009557806395d89b411161006457806395d89b411461034c578063a22cb46514610377578063b88d4fde146103a0578063c87b56dd146103c9578063e985e9c514610406576100fe565b80636c7379981461028b57806370a08231146102a757806378f37fff146102e45780637db3a94614610321576100fe565b806318160ddd116100d157806318160ddd146101d157806323b872dd146101fc57806342842e0e146102255780636352211e1461024e576100fe565b806301ffc9a71461010357806306fdde0314610140578063081812fc1461016b578063095ea7b3146101a8575b600080fd5b34801561010f57600080fd5b5061012a60048036038101906101259190612861565b610443565b60405161013791906128a9565b60405180910390f35b34801561014c57600080fd5b50610155610525565b604051610162919061295d565b60405180910390f35b34801561017757600080fd5b50610192600480360381019061018d91906129b5565b6105b7565b60405161019f9190612a23565b60405180910390f35b3480156101b457600080fd5b506101cf60048036038101906101ca9190612a6a565b610633565b005b3480156101dd57600080fd5b506101e661073d565b6040516101f39190612ab9565b60405180910390f35b34801561020857600080fd5b50610223600480360381019061021e9190612ad4565b610754565b005b34801561023157600080fd5b5061024c60048036038101906102479190612ad4565b610764565b005b34801561025a57600080fd5b50610275600480360381019061027091906129b5565b610784565b6040516102829190612a23565b60405180910390f35b6102a560048036038101906102a09190612cbf565b61079a565b005b3480156102b357600080fd5b506102ce60048036038101906102c99190612d56565b6109a5565b6040516102db9190612ab9565b60405180910390f35b3480156102f057600080fd5b5061030b60048036038101906103069190612ef8565b610a74565b604051610318919061295d565b60405180910390f35b34801561032d57600080fd5b50610336610b3d565b6040516103439190612ff6565b60405180910390f35b34801561035857600080fd5b50610361610b63565b60405161036e919061295d565b60405180910390f35b34801561038357600080fd5b5061039e60048036038101906103999190613011565b610bf5565b005b3480156103ac57600080fd5b506103c760048036038101906103c291906130f2565b610d6c565b005b3480156103d557600080fd5b506103f060048036038101906103eb91906129b5565b610de8565b6040516103fd919061295d565b60405180910390f35b34801561041257600080fd5b5061042d60048036038101906104289190613175565b611378565b60405161043a91906128a9565b60405180910390f35b60007f80ac58cd000000000000000000000000000000000000000000000000000000007bffffffffffffffffffffffffffffffffffffffffffffffffffffffff1916827bffffffffffffffffffffffffffffffffffffffffffffffffffffffff1916148061050e57507f5b5e139f000000000000000000000000000000000000000000000000000000007bffffffffffffffffffffffffffffffffffffffffffffffffffffffff1916827bffffffffffffffffffffffffffffffffffffffffffffffffffffffff1916145b8061051e575061051d8261140c565b5b9050919050565b606060028054610534906131e4565b80601f0160208091040260200160405190810160405280929190818152602001828054610560906131e4565b80156105ad5780601f10610582576101008083540402835291602001916105ad565b820191906000526020600020905b81548152906001019060200180831161059057829003601f168201915b5050505050905090565b60006105c282611476565b6105f8576040517fcf4700e400000000000000000000000000000000000000000000000000000000815260040160405180910390fd5b6006600083815260200190815260200160002060009054906101000a900473ffffffffffffffffffffffffffffffffffffffff169050919050565b600061063e82610784565b90508073ffffffffffffffffffffffffffffffffffffffff168373ffffffffffffffffffffffffffffffffffffffff16036106a5576040517f943f7b8c00000000000000000000000000000000000000000000000000000000815260040160405180910390fd5b8073ffffffffffffffffffffffffffffffffffffffff166106c46114c4565b73ffffffffffffffffffffffffffffffffffffffff16141580156106f657506106f4816106ef6114c4565b611378565b155b1561072d576040517fcfb3b94200000000000000000000000000000000000000000000000000000000815260040160405180910390fd5b6107388383836114cc565b505050565b600061074761157e565b6001546000540303905090565b61075f838383611583565b505050565b61077f83838360405180602001604052806000815250610d6c565b505050565b600061078f82611a37565b600001519050919050565b60006107a461073d565b90506107b1336001611cc6565b6040518060e001604052808373ffffffffffffffffffffffffffffffffffffffff1681526020018673ffffffffffffffffffffffffffffffffffffffff1681526020018773ffffffffffffffffffffffffffffffffffffffff16815260200185815260200184600181111561082957610828613215565b5b8152602001428152602001600115158152506009600083815260200190815260200160002060008201518160000160006101000a81548173ffffffffffffffffffffffffffffffffffffffff021916908373ffffffffffffffffffffffffffffffffffffffff16021790555060208201518160010160006101000a81548173ffffffffffffffffffffffffffffffffffffffff021916908373ffffffffffffffffffffffffffffffffffffffff16021790555060408201518160020160006101000a81548173ffffffffffffffffffffffffffffffffffffffff021916908373ffffffffffffffffffffffffffffffffffffffff160217905550606082015181600301908051906020019061093f92919061270f565b5060808201518160040160006101000a81548160ff0219169083600181111561096b5761096a613215565b5b021790555060a0820151816005015560c08201518160060160006101000a81548160ff021916908315150217905550905050505050505050565b60008073ffffffffffffffffffffffffffffffffffffffff168273ffffffffffffffffffffffffffffffffffffffff1603610a0c576040517f8f4eb60400000000000000000000000000000000000000000000000000000000815260040160405180910390fd5b600560008373ffffffffffffffffffffffffffffffffffffffff1673ffffffffffffffffffffffffffffffffffffffff16815260200190815260200160002060000160009054906101000a900467ffffffffffffffff1667ffffffffffffffff169050919050565b6060739f50b57a8125c5BD3A7EE38A45ff3E78db2Ea67C63d04c159c8560600151610aa3876080015189611ce4565b610ab08860800151611d9f565b610acc670de0b6b3a764000089610ac791906132a2565b611e48565b876040518663ffffffff1660e01b8152600401610aed95949392919061331d565b600060405180830381865af4158015610b0a573d6000803e3d6000fd5b505050506040513d6000823e3d601f19601f82011682018060405250810190610b339190613403565b9050949350505050565b600860009054906101000a900473ffffffffffffffffffffffffffffffffffffffff1681565b606060038054610b72906131e4565b80601f0160208091040260200160405190810160405280929190818152602001828054610b9e906131e4565b8015610beb5780601f10610bc057610100808354040283529160200191610beb565b820191906000526020600020905b815481529060010190602001808311610bce57829003601f168201915b5050505050905090565b610bfd6114c4565b73ffffffffffffffffffffffffffffffffffffffff168273ffffffffffffffffffffffffffffffffffffffff1603610c61576040517fb06307db00000000000000000000000000000000000000000000000000000000815260040160405180910390fd5b8060076000610c6e6114c4565b73ffffffffffffffffffffffffffffffffffffffff1673ffffffffffffffffffffffffffffffffffffffff16815260200190815260200160002060008473ffffffffffffffffffffffffffffffffffffffff1673ffffffffffffffffffffffffffffffffffffffff16815260200190815260200160002060006101000a81548160ff0219169083151502179055508173ffffffffffffffffffffffffffffffffffffffff16610d1b6114c4565b73ffffffffffffffffffffffffffffffffffffffff167f17307eab39ab6107e8899845ad3d59bd9653f200f220920489ca2b5937696c3183604051610d6091906128a9565b60405180910390a35050565b610d77848484611583565b610d968373ffffffffffffffffffffffffffffffffffffffff16611fd0565b8015610dab5750610da984848484611ff3565b155b15610de2576040517fd1a57ed600000000000000000000000000000000000000000000000000000000815260040160405180910390fd5b50505050565b6060610df382611476565b610e32576040517f08c379a0000000000000000000000000000000000000000000000000000000008152600401610e29906134be565b60405180910390fd5b6000600960008481526020019081526020016000206040518060e00160405290816000820160009054906101000a900473ffffffffffffffffffffffffffffffffffffffff1673ffffffffffffffffffffffffffffffffffffffff1673ffffffffffffffffffffffffffffffffffffffff1681526020016001820160009054906101000a900473ffffffffffffffffffffffffffffffffffffffff1673ffffffffffffffffffffffffffffffffffffffff1673ffffffffffffffffffffffffffffffffffffffff1681526020016002820160009054906101000a900473ffffffffffffffffffffffffffffffffffffffff1673ffffffffffffffffffffffffffffffffffffffff1673ffffffffffffffffffffffffffffffffffffffff168152602001600382018054610f64906131e4565b80601f0160208091040260200160405190810160405280929190818152602001828054610f90906131e4565b8015610fdd5780601f10610fb257610100808354040283529160200191610fdd565b820191906000526020600020905b815481529060010190602001808311610fc057829003601f168201915b505050505081526020016004820160009054906101000a900460ff16600181111561100b5761100a613215565b5b600181111561101d5761101c613215565b5b8152602001600582015481526020016006820160009054906101000a900460ff16151515158152505090506000816000015173ffffffffffffffffffffffffffffffffffffffff16632ec8eec783604001516040518263ffffffff1660e01b815260040161108b9190612a23565b608060405180830381865afa1580156110a8573d6000803e3d6000fd5b505050506040513d601f19601f820116820180604052508101906110cc9190613508565b50505090506000806000600860009054906101000a900473ffffffffffffffffffffffffffffffffffffffff1673ffffffffffffffffffffffffffffffffffffffff1663e6a1e8888660000151876040015188602001516040518463ffffffff1660e01b815260040161114193929190613590565b608060405180830381865afa15801561115e573d6000803e3d6000fd5b505050506040513d601f19601f8201168201806040525081019061118291906135dc565b9350935093505060606000600860009054906101000a900473ffffffffffffffffffffffffffffffffffffffff1673ffffffffffffffffffffffffffffffffffffffff1663e8e7e2d1886000015189604001516040518363ffffffff1660e01b81526004016111f2929190613643565b602060405180830381865afa15801561120f573d6000803e3d6000fd5b505050506040513d601f19601f82011682018060405250810190611233919061366c565b9050600081600b0b1261127d576040518060400160405280600881526020017f496e66696e69746500000000000000000000000000000000000000000000000081525091506112e7565b60007fffffffffffffffffffffffffffffffffffffffffffffffffffffffffffffffff826112ab9190613699565b90506000816bffffffffffffffffffffffff16886112c991906132a2565b90506112e262015180826112dd91906132a2565b611e48565b935050505b60006112fd6112f8878a8a87610a74565b612143565b9050600061130d878a8a876122bb565b905061134961131b8c611e48565b8a60600151848460405160200161133594939291906139fe565b604051602081830303815290604052612143565b6040516020016113599190613aeb565b6040516020818303038152906040529950505050505050505050919050565b6000600760008473ffffffffffffffffffffffffffffffffffffffff1673ffffffffffffffffffffffffffffffffffffffff16815260200190815260200160002060008373ffffffffffffffffffffffffffffffffffffffff1673ffffffffffffffffffffffffffffffffffffffff16815260200190815260200160002060009054906101000a900460ff16905092915050565b60007f01ffc9a7000000000000000000000000000000000000000000000000000000007bffffffffffffffffffffffffffffffffffffffffffffffffffffffff1916827bffffffffffffffffffffffffffffffffffffffffffffffffffffffff1916149050919050565b60008161148161157e565b11158015611490575060005482105b80156114bd575060046000838152602001908152602001600020600001601c9054906101000a900460ff16155b9050919050565b600033905090565b826006600084815260200190815260200160002060006101000a81548173ffffffffffffffffffffffffffffffffffffffff021916908373ffffffffffffffffffffffffffffffffffffffff160217905550818373ffffffffffffffffffffffffffffffffffffffff168273ffffffffffffffffffffffffffffffffffffffff167f8c5be1e5ebec7d5bd14f71427d1e84f3dd0314c0f7b2291e5b200ac8c7c3b92560405160405180910390a4505050565b600090565b600061158e82611a37565b90508373ffffffffffffffffffffffffffffffffffffffff16816000015173ffffffffffffffffffffffffffffffffffffffff16146115f9576040517fa114810000000000000000000000000000000000000000000000000000000000815260040160405180910390fd5b60008473ffffffffffffffffffffffffffffffffffffffff1661161a6114c4565b73ffffffffffffffffffffffffffffffffffffffff1614806116495750611648856116436114c4565b611378565b5b8061168e57506116576114c4565b73ffffffffffffffffffffffffffffffffffffffff16611676846105b7565b73ffffffffffffffffffffffffffffffffffffffff16145b9050806116c7576040517f59c896be00000000000000000000000000000000000000000000000000000000815260040160405180910390fd5b600073ffffffffffffffffffffffffffffffffffffffff168473ffffffffffffffffffffffffffffffffffffffff160361172d576040517fea553b3400000000000000000000000000000000000000000000000000000000815260040160405180910390fd5b61173a8585856001612327565b611746600084876114cc565b6001600560008773ffffffffffffffffffffffffffffffffffffffff1673ffffffffffffffffffffffffffffffffffffffff16815260200190815260200160002060000160008282829054906101000a900467ffffffffffffffff160392506101000a81548167ffffffffffffffff021916908367ffffffffffffffff1602179055506001600560008673ffffffffffffffffffffffffffffffffffffffff1673ffffffffffffffffffffffffffffffffffffffff16815260200190815260200160002060000160008282829054906101000a900467ffffffffffffffff160192506101000a81548167ffffffffffffffff021916908367ffffffffffffffff1602179055506000600460008581526020019081526020016000209050848160000160006101000a81548173ffffffffffffffffffffffffffffffffffffffff021916908373ffffffffffffffffffffffffffffffffffffffff160217905550428160000160146101000a81548167ffffffffffffffff021916908367ffffffffffffffff16021790555060006001850190506000600460008381526020019081526020016000209050600073ffffffffffffffffffffffffffffffffffffffff168160000160009054906101000a900473ffffffffffffffffffffffffffffffffffffffff1673ffffffffffffffffffffffffffffffffffffffff16036119c55760005482146119c457878160000160006101000a81548173ffffffffffffffffffffffffffffffffffffffff021916908373ffffffffffffffffffffffffffffffffffffffff16021790555084602001518160000160146101000a81548167ffffffffffffffff021916908367ffffffffffffffff1602179055505b5b505050828473ffffffffffffffffffffffffffffffffffffffff168673ffffffffffffffffffffffffffffffffffffffff167fddf252ad1be2c89b69c2b068fc378daa952ba7f163c4a11628f55a4df523b3ef60405160405180910390a4611a30858585600161232d565b5050505050565b611a3f612795565b600082905080611a4d61157e565b11158015611a5c575060005481105b15611c8f576000600460008381526020019081526020016000206040518060600160405290816000820160009054906101000a900473ffffffffffffffffffffffffffffffffffffffff1673ffffffffffffffffffffffffffffffffffffffff1673ffffffffffffffffffffffffffffffffffffffff1681526020016000820160149054906101000a900467ffffffffffffffff1667ffffffffffffffff1667ffffffffffffffff16815260200160008201601c9054906101000a900460ff16151515158152505090508060400151611c8d57600073ffffffffffffffffffffffffffffffffffffffff16816000015173ffffffffffffffffffffffffffffffffffffffff1614611b71578092505050611cc1565b5b600115611c8c57818060019003925050600460008381526020019081526020016000206040518060600160405290816000820160009054906101000a900473ffffffffffffffffffffffffffffffffffffffff1673ffffffffffffffffffffffffffffffffffffffff1673ffffffffffffffffffffffffffffffffffffffff1681526020016000820160149054906101000a900467ffffffffffffffff1667ffffffffffffffff1667ffffffffffffffff16815260200160008201601c9054906101000a900460ff1615151515815250509050600073ffffffffffffffffffffffffffffffffffffffff16816000015173ffffffffffffffffffffffffffffffffffffffff1614611c87578092505050611cc1565b611b72565b5b505b6040517fdf2d9b4200000000000000000000000000000000000000000000000000000000815260040160405180910390fd5b919050565b611ce0828260405180602001604052806000815250612333565b5050565b606060006001811115611cfa57611cf9613215565b5b836001811115611d0d57611d0c613215565b5b03611d5757600062278d00836bffffffffffffffffffffffff16611d319190613b0d565b9050611d4f670de0b6b3a764000082611d4a91906132a2565b611e48565b915050611d99565b60006301e13380836bffffffffffffffffffffffff16611d779190613b0d565b9050611d95670de0b6b3a764000082611d9091906132a2565b611e48565b9150505b92915050565b606060006001811115611db557611db4613215565b5b826001811115611dc857611dc7613215565b5b03611e0a576040518060400160405280600981526020017f706572206d6f6e746800000000000000000000000000000000000000000000008152509050611e43565b6040518060400160405280600881526020017f706572207965617200000000000000000000000000000000000000000000000081525090505b919050565b606060008203611e8f576040518060400160405280600181526020017f30000000000000000000000000000000000000000000000000000000000000008152509050611fcb565b600082905060005b60008214611ec1578080611eaa90613b67565b915050600a82611eba91906132a2565b9150611e97565b60008167ffffffffffffffff811115611edd57611edc612b31565b5b6040519080825280601f01601f191660200182016040528015611f0f5781602001600182028036833780820191505090505b50905060008290505b60008614611fc357600181611f2d9190613baf565b90506000600a8088611f3f91906132a2565b611f499190613b0d565b87611f549190613baf565b6030611f609190613bf0565b905060008160f81b905080848481518110611f7e57611f7d613c27565b5b60200101907effffffffffffffffffffffffffffffffffffffffffffffffffffffffffffff1916908160001a905350600a88611fba91906132a2565b97505050611f18565b819450505050505b919050565b6000808273ffffffffffffffffffffffffffffffffffffffff163b119050919050565b60008373ffffffffffffffffffffffffffffffffffffffff1663150b7a026120196114c4565b8786866040518563ffffffff1660e01b815260040161203b9493929190613cab565b6020604051808303816000875af192505050801561207757506040513d601f19601f820116820180604052508101906120749190613d0c565b60015b6120f0573d80600081146120a7576040519150601f19603f3d011682016040523d82523d6000602084013e6120ac565b606091505b5060008151036120e8576040517fd1a57ed600000000000000000000000000000000000000000000000000000000815260040160405180910390fd5b805181602001fd5b63150b7a0260e01b7bffffffffffffffffffffffffffffffffffffffffffffffffffffffff1916817bffffffffffffffffffffffffffffffffffffffffffffffffffffffff191614915050949350505050565b60606000825103612165576040518060200160405280600081525090506122b6565b60006040518060600160405280604081526020016140e860409139905060006003600285516121949190613d39565b61219e91906132a2565b60046121aa9190613b0d565b905060006020826121bb9190613d39565b67ffffffffffffffff8111156121d4576121d3612b31565b5b6040519080825280601f01601f1916602001820160405280156122065781602001600182028036833780820191505090505b509050818152600183018586518101602084015b81831015612275576003830192508251603f8160121c168501518253600182019150603f81600c1c168501518253600182019150603f8160061c168501518253600182019150603f811685015182536001820191505061221a565b60038951066001811461228f576002811461229f576122aa565b613d3d60f01b60028303526122aa565b603d60f81b60018303525b50505050508093505050505b919050565b606060006122cc8560800151611d9f565b6122da866080015188611ce4565b6122f6670de0b6b3a7640000876122f191906132a2565b611e48565b8560405160200161230a949392919061403b565b604051602081830303815290604052905080915050949350505050565b50505050565b50505050565b6123408383836001612345565b505050565b600080549050600073ffffffffffffffffffffffffffffffffffffffff168573ffffffffffffffffffffffffffffffffffffffff16036123b1576040517f2e07630000000000000000000000000000000000000000000000000000000000815260040160405180910390fd5b600084036123eb576040517fb562e8dd00000000000000000000000000000000000000000000000000000000815260040160405180910390fd5b6123f86000868387612327565b83600560008773ffffffffffffffffffffffffffffffffffffffff1673ffffffffffffffffffffffffffffffffffffffff16815260200190815260200160002060000160008282829054906101000a900467ffffffffffffffff160192506101000a81548167ffffffffffffffff021916908367ffffffffffffffff16021790555083600560008773ffffffffffffffffffffffffffffffffffffffff1673ffffffffffffffffffffffffffffffffffffffff16815260200190815260200160002060000160088282829054906101000a900467ffffffffffffffff160192506101000a81548167ffffffffffffffff021916908367ffffffffffffffff160217905550846004600083815260200190815260200160002060000160006101000a81548173ffffffffffffffffffffffffffffffffffffffff021916908373ffffffffffffffffffffffffffffffffffffffff160217905550426004600083815260200190815260200160002060000160146101000a81548167ffffffffffffffff021916908367ffffffffffffffff1602179055506000819050600085820190508380156125c257506125c18773ffffffffffffffffffffffffffffffffffffffff16611fd0565b5b15612687575b818773ffffffffffffffffffffffffffffffffffffffff16600073ffffffffffffffffffffffffffffffffffffffff167fddf252ad1be2c89b69c2b068fc378daa952ba7f163c4a11628f55a4df523b3ef60405160405180910390a46126376000888480600101955088611ff3565b61266d576040517fd1a57ed600000000000000000000000000000000000000000000000000000000815260040160405180910390fd5b8082036125c857826000541461268257600080fd5b6126f2565b5b818060010192508773ffffffffffffffffffffffffffffffffffffffff16600073ffffffffffffffffffffffffffffffffffffffff167fddf252ad1be2c89b69c2b068fc378daa952ba7f163c4a11628f55a4df523b3ef60405160405180910390a4808203612688575b816000819055505050612708600086838761232d565b5050505050565b82805461271b906131e4565b90600052602060002090601f01602090048101928261273d5760008555612784565b82601f1061275657805160ff1916838001178555612784565b82800160010185558215612784579182015b82811115612783578251825591602001919060010190612768565b5b50905061279191906127d8565b5090565b6040518060600160405280600073ffffffffffffffffffffffffffffffffffffffff168152602001600067ffffffffffffffff1681526020016000151581525090565b5b808211156127f15760008160009055506001016127d9565b5090565b6000604051905090565b600080fd5b600080fd5b60007fffffffff0000000000000000000000000000000000000000000000000000000082169050919050565b61283e81612809565b811461284957600080fd5b50565b60008135905061285b81612835565b92915050565b600060208284031215612877576128766127ff565b5b60006128858482850161284c565b91505092915050565b60008115159050919050565b6128a38161288e565b82525050565b60006020820190506128be600083018461289a565b92915050565b600081519050919050565b600082825260208201905092915050565b60005b838110156128fe5780820151818401526020810190506128e3565b8381111561290d576000848401525b50505050565b6000601f19601f8301169050919050565b600061292f826128c4565b61293981856128cf565b93506129498185602086016128e0565b61295281612913565b840191505092915050565b600060208201905081810360008301526129778184612924565b905092915050565b6000819050919050565b6129928161297f565b811461299d57600080fd5b50565b6000813590506129af81612989565b92915050565b6000602082840312156129cb576129ca6127ff565b5b60006129d9848285016129a0565b91505092915050565b600073ffffffffffffffffffffffffffffffffffffffff82169050919050565b6000612a0d826129e2565b9050919050565b612a1d81612a02565b82525050565b6000602082019050612a386000830184612a14565b92915050565b612a4781612a02565b8114612a5257600080fd5b50565b600081359050612a6481612a3e565b92915050565b60008060408385031215612a8157612a806127ff565b5b6000612a8f85828601612a55565b9250506020612aa0858286016129a0565b9150509250929050565b612ab38161297f565b82525050565b6000602082019050612ace6000830184612aaa565b92915050565b600080600060608486031215612aed57612aec6127ff565b5b6000612afb86828701612a55565b9350506020612b0c86828701612a55565b9250506040612b1d868287016129a0565b9150509250925092565b600080fd5b600080fd5b7f4e487b7100000000000000000000000000000000000000000000000000000000600052604160045260246000fd5b612b6982612913565b810181811067ffffffffffffffff82111715612b8857612b87612b31565b5b80604052505050565b6000612b9b6127f5565b9050612ba78282612b60565b919050565b600067ffffffffffffffff821115612bc757612bc6612b31565b5b612bd082612913565b9050602081019050919050565b82818337600083830152505050565b6000612bff612bfa84612bac565b612b91565b905082815260208101848484011115612c1b57612c1a612b2c565b5b612c26848285612bdd565b509392505050565b600082601f830112612c4357612c42612b27565b5b8135612c53848260208601612bec565b91505092915050565b60028110612c6957600080fd5b50565b600081359050612c7b81612c5c565b92915050565b6000612c8c82612a02565b9050919050565b612c9c81612c81565b8114612ca757600080fd5b50565b600081359050612cb981612c93565b92915050565b600080600080600060a08688031215612cdb57612cda6127ff565b5b6000612ce988828901612a55565b9550506020612cfa88828901612a55565b945050604086013567ffffffffffffffff811115612d1b57612d1a612804565b5b612d2788828901612c2e565b9350506060612d3888828901612c6c565b9250506080612d4988828901612caa565b9150509295509295909350565b600060208284031215612d6c57612d6b6127ff565b5b6000612d7a84828501612a55565b91505092915050565b600081600b0b9050919050565b612d9981612d83565b8114612da457600080fd5b50565b600081359050612db681612d90565b92915050565b600080fd5b600080fd5b612dcf8161288e565b8114612dda57600080fd5b50565b600081359050612dec81612dc6565b92915050565b600060e08284031215612e0857612e07612dbc565b5b612e1260e0612b91565b90506000612e2284828501612caa565b6000830152506020612e3684828501612a55565b6020830152506040612e4a84828501612a55565b604083015250606082013567ffffffffffffffff811115612e6e57612e6d612dc1565b5b612e7a84828501612c2e565b6060830152506080612e8e84828501612c6c565b60808301525060a0612ea2848285016129a0565b60a08301525060c0612eb684828501612ddd565b60c08301525092915050565b6000819050919050565b612ed581612ec2565b8114612ee057600080fd5b50565b600081359050612ef281612ecc565b92915050565b60008060008060808587031215612f1257612f116127ff565b5b6000612f2087828801612da7565b945050602085013567ffffffffffffffff811115612f4157612f40612804565b5b612f4d87828801612df2565b9350506040612f5e87828801612ee3565b925050606085013567ffffffffffffffff811115612f7f57612f7e612804565b5b612f8b87828801612c2e565b91505092959194509250565b6000819050919050565b6000612fbc612fb7612fb2846129e2565b612f97565b6129e2565b9050919050565b6000612fce82612fa1565b9050919050565b6000612fe082612fc3565b9050919050565b612ff081612fd5565b82525050565b600060208201905061300b6000830184612fe7565b92915050565b60008060408385031215613028576130276127ff565b5b600061303685828601612a55565b925050602061304785828601612ddd565b9150509250929050565b600067ffffffffffffffff82111561306c5761306b612b31565b5b61307582612913565b9050602081019050919050565b600061309561309084613051565b612b91565b9050828152602081018484840111156130b1576130b0612b2c565b5b6130bc848285612bdd565b509392505050565b600082601f8301126130d9576130d8612b27565b5b81356130e9848260208601613082565b91505092915050565b6000806000806080858703121561310c5761310b6127ff565b5b600061311a87828801612a55565b945050602061312b87828801612a55565b935050604061313c878288016129a0565b925050606085013567ffffffffffffffff81111561315d5761315c612804565b5b613169878288016130c4565b91505092959194509250565b6000806040838503121561318c5761318b6127ff565b5b600061319a85828601612a55565b92505060206131ab85828601612a55565b9150509250929050565b7f4e487b7100000000000000000000000000000000000000000000000000000000600052602260045260246000fd5b600060028204905060018216806131fc57607f821691505b60208210810361320f5761320e6131b5565b5b50919050565b7f4e487b7100000000000000000000000000000000000000000000000000000000600052602160045260246000fd5b7f4e487b7100000000000000000000000000000000000000000000000000000000600052601260045260246000fd5b7f4e487b7100000000000000000000000000000000000000000000000000000000600052601160045260246000fd5b60006132ad8261297f565b91506132b88361297f565b9250826132c8576132c7613244565b5b828204905092915050565b600082825260208201905092915050565b60006132ef826128c4565b6132f981856132d3565b93506133098185602086016128e0565b61331281612913565b840191505092915050565b600060a082019050818103600083015261333781886132e4565b9050818103602083015261334b81876132e4565b9050818103604083015261335f81866132e4565b9050818103606083015261337381856132e4565b9050818103608083015261338781846132e4565b90509695505050505050565b60006133a66133a184612bac565b612b91565b9050828152602081018484840111156133c2576133c1612b2c565b5b6133cd8482856128e0565b509392505050565b600082601f8301126133ea576133e9612b27565b5b81516133fa848260208601613393565b91505092915050565b600060208284031215613419576134186127ff565b5b600082015167ffffffffffffffff81111561343757613436612804565b5b613443848285016133d5565b91505092915050565b7f41677265656d656e74506f736974696f6e3a20506f73736974696f6e20646f6560008201527f73206e6f74206578697374000000000000000000000000000000000000000000602082015250565b60006134a8602b836128cf565b91506134b38261344c565b604082019050919050565b600060208201905081810360008301526134d78161349b565b9050919050565b6000815190506134ed81612ecc565b92915050565b60008151905061350281612989565b92915050565b60008060008060808587031215613522576135216127ff565b5b6000613530878288016134de565b9450506020613541878288016134f3565b9350506040613552878288016134f3565b9250506060613563878288016134f3565b91505092959194509250565b600061357a82612fc3565b9050919050565b61358a8161356f565b82525050565b60006060820190506135a56000830186613581565b6135b26020830185612a14565b6135bf6040830184612a14565b949350505050565b6000815190506135d681612d90565b92915050565b600080600080608085870312156135f6576135f56127ff565b5b6000613604878288016134f3565b9450506020613615878288016135c7565b9350506040613626878288016134f3565b9250506060613637878288016134f3565b91505092959194509250565b60006040820190506136586000830185613581565b6136656020830184612a14565b9392505050565b600060208284031215613682576136816127ff565b5b6000613690848285016135c7565b91505092915050565b60006136a482612d83565b91506136af83612d83565b9250826b7fffffffffffffffffffffff04821160008413600084131616156136da576136d9613273565b5b817fffffffffffffffffffffffffffffffffffffffff800000000000000000000000058312600084126000841316161561371757613716613273565b5b827fffffffffffffffffffffffffffffffffffffffff800000000000000000000000058212600084136000841216161561375457613753613273565b5b826b7fffffffffffffffffffffff058212600084126000841216161561377d5761377c613273565b5b828202905092915050565b600081905092915050565b7f7b00000000000000000000000000000000000000000000000000000000000000600082015250565b60006137c9600183613788565b91506137d482613793565b600182019050919050565b7f226e616d65223a2241677265656d656e74506f736974696f6e20230000000000600082015250565b6000613815601b83613788565b9150613820826137df565b601b82019050919050565b6000613836826128c4565b6138408185613788565b93506138508185602086016128e0565b80840191505092915050565b7f222c000000000000000000000000000000000000000000000000000000000000600082015250565b6000613892600283613788565b915061389d8261385c565b600282019050919050565b7f226465736372697074696f6e223a220000000000000000000000000000000000600082015250565b60006138de600f83613788565b91506138e9826138a8565b600f82019050919050565b7f22696d6167655f64617461223a2022646174613a696d6167652f7376672b786d60008201527f6c3b6261736536342c0000000000000000000000000000000000000000000000602082015250565b6000613950602983613788565b915061395b826138f4565b602982019050919050565b7f2261747472696275746573223a20000000000000000000000000000000000000600082015250565b600061399c600e83613788565b91506139a782613966565b600e82019050919050565b7f7d00000000000000000000000000000000000000000000000000000000000000600082015250565b60006139e8600183613788565b91506139f3826139b2565b600182019050919050565b6000613a09826137bc565b9150613a1482613808565b9150613a20828761382b565b9150613a2b82613885565b9150613a36826138d1565b9150613a42828661382b565b9150613a4d82613885565b9150613a5882613943565b9150613a64828561382b565b9150613a6f82613885565b9150613a7a8261398f565b9150613a86828461382b565b9150613a91826139db565b915081905095945050505050565b7f646174613a6170706c69636174696f6e2f6a736f6e3b6261736536342c000000600082015250565b6000613ad5601d83613788565b9150613ae082613a9f565b601d82019050919050565b6000613af682613ac8565b9150613b02828461382b565b915081905092915050565b6000613b188261297f565b9150613b238361297f565b9250817fffffffffffffffffffffffffffffffffffffffffffffffffffffffffffffffff0483118215151615613b5c57613b5b613273565b5b828202905092915050565b6000613b728261297f565b91507fffffffffffffffffffffffffffffffffffffffffffffffffffffffffffffffff8203613ba457613ba3613273565b5b600182019050919050565b6000613bba8261297f565b9150613bc58361297f565b925082821015613bd857613bd7613273565b5b828203905092915050565b600060ff82169050919050565b6000613bfb82613be3565b9150613c0683613be3565b92508260ff03821115613c1c57613c1b613273565b5b828201905092915050565b7f4e487b7100000000000000000000000000000000000000000000000000000000600052603260045260246000fd5b600081519050919050565b600082825260208201905092915050565b6000613c7d82613c56565b613c878185613c61565b9350613c978185602086016128e0565b613ca081612913565b840191505092915050565b6000608082019050613cc06000830187612a14565b613ccd6020830186612a14565b613cda6040830185612aaa565b8181036060830152613cec8184613c72565b905095945050505050565b600081519050613d0681612835565b92915050565b600060208284031215613d2257613d216127ff565b5b6000613d3084828501613cf7565b91505092915050565b6000613d448261297f565b9150613d4f8361297f565b9250827fffffffffffffffffffffffffffffffffffffffffffffffffffffffffffffffff03821115613d8457613d83613273565b5b828201905092915050565b7f5b00000000000000000000000000000000000000000000000000000000000000600082015250565b6000613dc5600183613788565b9150613dd082613d8f565b600182019050919050565b7f7b2274726169745f74797065223a22696e74657276616c222c2276616c75652260008201527f3a22000000000000000000000000000000000000000000000000000000000000602082015250565b6000613e37602283613788565b9150613e4282613ddb565b602282019050919050565b7f227d2c0000000000000000000000000000000000000000000000000000000000600082015250565b6000613e83600383613788565b9150613e8e82613e4d565b600382019050919050565b7f7b2274726169745f74797065223a2272617465222c2276616c7565223a220000600082015250565b6000613ecf601e83613788565b9150613eda82613e99565b601e82019050919050565b7f7b2274726169745f74797065223a22637265646974222c2276616c7565223a22600082015250565b6000613f1b602083613788565b9150613f2682613ee5565b602082019050919050565b7f7b2274726169745f74797065223a2264617973206c656674222c2276616c756560008201527f223a220000000000000000000000000000000000000000000000000000000000602082015250565b6000613f8d602383613788565b9150613f9882613f31565b602382019050919050565b7f227d000000000000000000000000000000000000000000000000000000000000600082015250565b6000613fd9600283613788565b9150613fe482613fa3565b600282019050919050565b7f5d00000000000000000000000000000000000000000000000000000000000000600082015250565b6000614025600183613788565b915061403082613fef565b600182019050919050565b600061404682613db8565b915061405182613e2a565b915061405d828761382b565b915061406882613e76565b915061407382613ec2565b915061407f828661382b565b915061408a82613e76565b915061409582613f0e565b91506140a1828561382b565b91506140ac82613e76565b91506140b782613f80565b91506140c3828461382b565b91506140ce82613fcc565b91506140d982614018565b91508190509594505050505056fe4142434445464748494a4b4c4d4e4f505152535455565758595a6162636465666768696a6b6c6d6e6f707172737475767778797a303132333435363738392b2fa26469706673582212203989c564ca9c106aeb83f2c827baff9547ad9026b980d145da95b668cac2838e64736f6c634300080d0033",
  "deployedBytecode": "0x6080604052600436106100fe5760003560e01c80636c7379981161009557806395d89b411161006457806395d89b411461034c578063a22cb46514610377578063b88d4fde146103a0578063c87b56dd146103c9578063e985e9c514610406576100fe565b80636c7379981461028b57806370a08231146102a757806378f37fff146102e45780637db3a94614610321576100fe565b806318160ddd116100d157806318160ddd146101d157806323b872dd146101fc57806342842e0e146102255780636352211e1461024e576100fe565b806301ffc9a71461010357806306fdde0314610140578063081812fc1461016b578063095ea7b3146101a8575b600080fd5b34801561010f57600080fd5b5061012a60048036038101906101259190612861565b610443565b60405161013791906128a9565b60405180910390f35b34801561014c57600080fd5b50610155610525565b604051610162919061295d565b60405180910390f35b34801561017757600080fd5b50610192600480360381019061018d91906129b5565b6105b7565b60405161019f9190612a23565b60405180910390f35b3480156101b457600080fd5b506101cf60048036038101906101ca9190612a6a565b610633565b005b3480156101dd57600080fd5b506101e661073d565b6040516101f39190612ab9565b60405180910390f35b34801561020857600080fd5b50610223600480360381019061021e9190612ad4565b610754565b005b34801561023157600080fd5b5061024c60048036038101906102479190612ad4565b610764565b005b34801561025a57600080fd5b50610275600480360381019061027091906129b5565b610784565b6040516102829190612a23565b60405180910390f35b6102a560048036038101906102a09190612cbf565b61079a565b005b3480156102b357600080fd5b506102ce60048036038101906102c99190612d56565b6109a5565b6040516102db9190612ab9565b60405180910390f35b3480156102f057600080fd5b5061030b60048036038101906103069190612ef8565b610a74565b604051610318919061295d565b60405180910390f35b34801561032d57600080fd5b50610336610b3d565b6040516103439190612ff6565b60405180910390f35b34801561035857600080fd5b50610361610b63565b60405161036e919061295d565b60405180910390f35b34801561038357600080fd5b5061039e60048036038101906103999190613011565b610bf5565b005b3480156103ac57600080fd5b506103c760048036038101906103c291906130f2565b610d6c565b005b3480156103d557600080fd5b506103f060048036038101906103eb91906129b5565b610de8565b6040516103fd919061295d565b60405180910390f35b34801561041257600080fd5b5061042d60048036038101906104289190613175565b611378565b60405161043a91906128a9565b60405180910390f35b60007f80ac58cd000000000000000000000000000000000000000000000000000000007bffffffffffffffffffffffffffffffffffffffffffffffffffffffff1916827bffffffffffffffffffffffffffffffffffffffffffffffffffffffff1916148061050e57507f5b5e139f000000000000000000000000000000000000000000000000000000007bffffffffffffffffffffffffffffffffffffffffffffffffffffffff1916827bffffffffffffffffffffffffffffffffffffffffffffffffffffffff1916145b8061051e575061051d8261140c565b5b9050919050565b606060028054610534906131e4565b80601f0160208091040260200160405190810160405280929190818152602001828054610560906131e4565b80156105ad5780601f10610582576101008083540402835291602001916105ad565b820191906000526020600020905b81548152906001019060200180831161059057829003601f168201915b5050505050905090565b60006105c282611476565b6105f8576040517fcf4700e400000000000000000000000000000000000000000000000000000000815260040160405180910390fd5b6006600083815260200190815260200160002060009054906101000a900473ffffffffffffffffffffffffffffffffffffffff169050919050565b600061063e82610784565b90508073ffffffffffffffffffffffffffffffffffffffff168373ffffffffffffffffffffffffffffffffffffffff16036106a5576040517f943f7b8c00000000000000000000000000000000000000000000000000000000815260040160405180910390fd5b8073ffffffffffffffffffffffffffffffffffffffff166106c46114c4565b73ffffffffffffffffffffffffffffffffffffffff16141580156106f657506106f4816106ef6114c4565b611378565b155b1561072d576040517fcfb3b94200000000000000000000000000000000000000000000000000000000815260040160405180910390fd5b6107388383836114cc565b505050565b600061074761157e565b6001546000540303905090565b61075f838383611583565b505050565b61077f83838360405180602001604052806000815250610d6c565b505050565b600061078f82611a37565b600001519050919050565b60006107a461073d565b90506107b1336001611cc6565b6040518060e001604052808373ffffffffffffffffffffffffffffffffffffffff1681526020018673ffffffffffffffffffffffffffffffffffffffff1681526020018773ffffffffffffffffffffffffffffffffffffffff16815260200185815260200184600181111561082957610828613215565b5b8152602001428152602001600115158152506009600083815260200190815260200160002060008201518160000160006101000a81548173ffffffffffffffffffffffffffffffffffffffff021916908373ffffffffffffffffffffffffffffffffffffffff16021790555060208201518160010160006101000a81548173ffffffffffffffffffffffffffffffffffffffff021916908373ffffffffffffffffffffffffffffffffffffffff16021790555060408201518160020160006101000a81548173ffffffffffffffffffffffffffffffffffffffff021916908373ffffffffffffffffffffffffffffffffffffffff160217905550606082015181600301908051906020019061093f92919061270f565b5060808201518160040160006101000a81548160ff0219169083600181111561096b5761096a613215565b5b021790555060a0820151816005015560c08201518160060160006101000a81548160ff021916908315150217905550905050505050505050565b60008073ffffffffffffffffffffffffffffffffffffffff168273ffffffffffffffffffffffffffffffffffffffff1603610a0c576040517f8f4eb60400000000000000000000000000000000000000000000000000000000815260040160405180910390fd5b600560008373ffffffffffffffffffffffffffffffffffffffff1673ffffffffffffffffffffffffffffffffffffffff16815260200190815260200160002060000160009054906101000a900467ffffffffffffffff1667ffffffffffffffff169050919050565b606073__$ad5092d2d81381a97940758c959052a4e8$__63d04c159c8560600151610aa3876080015189611ce4565b610ab08860800151611d9f565b610acc670de0b6b3a764000089610ac791906132a2565b611e48565b876040518663ffffffff1660e01b8152600401610aed95949392919061331d565b600060405180830381865af4158015610b0a573d6000803e3d6000fd5b505050506040513d6000823e3d601f19601f82011682018060405250810190610b339190613403565b9050949350505050565b600860009054906101000a900473ffffffffffffffffffffffffffffffffffffffff1681565b606060038054610b72906131e4565b80601f0160208091040260200160405190810160405280929190818152602001828054610b9e906131e4565b8015610beb5780601f10610bc057610100808354040283529160200191610beb565b820191906000526020600020905b815481529060010190602001808311610bce57829003601f168201915b5050505050905090565b610bfd6114c4565b73ffffffffffffffffffffffffffffffffffffffff168273ffffffffffffffffffffffffffffffffffffffff1603610c61576040517fb06307db00000000000000000000000000000000000000000000000000000000815260040160405180910390fd5b8060076000610c6e6114c4565b73ffffffffffffffffffffffffffffffffffffffff1673ffffffffffffffffffffffffffffffffffffffff16815260200190815260200160002060008473ffffffffffffffffffffffffffffffffffffffff1673ffffffffffffffffffffffffffffffffffffffff16815260200190815260200160002060006101000a81548160ff0219169083151502179055508173ffffffffffffffffffffffffffffffffffffffff16610d1b6114c4565b73ffffffffffffffffffffffffffffffffffffffff167f17307eab39ab6107e8899845ad3d59bd9653f200f220920489ca2b5937696c3183604051610d6091906128a9565b60405180910390a35050565b610d77848484611583565b610d968373ffffffffffffffffffffffffffffffffffffffff16611fd0565b8015610dab5750610da984848484611ff3565b155b15610de2576040517fd1a57ed600000000000000000000000000000000000000000000000000000000815260040160405180910390fd5b50505050565b6060610df382611476565b610e32576040517f08c379a0000000000000000000000000000000000000000000000000000000008152600401610e29906134be565b60405180910390fd5b6000600960008481526020019081526020016000206040518060e00160405290816000820160009054906101000a900473ffffffffffffffffffffffffffffffffffffffff1673ffffffffffffffffffffffffffffffffffffffff1673ffffffffffffffffffffffffffffffffffffffff1681526020016001820160009054906101000a900473ffffffffffffffffffffffffffffffffffffffff1673ffffffffffffffffffffffffffffffffffffffff1673ffffffffffffffffffffffffffffffffffffffff1681526020016002820160009054906101000a900473ffffffffffffffffffffffffffffffffffffffff1673ffffffffffffffffffffffffffffffffffffffff1673ffffffffffffffffffffffffffffffffffffffff168152602001600382018054610f64906131e4565b80601f0160208091040260200160405190810160405280929190818152602001828054610f90906131e4565b8015610fdd5780601f10610fb257610100808354040283529160200191610fdd565b820191906000526020600020905b815481529060010190602001808311610fc057829003601f168201915b505050505081526020016004820160009054906101000a900460ff16600181111561100b5761100a613215565b5b600181111561101d5761101c613215565b5b8152602001600582015481526020016006820160009054906101000a900460ff16151515158152505090506000816000015173ffffffffffffffffffffffffffffffffffffffff16632ec8eec783604001516040518263ffffffff1660e01b815260040161108b9190612a23565b608060405180830381865afa1580156110a8573d6000803e3d6000fd5b505050506040513d601f19601f820116820180604052508101906110cc9190613508565b50505090506000806000600860009054906101000a900473ffffffffffffffffffffffffffffffffffffffff1673ffffffffffffffffffffffffffffffffffffffff1663e6a1e8888660000151876040015188602001516040518463ffffffff1660e01b815260040161114193929190613590565b608060405180830381865afa15801561115e573d6000803e3d6000fd5b505050506040513d601f19601f8201168201806040525081019061118291906135dc565b9350935093505060606000600860009054906101000a900473ffffffffffffffffffffffffffffffffffffffff1673ffffffffffffffffffffffffffffffffffffffff1663e8e7e2d1886000015189604001516040518363ffffffff1660e01b81526004016111f2929190613643565b602060405180830381865afa15801561120f573d6000803e3d6000fd5b505050506040513d601f19601f82011682018060405250810190611233919061366c565b9050600081600b0b1261127d576040518060400160405280600881526020017f496e66696e69746500000000000000000000000000000000000000000000000081525091506112e7565b60007fffffffffffffffffffffffffffffffffffffffffffffffffffffffffffffffff826112ab9190613699565b90506000816bffffffffffffffffffffffff16886112c991906132a2565b90506112e262015180826112dd91906132a2565b611e48565b935050505b60006112fd6112f8878a8a87610a74565b612143565b9050600061130d878a8a876122bb565b905061134961131b8c611e48565b8a60600151848460405160200161133594939291906139fe565b604051602081830303815290604052612143565b6040516020016113599190613aeb565b6040516020818303038152906040529950505050505050505050919050565b6000600760008473ffffffffffffffffffffffffffffffffffffffff1673ffffffffffffffffffffffffffffffffffffffff16815260200190815260200160002060008373ffffffffffffffffffffffffffffffffffffffff1673ffffffffffffffffffffffffffffffffffffffff16815260200190815260200160002060009054906101000a900460ff16905092915050565b60007f01ffc9a7000000000000000000000000000000000000000000000000000000007bffffffffffffffffffffffffffffffffffffffffffffffffffffffff1916827bffffffffffffffffffffffffffffffffffffffffffffffffffffffff1916149050919050565b60008161148161157e565b11158015611490575060005482105b80156114bd575060046000838152602001908152602001600020600001601c9054906101000a900460ff16155b9050919050565b600033905090565b826006600084815260200190815260200160002060006101000a81548173ffffffffffffffffffffffffffffffffffffffff021916908373ffffffffffffffffffffffffffffffffffffffff160217905550818373ffffffffffffffffffffffffffffffffffffffff168273ffffffffffffffffffffffffffffffffffffffff167f8c5be1e5ebec7d5bd14f71427d1e84f3dd0314c0f7b2291e5b200ac8c7c3b92560405160405180910390a4505050565b600090565b600061158e82611a37565b90508373ffffffffffffffffffffffffffffffffffffffff16816000015173ffffffffffffffffffffffffffffffffffffffff16146115f9576040517fa114810000000000000000000000000000000000000000000000000000000000815260040160405180910390fd5b60008473ffffffffffffffffffffffffffffffffffffffff1661161a6114c4565b73ffffffffffffffffffffffffffffffffffffffff1614806116495750611648856116436114c4565b611378565b5b8061168e57506116576114c4565b73ffffffffffffffffffffffffffffffffffffffff16611676846105b7565b73ffffffffffffffffffffffffffffffffffffffff16145b9050806116c7576040517f59c896be00000000000000000000000000000000000000000000000000000000815260040160405180910390fd5b600073ffffffffffffffffffffffffffffffffffffffff168473ffffffffffffffffffffffffffffffffffffffff160361172d576040517fea553b3400000000000000000000000000000000000000000000000000000000815260040160405180910390fd5b61173a8585856001612327565b611746600084876114cc565b6001600560008773ffffffffffffffffffffffffffffffffffffffff1673ffffffffffffffffffffffffffffffffffffffff16815260200190815260200160002060000160008282829054906101000a900467ffffffffffffffff160392506101000a81548167ffffffffffffffff021916908367ffffffffffffffff1602179055506001600560008673ffffffffffffffffffffffffffffffffffffffff1673ffffffffffffffffffffffffffffffffffffffff16815260200190815260200160002060000160008282829054906101000a900467ffffffffffffffff160192506101000a81548167ffffffffffffffff021916908367ffffffffffffffff1602179055506000600460008581526020019081526020016000209050848160000160006101000a81548173ffffffffffffffffffffffffffffffffffffffff021916908373ffffffffffffffffffffffffffffffffffffffff160217905550428160000160146101000a81548167ffffffffffffffff021916908367ffffffffffffffff16021790555060006001850190506000600460008381526020019081526020016000209050600073ffffffffffffffffffffffffffffffffffffffff168160000160009054906101000a900473ffffffffffffffffffffffffffffffffffffffff1673ffffffffffffffffffffffffffffffffffffffff16036119c55760005482146119c457878160000160006101000a81548173ffffffffffffffffffffffffffffffffffffffff021916908373ffffffffffffffffffffffffffffffffffffffff16021790555084602001518160000160146101000a81548167ffffffffffffffff021916908367ffffffffffffffff1602179055505b5b505050828473ffffffffffffffffffffffffffffffffffffffff168673ffffffffffffffffffffffffffffffffffffffff167fddf252ad1be2c89b69c2b068fc378daa952ba7f163c4a11628f55a4df523b3ef60405160405180910390a4611a30858585600161232d565b5050505050565b611a3f612795565b600082905080611a4d61157e565b11158015611a5c575060005481105b15611c8f576000600460008381526020019081526020016000206040518060600160405290816000820160009054906101000a900473ffffffffffffffffffffffffffffffffffffffff1673ffffffffffffffffffffffffffffffffffffffff1673ffffffffffffffffffffffffffffffffffffffff1681526020016000820160149054906101000a900467ffffffffffffffff1667ffffffffffffffff1667ffffffffffffffff16815260200160008201601c9054906101000a900460ff16151515158152505090508060400151611c8d57600073ffffffffffffffffffffffffffffffffffffffff16816000015173ffffffffffffffffffffffffffffffffffffffff1614611b71578092505050611cc1565b5b600115611c8c57818060019003925050600460008381526020019081526020016000206040518060600160405290816000820160009054906101000a900473ffffffffffffffffffffffffffffffffffffffff1673ffffffffffffffffffffffffffffffffffffffff1673ffffffffffffffffffffffffffffffffffffffff1681526020016000820160149054906101000a900467ffffffffffffffff1667ffffffffffffffff1667ffffffffffffffff16815260200160008201601c9054906101000a900460ff1615151515815250509050600073ffffffffffffffffffffffffffffffffffffffff16816000015173ffffffffffffffffffffffffffffffffffffffff1614611c87578092505050611cc1565b611b72565b5b505b6040517fdf2d9b4200000000000000000000000000000000000000000000000000000000815260040160405180910390fd5b919050565b611ce0828260405180602001604052806000815250612333565b5050565b606060006001811115611cfa57611cf9613215565b5b836001811115611d0d57611d0c613215565b5b03611d5757600062278d00836bffffffffffffffffffffffff16611d319190613b0d565b9050611d4f670de0b6b3a764000082611d4a91906132a2565b611e48565b915050611d99565b60006301e13380836bffffffffffffffffffffffff16611d779190613b0d565b9050611d95670de0b6b3a764000082611d9091906132a2565b611e48565b9150505b92915050565b606060006001811115611db557611db4613215565b5b826001811115611dc857611dc7613215565b5b03611e0a576040518060400160405280600981526020017f706572206d6f6e746800000000000000000000000000000000000000000000008152509050611e43565b6040518060400160405280600881526020017f706572207965617200000000000000000000000000000000000000000000000081525090505b919050565b606060008203611e8f576040518060400160405280600181526020017f30000000000000000000000000000000000000000000000000000000000000008152509050611fcb565b600082905060005b60008214611ec1578080611eaa90613b67565b915050600a82611eba91906132a2565b9150611e97565b60008167ffffffffffffffff811115611edd57611edc612b31565b5b6040519080825280601f01601f191660200182016040528015611f0f5781602001600182028036833780820191505090505b50905060008290505b60008614611fc357600181611f2d9190613baf565b90506000600a8088611f3f91906132a2565b611f499190613b0d565b87611f549190613baf565b6030611f609190613bf0565b905060008160f81b905080848481518110611f7e57611f7d613c27565b5b60200101907effffffffffffffffffffffffffffffffffffffffffffffffffffffffffffff1916908160001a905350600a88611fba91906132a2565b97505050611f18565b819450505050505b919050565b6000808273ffffffffffffffffffffffffffffffffffffffff163b119050919050565b60008373ffffffffffffffffffffffffffffffffffffffff1663150b7a026120196114c4565b8786866040518563ffffffff1660e01b815260040161203b9493929190613cab565b6020604051808303816000875af192505050801561207757506040513d601f19601f820116820180604052508101906120749190613d0c565b60015b6120f0573d80600081146120a7576040519150601f19603f3d011682016040523d82523d6000602084013e6120ac565b606091505b5060008151036120e8576040517fd1a57ed600000000000000000000000000000000000000000000000000000000815260040160405180910390fd5b805181602001fd5b63150b7a0260e01b7bffffffffffffffffffffffffffffffffffffffffffffffffffffffff1916817bffffffffffffffffffffffffffffffffffffffffffffffffffffffff191614915050949350505050565b60606000825103612165576040518060200160405280600081525090506122b6565b60006040518060600160405280604081526020016140e860409139905060006003600285516121949190613d39565b61219e91906132a2565b60046121aa9190613b0d565b905060006020826121bb9190613d39565b67ffffffffffffffff8111156121d4576121d3612b31565b5b6040519080825280601f01601f1916602001820160405280156122065781602001600182028036833780820191505090505b509050818152600183018586518101602084015b81831015612275576003830192508251603f8160121c168501518253600182019150603f81600c1c168501518253600182019150603f8160061c168501518253600182019150603f811685015182536001820191505061221a565b60038951066001811461228f576002811461229f576122aa565b613d3d60f01b60028303526122aa565b603d60f81b60018303525b50505050508093505050505b919050565b606060006122cc8560800151611d9f565b6122da866080015188611ce4565b6122f6670de0b6b3a7640000876122f191906132a2565b611e48565b8560405160200161230a949392919061403b565b604051602081830303815290604052905080915050949350505050565b50505050565b50505050565b6123408383836001612345565b505050565b600080549050600073ffffffffffffffffffffffffffffffffffffffff168573ffffffffffffffffffffffffffffffffffffffff16036123b1576040517f2e07630000000000000000000000000000000000000000000000000000000000815260040160405180910390fd5b600084036123eb576040517fb562e8dd00000000000000000000000000000000000000000000000000000000815260040160405180910390fd5b6123f86000868387612327565b83600560008773ffffffffffffffffffffffffffffffffffffffff1673ffffffffffffffffffffffffffffffffffffffff16815260200190815260200160002060000160008282829054906101000a900467ffffffffffffffff160192506101000a81548167ffffffffffffffff021916908367ffffffffffffffff16021790555083600560008773ffffffffffffffffffffffffffffffffffffffff1673ffffffffffffffffffffffffffffffffffffffff16815260200190815260200160002060000160088282829054906101000a900467ffffffffffffffff160192506101000a81548167ffffffffffffffff021916908367ffffffffffffffff160217905550846004600083815260200190815260200160002060000160006101000a81548173ffffffffffffffffffffffffffffffffffffffff021916908373ffffffffffffffffffffffffffffffffffffffff160217905550426004600083815260200190815260200160002060000160146101000a81548167ffffffffffffffff021916908367ffffffffffffffff1602179055506000819050600085820190508380156125c257506125c18773ffffffffffffffffffffffffffffffffffffffff16611fd0565b5b15612687575b818773ffffffffffffffffffffffffffffffffffffffff16600073ffffffffffffffffffffffffffffffffffffffff167fddf252ad1be2c89b69c2b068fc378daa952ba7f163c4a11628f55a4df523b3ef60405160405180910390a46126376000888480600101955088611ff3565b61266d576040517fd1a57ed600000000000000000000000000000000000000000000000000000000815260040160405180910390fd5b8082036125c857826000541461268257600080fd5b6126f2565b5b818060010192508773ffffffffffffffffffffffffffffffffffffffff16600073ffffffffffffffffffffffffffffffffffffffff167fddf252ad1be2c89b69c2b068fc378daa952ba7f163c4a11628f55a4df523b3ef60405160405180910390a4808203612688575b816000819055505050612708600086838761232d565b5050505050565b82805461271b906131e4565b90600052602060002090601f01602090048101928261273d5760008555612784565b82601f1061275657805160ff1916838001178555612784565b82800160010185558215612784579182015b82811115612783578251825591602001919060010190612768565b5b50905061279191906127d8565b5090565b6040518060600160405280600073ffffffffffffffffffffffffffffffffffffffff168152602001600067ffffffffffffffff1681526020016000151581525090565b5b808211156127f15760008160009055506001016127d9565b5090565b6000604051905090565b600080fd5b600080fd5b60007fffffffff0000000000000000000000000000000000000000000000000000000082169050919050565b61283e81612809565b811461284957600080fd5b50565b60008135905061285b81612835565b92915050565b600060208284031215612877576128766127ff565b5b60006128858482850161284c565b91505092915050565b60008115159050919050565b6128a38161288e565b82525050565b60006020820190506128be600083018461289a565b92915050565b600081519050919050565b600082825260208201905092915050565b60005b838110156128fe5780820151818401526020810190506128e3565b8381111561290d576000848401525b50505050565b6000601f19601f8301169050919050565b600061292f826128c4565b61293981856128cf565b93506129498185602086016128e0565b61295281612913565b840191505092915050565b600060208201905081810360008301526129778184612924565b905092915050565b6000819050919050565b6129928161297f565b811461299d57600080fd5b50565b6000813590506129af81612989565b92915050565b6000602082840312156129cb576129ca6127ff565b5b60006129d9848285016129a0565b91505092915050565b600073ffffffffffffffffffffffffffffffffffffffff82169050919050565b6000612a0d826129e2565b9050919050565b612a1d81612a02565b82525050565b6000602082019050612a386000830184612a14565b92915050565b612a4781612a02565b8114612a5257600080fd5b50565b600081359050612a6481612a3e565b92915050565b60008060408385031215612a8157612a806127ff565b5b6000612a8f85828601612a55565b9250506020612aa0858286016129a0565b9150509250929050565b612ab38161297f565b82525050565b6000602082019050612ace6000830184612aaa565b92915050565b600080600060608486031215612aed57612aec6127ff565b5b6000612afb86828701612a55565b9350506020612b0c86828701612a55565b9250506040612b1d868287016129a0565b9150509250925092565b600080fd5b600080fd5b7f4e487b7100000000000000000000000000000000000000000000000000000000600052604160045260246000fd5b612b6982612913565b810181811067ffffffffffffffff82111715612b8857612b87612b31565b5b80604052505050565b6000612b9b6127f5565b9050612ba78282612b60565b919050565b600067ffffffffffffffff821115612bc757612bc6612b31565b5b612bd082612913565b9050602081019050919050565b82818337600083830152505050565b6000612bff612bfa84612bac565b612b91565b905082815260208101848484011115612c1b57612c1a612b2c565b5b612c26848285612bdd565b509392505050565b600082601f830112612c4357612c42612b27565b5b8135612c53848260208601612bec565b91505092915050565b60028110612c6957600080fd5b50565b600081359050612c7b81612c5c565b92915050565b6000612c8c82612a02565b9050919050565b612c9c81612c81565b8114612ca757600080fd5b50565b600081359050612cb981612c93565b92915050565b600080600080600060a08688031215612cdb57612cda6127ff565b5b6000612ce988828901612a55565b9550506020612cfa88828901612a55565b945050604086013567ffffffffffffffff811115612d1b57612d1a612804565b5b612d2788828901612c2e565b9350506060612d3888828901612c6c565b9250506080612d4988828901612caa565b9150509295509295909350565b600060208284031215612d6c57612d6b6127ff565b5b6000612d7a84828501612a55565b91505092915050565b600081600b0b9050919050565b612d9981612d83565b8114612da457600080fd5b50565b600081359050612db681612d90565b92915050565b600080fd5b600080fd5b612dcf8161288e565b8114612dda57600080fd5b50565b600081359050612dec81612dc6565b92915050565b600060e08284031215612e0857612e07612dbc565b5b612e1260e0612b91565b90506000612e2284828501612caa565b6000830152506020612e3684828501612a55565b6020830152506040612e4a84828501612a55565b604083015250606082013567ffffffffffffffff811115612e6e57612e6d612dc1565b5b612e7a84828501612c2e565b6060830152506080612e8e84828501612c6c565b60808301525060a0612ea2848285016129a0565b60a08301525060c0612eb684828501612ddd565b60c08301525092915050565b6000819050919050565b612ed581612ec2565b8114612ee057600080fd5b50565b600081359050612ef281612ecc565b92915050565b60008060008060808587031215612f1257612f116127ff565b5b6000612f2087828801612da7565b945050602085013567ffffffffffffffff811115612f4157612f40612804565b5b612f4d87828801612df2565b9350506040612f5e87828801612ee3565b925050606085013567ffffffffffffffff811115612f7f57612f7e612804565b5b612f8b87828801612c2e565b91505092959194509250565b6000819050919050565b6000612fbc612fb7612fb2846129e2565b612f97565b6129e2565b9050919050565b6000612fce82612fa1565b9050919050565b6000612fe082612fc3565b9050919050565b612ff081612fd5565b82525050565b600060208201905061300b6000830184612fe7565b92915050565b60008060408385031215613028576130276127ff565b5b600061303685828601612a55565b925050602061304785828601612ddd565b9150509250929050565b600067ffffffffffffffff82111561306c5761306b612b31565b5b61307582612913565b9050602081019050919050565b600061309561309084613051565b612b91565b9050828152602081018484840111156130b1576130b0612b2c565b5b6130bc848285612bdd565b509392505050565b600082601f8301126130d9576130d8612b27565b5b81356130e9848260208601613082565b91505092915050565b6000806000806080858703121561310c5761310b6127ff565b5b600061311a87828801612a55565b945050602061312b87828801612a55565b935050604061313c878288016129a0565b925050606085013567ffffffffffffffff81111561315d5761315c612804565b5b613169878288016130c4565b91505092959194509250565b6000806040838503121561318c5761318b6127ff565b5b600061319a85828601612a55565b92505060206131ab85828601612a55565b9150509250929050565b7f4e487b7100000000000000000000000000000000000000000000000000000000600052602260045260246000fd5b600060028204905060018216806131fc57607f821691505b60208210810361320f5761320e6131b5565b5b50919050565b7f4e487b7100000000000000000000000000000000000000000000000000000000600052602160045260246000fd5b7f4e487b7100000000000000000000000000000000000000000000000000000000600052601260045260246000fd5b7f4e487b7100000000000000000000000000000000000000000000000000000000600052601160045260246000fd5b60006132ad8261297f565b91506132b88361297f565b9250826132c8576132c7613244565b5b828204905092915050565b600082825260208201905092915050565b60006132ef826128c4565b6132f981856132d3565b93506133098185602086016128e0565b61331281612913565b840191505092915050565b600060a082019050818103600083015261333781886132e4565b9050818103602083015261334b81876132e4565b9050818103604083015261335f81866132e4565b9050818103606083015261337381856132e4565b9050818103608083015261338781846132e4565b90509695505050505050565b60006133a66133a184612bac565b612b91565b9050828152602081018484840111156133c2576133c1612b2c565b5b6133cd8482856128e0565b509392505050565b600082601f8301126133ea576133e9612b27565b5b81516133fa848260208601613393565b91505092915050565b600060208284031215613419576134186127ff565b5b600082015167ffffffffffffffff81111561343757613436612804565b5b613443848285016133d5565b91505092915050565b7f41677265656d656e74506f736974696f6e3a20506f73736974696f6e20646f6560008201527f73206e6f74206578697374000000000000000000000000000000000000000000602082015250565b60006134a8602b836128cf565b91506134b38261344c565b604082019050919050565b600060208201905081810360008301526134d78161349b565b9050919050565b6000815190506134ed81612ecc565b92915050565b60008151905061350281612989565b92915050565b60008060008060808587031215613522576135216127ff565b5b6000613530878288016134de565b9450506020613541878288016134f3565b9350506040613552878288016134f3565b9250506060613563878288016134f3565b91505092959194509250565b600061357a82612fc3565b9050919050565b61358a8161356f565b82525050565b60006060820190506135a56000830186613581565b6135b26020830185612a14565b6135bf6040830184612a14565b949350505050565b6000815190506135d681612d90565b92915050565b600080600080608085870312156135f6576135f56127ff565b5b6000613604878288016134f3565b9450506020613615878288016135c7565b9350506040613626878288016134f3565b9250506060613637878288016134f3565b91505092959194509250565b60006040820190506136586000830185613581565b6136656020830184612a14565b9392505050565b600060208284031215613682576136816127ff565b5b6000613690848285016135c7565b91505092915050565b60006136a482612d83565b91506136af83612d83565b9250826b7fffffffffffffffffffffff04821160008413600084131616156136da576136d9613273565b5b817fffffffffffffffffffffffffffffffffffffffff800000000000000000000000058312600084126000841316161561371757613716613273565b5b827fffffffffffffffffffffffffffffffffffffffff800000000000000000000000058212600084136000841216161561375457613753613273565b5b826b7fffffffffffffffffffffff058212600084126000841216161561377d5761377c613273565b5b828202905092915050565b600081905092915050565b7f7b00000000000000000000000000000000000000000000000000000000000000600082015250565b60006137c9600183613788565b91506137d482613793565b600182019050919050565b7f226e616d65223a2241677265656d656e74506f736974696f6e20230000000000600082015250565b6000613815601b83613788565b9150613820826137df565b601b82019050919050565b6000613836826128c4565b6138408185613788565b93506138508185602086016128e0565b80840191505092915050565b7f222c000000000000000000000000000000000000000000000000000000000000600082015250565b6000613892600283613788565b915061389d8261385c565b600282019050919050565b7f226465736372697074696f6e223a220000000000000000000000000000000000600082015250565b60006138de600f83613788565b91506138e9826138a8565b600f82019050919050565b7f22696d6167655f64617461223a2022646174613a696d6167652f7376672b786d60008201527f6c3b6261736536342c0000000000000000000000000000000000000000000000602082015250565b6000613950602983613788565b915061395b826138f4565b602982019050919050565b7f2261747472696275746573223a20000000000000000000000000000000000000600082015250565b600061399c600e83613788565b91506139a782613966565b600e82019050919050565b7f7d00000000000000000000000000000000000000000000000000000000000000600082015250565b60006139e8600183613788565b91506139f3826139b2565b600182019050919050565b6000613a09826137bc565b9150613a1482613808565b9150613a20828761382b565b9150613a2b82613885565b9150613a36826138d1565b9150613a42828661382b565b9150613a4d82613885565b9150613a5882613943565b9150613a64828561382b565b9150613a6f82613885565b9150613a7a8261398f565b9150613a86828461382b565b9150613a91826139db565b915081905095945050505050565b7f646174613a6170706c69636174696f6e2f6a736f6e3b6261736536342c000000600082015250565b6000613ad5601d83613788565b9150613ae082613a9f565b601d82019050919050565b6000613af682613ac8565b9150613b02828461382b565b915081905092915050565b6000613b188261297f565b9150613b238361297f565b9250817fffffffffffffffffffffffffffffffffffffffffffffffffffffffffffffffff0483118215151615613b5c57613b5b613273565b5b828202905092915050565b6000613b728261297f565b91507fffffffffffffffffffffffffffffffffffffffffffffffffffffffffffffffff8203613ba457613ba3613273565b5b600182019050919050565b6000613bba8261297f565b9150613bc58361297f565b925082821015613bd857613bd7613273565b5b828203905092915050565b600060ff82169050919050565b6000613bfb82613be3565b9150613c0683613be3565b92508260ff03821115613c1c57613c1b613273565b5b828201905092915050565b7f4e487b7100000000000000000000000000000000000000000000000000000000600052603260045260246000fd5b600081519050919050565b600082825260208201905092915050565b6000613c7d82613c56565b613c878185613c61565b9350613c978185602086016128e0565b613ca081612913565b840191505092915050565b6000608082019050613cc06000830187612a14565b613ccd6020830186612a14565b613cda6040830185612aaa565b8181036060830152613cec8184613c72565b905095945050505050565b600081519050613d0681612835565b92915050565b600060208284031215613d2257613d216127ff565b5b6000613d3084828501613cf7565b91505092915050565b6000613d448261297f565b9150613d4f8361297f565b9250827fffffffffffffffffffffffffffffffffffffffffffffffffffffffffffffffff03821115613d8457613d83613273565b5b828201905092915050565b7f5b00000000000000000000000000000000000000000000000000000000000000600082015250565b6000613dc5600183613788565b9150613dd082613d8f565b600182019050919050565b7f7b2274726169745f74797065223a22696e74657276616c222c2276616c75652260008201527f3a22000000000000000000000000000000000000000000000000000000000000602082015250565b6000613e37602283613788565b9150613e4282613ddb565b602282019050919050565b7f227d2c0000000000000000000000000000000000000000000000000000000000600082015250565b6000613e83600383613788565b9150613e8e82613e4d565b600382019050919050565b7f7b2274726169745f74797065223a2272617465222c2276616c7565223a220000600082015250565b6000613ecf601e83613788565b9150613eda82613e99565b601e82019050919050565b7f7b2274726169745f74797065223a22637265646974222c2276616c7565223a22600082015250565b6000613f1b602083613788565b9150613f2682613ee5565b602082019050919050565b7f7b2274726169745f74797065223a2264617973206c656674222c2276616c756560008201527f223a220000000000000000000000000000000000000000000000000000000000602082015250565b6000613f8d602383613788565b9150613f9882613f31565b602382019050919050565b7f227d000000000000000000000000000000000000000000000000000000000000600082015250565b6000613fd9600283613788565b9150613fe482613fa3565b600282019050919050565b7f5d00000000000000000000000000000000000000000000000000000000000000600082015250565b6000614025600183613788565b915061403082613fef565b600182019050919050565b600061404682613db8565b915061405182613e2a565b915061405d828761382b565b915061406882613e76565b915061407382613ec2565b915061407f828661382b565b915061408a82613e76565b915061409582613f0e565b91506140a1828561382b565b91506140ac82613e76565b91506140b782613f80565b91506140c3828461382b565b91506140ce82613fcc565b91506140d982614018565b91508190509594505050505056fe4142434445464748494a4b4c4d4e4f505152535455565758595a6162636465666768696a6b6c6d6e6f707172737475767778797a303132333435363738392b2fa26469706673582212203989c564ca9c106aeb83f2c827baff9547ad9026b980d145da95b668cac2838e64736f6c634300080d0033",
  "libraries": {
    "SVG": "0x9f50b57a8125c5BD3A7EE38A45ff3E78db2Ea67C"
  },
  "devdoc": {
    "kind": "dev",
    "methods": {
      "approve(address,uint256)": {
        "details": "See {IERC721-approve}."
      },
      "balanceOf(address)": {
        "details": "See {IERC721-balanceOf}."
      },
      "getApproved(uint256)": {
        "details": "See {IERC721-getApproved}."
      },
      "isApprovedForAll(address,address)": {
        "details": "See {IERC721-isApprovedForAll}."
      },
      "name()": {
        "details": "See {IERC721Metadata-name}."
      },
      "ownerOf(uint256)": {
        "details": "See {IERC721-ownerOf}."
      },
      "safeTransferFrom(address,address,uint256)": {
        "details": "See {IERC721-safeTransferFrom}."
      },
      "safeTransferFrom(address,address,uint256,bytes)": {
        "details": "See {IERC721-safeTransferFrom}."
      },
      "setApprovalForAll(address,bool)": {
        "details": "See {IERC721-setApprovalForAll}."
      },
      "supportsInterface(bytes4)": {
        "details": "See {IERC165-supportsInterface}."
      },
      "symbol()": {
        "details": "See {IERC721Metadata-symbol}."
      },
      "tokenURI(uint256)": {
        "details": "See {IERC721Metadata-tokenURI}."
      },
      "totalSupply()": {
        "details": "Burned tokens are calculated here, use _totalMinted() if you want to count just minted tokens."
      },
      "transferFrom(address,address,uint256)": {
        "details": "See {IERC721-transferFrom}."
      }
    },
    "version": 1
  },
  "userdoc": {
    "kind": "user",
    "methods": {},
    "version": 1
  },
  "storageLayout": {
    "storage": [
      {
        "astId": 2147,
        "contract": "contracts/AgreementNFT.sol:AgreementNFT",
        "label": "_currentIndex",
        "offset": 0,
        "slot": "0",
        "type": "t_uint256"
      },
      {
        "astId": 2149,
        "contract": "contracts/AgreementNFT.sol:AgreementNFT",
        "label": "_burnCounter",
        "offset": 0,
        "slot": "1",
        "type": "t_uint256"
      },
      {
        "astId": 2151,
        "contract": "contracts/AgreementNFT.sol:AgreementNFT",
        "label": "_name",
        "offset": 0,
        "slot": "2",
        "type": "t_string_storage"
      },
      {
        "astId": 2153,
        "contract": "contracts/AgreementNFT.sol:AgreementNFT",
        "label": "_symbol",
        "offset": 0,
        "slot": "3",
        "type": "t_string_storage"
      },
      {
        "astId": 2158,
        "contract": "contracts/AgreementNFT.sol:AgreementNFT",
        "label": "_ownerships",
        "offset": 0,
        "slot": "4",
        "type": "t_mapping(t_uint256,t_struct(TokenOwnership)2136_storage)"
      },
      {
        "astId": 2163,
        "contract": "contracts/AgreementNFT.sol:AgreementNFT",
        "label": "_addressData",
        "offset": 0,
        "slot": "5",
        "type": "t_mapping(t_address,t_struct(AddressData)2145_storage)"
      },
      {
        "astId": 2167,
        "contract": "contracts/AgreementNFT.sol:AgreementNFT",
        "label": "_tokenApprovals",
        "offset": 0,
        "slot": "6",
        "type": "t_mapping(t_uint256,t_address)"
      },
      {
        "astId": 2173,
        "contract": "contracts/AgreementNFT.sol:AgreementNFT",
        "label": "_operatorApprovals",
        "offset": 0,
        "slot": "7",
        "type": "t_mapping(t_address,t_mapping(t_address,t_bool))"
      },
      {
        "astId": 866,
        "contract": "contracts/AgreementNFT.sol:AgreementNFT",
        "label": "agreement",
        "offset": 0,
        "slot": "8",
        "type": "t_contract(IConstantFlowAgreementV1)1776"
      },
      {
        "astId": 888,
        "contract": "contracts/AgreementNFT.sol:AgreementNFT",
        "label": "_positionsById",
        "offset": 0,
        "slot": "9",
        "type": "t_mapping(t_uint256,t_struct(PositionData)883_storage)"
      }
    ],
    "types": {
      "t_address": {
        "encoding": "inplace",
        "label": "address",
        "numberOfBytes": "20"
      },
      "t_bool": {
        "encoding": "inplace",
        "label": "bool",
        "numberOfBytes": "1"
      },
      "t_contract(IConstantFlowAgreementV1)1776": {
        "encoding": "inplace",
        "label": "contract IConstantFlowAgreementV1",
        "numberOfBytes": "20"
      },
      "t_contract(ISuperfluidToken)2079": {
        "encoding": "inplace",
        "label": "contract ISuperfluidToken",
        "numberOfBytes": "20"
      },
      "t_enum(SUBSCRIPTION_TYPE)860": {
        "encoding": "inplace",
        "label": "enum AgreementNFT.SUBSCRIPTION_TYPE",
        "numberOfBytes": "1"
      },
      "t_mapping(t_address,t_bool)": {
        "encoding": "mapping",
        "key": "t_address",
        "label": "mapping(address => bool)",
        "numberOfBytes": "32",
        "value": "t_bool"
      },
      "t_mapping(t_address,t_mapping(t_address,t_bool))": {
        "encoding": "mapping",
        "key": "t_address",
        "label": "mapping(address => mapping(address => bool))",
        "numberOfBytes": "32",
        "value": "t_mapping(t_address,t_bool)"
      },
      "t_mapping(t_address,t_struct(AddressData)2145_storage)": {
        "encoding": "mapping",
        "key": "t_address",
        "label": "mapping(address => struct ERC721A.AddressData)",
        "numberOfBytes": "32",
        "value": "t_struct(AddressData)2145_storage"
      },
      "t_mapping(t_uint256,t_address)": {
        "encoding": "mapping",
        "key": "t_uint256",
        "label": "mapping(uint256 => address)",
        "numberOfBytes": "32",
        "value": "t_address"
      },
      "t_mapping(t_uint256,t_struct(PositionData)883_storage)": {
        "encoding": "mapping",
        "key": "t_uint256",
        "label": "mapping(uint256 => struct AgreementNFT.PositionData)",
        "numberOfBytes": "32",
        "value": "t_struct(PositionData)883_storage"
      },
      "t_mapping(t_uint256,t_struct(TokenOwnership)2136_storage)": {
        "encoding": "mapping",
        "key": "t_uint256",
        "label": "mapping(uint256 => struct ERC721A.TokenOwnership)",
        "numberOfBytes": "32",
        "value": "t_struct(TokenOwnership)2136_storage"
      },
      "t_string_storage": {
        "encoding": "bytes",
        "label": "string",
        "numberOfBytes": "32"
      },
      "t_struct(AddressData)2145_storage": {
        "encoding": "inplace",
        "label": "struct ERC721A.AddressData",
        "members": [
          {
            "astId": 2138,
            "contract": "contracts/AgreementNFT.sol:AgreementNFT",
            "label": "balance",
            "offset": 0,
            "slot": "0",
            "type": "t_uint64"
          },
          {
            "astId": 2140,
            "contract": "contracts/AgreementNFT.sol:AgreementNFT",
            "label": "numberMinted",
            "offset": 8,
            "slot": "0",
            "type": "t_uint64"
          },
          {
            "astId": 2142,
            "contract": "contracts/AgreementNFT.sol:AgreementNFT",
            "label": "numberBurned",
            "offset": 16,
            "slot": "0",
            "type": "t_uint64"
          },
          {
            "astId": 2144,
            "contract": "contracts/AgreementNFT.sol:AgreementNFT",
            "label": "aux",
            "offset": 24,
            "slot": "0",
            "type": "t_uint64"
          }
        ],
        "numberOfBytes": "32"
      },
      "t_struct(PositionData)883_storage": {
        "encoding": "inplace",
        "label": "struct AgreementNFT.PositionData",
        "members": [
          {
            "astId": 869,
            "contract": "contracts/AgreementNFT.sol:AgreementNFT",
            "label": "token",
            "offset": 0,
            "slot": "0",
            "type": "t_contract(ISuperfluidToken)2079"
          },
          {
            "astId": 871,
            "contract": "contracts/AgreementNFT.sol:AgreementNFT",
            "label": "recipient",
            "offset": 0,
            "slot": "1",
            "type": "t_address"
          },
          {
            "astId": 873,
            "contract": "contracts/AgreementNFT.sol:AgreementNFT",
            "label": "sender",
            "offset": 0,
            "slot": "2",
            "type": "t_address"
          },
          {
            "astId": 875,
            "contract": "contracts/AgreementNFT.sol:AgreementNFT",
            "label": "description",
            "offset": 0,
            "slot": "3",
            "type": "t_string_storage"
          },
          {
            "astId": 878,
            "contract": "contracts/AgreementNFT.sol:AgreementNFT",
            "label": "subscriptionType",
            "offset": 0,
            "slot": "4",
            "type": "t_enum(SUBSCRIPTION_TYPE)860"
          },
          {
            "astId": 880,
            "contract": "contracts/AgreementNFT.sol:AgreementNFT",
            "label": "createdAt",
            "offset": 0,
            "slot": "5",
            "type": "t_uint256"
          },
          {
            "astId": 882,
            "contract": "contracts/AgreementNFT.sol:AgreementNFT",
            "label": "isActive",
            "offset": 0,
            "slot": "6",
            "type": "t_bool"
          }
        ],
        "numberOfBytes": "224"
      },
      "t_struct(TokenOwnership)2136_storage": {
        "encoding": "inplace",
        "label": "struct ERC721A.TokenOwnership",
        "members": [
          {
            "astId": 2131,
            "contract": "contracts/AgreementNFT.sol:AgreementNFT",
            "label": "addr",
            "offset": 0,
            "slot": "0",
            "type": "t_address"
          },
          {
            "astId": 2133,
            "contract": "contracts/AgreementNFT.sol:AgreementNFT",
            "label": "startTimestamp",
            "offset": 20,
            "slot": "0",
            "type": "t_uint64"
          },
          {
            "astId": 2135,
            "contract": "contracts/AgreementNFT.sol:AgreementNFT",
            "label": "burned",
            "offset": 28,
            "slot": "0",
            "type": "t_bool"
          }
        ],
        "numberOfBytes": "32"
      },
      "t_uint256": {
        "encoding": "inplace",
        "label": "uint256",
        "numberOfBytes": "32"
      },
      "t_uint64": {
        "encoding": "inplace",
        "label": "uint64",
        "numberOfBytes": "8"
      }
    }
  }
}