{
  "address": "0x13B436ECB8fff67227D31fa37837078f412f2220",
  "abi": [
    {
      "inputs": [
        {
          "internalType": "contract StakingV2",
          "name": "_staking",
          "type": "address"
        }
      ],
      "stateMutability": "nonpayable",
      "type": "constructor"
    },
    {
      "anonymous": false,
      "inputs": [
        {
          "indexed": true,
          "internalType": "address",
          "name": "owner",
          "type": "address"
        },
        {
          "indexed": true,
          "internalType": "address",
          "name": "approved",
          "type": "address"
        },
        {
          "indexed": true,
          "internalType": "uint256",
          "name": "tokenId",
          "type": "uint256"
        }
      ],
      "name": "Approval",
      "type": "event"
    },
    {
      "anonymous": false,
      "inputs": [
        {
          "indexed": true,
          "internalType": "address",
          "name": "owner",
          "type": "address"
        },
        {
          "indexed": true,
          "internalType": "address",
          "name": "operator",
          "type": "address"
        },
        {
          "indexed": false,
          "internalType": "bool",
          "name": "approved",
          "type": "bool"
        }
      ],
      "name": "ApprovalForAll",
      "type": "event"
    },
    {
      "anonymous": false,
      "inputs": [
        {
          "indexed": false,
          "internalType": "uint256",
          "name": "tokenId",
          "type": "uint256"
        },
        {
          "indexed": false,
          "internalType": "uint16",
          "name": "newLevel",
          "type": "uint16"
        }
      ],
      "name": "DifficultyRaised",
      "type": "event"
    },
    {
      "anonymous": false,
      "inputs": [
        {
          "indexed": true,
          "internalType": "address",
          "name": "from",
          "type": "address"
        },
        {
          "indexed": true,
          "internalType": "address",
          "name": "to",
          "type": "address"
        },
        {
          "indexed": true,
          "internalType": "uint256",
          "name": "tokenId",
          "type": "uint256"
        }
      ],
      "name": "Transfer",
      "type": "event"
    },
    {
      "inputs": [
        {
          "internalType": "uint256",
          "name": "",
          "type": "uint256"
        }
      ],
      "name": "Accessories",
      "outputs": [
        {
          "internalType": "address",
          "name": "",
          "type": "address"
        }
      ],
      "stateMutability": "view",
      "type": "function"
    },
    {
      "inputs": [
        {
          "internalType": "address",
          "name": "to",
          "type": "address"
        },
        {
          "internalType": "uint256",
          "name": "tokenId",
          "type": "uint256"
        }
      ],
      "name": "approve",
      "outputs": [],
      "stateMutability": "nonpayable",
      "type": "function"
    },
    {
      "inputs": [
        {
          "internalType": "address",
          "name": "owner",
          "type": "address"
        }
      ],
      "name": "balanceOf",
      "outputs": [
        {
          "internalType": "uint256",
          "name": "",
          "type": "uint256"
        }
      ],
      "stateMutability": "view",
      "type": "function"
    },
    {
      "inputs": [],
      "name": "baseSvg",
      "outputs": [
        {
          "internalType": "string",
          "name": "",
          "type": "string"
        }
      ],
      "stateMutability": "view",
      "type": "function"
    },
    {
      "inputs": [
        {
          "internalType": "bytes32",
          "name": "_bytes32",
          "type": "bytes32"
        }
      ],
      "name": "bytes32ToString",
      "outputs": [
        {
          "internalType": "string",
          "name": "",
          "type": "string"
        }
      ],
      "stateMutability": "view",
      "type": "function"
    },
    {
      "inputs": [],
      "name": "currentSalt",
      "outputs": [
        {
          "internalType": "uint256",
          "name": "",
          "type": "uint256"
        }
      ],
      "stateMutability": "view",
      "type": "function"
    },
    {
      "inputs": [
        {
          "internalType": "uint256",
          "name": "tokenId",
          "type": "uint256"
        }
      ],
      "name": "generateSvg",
      "outputs": [
        {
          "internalType": "string",
          "name": "",
          "type": "string"
        }
      ],
      "stateMutability": "view",
      "type": "function"
    },
    {
      "inputs": [
        {
          "internalType": "uint256",
          "name": "tokenId",
          "type": "uint256"
        }
      ],
      "name": "getApproved",
      "outputs": [
        {
          "internalType": "address",
          "name": "",
          "type": "address"
        }
      ],
      "stateMutability": "view",
      "type": "function"
    },
    {
      "inputs": [
        {
          "internalType": "uint256",
          "name": "nonce",
          "type": "uint256"
        }
      ],
      "name": "getHashFromNonce",
      "outputs": [
        {
          "internalType": "bytes32",
          "name": "",
          "type": "bytes32"
        }
      ],
      "stateMutability": "view",
      "type": "function"
    },
    {
      "inputs": [
        {
          "internalType": "uint256",
          "name": "tokenId",
          "type": "uint256"
        },
        {
          "internalType": "uint256",
          "name": "nonce",
          "type": "uint256"
        }
      ],
      "name": "getHashFromTokenIdAndNonce",
      "outputs": [
        {
          "internalType": "bytes32",
          "name": "",
          "type": "bytes32"
        }
      ],
      "stateMutability": "view",
      "type": "function"
    },
    {
      "inputs": [
        {
          "internalType": "uint256",
          "name": "nonce",
          "type": "uint256"
        }
      ],
      "name": "getNumbersOfZeros",
      "outputs": [
        {
          "internalType": "uint16",
          "name": "",
          "type": "uint16"
        }
      ],
      "stateMutability": "view",
      "type": "function"
    },
    {
      "inputs": [
        {
          "internalType": "bytes32",
          "name": "hash",
          "type": "bytes32"
        }
      ],
      "name": "getNumbersOfZerosFromHash",
      "outputs": [
        {
          "internalType": "uint16",
          "name": "",
          "type": "uint16"
        }
      ],
      "stateMutability": "view",
      "type": "function"
    },
    {
      "inputs": [
        {
          "internalType": "bytes32",
          "name": "hash",
          "type": "bytes32"
        },
        {
          "internalType": "uint256",
          "name": "index",
          "type": "uint256"
        }
      ],
      "name": "hasZeroAtIndex",
      "outputs": [
        {
          "internalType": "bool",
          "name": "",
          "type": "bool"
        }
      ],
      "stateMutability": "view",
      "type": "function"
    },
    {
      "inputs": [
        {
          "internalType": "address",
          "name": "owner",
          "type": "address"
        },
        {
          "internalType": "address",
          "name": "operator",
          "type": "address"
        }
      ],
      "name": "isApprovedForAll",
      "outputs": [
        {
          "internalType": "bool",
          "name": "",
          "type": "bool"
        }
      ],
      "stateMutability": "view",
      "type": "function"
    },
    {
      "inputs": [],
      "name": "mint",
      "outputs": [],
      "stateMutability": "nonpayable",
      "type": "function"
    },
    {
      "inputs": [
        {
          "internalType": "uint256",
          "name": "nonce",
          "type": "uint256"
        }
      ],
      "name": "mintWithNonce",
      "outputs": [],
      "stateMutability": "nonpayable",
      "type": "function"
    },
    {
      "inputs": [],
      "name": "name",
      "outputs": [
        {
          "internalType": "string",
          "name": "",
          "type": "string"
        }
      ],
      "stateMutability": "view",
      "type": "function"
    },
    {
      "inputs": [
        {
          "internalType": "uint256",
          "name": "tokenId",
          "type": "uint256"
        }
      ],
      "name": "ownerOf",
      "outputs": [
        {
          "internalType": "address",
          "name": "",
          "type": "address"
        }
      ],
      "stateMutability": "view",
      "type": "function"
    },
    {
      "inputs": [
        {
          "internalType": "uint256",
          "name": "tokenId",
          "type": "uint256"
        }
      ],
      "name": "raiseLevel",
      "outputs": [],
      "stateMutability": "nonpayable",
      "type": "function"
    },
    {
      "inputs": [
        {
          "internalType": "uint256",
          "name": "tokenId",
          "type": "uint256"
        },
        {
          "internalType": "uint256",
          "name": "nonce",
          "type": "uint256"
        }
      ],
      "name": "raiseLevelWithNonce",
      "outputs": [],
      "stateMutability": "nonpayable",
      "type": "function"
    },
    {
      "inputs": [
        {
          "internalType": "address",
          "name": "from",
          "type": "address"
        },
        {
          "internalType": "address",
          "name": "to",
          "type": "address"
        },
        {
          "internalType": "uint256",
          "name": "tokenId",
          "type": "uint256"
        }
      ],
      "name": "safeTransferFrom",
      "outputs": [],
      "stateMutability": "nonpayable",
      "type": "function"
    },
    {
      "inputs": [
        {
          "internalType": "address",
          "name": "from",
          "type": "address"
        },
        {
          "internalType": "address",
          "name": "to",
          "type": "address"
        },
        {
          "internalType": "uint256",
          "name": "tokenId",
          "type": "uint256"
        },
        {
          "internalType": "bytes",
          "name": "_data",
          "type": "bytes"
        }
      ],
      "name": "safeTransferFrom",
      "outputs": [],
      "stateMutability": "nonpayable",
      "type": "function"
    },
    {
      "inputs": [
        {
          "internalType": "address",
          "name": "operator",
          "type": "address"
        },
        {
          "internalType": "bool",
          "name": "approved",
          "type": "bool"
        }
      ],
      "name": "setApprovalForAll",
      "outputs": [],
      "stateMutability": "nonpayable",
      "type": "function"
    },
    {
      "inputs": [
        {
          "internalType": "contract StakingV2",
          "name": "_staking",
          "type": "address"
        }
      ],
      "name": "setStaking",
      "outputs": [],
      "stateMutability": "nonpayable",
      "type": "function"
    },
    {
      "inputs": [],
      "name": "staking",
      "outputs": [
        {
          "internalType": "contract StakingV2",
          "name": "",
          "type": "address"
        }
      ],
      "stateMutability": "view",
      "type": "function"
    },
    {
      "inputs": [
        {
          "internalType": "bytes4",
          "name": "interfaceId",
          "type": "bytes4"
        }
      ],
      "name": "supportsInterface",
      "outputs": [
        {
          "internalType": "bool",
          "name": "",
          "type": "bool"
        }
      ],
      "stateMutability": "view",
      "type": "function"
    },
    {
      "inputs": [],
      "name": "symbol",
      "outputs": [
        {
          "internalType": "string",
          "name": "",
          "type": "string"
        }
      ],
      "stateMutability": "view",
      "type": "function"
    },
    {
      "inputs": [
        {
          "internalType": "uint256",
          "name": "",
          "type": "uint256"
        },
        {
          "internalType": "uint256",
          "name": "",
          "type": "uint256"
        }
      ],
      "name": "tokenAccesories",
      "outputs": [
        {
          "internalType": "contract MinepunksAccessory",
          "name": "accessory",
          "type": "address"
        },
        {
          "internalType": "uint256",
          "name": "tokenId",
          "type": "uint256"
        }
      ],
      "stateMutability": "view",
      "type": "function"
    },
    {
      "inputs": [
        {
          "internalType": "uint256",
          "name": "",
          "type": "uint256"
        }
      ],
      "name": "tokenMetadata",
      "outputs": [
        {
          "internalType": "uint16",
          "name": "difficulty",
          "type": "uint16"
        },
        {
          "internalType": "address",
          "name": "firstOwner",
          "type": "address"
        }
      ],
      "stateMutability": "view",
      "type": "function"
    },
    {
      "inputs": [
        {
          "internalType": "uint256",
          "name": "tokenId",
          "type": "uint256"
        }
      ],
      "name": "tokenURI",
      "outputs": [
        {
          "internalType": "string",
          "name": "",
          "type": "string"
        }
      ],
      "stateMutability": "view",
      "type": "function"
    },
    {
      "inputs": [],
      "name": "totalDifficulty",
      "outputs": [
        {
          "internalType": "uint256",
          "name": "",
          "type": "uint256"
        }
      ],
      "stateMutability": "view",
      "type": "function"
    },
    {
      "inputs": [
        {
          "internalType": "address",
          "name": "from",
          "type": "address"
        },
        {
          "internalType": "address",
          "name": "to",
          "type": "address"
        },
        {
          "internalType": "uint256",
          "name": "tokenId",
          "type": "uint256"
        }
      ],
      "name": "transferFrom",
      "outputs": [],
      "stateMutability": "nonpayable",
      "type": "function"
    },
    {
      "inputs": [
        {
          "internalType": "uint256",
          "name": "tokenId",
          "type": "uint256"
        },
        {
          "internalType": "contract MinepunksAccessory",
          "name": "accessoryAddress",
          "type": "address"
        },
        {
          "internalType": "uint256",
          "name": "accessoryId",
          "type": "uint256"
        }
      ],
      "name": "updateAccessory",
      "outputs": [],
      "stateMutability": "nonpayable",
      "type": "function"
    }
  ],
  "transactionHash": "0x0f409404c0164235fbe458d0d1151bfb95887945220c469f073786a33308d03f",
  "args": [
    "0xE7FFF0410daC88a4b594cF385e569DD0804f9FE0"
  ],
  "numDeployments": 1,
  "solcInputHash": "3f6b3b9a3c09dcd9e972492c75d23b36",
  "bytecode": "0x608060405260405180608001604052806043815260200162004d9660439139600790805190602001906200003592919062000158565b503480156200004357600080fd5b5060405162004dd938038062004dd9833981810160405281019062000069919062000286565b6040518060400160405280600981526020017f4d696e6570756e6b7300000000000000000000000000000000000000000000008152506040518060400160405280600581526020017f4d4e504b530000000000000000000000000000000000000000000000000000008152508160009080519060200190620000ed92919062000158565b5080600190805190602001906200010692919062000158565b50505042600b8190555080600c60006101000a81548173ffffffffffffffffffffffffffffffffffffffff021916908373ffffffffffffffffffffffffffffffffffffffff160217905550506200031d565b8280546200016690620002e7565b90600052602060002090601f0160209004810192826200018a5760008555620001d6565b82601f10620001a557805160ff1916838001178555620001d6565b82800160010185558215620001d6579182015b82811115620001d5578251825591602001919060010190620001b8565b5b509050620001e59190620001e9565b5090565b5b8082111562000204576000816000905550600101620001ea565b5090565b600080fd5b600073ffffffffffffffffffffffffffffffffffffffff82169050919050565b60006200023a826200020d565b9050919050565b60006200024e826200022d565b9050919050565b620002608162000241565b81146200026c57600080fd5b50565b600081519050620002808162000255565b92915050565b6000602082840312156200029f576200029e62000208565b5b6000620002af848285016200026f565b91505092915050565b7f4e487b7100000000000000000000000000000000000000000000000000000000600052602260045260246000fd5b600060028204905060018216806200030057607f821691505b60208210811415620003175762000316620002b8565b5b50919050565b614a69806200032d6000396000f3fe608060405234801561001057600080fd5b50600436106101fb5760003560e01c806391338bb21161011a578063bc921dc2116100ad578063da5186551161007c578063da5186551461060e578063e985e9c51461063e578063f1b662d21461066e578063f2ca97141461069e578063fedf1327146106ba576101fb565b8063bc921dc21461054d578063c87b56dd1461057d578063ca02b4d4146105ad578063d3c4e596146105de576101fb565b8063ad879d76116100e9578063ad879d76146104b3578063b6fc1ec2146104e3578063b88d4fde14610513578063ba54b14c1461052f576101fb565b806391338bb21461042d5780639201de551461044957806395d89b4114610479578063a22cb46514610497576101fb565b806342842e0e116101925780636914db60116101615780636914db601461039457806370a08231146103c55780637369bb03146103f55780638ff3909914610411576101fb565b806342842e0e1461030e5780634cf088d91461032a57806355cfb452146103485780636352211e14610364576101fb565b80631249c58b116101ce5780631249c58b1461029a57806323b872dd146102a457806323cbbd65146102c05780632a800933146102f0576101fb565b806301ffc9a71461020057806306fdde0314610230578063081812fc1461024e578063095ea7b31461027e575b600080fd5b61021a60048036038101906102159190612a85565b6106d8565b6040516102279190612acd565b60405180910390f35b6102386107ba565b6040516102459190612b81565b60405180910390f35b61026860048036038101906102639190612bd9565b61084c565b6040516102759190612c47565b60405180910390f35b61029860048036038101906102939190612c8e565b6108d1565b005b6102a26109e9565b005b6102be60048036038101906102b99190612cce565b6109f3565b005b6102da60048036038101906102d59190612d57565b610a53565b6040516102e79190612da1565b60405180910390f35b6102f8610a86565b6040516103059190612dcb565b60405180910390f35b61032860048036038101906103239190612cce565b610a8c565b005b610332610aac565b60405161033f9190612e45565b60405180910390f35b610362600480360381019061035d9190612e60565b610ad2565b005b61037e60048036038101906103799190612bd9565b610c31565b60405161038b9190612c47565b60405180910390f35b6103ae60048036038101906103a99190612bd9565b610ce3565b6040516103bc929190612ea0565b60405180910390f35b6103df60048036038101906103da9190612ec9565b610d35565b6040516103ec9190612dcb565b60405180910390f35b61040f600480360381019061040a9190612bd9565b610ded565b005b61042b60048036038101906104269190612f34565b610eca565b005b61044760048036038101906104429190612bd9565b610f0e565b005b610463600480360381019061045e9190612d57565b6110c3565b6040516104709190612b81565b60405180910390f35b6104816110d8565b60405161048e9190612b81565b60405180910390f35b6104b160048036038101906104ac9190612f8d565b61116a565b005b6104cd60048036038101906104c89190612bd9565b611180565b6040516104da9190612da1565b60405180910390f35b6104fd60048036038101906104f89190612bd9565b61119f565b60405161050a9190612fdc565b60405180910390f35b61052d6004803603810190610528919061312c565b6111d6565b005b610537611238565b6040516105449190612dcb565b60405180910390f35b61056760048036038101906105629190612bd9565b6112d0565b6040516105749190612b81565b60405180910390f35b61059760048036038101906105929190612bd9565b611307565b6040516105a49190612b81565b60405180910390f35b6105c760048036038101906105c29190612e60565b61134d565b6040516105d59291906131d0565b60405180910390f35b6105f860048036038101906105f391906131f9565b6113ae565b6040516106059190612acd565b60405180910390f35b61062860048036038101906106239190612e60565b611434565b6040516106359190612fdc565b60405180910390f35b61065860048036038101906106539190613239565b61149e565b6040516106659190612acd565b60405180910390f35b61068860048036038101906106839190612bd9565b611532565b6040516106959190612c47565b60405180910390f35b6106b860048036038101906106b391906132b7565b611571565b005b6106c2611630565b6040516106cf9190612b81565b60405180910390f35b60007f80ac58cd000000000000000000000000000000000000000000000000000000007bffffffffffffffffffffffffffffffffffffffffffffffffffffffff1916827bffffffffffffffffffffffffffffffffffffffffffffffffffffffff191614806107a357507f5b5e139f000000000000000000000000000000000000000000000000000000007bffffffffffffffffffffffffffffffffffffffffffffffffffffffff1916827bffffffffffffffffffffffffffffffffffffffffffffffffffffffff1916145b806107b357506107b2826116be565b5b9050919050565b6060600080546107c990613339565b80601f01602080910402602001604051908101604052809291908181526020018280546107f590613339565b80156108425780601f1061081757610100808354040283529160200191610842565b820191906000526020600020905b81548152906001019060200180831161082557829003601f168201915b5050505050905090565b600061085782611728565b610896576040517f08c379a000000000000000000000000000000000000000000000000000000000815260040161088d906133dd565b60405180910390fd5b6004600083815260200190815260200160002060009054906101000a900473ffffffffffffffffffffffffffffffffffffffff169050919050565b60006108dc82610c31565b90508073ffffffffffffffffffffffffffffffffffffffff168373ffffffffffffffffffffffffffffffffffffffff16141561094d576040517f08c379a00000000000000000000000000000000000000000000000000000000081526004016109449061346f565b60405180910390fd5b8073ffffffffffffffffffffffffffffffffffffffff1661096c611794565b73ffffffffffffffffffffffffffffffffffffffff16148061099b575061099a81610995611794565b61149e565b5b6109da576040517f08c379a00000000000000000000000000000000000000000000000000000000081526004016109d190613501565b60405180910390fd5b6109e4838361179c565b505050565b6109f1611855565b565b610a046109fe611794565b8261192a565b610a43576040517f08c379a0000000000000000000000000000000000000000000000000000000008152600401610a3a90613593565b60405180910390fd5b610a4e838383611a08565b505050565b6000805b610a65838261ffff166113ae565b15610a7d578080610a75906135e2565b915050610a57565b80915050919050565b600b5481565b610aa7838383604051806020016040528060008152506111d6565b505050565b600c60009054906101000a900473ffffffffffffffffffffffffffffffffffffffff1681565b3373ffffffffffffffffffffffffffffffffffffffff16610af283610c31565b73ffffffffffffffffffffffffffffffffffffffff1614610b48576040517f08c379a0000000000000000000000000000000000000000000000000000000008152600401610b3f90613659565b60405180910390fd5b6000610b548383611434565b90506000610b6182610a53565b905060006008600086815260200190815260200160002060000160009054906101000a900461ffff1661ffff1690506000818361ffff16610ba29190613679565b905060018114610be7576040517f08c379a0000000000000000000000000000000000000000000000000000000008152600401610bde9061371f565b60405180910390fd5b610bf086610f0e565b7f61ab7d545617babe9a5a6389370c8e20657459acc73c1950111398463aa0fc688684604051610c2192919061373f565b60405180910390a1505050505050565b6000806002600084815260200190815260200160002060009054906101000a900473ffffffffffffffffffffffffffffffffffffffff169050600073ffffffffffffffffffffffffffffffffffffffff168173ffffffffffffffffffffffffffffffffffffffff161415610cda576040517f08c379a0000000000000000000000000000000000000000000000000000000008152600401610cd1906137da565b60405180910390fd5b80915050919050565b60086020528060005260406000206000915090508060000160009054906101000a900461ffff16908060000160029054906101000a900473ffffffffffffffffffffffffffffffffffffffff16905082565b60008073ffffffffffffffffffffffffffffffffffffffff168273ffffffffffffffffffffffffffffffffffffffff161415610da6576040517f08c379a0000000000000000000000000000000000000000000000000000000008152600401610d9d9061386c565b60405180910390fd5b600360008373ffffffffffffffffffffffffffffffffffffffff1673ffffffffffffffffffffffffffffffffffffffff168152602001908152602001600020549050919050565b6000610df96006611c6f565b9050610e056006611c7d565b610e0f3382611c93565b6040518060400160405280610e2384611180565b61ffff1681526020013373ffffffffffffffffffffffffffffffffffffffff168152506008600083815260200190815260200160002060008201518160000160006101000a81548161ffff021916908361ffff16021790555060208201518160000160026101000a81548173ffffffffffffffffffffffffffffffffffffffff021916908373ffffffffffffffffffffffffffffffffffffffff1602179055509050505050565b80600c60006101000a81548173ffffffffffffffffffffffffffffffffffffffff021916908373ffffffffffffffffffffffffffffffffffffffff16021790555050565b60006008600083815260200190815260200160002060000160009054906101000a900461ffff1661ffff16905060008114610fe357600c60009054906101000a900473ffffffffffffffffffffffffffffffffffffffff1673ffffffffffffffffffffffffffffffffffffffff1663bff1208d83600184610f8f919061388c565b6040518363ffffffff1660e01b8152600401610fac9291906138e2565b600060405180830381600087803b158015610fc657600080fd5b505af1158015610fda573d6000803e3d6000fd5b50505050611071565b600c60009054906101000a900473ffffffffffffffffffffffffffffffffffffffff1673ffffffffffffffffffffffffffffffffffffffff1663b6b55f25836040518263ffffffff1660e01b815260040161103e9190612dcb565b600060405180830381600087803b15801561105857600080fd5b505af115801561106c573d6000803e3d6000fd5b505050505b60016008600084815260200190815260200160002060000160008282829054906101000a900461ffff166110a5919061390b565b92506101000a81548161ffff021916908361ffff1602179055505050565b60606110d18260001c611e6d565b9050919050565b6060600180546110e790613339565b80601f016020809104026020016040519081016040528092919081815260200182805461111390613339565b80156111605780601f1061113557610100808354040283529160200191611160565b820191906000526020600020905b81548152906001019060200180831161114357829003601f168201915b5050505050905090565b61117c611175611794565b8383611f87565b5050565b60008061118c8361119f565b905061119781610a53565b915050919050565b60008033836040516020016111b59291906139ac565b60405160208183030381529060405280519060200120905080915050919050565b6111e76111e1611794565b8361192a565b611226576040517f08c379a000000000000000000000000000000000000000000000000000000000815260040161121d90613593565b60405180910390fd5b611232848484846120f4565b50505050565b6000600c60009054906101000a900473ffffffffffffffffffffffffffffffffffffffff1673ffffffffffffffffffffffffffffffffffffffff16632c8d7a5e6040518163ffffffff1660e01b8152600401602060405180830381865afa1580156112a7573d6000803e3d6000fd5b505050506040513d601f19601f820116820180604052508101906112cb91906139ed565b905090565b606060006112dd83612150565b6040516020016112ed9190613d4e565b604051602081830303815290604052905080915050919050565b6060600061131c611317846112d0565b61230e565b9050600061132984612487565b9050604051806060016040528060278152602001614a0d6027913992505050919050565b6009602052816000526040600020818154811061136957600080fd5b9060005260206000209060020201600091509150508060000160009054906101000a900473ffffffffffffffffffffffffffffffffffffffff16908060010154905082565b6000806113ba846110c3565b905060006113d582856001876113d0919061388c565b612768565b905060006040516020016113e890613dfe565b604051602081830303815290604052805190602001208260405160200161140f9190613e13565b6040516020818303038152906040528051906020012014905080935050505092915050565b6000806008600085815260200190815260200160002060000160009054906101000a900461ffff1661ffff16905060003385838660405160200161147b9493929190613e2a565b604051602081830303815290604052805190602001209050809250505092915050565b6000600560008473ffffffffffffffffffffffffffffffffffffffff1673ffffffffffffffffffffffffffffffffffffffff16815260200190815260200160002060008373ffffffffffffffffffffffffffffffffffffffff1673ffffffffffffffffffffffffffffffffffffffff16815260200190815260200160002060009054906101000a900460ff16905092915050565b600a818154811061154257600080fd5b906000526020600020016000915054906101000a900473ffffffffffffffffffffffffffffffffffffffff1681565b6009600084815260200190815260200160002060405180604001604052808473ffffffffffffffffffffffffffffffffffffffff16815260200183815250908060018154018082558091505060019003906000526020600020906002020160009091909190915060008201518160000160006101000a81548173ffffffffffffffffffffffffffffffffffffffff021916908373ffffffffffffffffffffffffffffffffffffffff160217905550602082015181600101555050505050565b6007805461163d90613339565b80601f016020809104026020016040519081016040528092919081815260200182805461166990613339565b80156116b65780601f1061168b576101008083540402835291602001916116b6565b820191906000526020600020905b81548152906001019060200180831161169957829003601f168201915b505050505081565b60007f01ffc9a7000000000000000000000000000000000000000000000000000000007bffffffffffffffffffffffffffffffffffffffffffffffffffffffff1916827bffffffffffffffffffffffffffffffffffffffffffffffffffffffff1916149050919050565b60008073ffffffffffffffffffffffffffffffffffffffff166002600084815260200190815260200160002060009054906101000a900473ffffffffffffffffffffffffffffffffffffffff1673ffffffffffffffffffffffffffffffffffffffff1614159050919050565b600033905090565b816004600083815260200190815260200160002060006101000a81548173ffffffffffffffffffffffffffffffffffffffff021916908373ffffffffffffffffffffffffffffffffffffffff160217905550808273ffffffffffffffffffffffffffffffffffffffff1661180f83610c31565b73ffffffffffffffffffffffffffffffffffffffff167f8c5be1e5ebec7d5bd14f71427d1e84f3dd0314c0f7b2291e5b200ac8c7c3b92560405160405180910390a45050565b60006118616006611c6f565b905061186d6006611c7d565b6118773382611c93565b6040518060400160405280600061ffff1681526020013373ffffffffffffffffffffffffffffffffffffffff168152506008600083815260200190815260200160002060008201518160000160006101000a81548161ffff021916908361ffff16021790555060208201518160000160026101000a81548173ffffffffffffffffffffffffffffffffffffffff021916908373ffffffffffffffffffffffffffffffffffffffff16021790555090505050565b600061193582611728565b611974576040517f08c379a000000000000000000000000000000000000000000000000000000000815260040161196b90613eea565b60405180910390fd5b600061197f83610c31565b90508073ffffffffffffffffffffffffffffffffffffffff168473ffffffffffffffffffffffffffffffffffffffff1614806119ee57508373ffffffffffffffffffffffffffffffffffffffff166119d68461084c565b73ffffffffffffffffffffffffffffffffffffffff16145b806119ff57506119fe818561149e565b5b91505092915050565b8273ffffffffffffffffffffffffffffffffffffffff16611a2882610c31565b73ffffffffffffffffffffffffffffffffffffffff1614611a7e576040517f08c379a0000000000000000000000000000000000000000000000000000000008152600401611a7590613f7c565b60405180910390fd5b600073ffffffffffffffffffffffffffffffffffffffff168273ffffffffffffffffffffffffffffffffffffffff161415611aee576040517f08c379a0000000000000000000000000000000000000000000000000000000008152600401611ae59061400e565b60405180910390fd5b611af9838383612864565b611b0460008261179c565b6001600360008573ffffffffffffffffffffffffffffffffffffffff1673ffffffffffffffffffffffffffffffffffffffff1681526020019081526020016000206000828254611b549190613679565b925050819055506001600360008473ffffffffffffffffffffffffffffffffffffffff1673ffffffffffffffffffffffffffffffffffffffff1681526020019081526020016000206000828254611bab919061388c565b92505081905550816002600083815260200190815260200160002060006101000a81548173ffffffffffffffffffffffffffffffffffffffff021916908373ffffffffffffffffffffffffffffffffffffffff160217905550808273ffffffffffffffffffffffffffffffffffffffff168473ffffffffffffffffffffffffffffffffffffffff167fddf252ad1be2c89b69c2b068fc378daa952ba7f163c4a11628f55a4df523b3ef60405160405180910390a4611c6a838383612869565b505050565b600081600001549050919050565b6001816000016000828254019250508190555050565b600073ffffffffffffffffffffffffffffffffffffffff168273ffffffffffffffffffffffffffffffffffffffff161415611d03576040517f08c379a0000000000000000000000000000000000000000000000000000000008152600401611cfa9061407a565b60405180910390fd5b611d0c81611728565b15611d4c576040517f08c379a0000000000000000000000000000000000000000000000000000000008152600401611d43906140e6565b60405180910390fd5b611d5860008383612864565b6001600360008473ffffffffffffffffffffffffffffffffffffffff1673ffffffffffffffffffffffffffffffffffffffff1681526020019081526020016000206000828254611da8919061388c565b92505081905550816002600083815260200190815260200160002060006101000a81548173ffffffffffffffffffffffffffffffffffffffff021916908373ffffffffffffffffffffffffffffffffffffffff160217905550808273ffffffffffffffffffffffffffffffffffffffff16600073ffffffffffffffffffffffffffffffffffffffff167fddf252ad1be2c89b69c2b068fc378daa952ba7f163c4a11628f55a4df523b3ef60405160405180910390a4611e6960008383612869565b5050565b60606000604090506000600f905060008267ffffffffffffffff811115611e9757611e96613001565b5b6040519080825280601f01601f191660200182016040528015611ec95781602001600182028036833780820191505090505b509050600083905060005b84811015611f7a576000848816905060098111611f0057806030611ef8919061388c565b60f81b611f11565b806037611f0d919061388c565b60f81b5b8484611f1c90614106565b94508481518110611f3057611f2f614130565b5b60200101907effffffffffffffffffffffffffffffffffffffffffffffffffffffffffffff1916908160001a905350600488901c9750508080611f729061415f565b915050611ed4565b5081945050505050919050565b8173ffffffffffffffffffffffffffffffffffffffff168373ffffffffffffffffffffffffffffffffffffffff161415611ff6576040517f08c379a0000000000000000000000000000000000000000000000000000000008152600401611fed906141f4565b60405180910390fd5b80600560008573ffffffffffffffffffffffffffffffffffffffff1673ffffffffffffffffffffffffffffffffffffffff16815260200190815260200160002060008473ffffffffffffffffffffffffffffffffffffffff1673ffffffffffffffffffffffffffffffffffffffff16815260200190815260200160002060006101000a81548160ff0219169083151502179055508173ffffffffffffffffffffffffffffffffffffffff168373ffffffffffffffffffffffffffffffffffffffff167f17307eab39ab6107e8899845ad3d59bd9653f200f220920489ca2b5937696c31836040516120e79190612acd565b60405180910390a3505050565b6120ff848484611a08565b61210b8484848461286e565b61214a576040517f08c379a000000000000000000000000000000000000000000000000000000000815260040161214190614286565b60405180910390fd5b50505050565b60606000600760405160200161216691906143d2565b604051602081830303815290604052905060005b60096000858152602001908152602001600020805490508110156123045760006009600086815260200190815260200160002082815481106121bf576121be614130565b5b90600052602060002090600202016040518060400160405290816000820160009054906101000a900473ffffffffffffffffffffffffffffffffffffffff1673ffffffffffffffffffffffffffffffffffffffff1673ffffffffffffffffffffffffffffffffffffffff16815260200160018201548152505090506000816020015190506000826000015173ffffffffffffffffffffffffffffffffffffffff166350f36383836040518263ffffffff1660e01b81526004016122829190612dcb565b600060405180830381865afa15801561229f573d6000803e3d6000fd5b505050506040513d6000823e3d601f19601f820116820180604052508101906122c891906144a0565b905084816040516020016122dd9291906145ee565b604051602081830303815290604052945050505080806122fc9061415f565b91505061217a565b5080915050919050565b606060008251141561233157604051806020016040528060008152509050612482565b60006040518060600160405280604081526020016149cd6040913990506000600360028551612360919061388c565b61236a9190614657565b60046123769190614688565b90506000602082612387919061388c565b67ffffffffffffffff8111156123a05761239f613001565b5b6040519080825280601f01601f1916602001820160405280156123d25781602001600182028036833780820191505090505b509050818152600183018586518101602084015b81831015612441576003830192508251603f8160121c168501518253600182019150603f81600c1c168501518253600182019150603f8160061c168501518253600182019150603f81168501518253600182019150506123e6565b60038951066001811461245b576002811461246b57612476565b613d3d60f01b6002830352612476565b603d60f81b60018303525b50505050508093505050505b919050565b6060600060405160200161249a9061472e565b604051602081830303815290604052905060005b600960008581526020019081526020016000208054905081101561273c5760006009600086815260200190815260200160002082815481106124f3576124f2614130565b5b90600052602060002090600202016040518060400160405290816000820160009054906101000a900473ffffffffffffffffffffffffffffffffffffffff1673ffffffffffffffffffffffffffffffffffffffff1673ffffffffffffffffffffffffffffffffffffffff16815260200160018201548152505090506000816000015173ffffffffffffffffffffffffffffffffffffffff1663345762f783602001516040518263ffffffff1660e01b81526004016125b19190612dcb565b600060405180830381865afa1580156125ce573d6000803e3d6000fd5b505050506040513d6000823e3d601f19601f820116820180604052508101906125f791906144a0565b90506000826000015173ffffffffffffffffffffffffffffffffffffffff1663537ae03184602001516040518263ffffffff1660e01b815260040161263c9190612dcb565b600060405180830381865afa158015612659573d6000803e3d6000fd5b505050506040513d6000823e3d601f19601f8201168201806040525081019061268291906144a0565b905060006001600960008a8152602001908152602001600020805490506126a99190613679565b85149050858383836126f0576040518060400160405280600181526020017f2c00000000000000000000000000000000000000000000000000000000000000815250612701565b604051806020016040528060008152505b6040516020016127149493929190614827565b60405160208183030381529060405295505050505080806127349061415f565b9150506124ae565b508060405160200161274e91906148d2565b604051602081830303815290604052905080915050919050565b606060008490506000848461277d9190613679565b67ffffffffffffffff81111561279657612795613001565b5b6040519080825280601f01601f1916602001820160405280156127c85781602001600182028036833780820191505090505b50905060008590505b84811015612857578281815181106127ec576127eb614130565b5b602001015160f81c60f81b8287836128049190613679565b8151811061281557612814614130565b5b60200101907effffffffffffffffffffffffffffffffffffffffffffffffffffffffffffff1916908160001a905350808061284f9061415f565b9150506127d1565b5080925050509392505050565b505050565b505050565b600061288f8473ffffffffffffffffffffffffffffffffffffffff166129f6565b156129e9578373ffffffffffffffffffffffffffffffffffffffff1663150b7a026128b8611794565b8786866040518563ffffffff1660e01b81526004016128da949392919061493e565b6020604051808303816000875af192505050801561291657506040513d601f19601f82011682018060405250810190612913919061499f565b60015b612999573d8060008114612946576040519150601f19603f3d011682016040523d82523d6000602084013e61294b565b606091505b50600081511415612991576040517f08c379a000000000000000000000000000000000000000000000000000000000815260040161298890614286565b60405180910390fd5b805181602001fd5b63150b7a0260e01b7bffffffffffffffffffffffffffffffffffffffffffffffffffffffff1916817bffffffffffffffffffffffffffffffffffffffffffffffffffffffff1916149150506129ee565b600190505b949350505050565b6000808273ffffffffffffffffffffffffffffffffffffffff163b119050919050565b6000604051905090565b600080fd5b600080fd5b60007fffffffff0000000000000000000000000000000000000000000000000000000082169050919050565b612a6281612a2d565b8114612a6d57600080fd5b50565b600081359050612a7f81612a59565b92915050565b600060208284031215612a9b57612a9a612a23565b5b6000612aa984828501612a70565b91505092915050565b60008115159050919050565b612ac781612ab2565b82525050565b6000602082019050612ae26000830184612abe565b92915050565b600081519050919050565b600082825260208201905092915050565b60005b83811015612b22578082015181840152602081019050612b07565b83811115612b31576000848401525b50505050565b6000601f19601f8301169050919050565b6000612b5382612ae8565b612b5d8185612af3565b9350612b6d818560208601612b04565b612b7681612b37565b840191505092915050565b60006020820190508181036000830152612b9b8184612b48565b905092915050565b6000819050919050565b612bb681612ba3565b8114612bc157600080fd5b50565b600081359050612bd381612bad565b92915050565b600060208284031215612bef57612bee612a23565b5b6000612bfd84828501612bc4565b91505092915050565b600073ffffffffffffffffffffffffffffffffffffffff82169050919050565b6000612c3182612c06565b9050919050565b612c4181612c26565b82525050565b6000602082019050612c5c6000830184612c38565b92915050565b612c6b81612c26565b8114612c7657600080fd5b50565b600081359050612c8881612c62565b92915050565b60008060408385031215612ca557612ca4612a23565b5b6000612cb385828601612c79565b9250506020612cc485828601612bc4565b9150509250929050565b600080600060608486031215612ce757612ce6612a23565b5b6000612cf586828701612c79565b9350506020612d0686828701612c79565b9250506040612d1786828701612bc4565b9150509250925092565b6000819050919050565b612d3481612d21565b8114612d3f57600080fd5b50565b600081359050612d5181612d2b565b92915050565b600060208284031215612d6d57612d6c612a23565b5b6000612d7b84828501612d42565b91505092915050565b600061ffff82169050919050565b612d9b81612d84565b82525050565b6000602082019050612db66000830184612d92565b92915050565b612dc581612ba3565b82525050565b6000602082019050612de06000830184612dbc565b92915050565b6000819050919050565b6000612e0b612e06612e0184612c06565b612de6565b612c06565b9050919050565b6000612e1d82612df0565b9050919050565b6000612e2f82612e12565b9050919050565b612e3f81612e24565b82525050565b6000602082019050612e5a6000830184612e36565b92915050565b60008060408385031215612e7757612e76612a23565b5b6000612e8585828601612bc4565b9250506020612e9685828601612bc4565b9150509250929050565b6000604082019050612eb56000830185612d92565b612ec26020830184612c38565b9392505050565b600060208284031215612edf57612ede612a23565b5b6000612eed84828501612c79565b91505092915050565b6000612f0182612c26565b9050919050565b612f1181612ef6565b8114612f1c57600080fd5b50565b600081359050612f2e81612f08565b92915050565b600060208284031215612f4a57612f49612a23565b5b6000612f5884828501612f1f565b91505092915050565b612f6a81612ab2565b8114612f7557600080fd5b50565b600081359050612f8781612f61565b92915050565b60008060408385031215612fa457612fa3612a23565b5b6000612fb285828601612c79565b9250506020612fc385828601612f78565b9150509250929050565b612fd681612d21565b82525050565b6000602082019050612ff16000830184612fcd565b92915050565b600080fd5b600080fd5b7f4e487b7100000000000000000000000000000000000000000000000000000000600052604160045260246000fd5b61303982612b37565b810181811067ffffffffffffffff8211171561305857613057613001565b5b80604052505050565b600061306b612a19565b90506130778282613030565b919050565b600067ffffffffffffffff82111561309757613096613001565b5b6130a082612b37565b9050602081019050919050565b82818337600083830152505050565b60006130cf6130ca8461307c565b613061565b9050828152602081018484840111156130eb576130ea612ffc565b5b6130f68482856130ad565b509392505050565b600082601f83011261311357613112612ff7565b5b81356131238482602086016130bc565b91505092915050565b6000806000806080858703121561314657613145612a23565b5b600061315487828801612c79565b945050602061316587828801612c79565b935050604061317687828801612bc4565b925050606085013567ffffffffffffffff81111561319757613196612a28565b5b6131a3878288016130fe565b91505092959194509250565b60006131ba82612e12565b9050919050565b6131ca816131af565b82525050565b60006040820190506131e560008301856131c1565b6131f26020830184612dbc565b9392505050565b600080604083850312156132105761320f612a23565b5b600061321e85828601612d42565b925050602061322f85828601612bc4565b9150509250929050565b600080604083850312156132505761324f612a23565b5b600061325e85828601612c79565b925050602061326f85828601612c79565b9150509250929050565b600061328482612c26565b9050919050565b61329481613279565b811461329f57600080fd5b50565b6000813590506132b18161328b565b92915050565b6000806000606084860312156132d0576132cf612a23565b5b60006132de86828701612bc4565b93505060206132ef868287016132a2565b925050604061330086828701612bc4565b9150509250925092565b7f4e487b7100000000000000000000000000000000000000000000000000000000600052602260045260246000fd5b6000600282049050600182168061335157607f821691505b602082108114156133655761336461330a565b5b50919050565b7f4552433732313a20617070726f76656420717565727920666f72206e6f6e657860008201527f697374656e7420746f6b656e0000000000000000000000000000000000000000602082015250565b60006133c7602c83612af3565b91506133d28261336b565b604082019050919050565b600060208201905081810360008301526133f6816133ba565b9050919050565b7f4552433732313a20617070726f76616c20746f2063757272656e74206f776e6560008201527f7200000000000000000000000000000000000000000000000000000000000000602082015250565b6000613459602183612af3565b9150613464826133fd565b604082019050919050565b600060208201905081810360008301526134888161344c565b9050919050565b7f4552433732313a20617070726f76652063616c6c6572206973206e6f74206f7760008201527f6e6572206e6f7220617070726f76656420666f7220616c6c0000000000000000602082015250565b60006134eb603883612af3565b91506134f68261348f565b604082019050919050565b6000602082019050818103600083015261351a816134de565b9050919050565b7f4552433732313a207472616e736665722063616c6c6572206973206e6f74206f60008201527f776e6572206e6f7220617070726f766564000000000000000000000000000000602082015250565b600061357d603183612af3565b915061358882613521565b604082019050919050565b600060208201905081810360008301526135ac81613570565b9050919050565b7f4e487b7100000000000000000000000000000000000000000000000000000000600052601160045260246000fd5b60006135ed82612d84565b915061ffff821415613602576136016135b3565b5b600182019050919050565b7f4f6e6c79206f776e65722063616e207261697365206c6576656c000000000000600082015250565b6000613643601a83612af3565b915061364e8261360d565b602082019050919050565b6000602082019050818103600083015261367281613636565b9050919050565b600061368482612ba3565b915061368f83612ba3565b9250828210156136a2576136a16135b3565b5b828203905092915050565b7f4e657720646966666963756c7479206d757374206265206f6e65206c6576656c60008201527f20686967686572207468616e2070726576696f75730000000000000000000000602082015250565b6000613709603583612af3565b9150613714826136ad565b604082019050919050565b60006020820190508181036000830152613738816136fc565b9050919050565b60006040820190506137546000830185612dbc565b6137616020830184612d92565b9392505050565b7f4552433732313a206f776e657220717565727920666f72206e6f6e657869737460008201527f656e7420746f6b656e0000000000000000000000000000000000000000000000602082015250565b60006137c4602983612af3565b91506137cf82613768565b604082019050919050565b600060208201905081810360008301526137f3816137b7565b9050919050565b7f4552433732313a2062616c616e636520717565727920666f7220746865207a6560008201527f726f206164647265737300000000000000000000000000000000000000000000602082015250565b6000613856602a83612af3565b9150613861826137fa565b604082019050919050565b6000602082019050818103600083015261388581613849565b9050919050565b600061389782612ba3565b91506138a283612ba3565b9250827fffffffffffffffffffffffffffffffffffffffffffffffffffffffffffffffff038211156138d7576138d66135b3565b5b828201905092915050565b60006040820190506138f76000830185612dbc565b6139046020830184612dbc565b9392505050565b600061391682612d84565b915061392183612d84565b92508261ffff03821115613938576139376135b3565b5b828201905092915050565b60008160601b9050919050565b600061395b82613943565b9050919050565b600061396d82613950565b9050919050565b61398561398082612c26565b613962565b82525050565b6000819050919050565b6139a66139a182612ba3565b61398b565b82525050565b60006139b88285613974565b6014820191506139c88284613995565b6020820191508190509392505050565b6000815190506139e781612bad565b92915050565b600060208284031215613a0357613a02612a23565b5b6000613a11848285016139d8565b91505092915050565b600081905092915050565b7f3c7376672077696474683d2238303022206865696768743d223630302220786d60008201527f6c6e733d22687474703a2f2f7777772e77332e6f72672f323030302f7376672260208201527f3e00000000000000000000000000000000000000000000000000000000000000604082015250565b6000613aa7604183613a1a565b9150613ab282613a25565b604182019050919050565b7f3c673e0000000000000000000000000000000000000000000000000000000000600082015250565b6000613af3600383613a1a565b9150613afe82613abd565b600382019050919050565b7f3c7469746c653e4c6179657220313c2f7469746c653e00000000000000000000600082015250565b6000613b3f601683613a1a565b9150613b4a82613b09565b601682019050919050565b7f3c656c6c697073652069643d227376675f33222063793d22353436222063783d60008201527f2235363222207374726f6b653d2223303030222066696c6c3d2223464641394160208201527f32222f3e00000000000000000000000000000000000000000000000000000000604082015250565b6000613bd7604483613a1a565b9150613be282613b55565b604482019050919050565b7f3c656c6c697073652072793d223732222072783d223730222069643d2273766760008201527f5f37222063793d223131362e35222063783d2236393722207374726f6b653d2260208201527f23303030222066696c6c3d2223453643333641222f3e00000000000000000000604082015250565b6000613c6f605683613a1a565b9150613c7a82613bed565b605682019050919050565b6000613c9082612ae8565b613c9a8185613a1a565b9350613caa818560208601612b04565b80840191505092915050565b7f3c2f673e00000000000000000000000000000000000000000000000000000000600082015250565b6000613cec600483613a1a565b9150613cf782613cb6565b600482019050919050565b7f3c2f7376673e0000000000000000000000000000000000000000000000000000600082015250565b6000613d38600683613a1a565b9150613d4382613d02565b600682019050919050565b6000613d5982613a9a565b9150613d6482613ae6565b9150613d6f82613b32565b9150613d7a82613bca565b9150613d8582613c62565b9150613d918284613c85565b9150613d9c82613cdf565b9150613da782613d2b565b915081905092915050565b7f3000000000000000000000000000000000000000000000000000000000000000600082015250565b6000613de8600183613a1a565b9150613df382613db2565b600182019050919050565b6000613e0982613ddb565b9150819050919050565b6000613e1f8284613c85565b915081905092915050565b6000613e368287613974565b601482019150613e468286613995565b602082019150613e568285613995565b602082019150613e668284613995565b60208201915081905095945050505050565b7f4552433732313a206f70657261746f7220717565727920666f72206e6f6e657860008201527f697374656e7420746f6b656e0000000000000000000000000000000000000000602082015250565b6000613ed4602c83612af3565b9150613edf82613e78565b604082019050919050565b60006020820190508181036000830152613f0381613ec7565b9050919050565b7f4552433732313a207472616e736665722066726f6d20696e636f72726563742060008201527f6f776e6572000000000000000000000000000000000000000000000000000000602082015250565b6000613f66602583612af3565b9150613f7182613f0a565b604082019050919050565b60006020820190508181036000830152613f9581613f59565b9050919050565b7f4552433732313a207472616e7366657220746f20746865207a65726f2061646460008201527f7265737300000000000000000000000000000000000000000000000000000000602082015250565b6000613ff8602483612af3565b915061400382613f9c565b604082019050919050565b6000602082019050818103600083015261402781613feb565b9050919050565b7f4552433732313a206d696e7420746f20746865207a65726f2061646472657373600082015250565b6000614064602083612af3565b915061406f8261402e565b602082019050919050565b6000602082019050818103600083015261409381614057565b9050919050565b7f4552433732313a20746f6b656e20616c7265616479206d696e74656400000000600082015250565b60006140d0601c83612af3565b91506140db8261409a565b602082019050919050565b600060208201905081810360008301526140ff816140c3565b9050919050565b600061411182612ba3565b91506000821415614125576141246135b3565b5b600182039050919050565b7f4e487b7100000000000000000000000000000000000000000000000000000000600052603260045260246000fd5b600061416a82612ba3565b91507fffffffffffffffffffffffffffffffffffffffffffffffffffffffffffffffff82141561419d5761419c6135b3565b5b600182019050919050565b7f4552433732313a20617070726f766520746f2063616c6c657200000000000000600082015250565b60006141de601983612af3565b91506141e9826141a8565b602082019050919050565b6000602082019050818103600083015261420d816141d1565b9050919050565b7f4552433732313a207472616e7366657220746f206e6f6e20455243373231526560008201527f63656976657220696d706c656d656e7465720000000000000000000000000000602082015250565b6000614270603283612af3565b915061427b82614214565b604082019050919050565b6000602082019050818103600083015261429f81614263565b9050919050565b7f3c696d61676520687265663d2200000000000000000000000000000000000000600082015250565b60006142dc600d83613a1a565b91506142e7826142a6565b600d82019050919050565b60008190508160005260206000209050919050565b6000815461431481613339565b61431e8186613a1a565b94506001821660008114614339576001811461434a5761437d565b60ff1983168652818601935061437d565b614353856142f2565b60005b8381101561437557815481890152600182019150602081019050614356565b838801955050505b50505092915050565b7f22206865696768743d22363030222077696474683d22383030222f3e00000000600082015250565b60006143bc601c83613a1a565b91506143c782614386565b601c82019050919050565b60006143dd826142cf565b91506143e98284614307565b91506143f4826143af565b915081905092915050565b600067ffffffffffffffff82111561441a57614419613001565b5b61442382612b37565b9050602081019050919050565b600061444361443e846143ff565b613061565b90508281526020810184848401111561445f5761445e612ffc565b5b61446a848285612b04565b509392505050565b600082601f83011261448757614486612ff7565b5b8151614497848260208601614430565b91505092915050565b6000602082840312156144b6576144b5612a23565b5b600082015167ffffffffffffffff8111156144d4576144d3612a28565b5b6144e084828501614472565b91505092915050565b600081519050919050565b600081905092915050565b600061450a826144e9565b61451481856144f4565b9350614524818560208601612b04565b80840191505092915050565b7f3c696d61676520687265663d2268747470733a2f2f697066732e696f2f69706660008201527f732f000000000000000000000000000000000000000000000000000000000000602082015250565b600061458c602283613a1a565b915061459782614530565b602282019050919050565b7f2e73766722206865696768743d22363030222077696474683d22383030222f3e600082015250565b60006145d8602083613a1a565b91506145e3826145a2565b602082019050919050565b60006145fa82856144ff565b91506146058261457f565b91506146118284613c85565b915061461c826145cb565b91508190509392505050565b7f4e487b7100000000000000000000000000000000000000000000000000000000600052601260045260246000fd5b600061466282612ba3565b915061466d83612ba3565b92508261467d5761467c614628565b5b828204905092915050565b600061469382612ba3565b915061469e83612ba3565b9250817fffffffffffffffffffffffffffffffffffffffffffffffffffffffffffffffff04831182151516156146d7576146d66135b3565b5b828202905092915050565b7f5b00000000000000000000000000000000000000000000000000000000000000600082015250565b6000614718600183613a1a565b9150614723826146e2565b600182019050919050565b60006147398261470b565b9150819050919050565b7f7b2274726169745f74797065223a220000000000000000000000000000000000600082015250565b6000614779600f83613a1a565b915061478482614743565b600f82019050919050565b7f222c2276616c7565223a22000000000000000000000000000000000000000000600082015250565b60006147c5600b83613a1a565b91506147d08261478f565b600b82019050919050565b7f227d000000000000000000000000000000000000000000000000000000000000600082015250565b6000614811600283613a1a565b915061481c826147db565b600282019050919050565b600061483382876144ff565b915061483e8261476c565b915061484a8286613c85565b9150614855826147b8565b91506148618285613c85565b915061486c82614804565b91506148788284613c85565b915081905095945050505050565b7f5d00000000000000000000000000000000000000000000000000000000000000600082015250565b60006148bc600183613a1a565b91506148c782614886565b600182019050919050565b60006148de82846144ff565b91506148e9826148af565b915081905092915050565b600082825260208201905092915050565b6000614910826144e9565b61491a81856148f4565b935061492a818560208601612b04565b61493381612b37565b840191505092915050565b60006080820190506149536000830187612c38565b6149606020830186612c38565b61496d6040830185612dbc565b818103606083015261497f8184614905565b905095945050505050565b60008151905061499981612a59565b92915050565b6000602082840312156149b5576149b4612a23565b5b60006149c38482850161498a565b9150509291505056fe4142434445464748494a4b4c4d4e4f505152535455565758595a6162636465666768696a6b6c6d6e6f707172737475767778797a303132333435363738392b2f68747470733a2f2f6d696e6570756e6b732e7765622e6170702f6d657461646174612e6a736f6ea2646970667358221220316a5db4f2b58c9b273d590a01f6a61d35d6c2c31459e7e759c8e1d9898572a464736f6c634300080a003368747470733a2f2f697066732e696f2f697066732f516d6234704a383633756d535863546b596b4e7864736f4c5645796e77557973674e704634437a786e4d71686b78",
  "devdoc": {
    "author": "Valerio Leo @valerioHQ",
    "kind": "dev",
    "methods": {
      "approve(address,uint256)": {
        "details": "See {IERC721-approve}."
      },
      "balanceOf(address)": {
        "details": "See {IERC721-balanceOf}."
      },
      "getApproved(uint256)": {
        "details": "See {IERC721-getApproved}."
      },
      "isApprovedForAll(address,address)": {
        "details": "See {IERC721-isApprovedForAll}."
      },
      "name()": {
        "details": "See {IERC721Metadata-name}."
      },
      "ownerOf(uint256)": {
        "details": "See {IERC721-ownerOf}."
      },
      "safeTransferFrom(address,address,uint256)": {
        "details": "See {IERC721-safeTransferFrom}."
      },
      "safeTransferFrom(address,address,uint256,bytes)": {
        "details": "See {IERC721-safeTransferFrom}."
      },
      "setApprovalForAll(address,bool)": {
        "details": "See {IERC721-setApprovalForAll}."
      },
      "supportsInterface(bytes4)": {
        "details": "See {IERC165-supportsInterface}."
      },
      "symbol()": {
        "details": "See {IERC721Metadata-symbol}."
      },
      "tokenURI(uint256)": {
        "details": "See {IERC721Metadata-tokenURI}."
      },
      "transferFrom(address,address,uint256)": {
        "details": "See {IERC721-transferFrom}."
      }
    },
    "title": "A minable NFT based on PoW",
    "version": 1
  },
  "userdoc": {
    "kind": "user",
    "methods": {},
    "version": 1
  },
  "storageLayout": {
    "storage": [
      {
        "astId": 7523,
        "contract": "contracts/Minepunks.sol:Minepunks",
        "label": "_name",
        "offset": 0,
        "slot": "0",
        "type": "t_string_storage"
      },
      {
        "astId": 7525,
        "contract": "contracts/Minepunks.sol:Minepunks",
        "label": "_symbol",
        "offset": 0,
        "slot": "1",
        "type": "t_string_storage"
      },
      {
        "astId": 7529,
        "contract": "contracts/Minepunks.sol:Minepunks",
        "label": "_owners",
        "offset": 0,
        "slot": "2",
        "type": "t_mapping(t_uint256,t_address)"
      },
      {
        "astId": 7533,
        "contract": "contracts/Minepunks.sol:Minepunks",
        "label": "_balances",
        "offset": 0,
        "slot": "3",
        "type": "t_mapping(t_address,t_uint256)"
      },
      {
        "astId": 7537,
        "contract": "contracts/Minepunks.sol:Minepunks",
        "label": "_tokenApprovals",
        "offset": 0,
        "slot": "4",
        "type": "t_mapping(t_uint256,t_address)"
      },
      {
        "astId": 7543,
        "contract": "contracts/Minepunks.sol:Minepunks",
        "label": "_operatorApprovals",
        "offset": 0,
        "slot": "5",
        "type": "t_mapping(t_address,t_mapping(t_address,t_bool))"
      },
      {
        "astId": 10149,
        "contract": "contracts/Minepunks.sol:Minepunks",
        "label": "_tokenIds",
        "offset": 0,
        "slot": "6",
        "type": "t_struct(Counter)8847_storage"
      },
      {
        "astId": 10152,
        "contract": "contracts/Minepunks.sol:Minepunks",
        "label": "baseSvg",
        "offset": 0,
        "slot": "7",
        "type": "t_string_storage"
      },
      {
        "astId": 10168,
        "contract": "contracts/Minepunks.sol:Minepunks",
        "label": "tokenMetadata",
        "offset": 0,
        "slot": "8",
        "type": "t_mapping(t_uint256,t_struct(TokenMetadata)10157_storage)"
      },
      {
        "astId": 10174,
        "contract": "contracts/Minepunks.sol:Minepunks",
        "label": "tokenAccesories",
        "offset": 0,
        "slot": "9",
        "type": "t_mapping(t_uint256,t_array(t_struct(Accessory)10163_storage)dyn_storage)"
      },
      {
        "astId": 10177,
        "contract": "contracts/Minepunks.sol:Minepunks",
        "label": "Accessories",
        "offset": 0,
        "slot": "10",
        "type": "t_array(t_address)dyn_storage"
      },
      {
        "astId": 10179,
        "contract": "contracts/Minepunks.sol:Minepunks",
        "label": "currentSalt",
        "offset": 0,
        "slot": "11",
        "type": "t_uint256"
      },
      {
        "astId": 10182,
        "contract": "contracts/Minepunks.sol:Minepunks",
        "label": "staking",
        "offset": 0,
        "slot": "12",
        "type": "t_contract(StakingV2)14676"
      }
    ],
    "types": {
      "t_address": {
        "encoding": "inplace",
        "label": "address",
        "numberOfBytes": "20"
      },
      "t_array(t_address)dyn_storage": {
        "base": "t_address",
        "encoding": "dynamic_array",
        "label": "address[]",
        "numberOfBytes": "32"
      },
      "t_array(t_struct(Accessory)10163_storage)dyn_storage": {
        "base": "t_struct(Accessory)10163_storage",
        "encoding": "dynamic_array",
        "label": "struct Minepunks.Accessory[]",
        "numberOfBytes": "32"
      },
      "t_bool": {
        "encoding": "inplace",
        "label": "bool",
        "numberOfBytes": "1"
      },
      "t_contract(MinepunksAccessory)11324": {
        "encoding": "inplace",
        "label": "contract MinepunksAccessory",
        "numberOfBytes": "20"
      },
      "t_contract(StakingV2)14676": {
        "encoding": "inplace",
        "label": "contract StakingV2",
        "numberOfBytes": "20"
      },
      "t_mapping(t_address,t_bool)": {
        "encoding": "mapping",
        "key": "t_address",
        "label": "mapping(address => bool)",
        "numberOfBytes": "32",
        "value": "t_bool"
      },
      "t_mapping(t_address,t_mapping(t_address,t_bool))": {
        "encoding": "mapping",
        "key": "t_address",
        "label": "mapping(address => mapping(address => bool))",
        "numberOfBytes": "32",
        "value": "t_mapping(t_address,t_bool)"
      },
      "t_mapping(t_address,t_uint256)": {
        "encoding": "mapping",
        "key": "t_address",
        "label": "mapping(address => uint256)",
        "numberOfBytes": "32",
        "value": "t_uint256"
      },
      "t_mapping(t_uint256,t_address)": {
        "encoding": "mapping",
        "key": "t_uint256",
        "label": "mapping(uint256 => address)",
        "numberOfBytes": "32",
        "value": "t_address"
      },
      "t_mapping(t_uint256,t_array(t_struct(Accessory)10163_storage)dyn_storage)": {
        "encoding": "mapping",
        "key": "t_uint256",
        "label": "mapping(uint256 => struct Minepunks.Accessory[])",
        "numberOfBytes": "32",
        "value": "t_array(t_struct(Accessory)10163_storage)dyn_storage"
      },
      "t_mapping(t_uint256,t_struct(TokenMetadata)10157_storage)": {
        "encoding": "mapping",
        "key": "t_uint256",
        "label": "mapping(uint256 => struct Minepunks.TokenMetadata)",
        "numberOfBytes": "32",
        "value": "t_struct(TokenMetadata)10157_storage"
      },
      "t_string_storage": {
        "encoding": "bytes",
        "label": "string",
        "numberOfBytes": "32"
      },
      "t_struct(Accessory)10163_storage": {
        "encoding": "inplace",
        "label": "struct Minepunks.Accessory",
        "members": [
          {
            "astId": 10160,
            "contract": "contracts/Minepunks.sol:Minepunks",
            "label": "accessory",
            "offset": 0,
            "slot": "0",
            "type": "t_contract(MinepunksAccessory)11324"
          },
          {
            "astId": 10162,
            "contract": "contracts/Minepunks.sol:Minepunks",
            "label": "tokenId",
            "offset": 0,
            "slot": "1",
            "type": "t_uint256"
          }
        ],
        "numberOfBytes": "64"
      },
      "t_struct(Counter)8847_storage": {
        "encoding": "inplace",
        "label": "struct Counters.Counter",
        "members": [
          {
            "astId": 8846,
            "contract": "contracts/Minepunks.sol:Minepunks",
            "label": "_value",
            "offset": 0,
            "slot": "0",
            "type": "t_uint256"
          }
        ],
        "numberOfBytes": "32"
      },
      "t_struct(TokenMetadata)10157_storage": {
        "encoding": "inplace",
        "label": "struct Minepunks.TokenMetadata",
        "members": [
          {
            "astId": 10154,
            "contract": "contracts/Minepunks.sol:Minepunks",
            "label": "difficulty",
            "offset": 0,
            "slot": "0",
            "type": "t_uint16"
          },
          {
            "astId": 10156,
            "contract": "contracts/Minepunks.sol:Minepunks",
            "label": "firstOwner",
            "offset": 2,
            "slot": "0",
            "type": "t_address"
          }
        ],
        "numberOfBytes": "32"
      },
      "t_uint16": {
        "encoding": "inplace",
        "label": "uint16",
        "numberOfBytes": "2"
      },
      "t_uint256": {
        "encoding": "inplace",
        "label": "uint256",
        "numberOfBytes": "32"
      }
    }
  }
}