{
  "address": "0x1A900a7870145bE7267Cc2c6d65306A4faeb3BD4",
  "abi": [
    {
      "inputs": [
        {
          "internalType": "string",
          "name": "uri_",
          "type": "string"
        }
      ],
      "stateMutability": "nonpayable",
      "type": "constructor"
    },
    {
      "anonymous": false,
      "inputs": [
        {
          "indexed": true,
          "internalType": "address",
          "name": "account",
          "type": "address"
        },
        {
          "indexed": true,
          "internalType": "address",
          "name": "operator",
          "type": "address"
        },
        {
          "indexed": false,
          "internalType": "bool",
          "name": "approved",
          "type": "bool"
        }
      ],
      "name": "ApprovalForAll",
      "type": "event"
    },
    {
      "anonymous": false,
      "inputs": [
        {
          "indexed": true,
          "internalType": "address",
          "name": "operator",
          "type": "address"
        },
        {
          "indexed": true,
          "internalType": "address",
          "name": "from",
          "type": "address"
        },
        {
          "indexed": true,
          "internalType": "address",
          "name": "to",
          "type": "address"
        },
        {
          "indexed": false,
          "internalType": "uint256[]",
          "name": "ids",
          "type": "uint256[]"
        },
        {
          "indexed": false,
          "internalType": "uint256[]",
          "name": "values",
          "type": "uint256[]"
        }
      ],
      "name": "TransferBatch",
      "type": "event"
    },
    {
      "anonymous": false,
      "inputs": [
        {
          "indexed": true,
          "internalType": "address",
          "name": "operator",
          "type": "address"
        },
        {
          "indexed": true,
          "internalType": "address",
          "name": "from",
          "type": "address"
        },
        {
          "indexed": true,
          "internalType": "address",
          "name": "to",
          "type": "address"
        },
        {
          "indexed": false,
          "internalType": "uint256",
          "name": "id",
          "type": "uint256"
        },
        {
          "indexed": false,
          "internalType": "uint256",
          "name": "value",
          "type": "uint256"
        }
      ],
      "name": "TransferSingle",
      "type": "event"
    },
    {
      "anonymous": false,
      "inputs": [
        {
          "indexed": false,
          "internalType": "string",
          "name": "value",
          "type": "string"
        },
        {
          "indexed": true,
          "internalType": "uint256",
          "name": "id",
          "type": "uint256"
        }
      ],
      "name": "URI",
      "type": "event"
    },
    {
      "inputs": [
        {
          "internalType": "uint256",
          "name": "",
          "type": "uint256"
        }
      ],
      "name": "accessoryTraitType",
      "outputs": [
        {
          "internalType": "string",
          "name": "",
          "type": "string"
        }
      ],
      "stateMutability": "view",
      "type": "function"
    },
    {
      "inputs": [
        {
          "internalType": "uint256",
          "name": "",
          "type": "uint256"
        }
      ],
      "name": "accessoryTraitValue",
      "outputs": [
        {
          "internalType": "string",
          "name": "",
          "type": "string"
        }
      ],
      "stateMutability": "view",
      "type": "function"
    },
    {
      "inputs": [],
      "name": "accessoryType",
      "outputs": [
        {
          "internalType": "string",
          "name": "",
          "type": "string"
        }
      ],
      "stateMutability": "view",
      "type": "function"
    },
    {
      "inputs": [
        {
          "internalType": "address",
          "name": "account",
          "type": "address"
        },
        {
          "internalType": "uint256",
          "name": "id",
          "type": "uint256"
        }
      ],
      "name": "balanceOf",
      "outputs": [
        {
          "internalType": "uint256",
          "name": "",
          "type": "uint256"
        }
      ],
      "stateMutability": "view",
      "type": "function"
    },
    {
      "inputs": [
        {
          "internalType": "address[]",
          "name": "accounts",
          "type": "address[]"
        },
        {
          "internalType": "uint256[]",
          "name": "ids",
          "type": "uint256[]"
        }
      ],
      "name": "balanceOfBatch",
      "outputs": [
        {
          "internalType": "uint256[]",
          "name": "",
          "type": "uint256[]"
        }
      ],
      "stateMutability": "view",
      "type": "function"
    },
    {
      "inputs": [],
      "name": "baseUri",
      "outputs": [
        {
          "internalType": "string",
          "name": "",
          "type": "string"
        }
      ],
      "stateMutability": "view",
      "type": "function"
    },
    {
      "inputs": [
        {
          "internalType": "uint256",
          "name": "tokenId",
          "type": "uint256"
        }
      ],
      "name": "getTokenAbsoluteURI",
      "outputs": [
        {
          "internalType": "string",
          "name": "",
          "type": "string"
        }
      ],
      "stateMutability": "view",
      "type": "function"
    },
    {
      "inputs": [
        {
          "internalType": "address",
          "name": "account",
          "type": "address"
        },
        {
          "internalType": "address",
          "name": "operator",
          "type": "address"
        }
      ],
      "name": "isApprovedForAll",
      "outputs": [
        {
          "internalType": "bool",
          "name": "",
          "type": "bool"
        }
      ],
      "stateMutability": "view",
      "type": "function"
    },
    {
      "inputs": [
        {
          "internalType": "address",
          "name": "from",
          "type": "address"
        },
        {
          "internalType": "address",
          "name": "to",
          "type": "address"
        },
        {
          "internalType": "uint256[]",
          "name": "ids",
          "type": "uint256[]"
        },
        {
          "internalType": "uint256[]",
          "name": "amounts",
          "type": "uint256[]"
        },
        {
          "internalType": "bytes",
          "name": "data",
          "type": "bytes"
        }
      ],
      "name": "safeBatchTransferFrom",
      "outputs": [],
      "stateMutability": "nonpayable",
      "type": "function"
    },
    {
      "inputs": [
        {
          "internalType": "address",
          "name": "from",
          "type": "address"
        },
        {
          "internalType": "address",
          "name": "to",
          "type": "address"
        },
        {
          "internalType": "uint256",
          "name": "id",
          "type": "uint256"
        },
        {
          "internalType": "uint256",
          "name": "amount",
          "type": "uint256"
        },
        {
          "internalType": "bytes",
          "name": "data",
          "type": "bytes"
        }
      ],
      "name": "safeTransferFrom",
      "outputs": [],
      "stateMutability": "nonpayable",
      "type": "function"
    },
    {
      "inputs": [
        {
          "internalType": "address",
          "name": "operator",
          "type": "address"
        },
        {
          "internalType": "bool",
          "name": "approved",
          "type": "bool"
        }
      ],
      "name": "setApprovalForAll",
      "outputs": [],
      "stateMutability": "nonpayable",
      "type": "function"
    },
    {
      "inputs": [
        {
          "internalType": "uint256",
          "name": "tokenId",
          "type": "uint256"
        },
        {
          "internalType": "string",
          "name": "_accessoryTraitType",
          "type": "string"
        },
        {
          "internalType": "string",
          "name": "_accessoryTraitValue",
          "type": "string"
        }
      ],
      "name": "setTokenData",
      "outputs": [],
      "stateMutability": "nonpayable",
      "type": "function"
    },
    {
      "inputs": [
        {
          "internalType": "uint256",
          "name": "tokenId",
          "type": "uint256"
        },
        {
          "internalType": "string",
          "name": "traitType",
          "type": "string"
        },
        {
          "internalType": "string",
          "name": "traitValue",
          "type": "string"
        }
      ],
      "name": "setTrait",
      "outputs": [],
      "stateMutability": "nonpayable",
      "type": "function"
    },
    {
      "inputs": [
        {
          "internalType": "bytes4",
          "name": "interfaceId",
          "type": "bytes4"
        }
      ],
      "name": "supportsInterface",
      "outputs": [
        {
          "internalType": "bool",
          "name": "",
          "type": "bool"
        }
      ],
      "stateMutability": "view",
      "type": "function"
    },
    {
      "inputs": [
        {
          "internalType": "uint256",
          "name": "tokenId",
          "type": "uint256"
        }
      ],
      "name": "tokenURI",
      "outputs": [
        {
          "internalType": "string",
          "name": "",
          "type": "string"
        }
      ],
      "stateMutability": "view",
      "type": "function"
    },
    {
      "inputs": [
        {
          "internalType": "uint256",
          "name": "tokenId",
          "type": "uint256"
        }
      ],
      "name": "uri",
      "outputs": [
        {
          "internalType": "string",
          "name": "",
          "type": "string"
        }
      ],
      "stateMutability": "view",
      "type": "function"
    }
  ],
  "transactionHash": "0xdc22a5c21cb6d02c21099b376c432b258827b03a0cb578b4f26bfed71332d20e",
  "args": [
    "QmXtiuxRpwUoWirp2t79bSwSvtYwhKtpLaSDfJsF9iURqy"
  ],
  "numDeployments": 1,
  "solcInputHash": "3f6b3b9a3c09dcd9e972492c75d23b36",
  "bytecode": "0x608060405260405180602001604052806000815250600390805190602001906200002b92919062000095565b503480156200003957600080fd5b50604051620034bb380380620034bb83398181016040528101906200005f9190620002e2565b8062000071816200007960201b60201c565b505062000398565b80600290805190602001906200009192919062000095565b5050565b828054620000a39062000362565b90600052602060002090601f016020900481019282620000c7576000855562000113565b82601f10620000e257805160ff191683800117855562000113565b8280016001018555821562000113579182015b8281111562000112578251825591602001919060010190620000f5565b5b50905062000122919062000126565b5090565b5b808211156200014157600081600090555060010162000127565b5090565b6000604051905090565b600080fd5b600080fd5b600080fd5b600080fd5b6000601f19601f8301169050919050565b7f4e487b7100000000000000000000000000000000000000000000000000000000600052604160045260246000fd5b620001ae8262000163565b810181811067ffffffffffffffff82111715620001d057620001cf62000174565b5b80604052505050565b6000620001e562000145565b9050620001f38282620001a3565b919050565b600067ffffffffffffffff82111562000216576200021562000174565b5b620002218262000163565b9050602081019050919050565b60005b838110156200024e57808201518184015260208101905062000231565b838111156200025e576000848401525b50505050565b60006200027b6200027584620001f8565b620001d9565b9050828152602081018484840111156200029a57620002996200015e565b5b620002a78482856200022e565b509392505050565b600082601f830112620002c757620002c662000159565b5b8151620002d984826020860162000264565b91505092915050565b600060208284031215620002fb57620002fa6200014f565b5b600082015167ffffffffffffffff8111156200031c576200031b62000154565b5b6200032a84828501620002af565b91505092915050565b7f4e487b7100000000000000000000000000000000000000000000000000000000600052602260045260246000fd5b600060028204905060018216806200037b57607f821691505b6020821081141562000392576200039162000333565b5b50919050565b61311380620003a86000396000f3fe608060405234801561001057600080fd5b50600436106100ff5760003560e01c80635cc593d111610097578063c87b56dd11610066578063c87b56dd146102e4578063e9625d7b14610314578063e985e9c514610330578063f242432a14610360576100ff565b80635cc593d11461027057806363bc51f21461028e5780639abc8320146102aa578063a22cb465146102c8576100ff565b8063345762f7116100d3578063345762f7146101b05780634e1273f4146101e057806350f3638314610210578063537ae03114610240576100ff565b8062fdd58e1461010457806301ffc9a7146101345780630e89341c146101645780632eb2c2d614610194575b600080fd5b61011e60048036038101906101199190611b77565b61037c565b60405161012b9190611bc6565b60405180910390f35b61014e60048036038101906101499190611c39565b610445565b60405161015b9190611c81565b60405180910390f35b61017e60048036038101906101799190611c9c565b610457565b60405161018b9190611d62565b60405180910390f35b6101ae60048036038101906101a99190611f81565b6104b7565b005b6101ca60048036038101906101c59190611c9c565b610558565b6040516101d79190611d62565b60405180910390f35b6101fa60048036038101906101f59190612113565b6105f8565b6040516102079190612249565b60405180910390f35b61022a60048036038101906102259190611c9c565b610711565b6040516102379190611d62565b60405180910390f35b61025a60048036038101906102559190611c9c565b610752565b6040516102679190611d62565b60405180910390f35b6102786107f2565b6040516102859190611d62565b60405180910390f35b6102a860048036038101906102a3919061230c565b610880565b005b6102b26108d5565b6040516102bf9190611d62565b60405180910390f35b6102e260048036038101906102dd91906123c3565b610963565b005b6102fe60048036038101906102f99190611c9c565b610979565b60405161030b9190611d62565b60405180910390f35b61032e6004803603810190610329919061230c565b6109d9565b005b61034a60048036038101906103459190612403565b610a2e565b6040516103579190611c81565b60405180910390f35b61037a60048036038101906103759190612443565b610ac2565b005b60008073ffffffffffffffffffffffffffffffffffffffff168373ffffffffffffffffffffffffffffffffffffffff1614156103ed576040517f08c379a00000000000000000000000000000000000000000000000000000000081526004016103e49061254c565b60405180910390fd5b60008083815260200190815260200160002060008473ffffffffffffffffffffffffffffffffffffffff1673ffffffffffffffffffffffffffffffffffffffff16815260200190815260200160002054905092915050565b600061045082610b63565b9050919050565b6060600061046483610c45565b9050600081511161048457604051806020016040528060008152506104af565b8061048e84610cd9565b60405160200161049f9291906125f4565b6040516020818303038152906040525b915050919050565b6104bf610e62565b73ffffffffffffffffffffffffffffffffffffffff168573ffffffffffffffffffffffffffffffffffffffff1614806105055750610504856104ff610e62565b610a2e565b5b610544576040517f08c379a000000000000000000000000000000000000000000000000000000000815260040161053b90612695565b60405180910390fd5b6105518585858585610e6a565b5050505050565b60056020528060005260406000206000915090508054610577906126e4565b80601f01602080910402602001604051908101604052809291908181526020018280546105a3906126e4565b80156105f05780601f106105c5576101008083540402835291602001916105f0565b820191906000526020600020905b8154815290600101906020018083116105d357829003601f168201915b505050505081565b6060815183511461063e576040517f08c379a000000000000000000000000000000000000000000000000000000000815260040161063590612788565b60405180910390fd5b6000835167ffffffffffffffff81111561065b5761065a611d89565b5b6040519080825280602002602001820160405280156106895781602001602082028036833780820191505090505b50905060005b8451811015610706576106d68582815181106106ae576106ad6127a8565b5b60200260200101518583815181106106c9576106c86127a8565b5b602002602001015161037c565b8282815181106106e9576106e86127a8565b5b602002602001018181525050806106ff90612806565b905061068f565b508091505092915050565b6060600061071e83610c45565b90508061072a84610cd9565b60405160200161073b92919061289b565b604051602081830303815290604052915050919050565b60066020528060005260406000206000915090508054610771906126e4565b80601f016020809104026020016040519081016040528092919081815260200182805461079d906126e4565b80156107ea5780601f106107bf576101008083540402835291602001916107ea565b820191906000526020600020905b8154815290600101906020018083116107cd57829003601f168201915b505050505081565b600380546107ff906126e4565b80601f016020809104026020016040519081016040528092919081815260200182805461082b906126e4565b80156108785780601f1061084d57610100808354040283529160200191610878565b820191906000526020600020905b81548152906001019060200180831161085b57829003601f168201915b505050505081565b816005600085815260200190815260200160002090805190602001906108a7929190611a2c565b50806006600085815260200190815260200160002090805190602001906108cf929190611a2c565b50505050565b600480546108e2906126e4565b80601f016020809104026020016040519081016040528092919081815260200182805461090e906126e4565b801561095b5780601f106109305761010080835404028352916020019161095b565b820191906000526020600020905b81548152906001019060200180831161093e57829003601f168201915b505050505081565b61097561096e610e62565b838361117e565b5050565b6060600061098683610c45565b905060008151116109a657604051806020016040528060008152506109d1565b806109b084610cd9565b6040516020016109c19291906125f4565b6040516020818303038152906040525b915050919050565b81600560008581526020019081526020016000209080519060200190610a00929190611a2c565b5080600660008581526020019081526020016000209080519060200190610a28929190611a2c565b50505050565b6000600160008473ffffffffffffffffffffffffffffffffffffffff1673ffffffffffffffffffffffffffffffffffffffff16815260200190815260200160002060008373ffffffffffffffffffffffffffffffffffffffff1673ffffffffffffffffffffffffffffffffffffffff16815260200190815260200160002060009054906101000a900460ff16905092915050565b610aca610e62565b73ffffffffffffffffffffffffffffffffffffffff168573ffffffffffffffffffffffffffffffffffffffff161480610b105750610b0f85610b0a610e62565b610a2e565b5b610b4f576040517f08c379a0000000000000000000000000000000000000000000000000000000008152600401610b469061293c565b60405180910390fd5b610b5c85858585856112eb565b5050505050565b60007fd9b67a26000000000000000000000000000000000000000000000000000000007bffffffffffffffffffffffffffffffffffffffffffffffffffffffff1916827bffffffffffffffffffffffffffffffffffffffffffffffffffffffff19161480610c2e57507f0e89341c000000000000000000000000000000000000000000000000000000007bffffffffffffffffffffffffffffffffffffffffffffffffffffffff1916827bffffffffffffffffffffffffffffffffffffffffffffffffffffffff1916145b80610c3e5750610c3d8261156d565b5b9050919050565b606060028054610c54906126e4565b80601f0160208091040260200160405190810160405280929190818152602001828054610c80906126e4565b8015610ccd5780601f10610ca257610100808354040283529160200191610ccd565b820191906000526020600020905b815481529060010190602001808311610cb057829003601f168201915b50505050509050919050565b60606000821415610d21576040518060400160405280600181526020017f30000000000000000000000000000000000000000000000000000000000000008152509050610e5d565b600082905060005b60008214610d53578080610d3c90612806565b915050600a82610d4c919061298b565b9150610d29565b60008167ffffffffffffffff811115610d6f57610d6e611d89565b5b6040519080825280601f01601f191660200182016040528015610da15781602001600182028036833780820191505090505b50905060008290505b60008614610e5557600181610dbf91906129bc565b90506000600a8088610dd1919061298b565b610ddb91906129f0565b87610de691906129bc565b6030610df29190612a57565b905060008160f81b905080848481518110610e1057610e0f6127a8565b5b60200101907effffffffffffffffffffffffffffffffffffffffffffffffffffffffffffff1916908160001a905350600a88610e4c919061298b565b97505050610daa565b819450505050505b919050565b600033905090565b8151835114610eae576040517f08c379a0000000000000000000000000000000000000000000000000000000008152600401610ea590612b00565b60405180910390fd5b600073ffffffffffffffffffffffffffffffffffffffff168473ffffffffffffffffffffffffffffffffffffffff161415610f1e576040517f08c379a0000000000000000000000000000000000000000000000000000000008152600401610f1590612b92565b60405180910390fd5b6000610f28610e62565b9050610f388187878787876115d7565b60005b84518110156110e9576000858281518110610f5957610f586127a8565b5b602002602001015190506000858381518110610f7857610f776127a8565b5b60200260200101519050600080600084815260200190815260200160002060008b73ffffffffffffffffffffffffffffffffffffffff1673ffffffffffffffffffffffffffffffffffffffff16815260200190815260200160002054905081811015611019576040517f08c379a000000000000000000000000000000000000000000000000000000000815260040161101090612c24565b60405180910390fd5b81810360008085815260200190815260200160002060008c73ffffffffffffffffffffffffffffffffffffffff1673ffffffffffffffffffffffffffffffffffffffff168152602001908152602001600020819055508160008085815260200190815260200160002060008b73ffffffffffffffffffffffffffffffffffffffff1673ffffffffffffffffffffffffffffffffffffffff16815260200190815260200160002060008282546110ce9190612c44565b92505081905550505050806110e290612806565b9050610f3b565b508473ffffffffffffffffffffffffffffffffffffffff168673ffffffffffffffffffffffffffffffffffffffff168273ffffffffffffffffffffffffffffffffffffffff167f4a39dc06d4c0dbc64b70af90fd698a233a518aa5d07e595d983b8c0526c8f7fb8787604051611160929190612c9a565b60405180910390a46111768187878787876115df565b505050505050565b8173ffffffffffffffffffffffffffffffffffffffff168373ffffffffffffffffffffffffffffffffffffffff1614156111ed576040517f08c379a00000000000000000000000000000000000000000000000000000000081526004016111e490612d43565b60405180910390fd5b80600160008573ffffffffffffffffffffffffffffffffffffffff1673ffffffffffffffffffffffffffffffffffffffff16815260200190815260200160002060008473ffffffffffffffffffffffffffffffffffffffff1673ffffffffffffffffffffffffffffffffffffffff16815260200190815260200160002060006101000a81548160ff0219169083151502179055508173ffffffffffffffffffffffffffffffffffffffff168373ffffffffffffffffffffffffffffffffffffffff167f17307eab39ab6107e8899845ad3d59bd9653f200f220920489ca2b5937696c31836040516112de9190611c81565b60405180910390a3505050565b600073ffffffffffffffffffffffffffffffffffffffff168473ffffffffffffffffffffffffffffffffffffffff16141561135b576040517f08c379a000000000000000000000000000000000000000000000000000000000815260040161135290612b92565b60405180910390fd5b6000611365610e62565b9050611385818787611376886117b7565b61137f886117b7565b876115d7565b600080600086815260200190815260200160002060008873ffffffffffffffffffffffffffffffffffffffff1673ffffffffffffffffffffffffffffffffffffffff1681526020019081526020016000205490508381101561141c576040517f08c379a000000000000000000000000000000000000000000000000000000000815260040161141390612c24565b60405180910390fd5b83810360008087815260200190815260200160002060008973ffffffffffffffffffffffffffffffffffffffff1673ffffffffffffffffffffffffffffffffffffffff168152602001908152602001600020819055508360008087815260200190815260200160002060008873ffffffffffffffffffffffffffffffffffffffff1673ffffffffffffffffffffffffffffffffffffffff16815260200190815260200160002060008282546114d19190612c44565b925050819055508573ffffffffffffffffffffffffffffffffffffffff168773ffffffffffffffffffffffffffffffffffffffff168373ffffffffffffffffffffffffffffffffffffffff167fc3d58168c5ae7397731d063d5bbf3d657854427343f4c083240f7aacaa2d0f62888860405161154e929190612d63565b60405180910390a4611564828888888888611831565b50505050505050565b60007f01ffc9a7000000000000000000000000000000000000000000000000000000007bffffffffffffffffffffffffffffffffffffffffffffffffffffffff1916827bffffffffffffffffffffffffffffffffffffffffffffffffffffffff1916149050919050565b505050505050565b6115fe8473ffffffffffffffffffffffffffffffffffffffff16611a09565b156117af578373ffffffffffffffffffffffffffffffffffffffff1663bc197c8187878686866040518663ffffffff1660e01b8152600401611644959493929190612df0565b6020604051808303816000875af192505050801561168057506040513d601f19601f8201168201806040525081019061167d9190612e6d565b60015b6117265761168c612ea7565b806308c379a014156116e957506116a1612ec9565b806116ac57506116eb565b806040517f08c379a00000000000000000000000000000000000000000000000000000000081526004016116e09190611d62565b60405180910390fd5b505b6040517f08c379a000000000000000000000000000000000000000000000000000000000815260040161171d90612fd1565b60405180910390fd5b63bc197c8160e01b7bffffffffffffffffffffffffffffffffffffffffffffffffffffffff1916817bffffffffffffffffffffffffffffffffffffffffffffffffffffffff1916146117ad576040517f08c379a00000000000000000000000000000000000000000000000000000000081526004016117a490613063565b60405180910390fd5b505b505050505050565b60606000600167ffffffffffffffff8111156117d6576117d5611d89565b5b6040519080825280602002602001820160405280156118045781602001602082028036833780820191505090505b509050828160008151811061181c5761181b6127a8565b5b60200260200101818152505080915050919050565b6118508473ffffffffffffffffffffffffffffffffffffffff16611a09565b15611a01578373ffffffffffffffffffffffffffffffffffffffff1663f23a6e6187878686866040518663ffffffff1660e01b8152600401611896959493929190613083565b6020604051808303816000875af19250505080156118d257506040513d601f19601f820116820180604052508101906118cf9190612e6d565b60015b611978576118de612ea7565b806308c379a0141561193b57506118f3612ec9565b806118fe575061193d565b806040517f08c379a00000000000000000000000000000000000000000000000000000000081526004016119329190611d62565b60405180910390fd5b505b6040517f08c379a000000000000000000000000000000000000000000000000000000000815260040161196f90612fd1565b60405180910390fd5b63f23a6e6160e01b7bffffffffffffffffffffffffffffffffffffffffffffffffffffffff1916817bffffffffffffffffffffffffffffffffffffffffffffffffffffffff1916146119ff576040517f08c379a00000000000000000000000000000000000000000000000000000000081526004016119f690613063565b60405180910390fd5b505b505050505050565b6000808273ffffffffffffffffffffffffffffffffffffffff163b119050919050565b828054611a38906126e4565b90600052602060002090601f016020900481019282611a5a5760008555611aa1565b82601f10611a7357805160ff1916838001178555611aa1565b82800160010185558215611aa1579182015b82811115611aa0578251825591602001919060010190611a85565b5b509050611aae9190611ab2565b5090565b5b80821115611acb576000816000905550600101611ab3565b5090565b6000604051905090565b600080fd5b600080fd5b600073ffffffffffffffffffffffffffffffffffffffff82169050919050565b6000611b0e82611ae3565b9050919050565b611b1e81611b03565b8114611b2957600080fd5b50565b600081359050611b3b81611b15565b92915050565b6000819050919050565b611b5481611b41565b8114611b5f57600080fd5b50565b600081359050611b7181611b4b565b92915050565b60008060408385031215611b8e57611b8d611ad9565b5b6000611b9c85828601611b2c565b9250506020611bad85828601611b62565b9150509250929050565b611bc081611b41565b82525050565b6000602082019050611bdb6000830184611bb7565b92915050565b60007fffffffff0000000000000000000000000000000000000000000000000000000082169050919050565b611c1681611be1565b8114611c2157600080fd5b50565b600081359050611c3381611c0d565b92915050565b600060208284031215611c4f57611c4e611ad9565b5b6000611c5d84828501611c24565b91505092915050565b60008115159050919050565b611c7b81611c66565b82525050565b6000602082019050611c966000830184611c72565b92915050565b600060208284031215611cb257611cb1611ad9565b5b6000611cc084828501611b62565b91505092915050565b600081519050919050565b600082825260208201905092915050565b60005b83811015611d03578082015181840152602081019050611ce8565b83811115611d12576000848401525b50505050565b6000601f19601f8301169050919050565b6000611d3482611cc9565b611d3e8185611cd4565b9350611d4e818560208601611ce5565b611d5781611d18565b840191505092915050565b60006020820190508181036000830152611d7c8184611d29565b905092915050565b600080fd5b7f4e487b7100000000000000000000000000000000000000000000000000000000600052604160045260246000fd5b611dc182611d18565b810181811067ffffffffffffffff82111715611de057611ddf611d89565b5b80604052505050565b6000611df3611acf565b9050611dff8282611db8565b919050565b600067ffffffffffffffff821115611e1f57611e1e611d89565b5b602082029050602081019050919050565b600080fd5b6000611e48611e4384611e04565b611de9565b90508083825260208201905060208402830185811115611e6b57611e6a611e30565b5b835b81811015611e945780611e808882611b62565b845260208401935050602081019050611e6d565b5050509392505050565b600082601f830112611eb357611eb2611d84565b5b8135611ec3848260208601611e35565b91505092915050565b600080fd5b600067ffffffffffffffff821115611eec57611eeb611d89565b5b611ef582611d18565b9050602081019050919050565b82818337600083830152505050565b6000611f24611f1f84611ed1565b611de9565b905082815260208101848484011115611f4057611f3f611ecc565b5b611f4b848285611f02565b509392505050565b600082601f830112611f6857611f67611d84565b5b8135611f78848260208601611f11565b91505092915050565b600080600080600060a08688031215611f9d57611f9c611ad9565b5b6000611fab88828901611b2c565b9550506020611fbc88828901611b2c565b945050604086013567ffffffffffffffff811115611fdd57611fdc611ade565b5b611fe988828901611e9e565b935050606086013567ffffffffffffffff81111561200a57612009611ade565b5b61201688828901611e9e565b925050608086013567ffffffffffffffff81111561203757612036611ade565b5b61204388828901611f53565b9150509295509295909350565b600067ffffffffffffffff82111561206b5761206a611d89565b5b602082029050602081019050919050565b600061208f61208a84612050565b611de9565b905080838252602082019050602084028301858111156120b2576120b1611e30565b5b835b818110156120db57806120c78882611b2c565b8452602084019350506020810190506120b4565b5050509392505050565b600082601f8301126120fa576120f9611d84565b5b813561210a84826020860161207c565b91505092915050565b6000806040838503121561212a57612129611ad9565b5b600083013567ffffffffffffffff81111561214857612147611ade565b5b612154858286016120e5565b925050602083013567ffffffffffffffff81111561217557612174611ade565b5b61218185828601611e9e565b9150509250929050565b600081519050919050565b600082825260208201905092915050565b6000819050602082019050919050565b6121c081611b41565b82525050565b60006121d283836121b7565b60208301905092915050565b6000602082019050919050565b60006121f68261218b565b6122008185612196565b935061220b836121a7565b8060005b8381101561223c57815161222388826121c6565b975061222e836121de565b92505060018101905061220f565b5085935050505092915050565b6000602082019050818103600083015261226381846121eb565b905092915050565b600067ffffffffffffffff82111561228657612285611d89565b5b61228f82611d18565b9050602081019050919050565b60006122af6122aa8461226b565b611de9565b9050828152602081018484840111156122cb576122ca611ecc565b5b6122d6848285611f02565b509392505050565b600082601f8301126122f3576122f2611d84565b5b813561230384826020860161229c565b91505092915050565b60008060006060848603121561232557612324611ad9565b5b600061233386828701611b62565b935050602084013567ffffffffffffffff81111561235457612353611ade565b5b612360868287016122de565b925050604084013567ffffffffffffffff81111561238157612380611ade565b5b61238d868287016122de565b9150509250925092565b6123a081611c66565b81146123ab57600080fd5b50565b6000813590506123bd81612397565b92915050565b600080604083850312156123da576123d9611ad9565b5b60006123e885828601611b2c565b92505060206123f9858286016123ae565b9150509250929050565b6000806040838503121561241a57612419611ad9565b5b600061242885828601611b2c565b925050602061243985828601611b2c565b9150509250929050565b600080600080600060a0868803121561245f5761245e611ad9565b5b600061246d88828901611b2c565b955050602061247e88828901611b2c565b945050604061248f88828901611b62565b93505060606124a088828901611b62565b925050608086013567ffffffffffffffff8111156124c1576124c0611ade565b5b6124cd88828901611f53565b9150509295509295909350565b7f455243313135353a2062616c616e636520717565727920666f7220746865207a60008201527f65726f2061646472657373000000000000000000000000000000000000000000602082015250565b6000612536602b83611cd4565b9150612541826124da565b604082019050919050565b6000602082019050818103600083015261256581612529565b9050919050565b600081905092915050565b600061258282611cc9565b61258c818561256c565b935061259c818560208601611ce5565b80840191505092915050565b7f2e6a736f6e000000000000000000000000000000000000000000000000000000600082015250565b60006125de60058361256c565b91506125e9826125a8565b600582019050919050565b60006126008285612577565b915061260c8284612577565b9150612617826125d1565b91508190509392505050565b7f455243313135353a207472616e736665722063616c6c6572206973206e6f742060008201527f6f776e6572206e6f7220617070726f7665640000000000000000000000000000602082015250565b600061267f603283611cd4565b915061268a82612623565b604082019050919050565b600060208201905081810360008301526126ae81612672565b9050919050565b7f4e487b7100000000000000000000000000000000000000000000000000000000600052602260045260246000fd5b600060028204905060018216806126fc57607f821691505b602082108114156127105761270f6126b5565b5b50919050565b7f455243313135353a206163636f756e747320616e6420696473206c656e67746860008201527f206d69736d617463680000000000000000000000000000000000000000000000602082015250565b6000612772602983611cd4565b915061277d82612716565b604082019050919050565b600060208201905081810360008301526127a181612765565b9050919050565b7f4e487b7100000000000000000000000000000000000000000000000000000000600052603260045260246000fd5b7f4e487b7100000000000000000000000000000000000000000000000000000000600052601160045260246000fd5b600061281182611b41565b91507fffffffffffffffffffffffffffffffffffffffffffffffffffffffffffffffff821415612844576128436127d7565b5b600182019050919050565b7f2f00000000000000000000000000000000000000000000000000000000000000600082015250565b600061288560018361256c565b91506128908261284f565b600182019050919050565b60006128a78285612577565b91506128b282612878565b91506128be8284612577565b91508190509392505050565b7f455243313135353a2063616c6c6572206973206e6f74206f776e6572206e6f7260008201527f20617070726f7665640000000000000000000000000000000000000000000000602082015250565b6000612926602983611cd4565b9150612931826128ca565b604082019050919050565b6000602082019050818103600083015261295581612919565b9050919050565b7f4e487b7100000000000000000000000000000000000000000000000000000000600052601260045260246000fd5b600061299682611b41565b91506129a183611b41565b9250826129b1576129b061295c565b5b828204905092915050565b60006129c782611b41565b91506129d283611b41565b9250828210156129e5576129e46127d7565b5b828203905092915050565b60006129fb82611b41565b9150612a0683611b41565b9250817fffffffffffffffffffffffffffffffffffffffffffffffffffffffffffffffff0483118215151615612a3f57612a3e6127d7565b5b828202905092915050565b600060ff82169050919050565b6000612a6282612a4a565b9150612a6d83612a4a565b92508260ff03821115612a8357612a826127d7565b5b828201905092915050565b7f455243313135353a2069647320616e6420616d6f756e7473206c656e6774682060008201527f6d69736d61746368000000000000000000000000000000000000000000000000602082015250565b6000612aea602883611cd4565b9150612af582612a8e565b604082019050919050565b60006020820190508181036000830152612b1981612add565b9050919050565b7f455243313135353a207472616e7366657220746f20746865207a65726f20616460008201527f6472657373000000000000000000000000000000000000000000000000000000602082015250565b6000612b7c602583611cd4565b9150612b8782612b20565b604082019050919050565b60006020820190508181036000830152612bab81612b6f565b9050919050565b7f455243313135353a20696e73756666696369656e742062616c616e636520666f60008201527f72207472616e7366657200000000000000000000000000000000000000000000602082015250565b6000612c0e602a83611cd4565b9150612c1982612bb2565b604082019050919050565b60006020820190508181036000830152612c3d81612c01565b9050919050565b6000612c4f82611b41565b9150612c5a83611b41565b9250827fffffffffffffffffffffffffffffffffffffffffffffffffffffffffffffffff03821115612c8f57612c8e6127d7565b5b828201905092915050565b60006040820190508181036000830152612cb481856121eb565b90508181036020830152612cc881846121eb565b90509392505050565b7f455243313135353a2073657474696e6720617070726f76616c2073746174757360008201527f20666f722073656c660000000000000000000000000000000000000000000000602082015250565b6000612d2d602983611cd4565b9150612d3882612cd1565b604082019050919050565b60006020820190508181036000830152612d5c81612d20565b9050919050565b6000604082019050612d786000830185611bb7565b612d856020830184611bb7565b9392505050565b612d9581611b03565b82525050565b600081519050919050565b600082825260208201905092915050565b6000612dc282612d9b565b612dcc8185612da6565b9350612ddc818560208601611ce5565b612de581611d18565b840191505092915050565b600060a082019050612e056000830188612d8c565b612e126020830187612d8c565b8181036040830152612e2481866121eb565b90508181036060830152612e3881856121eb565b90508181036080830152612e4c8184612db7565b90509695505050505050565b600081519050612e6781611c0d565b92915050565b600060208284031215612e8357612e82611ad9565b5b6000612e9184828501612e58565b91505092915050565b60008160e01c9050919050565b600060033d1115612ec65760046000803e612ec3600051612e9a565b90505b90565b600060443d1015612ed957612f5c565b612ee1611acf565b60043d036004823e80513d602482011167ffffffffffffffff82111715612f09575050612f5c565b808201805167ffffffffffffffff811115612f275750505050612f5c565b80602083010160043d038501811115612f44575050505050612f5c565b612f5382602001850186611db8565b82955050505050505b90565b7f455243313135353a207472616e7366657220746f206e6f6e204552433131353560008201527f526563656976657220696d706c656d656e746572000000000000000000000000602082015250565b6000612fbb603483611cd4565b9150612fc682612f5f565b604082019050919050565b60006020820190508181036000830152612fea81612fae565b9050919050565b7f455243313135353a204552433131353552656365697665722072656a6563746560008201527f6420746f6b656e73000000000000000000000000000000000000000000000000602082015250565b600061304d602883611cd4565b915061305882612ff1565b604082019050919050565b6000602082019050818103600083015261307c81613040565b9050919050565b600060a0820190506130986000830188612d8c565b6130a56020830187612d8c565b6130b26040830186611bb7565b6130bf6060830185611bb7565b81810360808301526130d18184612db7565b9050969550505050505056fea26469706673582212209a99632fcdb2eafa77ca79a38d12b8ba9165e9b3de6d89c3499e993b03cf455a64736f6c634300080a0033",
  "devdoc": {
    "author": "Valerio Leo @valerioHQ",
    "kind": "dev",
    "methods": {
      "balanceOf(address,uint256)": {
        "details": "See {IERC1155-balanceOf}. Requirements: - `account` cannot be the zero address."
      },
      "balanceOfBatch(address[],uint256[])": {
        "details": "See {IERC1155-balanceOfBatch}. Requirements: - `accounts` and `ids` must have the same length."
      },
      "isApprovedForAll(address,address)": {
        "details": "See {IERC1155-isApprovedForAll}."
      },
      "safeBatchTransferFrom(address,address,uint256[],uint256[],bytes)": {
        "details": "See {IERC1155-safeBatchTransferFrom}."
      },
      "safeTransferFrom(address,address,uint256,uint256,bytes)": {
        "details": "See {IERC1155-safeTransferFrom}."
      },
      "setApprovalForAll(address,bool)": {
        "details": "See {IERC1155-setApprovalForAll}."
      },
      "supportsInterface(bytes4)": {
        "details": "See {IERC165-supportsInterface}."
      }
    },
    "title": "A minable NFT based on PoW",
    "version": 1
  },
  "userdoc": {
    "kind": "user",
    "methods": {},
    "version": 1
  },
  "storageLayout": {
    "storage": [
      {
        "astId": 5341,
        "contract": "contracts/MinepunksAccessory.sol:MinepunksAccessory",
        "label": "_balances",
        "offset": 0,
        "slot": "0",
        "type": "t_mapping(t_uint256,t_mapping(t_address,t_uint256))"
      },
      {
        "astId": 5347,
        "contract": "contracts/MinepunksAccessory.sol:MinepunksAccessory",
        "label": "_operatorApprovals",
        "offset": 0,
        "slot": "1",
        "type": "t_mapping(t_address,t_mapping(t_address,t_bool))"
      },
      {
        "astId": 5349,
        "contract": "contracts/MinepunksAccessory.sol:MinepunksAccessory",
        "label": "_uri",
        "offset": 0,
        "slot": "2",
        "type": "t_string_storage"
      },
      {
        "astId": 11051,
        "contract": "contracts/MinepunksAccessory.sol:MinepunksAccessory",
        "label": "accessoryType",
        "offset": 0,
        "slot": "3",
        "type": "t_string_storage"
      },
      {
        "astId": 11053,
        "contract": "contracts/MinepunksAccessory.sol:MinepunksAccessory",
        "label": "baseUri",
        "offset": 0,
        "slot": "4",
        "type": "t_string_storage"
      },
      {
        "astId": 11057,
        "contract": "contracts/MinepunksAccessory.sol:MinepunksAccessory",
        "label": "accessoryTraitType",
        "offset": 0,
        "slot": "5",
        "type": "t_mapping(t_uint256,t_string_storage)"
      },
      {
        "astId": 11061,
        "contract": "contracts/MinepunksAccessory.sol:MinepunksAccessory",
        "label": "accessoryTraitValue",
        "offset": 0,
        "slot": "6",
        "type": "t_mapping(t_uint256,t_string_storage)"
      }
    ],
    "types": {
      "t_address": {
        "encoding": "inplace",
        "label": "address",
        "numberOfBytes": "20"
      },
      "t_bool": {
        "encoding": "inplace",
        "label": "bool",
        "numberOfBytes": "1"
      },
      "t_mapping(t_address,t_bool)": {
        "encoding": "mapping",
        "key": "t_address",
        "label": "mapping(address => bool)",
        "numberOfBytes": "32",
        "value": "t_bool"
      },
      "t_mapping(t_address,t_mapping(t_address,t_bool))": {
        "encoding": "mapping",
        "key": "t_address",
        "label": "mapping(address => mapping(address => bool))",
        "numberOfBytes": "32",
        "value": "t_mapping(t_address,t_bool)"
      },
      "t_mapping(t_address,t_uint256)": {
        "encoding": "mapping",
        "key": "t_address",
        "label": "mapping(address => uint256)",
        "numberOfBytes": "32",
        "value": "t_uint256"
      },
      "t_mapping(t_uint256,t_mapping(t_address,t_uint256))": {
        "encoding": "mapping",
        "key": "t_uint256",
        "label": "mapping(uint256 => mapping(address => uint256))",
        "numberOfBytes": "32",
        "value": "t_mapping(t_address,t_uint256)"
      },
      "t_mapping(t_uint256,t_string_storage)": {
        "encoding": "mapping",
        "key": "t_uint256",
        "label": "mapping(uint256 => string)",
        "numberOfBytes": "32",
        "value": "t_string_storage"
      },
      "t_string_storage": {
        "encoding": "bytes",
        "label": "string",
        "numberOfBytes": "32"
      },
      "t_uint256": {
        "encoding": "inplace",
        "label": "uint256",
        "numberOfBytes": "32"
      }
    }
  }
}