{
  "address": "0x9f50b57a8125c5BD3A7EE38A45ff3E78db2Ea67C",
  "abi": [
    {
      "inputs": [
        {
          "internalType": "string",
          "name": "description",
          "type": "string"
        },
        {
          "internalType": "string",
          "name": "flowRate",
          "type": "string"
        },
        {
          "internalType": "string",
          "name": "timeFrame",
          "type": "string"
        },
        {
          "internalType": "string",
          "name": "senderBalance",
          "type": "string"
        },
        {
          "internalType": "string",
          "name": "daysLeft",
          "type": "string"
        }
      ],
      "name": "generateSvg",
      "outputs": [
        {
          "internalType": "string",
          "name": "",
          "type": "string"
        }
      ],
      "stateMutability": "pure",
      "type": "function"
    }
  ],
  "transactionHash": "0x41624ba1e1580a7e1b0ea81ad9afe3d257f3db939108473cb9f438a0e6a26abd",
  "args": [],
  "numDeployments": 7,
  "solcInputHash": "c87397498e985c9c80abbf6d743998a4",
  "bytecode": "0x612bff610053600b82828239805160001a607314610046577f4e487b7100000000000000000000000000000000000000000000000000000000600052600060045260246000fd5b30600052607381538281f3fe73000000000000000000000000000000000000000030146080604052600436106100355760003560e01c8063d04c159c1461003a575b600080fd5b610054600480360381019061004f91906101ff565b61006a565b604051610061919061038e565b60405180910390f35b60606000868487878660405160200161008795949392919061294d565b60405160208183030381529060405290508091505095945050505050565b6000604051905090565b600080fd5b600080fd5b600080fd5b600080fd5b6000601f19601f8301169050919050565b7f4e487b7100000000000000000000000000000000000000000000000000000000600052604160045260246000fd5b61010c826100c3565b810181811067ffffffffffffffff8211171561012b5761012a6100d4565b5b80604052505050565b600061013e6100a5565b905061014a8282610103565b919050565b600067ffffffffffffffff82111561016a576101696100d4565b5b610173826100c3565b9050602081019050919050565b82818337600083830152505050565b60006101a261019d8461014f565b610134565b9050828152602081018484840111156101be576101bd6100be565b5b6101c9848285610180565b509392505050565b600082601f8301126101e6576101e56100b9565b5b81356101f684826020860161018f565b91505092915050565b600080600080600060a0868803121561021b5761021a6100af565b5b600086013567ffffffffffffffff811115610239576102386100b4565b5b610245888289016101d1565b955050602086013567ffffffffffffffff811115610266576102656100b4565b5b610272888289016101d1565b945050604086013567ffffffffffffffff811115610293576102926100b4565b5b61029f888289016101d1565b935050606086013567ffffffffffffffff8111156102c0576102bf6100b4565b5b6102cc888289016101d1565b925050608086013567ffffffffffffffff8111156102ed576102ec6100b4565b5b6102f9888289016101d1565b9150509295509295909350565b600081519050919050565b600082825260208201905092915050565b60005b83811015610340578082015181840152602081019050610325565b8381111561034f576000848401525b50505050565b600061036082610306565b61036a8185610311565b935061037a818560208601610322565b610383816100c3565b840191505092915050565b600060208201905081810360008301526103a88184610355565b905092915050565b600081905092915050565b7f3c7376672077696474683d2235343022206865696768743d223534302220766960008201527f6577426f783d223020302035343020353430222066696c6c3d226e6f6e65222060208201527f786d6c6e733d22687474703a2f2f7777772e77332e6f72672f323030302f737660408201527f672220786d6c6e733a786c696e6b3d22687474703a2f2f7777772e77332e6f7260608201527f672f313939392f786c696e6b223e000000000000000000000000000000000000608082015250565b6000610489608e836103b0565b9150610494826103bb565b608e82019050919050565b7f3c673e0000000000000000000000000000000000000000000000000000000000600082015250565b60006104d56003836103b0565b91506104e08261049f565b600382019050919050565b7f3c7469746c653e00000000000000000000000000000000000000000000000000600082015250565b60006105216007836103b0565b915061052c826104eb565b600782019050919050565b600061054282610306565b61054c81856103b0565b935061055c818560208601610322565b80840191505092915050565b7f3c2f7469746c653e000000000000000000000000000000000000000000000000600082015250565b600061059e6008836103b0565b91506105a982610568565b600882019050919050565b7f3c2f673e00000000000000000000000000000000000000000000000000000000600082015250565b60006105ea6004836103b0565b91506105f5826105b4565b600482019050919050565b7f3c726563742077696474683d2235343022206865696768743d2235343022207260008201527f783d223430222066696c6c3d22626c61636b222f3e0000000000000000000000602082015250565b600061065c6035836103b0565b915061066782610600565b603582019050919050565b7f3c7265637420783d2234352220793d223634222077696474683d22313635222060008201527f6865696768743d22313233222066696c6c3d2275726c28237061747465726e3060208201527f29222f3e00000000000000000000000000000000000000000000000000000000604082015250565b60006106f46044836103b0565b91506106ff82610672565b604482019050919050565b7f3c636972636c652063783d223132372e35222063793d223132372e352220723d60008201527f2236312e3522207374726f6b653d22776869746522207374726f6b652d77696460208201527f74683d2234222f3e000000000000000000000000000000000000000000000000604082015250565b600061078c6048836103b0565b91506107978261070a565b604882019050919050565b7f3c7465787420746578742d616e63686f723d22656e642220783d22343738222060008201527f793d22313330222066696c6c3d2277686974652220666f6e742d73697a653d2260208201527f3838223e24200000000000000000000000000000000000000000000000000000604082015250565b60006108246046836103b0565b915061082f826107a2565b604682019050919050565b7f3c2f746578743e00000000000000000000000000000000000000000000000000600082015250565b60006108706007836103b0565b915061087b8261083a565b600782019050919050565b7f3c7061746820643d224d3337382e313133203138352e353136433338342e393660008201527f37203138352e353136203339302e313032203138312e333639203339312e303660208201527f38203137352e3230334c3339312e3039203137342e393838483338362e33324c60408201527f3338362e323536203137352e313832433338352e303936203137392e3131332060608201527f3338322e323338203138312e323632203337382e313133203138312e3236324360808201527f3337322e333737203138312e323632203336382e3636203137362e363634203360a08201527f36382e3636203136392e343838563136392e343637433336382e36362031363260c08201527f2e323931203337322e333535203135372e373336203337382e3131332031353760e08201527f2e373336433338322e323831203135372e373336203338352e3136203135392e6101008201527f393439203338362e313931203136332e35384c3338362e3332203136342e30316101208201527f483339312e30394c3339312e303437203136332e383136433339302e303820316101408201527f35372e363933203338342e393435203135332e343832203337382e31313320316101608201527f35332e343832433336392e333236203135332e343832203336332e37342031356101808201527f392e363237203336332e3734203136392e343637563136392e343838433336336101a08201527f2e3734203137392e333238203336392e333236203138352e353136203337382e6101c08201527f313133203138352e3531365a4d3339342e34353320313835483339392e3039336101e08201527f563137312e353239433339392e303933203136382e313536203430302e3934316102008201527f203136362e323031203430332e393237203136362e323031433430342e3833206102208201527f3136362e323031203430352e363436203136362e333039203430362e303131206102408201527f3136362e343539563136322e313431433430352e363436203136322e303736206102608201527f3430352e303636203136312e393639203430342e34203136312e3936394334306102808201527f312e383232203136312e393639203339392e393331203136332e3632332033396102a08201527f392e323031203136362e323636483339392e303933563136322e3339384833396102c08201527f342e343533563138355a4d3431372e313038203138352e343531433432322e356102e08201527f3837203138352e343531203432362e303637203138322e313836203432362e376103008201527f3938203137382e3539384c3432362e383431203137382e333631483432322e346103208201527f33364c3432322e333732203137382e353333433432312e373932203138302e326103408201527f33203431392e393636203138312e363438203431372e323136203138312e36346103608201527f38433431332e3532203138312e363438203431312e313739203137392e3135366103808201527f203431312e303933203137342e383831483432372e303939563137332e3331326103a08201527f433432372e303939203136362e353233203432332e3231203136312e393639206103c08201527f3431362e383732203136312e393639433431302e353334203136312e393639206103e08201527f3430362e343532203136362e363935203430362e343532203137332e373634566104008201527f3137332e373835433430362e343532203138302e393138203431302e343720316104208201527f38352e343531203431372e313038203138352e3435315a4d3431362e383933206104408201527f3136352e373731433431392e393233203136352e373731203432322e313134206104608201527f3136372e363834203432322e353031203137312e353934483431312e313537436104808201527f3431312e353635203136372e383132203431332e383836203136352e373731206104a08201527f3431362e383933203136352e3737315a4d3433382e373131203138352e3435316104c08201527f433434312e393535203138352e343531203434342e343438203138332e3831386104e08201527f203434352e383031203138312e313736483434352e38383756313835483435306105008201527f2e353439563135332e393938483434352e383837563136362e323434483434356105208201527f2e383031433434342e343438203136332e3538203434312e383639203136312e6105408201527f393639203433382e363638203136312e393639433433322e393936203136312e6105608201527f393639203432392e323538203136362e3438203432392e323538203137332e366105808201527f3738563137332e363939433432392e323538203138302e383936203433322e396105a08201527f3533203138352e343531203433382e373131203138352e3435315a4d3433392e6105c08201527f393336203138312e343535433433362e323632203138312e343535203433342e6105e08201527f303036203137382e353132203433342e303036203137332e363939563137332e6106008201527f363738433433342e303036203136382e393038203433362e323834203136352e6106208201527f393433203433392e393336203136352e393433433434332e343136203136352e6106408201527f393433203434352e393039203136382e393934203434352e393039203137332e6106608201527f363738563137332e363939433434352e393039203137382e343034203434332e6106808201527f343338203138312e343535203433392e393336203138312e3435355a4d3435376106a08201527f2e333932203135382e393138433435382e393138203135382e393138203436306106c08201527f2e303939203135372e373135203436302e303939203135362e323534433436306106e08201527f2e303939203135342e373731203435382e393138203135332e353638203435376107008201527f2e333932203135332e353638433435352e383838203135332e353638203435346107208201527f2e363835203135342e373731203435342e363835203135362e323534433435346107408201527f2e363835203135372e373135203435352e383838203135382e393138203435376107608201527f2e333932203135382e3931385a4d3435352e30373220313835483435392e37316107808201527f33563136322e333938483435352e303732563138355a4d3437312e39393120316107a08201527f38352e343531433437322e393337203138352e343531203437332e38313820316107c08201527f38352e333434203437342e333535203138352e323538563138312e36374334376107e08201527f342e303131203138312e373133203437332e363033203138312e3735362034376108008201527f332e313039203138312e373536433437312e313534203138312e3735362034376108208201527f302e313232203138312e303638203437302e313232203137382e3737563136366108408201527f2e303934483437342e333535563136322e333938483437302e313232563135366108608201527f2e353132483436352e333734563136322e333938483436322e3133563136362e6108808201527f303934483436352e333734563137392e303439433436352e333734203138332e6108a08201527f353631203436372e353233203138352e343531203437312e393931203138352e6108c08201527f3435315a222066696c6c3d2223384138413841222f3e000000000000000000006108e082015250565b60006113876108f6836103b0565b915061139282610886565b6108f682019050919050565b7f3c7465787420783d2236342220793d22333630222066696c6c3d22776869746560008201527f2220666f6e742d73697a653d223534223e240000000000000000000000000000602082015250565b60006113fa6032836103b0565b91506114058261139e565b603282019050919050565b7f202f200000000000000000000000000000000000000000000000000000000000600082015250565b60006114466003836103b0565b915061145182611410565b600382019050919050565b7f3c7061746820643d224d363420343630433634203435312e3136332037312e3160008201527f363334203434342038302034343448343539433436372e38333720343434203460208201527f3735203435312e313633203437352034363043343735203436382e383337203460408201527f36372e3833372034373620343539203437364838304337312e3136333520343760608201527f36203634203436382e383337203634203436305a222066696c6c3d2275726c2860808201527f237061696e74305f6c696e6561725f325f3229222f3e0000000000000000000060a082015250565b600061155060b6836103b0565b915061155b8261145c565b60b682019050919050565b7f3c7061746820643d224d363420343630433634203435312e3136332037312e3160008201527f363334203434342038302034343448343539433436372e38333720343434203460208201527f3735203435312e313633203437352034363043343735203436382e383337203460408201527f36372e3833372034373620343539203437364838304337312e3136333520343760608201527f36203634203436382e383337203634203436305a222066696c6c3d222337303060808201527f304646222066696c6c2d6f7061636974793d22302e34222f3e0000000000000060a082015250565b600061165a60b9836103b0565b915061166582611566565b60b982019050919050565b7f3c7061746820643d224d363420343630433634203435312e3136332037312e3160008201527f363334203434342038302034343448343539433436372e38333720343434203460208201527f3735203435312e313633203437352034363043343735203436382e383337203460408201527f36372e3833372034373620343539203437364838304337312e3136333520343760608201527f36203634203436382e383337203634203436305a222066696c6c3d222333443360808201527f443344222f3e000000000000000000000000000000000000000000000000000060a082015250565b600061176460a6836103b0565b915061176f82611670565b60a682019050919050565b7f3c7061746820643d224d363420343630433634203435312e3136332037312e3160008201527f363334203434342038302034343448313837433139352e38333720343434203260208201527f3033203435312e313633203230332034363043323033203436382e383337203160408201527f39352e3833372034373620313837203437364838304337312e3136333420343760608201527f36203634203436382e383337203634203436305a222066696c6c3d2275726c2860808201527f237061696e74315f6c696e6561725f325f3229222f3e0000000000000000000060a082015250565b600061186e60b6836103b0565b91506118798261177a565b60b682019050919050565b7f3c7061746820643d224d363420343630433634203435312e3136332037312e3160008201527f363334203434342038302034343448313837433139352e38333720343434203260208201527f3033203435312e313633203230332034363043323033203436382e383337203160408201527f39352e3833372034373620313837203437364838304337312e3136333420343760608201527f36203634203436382e383337203634203436305a222066696c6c3d222346463060808201527f304337222066696c6c2d6f7061636974793d22302e34222f3e0000000000000060a082015250565b600061197860b9836103b0565b915061198382611884565b60b982019050919050565b7f3c7061746820643d224d363420343630433634203435312e3136332037312e3160008201527f363334203434342038302034343448313932433230302e38333720343434203260208201527f3038203435312e313633203230382034363043323038203436382e383337203260408201527f30302e3833372034373620313932203437364838304337312e3136333420343760608201527f36203634203436382e383337203634203436305a222066696c6c3d2275726c2860808201527f237061696e74325f6c696e6561725f325f3229222f3e0000000000000000000060a082015250565b6000611a8260b6836103b0565b9150611a8d8261198e565b60b682019050919050565b7f3c7061746820643d224d363420343630433634203435312e3136332037312e3160008201527f363334203434342038302034343448313932433230302e38333720343434203260208201527f3038203435312e313633203230382034363043323038203436382e383337203260408201527f30302e3833372034373620313932203437364838304337312e3136333420343760608201527f36203634203436382e383337203634203436305a222066696c6c3d222346463060808201527f304337222066696c6c2d6f7061636974793d22302e34222f3e0000000000000060a082015250565b6000611b8c60b9836103b0565b9150611b9782611a98565b60b982019050919050565b7f3c7061746820643d224d363420343630433634203435312e3136332037312e3160008201527f363334203434342038302034343448313932433230302e38333720343434203260208201527f3038203435312e313633203230382034363043323038203436382e383337203260408201527f30302e3833372034373620313932203437364838304337312e3136333420343760608201527f36203634203436382e383337203634203436305a222066696c6c3d2275726c2860808201527f237061696e74335f6c696e6561725f325f3229222f3e0000000000000000000060a082015250565b6000611c9660b6836103b0565b9150611ca182611ba2565b60b682019050919050565b7f3c7465787420783d2236342220793d22343138222066696c6c3d22776869746560008201527f2220666f6e742d73697a653d223332223e000000000000000000000000000000602082015250565b6000611d086031836103b0565b9150611d1382611cac565b603182019050919050565b7f2064617973206c6566743c2f746578743e000000000000000000000000000000600082015250565b6000611d546011836103b0565b9150611d5f82611d1e565b601182019050919050565b7f3c7061746820643d224d3133332e343536203838563132322e34364c3133322e60008201527f303532203131382e3530314c3133302e3138203135362e3931394c3133322e3960208201527f3838203136342e3630334c3133352e333238203136342e383336433133392e3860408201527f3635203136352e303531203134342e333933203136352e343339203134382e3960608201527f20313636563838483133332e3435365a222066696c6c3d22234232303731302260808201527f2f3e00000000000000000000000000000000000000000000000000000000000060a082015250565b6000611e5e60a2836103b0565b9150611e6982611d6a565b60a282019050919050565b7f3c7061746820643d224d313036203838563136364c3130382e3737332031363560008201527f2e3736374c3131332e363237203136352e3330314c3132312e3032322031363460208201527f2e3833364c3132312e323533203134382e333034563133312e3737334c31323260408201527f2e343039203133352e3033334c3132322e383731203133362e34334c3132342e60608201527f37322039382e303131394c3132342e3032372039362e313439334c3132312e3260808201527f35332038382e32333238563838483130365a222066696c6c3d2223423230373160a08201527f30222f3e0000000000000000000000000000000000000000000000000000000060c082015250565b6000611f8e60c4836103b0565b9150611f9982611e74565b60c482019050919050565b7f3c7061746820643d224d31303620383843313036203838203132312e3338382060008201527f3134332e343135203132312e333838203134322e343834563133312e3737334c60208201527f3132322e353534203133352e3033334c3133332e303436203136342e3630334c60408201527f3133352e333737203136342e383336433133392e383938203136352e3035203160608201527f34342e343039203136352e343338203134382e39203136364c3133332e35313260808201527f203131312e303531563132322e34364c3133322e313133203131382e3530314c60a08201527f3132342e3138362039362e313439334c3132312e3338382038382e323332384c60c08201527f3132312e313535203838483130365a222066696c6c3d2275726c28237061696e60e08201527f74345f6c696e6561725f325f3229222f3e00000000000000000000000000000061010082015250565b600061210c610111836103b0565b915061211782611fa4565b61011182019050919050565b7f3c7061746820643d224d3130362038384c3132312e333838203133312e37373360008201527f4c3132322e353534203133352e3033334c3133332e303436203136342e36303360208201527f4c3133352e333737203136342e383336433133392e383938203136352e30353160408201527f203134342e343039203136352e343339203134382e39203136364c3133332e3560608201527f3132203132322e34364c3133322e313133203131382e3530314c3132342e313860808201527f362039362e313439334c3132312e3338382038382e323332385638384831303660a08201527f5a222066696c6c3d2223453530393134222f3e0000000000000000000000000060c082015250565b600061223d60d3836103b0565b915061224882612123565b60d382019050919050565b7f3c646566733e0000000000000000000000000000000000000000000000000000600082015250565b60006122896006836103b0565b915061229482612253565b600682019050919050565b7f3c7061747465726e2069643d227061747465726e3022207061747465726e436f60008201527f6e74656e74556e6974733d226f626a656374426f756e64696e67426f7822207760208201527f696474683d223122206865696768743d2231223e000000000000000000000000604082015250565b60006123216054836103b0565b915061232c8261229f565b605482019050919050565b7f3c75736520786c696e6b3a687265663d2223696d616765305f325f322220747260008201527f616e73666f726d3d227472616e736c6174652830202d302e303033303438373860208201527f29207363616c6528302e3030323520302e303033333533363629222f3e000000604082015250565b60006123b9605d836103b0565b91506123c482612337565b605d82019050919050565b7f3c2f7061747465726e3e00000000000000000000000000000000000000000000600082015250565b6000612405600a836103b0565b9150612410826123cf565b600a82019050919050565b7f3c6c696e6561724772616469656e742069643d227061696e74305f6c696e656160008201527f725f325f32222078313d223330322e35222079313d22343630222078323d223160208201527f3333222079323d2234363022206772616469656e74556e6974733d227573657260408201527f53706163654f6e557365223e0000000000000000000000000000000000000000606082015250565b60006124c3606c836103b0565b91506124ce8261241b565b606c82019050919050565b7f3c73746f702073746f702d636f6c6f723d2223303046463437222f3e00000000600082015250565b600061250f601c836103b0565b915061251a826124d9565b601c82019050919050565b7f3c73746f70206f66667365743d2231222073746f702d636f6c6f723d2223303060008201527f46463537222073746f702d6f7061636974793d2230222f3e0000000000000000602082015250565b60006125816038836103b0565b915061258c82612525565b603882019050919050565b7f3c2f6c696e6561724772616469656e743e000000000000000000000000000000600082015250565b60006125cd6011836103b0565b91506125d882612597565b601182019050919050565b7f3c6c696e6561724772616469656e742069643d227061696e74315f6c696e656160008201527f725f325f32222078313d223237322e35222079313d22343630222078323d223860208201527f372e33333538222079323d2234363022206772616469656e74556e6974733d2260408201527f7573657253706163654f6e557365223e00000000000000000000000000000000606082015250565b600061268b6070836103b0565b9150612696826125e3565b607082019050919050565b7f3c73746f702073746f702d636f6c6f723d227768697465222f3e000000000000600082015250565b60006126d7601a836103b0565b91506126e2826126a1565b601a82019050919050565b7f3c6c696e6561724772616469656e742069643d227061696e74325f6c696e656160008201527f725f325f32222078313d22323830222079313d22343630222078323d2238382e60208201527f31373532222079323d2234363022206772616469656e74556e6974733d22757360408201527f657253706163654f6e557365223e000000000000000000000000000000000000606082015250565b6000612795606e836103b0565b91506127a0826126ed565b606e82019050919050565b7f3c6c696e6561724772616469656e742069643d227061696e74335f6c696e656160008201527f725f325f32222078313d223136392e373738222079313d22343630222078323d60208201527f2238382e31373532222079323d2234363022206772616469656e74556e69747360408201527f3d227573657253706163654f6e557365223e0000000000000000000000000000606082015250565b60006128536072836103b0565b915061285e826127ab565b607282019050919050565b7f3c73746f702073746f702d636f6c6f723d2223373030304646222f3e00000000600082015250565b600061289f601c836103b0565b91506128aa82612869565b601c82019050919050565b7f3c2f646566733e00000000000000000000000000000000000000000000000000600082015250565b60006128eb6007836103b0565b91506128f6826128b5565b600782019050919050565b7f3c2f7376673e0000000000000000000000000000000000000000000000000000600082015250565b60006129376006836103b0565b915061294282612901565b600682019050919050565b60006129588261047c565b9150612963826104c8565b915061296e82610514565b915061297a8288610537565b915061298582610591565b9150612990826105dd565b915061299b8261064f565b91506129a6826106e7565b91506129b18261077f565b91506129bc82610817565b91506129c88287610537565b91506129d382610863565b91506129de82611379565b91506129e9826113ed565b91506129f58286610537565b9150612a0082611439565b9150612a0c8285610537565b9150612a1782610863565b9150612a2282611543565b9150612a2d8261164d565b9150612a3882611757565b9150612a4382611861565b9150612a4e8261196b565b9150612a5982611a75565b9150612a6482611b7f565b9150612a6f82611c89565b9150612a7a82611b7f565b9150612a8582611cfb565b9150612a918284610537565b9150612a9c82611d47565b9150612aa782611e51565b9150612ab282611f81565b9150612abd826120fe565b9150612ac882612230565b9150612ad38261227c565b9150612ade82612314565b9150612ae9826123ac565b9150612af4826123f8565b9150612aff826124b6565b9150612b0a82612502565b9150612b1582612574565b9150612b20826125c0565b9150612b2b8261267e565b9150612b36826126ca565b9150612b4182612574565b9150612b4c826125c0565b9150612b5782612788565b9150612b62826126ca565b9150612b6d82612574565b9150612b78826125c0565b9150612b8382612846565b9150612b8e82612892565b9150612b9982612574565b9150612ba4826125c0565b9150612baf826128de565b9150612bba8261292a565b9150819050969550505050505056fea26469706673582212200cbe65a5c4d4d0c2c3c2372fac4eefc41dce425d490285426f6a96e83c2a6e9564736f6c634300080d0033",
  "devdoc": {
    "kind": "dev",
    "methods": {},
    "version": 1
  },
  "userdoc": {
    "kind": "user",
    "methods": {},
    "version": 1
  },
  "storageLayout": {
    "storage": [],
    "types": null
  }
}