{
  "address": "0xf221D1EA99E37666008BD42E6a6FDccD883E23Ba",
  "abi": [
    {
      "inputs": [
        {
          "internalType": "string",
          "name": "description",
          "type": "string"
        },
        {
          "internalType": "string",
          "name": "flowRate",
          "type": "string"
        },
        {
          "internalType": "string",
          "name": "timeFrame",
          "type": "string"
        },
        {
          "internalType": "string",
          "name": "senderBalance",
          "type": "string"
        },
        {
          "internalType": "string",
          "name": "daysLeft",
          "type": "string"
        },
        {
          "internalType": "string",
          "name": "logo",
          "type": "string"
        }
      ],
      "name": "generateSvg",
      "outputs": [
        {
          "internalType": "string",
          "name": "",
          "type": "string"
        }
      ],
      "stateMutability": "pure",
      "type": "function"
    }
  ],
  "transactionHash": "0x42196f5cb4ffd0ad697b0afc7c4551f8fb2ccf89a61921cf7d73e1b4c87f7b21",
  "args": [],
  "numDeployments": 2,
  "solcInputHash": "8563166316eb169bd2719cbef058a6e1",
  "bytecode": "0x6124e6610053600b82828239805160001a607314610046577f4e487b7100000000000000000000000000000000000000000000000000000000600052600060045260246000fd5b30600052607381538281f3fe73000000000000000000000000000000000000000030146080604052600436106100355760003560e01c8063746bb6e41461003a575b600080fd5b610054600480360381019061004f9190610202565b61006a565b60405161006191906103bf565b60405180910390f35b60606000878787868887604051602001610089969594939291906122ab565b6040516020818303038152906040529050809150509695505050505050565b6000604051905090565b600080fd5b600080fd5b600080fd5b600080fd5b6000601f19601f8301169050919050565b7f4e487b7100000000000000000000000000000000000000000000000000000000600052604160045260246000fd5b61010f826100c6565b810181811067ffffffffffffffff8211171561012e5761012d6100d7565b5b80604052505050565b60006101416100a8565b905061014d8282610106565b919050565b600067ffffffffffffffff82111561016d5761016c6100d7565b5b610176826100c6565b9050602081019050919050565b82818337600083830152505050565b60006101a56101a084610152565b610137565b9050828152602081018484840111156101c1576101c06100c1565b5b6101cc848285610183565b509392505050565b600082601f8301126101e9576101e86100bc565b5b81356101f9848260208601610192565b91505092915050565b60008060008060008060c0878903121561021f5761021e6100b2565b5b600087013567ffffffffffffffff81111561023d5761023c6100b7565b5b61024989828a016101d4565b965050602087013567ffffffffffffffff81111561026a576102696100b7565b5b61027689828a016101d4565b955050604087013567ffffffffffffffff811115610297576102966100b7565b5b6102a389828a016101d4565b945050606087013567ffffffffffffffff8111156102c4576102c36100b7565b5b6102d089828a016101d4565b935050608087013567ffffffffffffffff8111156102f1576102f06100b7565b5b6102fd89828a016101d4565b92505060a087013567ffffffffffffffff81111561031e5761031d6100b7565b5b61032a89828a016101d4565b9150509295509295509295565b600081519050919050565b600082825260208201905092915050565b60005b83811015610371578082015181840152602081019050610356565b83811115610380576000848401525b50505050565b600061039182610337565b61039b8185610342565b93506103ab818560208601610353565b6103b4816100c6565b840191505092915050565b600060208201905081810360008301526103d98184610386565b905092915050565b600081905092915050565b7f3c7376672077696474683d2235343022206865696768743d223534302220766960008201527f6577426f783d223020302035343020353430222066696c6c3d226e6f6e65222060208201527f786d6c6e733d22687474703a2f2f7777772e77332e6f72672f323030302f737660408201527f672220786d6c6e733a786c696e6b3d22687474703a2f2f7777772e77332e6f7260608201527f672f313939392f786c696e6b223e000000000000000000000000000000000000608082015250565b60006104ba608e836103e1565b91506104c5826103ec565b608e82019050919050565b7f3c673e0000000000000000000000000000000000000000000000000000000000600082015250565b60006105066003836103e1565b9150610511826104d0565b600382019050919050565b7f3c7469746c653e00000000000000000000000000000000000000000000000000600082015250565b60006105526007836103e1565b915061055d8261051c565b600782019050919050565b600061057382610337565b61057d81856103e1565b935061058d818560208601610353565b80840191505092915050565b7f3c2f7469746c653e000000000000000000000000000000000000000000000000600082015250565b60006105cf6008836103e1565b91506105da82610599565b600882019050919050565b7f3c2f673e00000000000000000000000000000000000000000000000000000000600082015250565b600061061b6004836103e1565b9150610626826105e5565b600482019050919050565b7f3c7061746820643d224d37332e393732372036382e383233354337332e39373260008201527f372036382e383233352038322e393732203130332e3631352038322e3937322060208201527f3130332e30335639362e333035354c38332e363533382039382e3335324c383960408201527f2e37383937203131362e3931374c39312e31353332203131372e30363343393360608201527f2e37393732203131372e3139382039362e34333533203131372e34343120393960808201527f2e30363137203131372e3739344c39302e303632342038332e3239353456393060a08201527f2e343538334c38392e323434322038372e393733324c38342e3630383220373360c08201527f2e393339384c38322e3937322036382e393639374c38322e383335362036382e60e08201527f383233354837332e393732375a222066696c6c3d2275726c28237061696e74306101008201527f5f6c696e6561725f35345f31303429222f3e000000000000000000000000000061012082015250565b60006107c0610132836103e1565b91506107cb82610631565b61013282019050919050565b7f3c7061746820643d224d37332e393732372036382e383233354c38322e39373260008201527f2039362e333035354c38332e363533382039382e3335324c38392e373839372060208201527f3131362e3931374c39312e31353332203131372e3036334339332e373937312060408201527f3131372e3139382039362e34333532203131372e3434322039392e303631372060608201527f3131372e3739344c39302e303632342039302e343538334c38392e323434322060808201527f38372e393733324c38342e363038322037332e393339384c38322e393732203660a08201527f382e393639375636382e383233354837332e393732375a222066696c6c3d222360c08201527f453530393134222f3e000000000000000000000000000000000000000000000060e082015250565b600061091760e9836103e1565b9150610922826107d7565b60e982019050919050565b7f3c726563742077696474683d2235343022206865696768743d2235343022207260008201527f783d223430222066696c6c3d22626c61636b222f3e0000000000000000000000602082015250565b60006109896035836103e1565b91506109948261092d565b603582019050919050565b7f3c726563742077696474683d2235343022206865696768743d2235343022207260008201527f783d223430222066696c6c3d2275726c28237061696e74315f6c696e6561725f60208201527f35345f31303429222066696c6c2d6f7061636974793d22302e37222f3e000000604082015250565b6000610a21605d836103e1565b9150610a2c8261099f565b605d82019050919050565b7f3c7465787420666f6e742d66616d696c793d2253462050726f20446973706c6160008201527f792220783d2233312220793d22343038222066696c6c3d22776869746522206660208201527f6f6e742d73697a653d223536223e240000000000000000000000000000000000604082015250565b6000610ab9604f836103e1565b9150610ac482610a37565b604f82019050919050565b7f202f200000000000000000000000000000000000000000000000000000000000600082015250565b6000610b056003836103e1565b9150610b1082610acf565b600382019050919050565b7f3c2f746578743e00000000000000000000000000000000000000000000000000600082015250565b6000610b516007836103e1565b9150610b5c82610b1b565b600782019050919050565b7f3c7061746820643d224d333420343934433334203438372e3337332033392e3360008201527f373236203438322034362034383248343933433439392e36323720343832203560208201527f3035203438372e33373320353035203439345634393443353035203530302e3660408201527f3237203439392e3632372035303620343933203530364834364333392e33373260608201527f3620353036203334203530302e36323720333420343934563439345a2220666960808201527f6c6c3d2223334433443344222f3e00000000000000000000000000000000000060a082015250565b6000610c5b60ae836103e1565b9150610c6682610b67565b60ae82019050919050565b7f3c7061746820643d224d333420343934433334203438372e3337332033392e3360008201527f373236203438322034362034383248313435433135312e36323720343832203160208201527f3537203438372e33373320313537203439345634393443313537203530302e3660408201527f3237203135312e3632372035303620313435203530364834364333392e33373260608201527f3620353036203334203530302e36323720333420343934563439345a2220666960808201527f6c6c3d2275726c28237061696e74325f6c696e6561725f35345f31303429222f60a08201527f3e0000000000000000000000000000000000000000000000000000000000000060c082015250565b6000610d8b60c1836103e1565b9150610d9682610c71565b60c182019050919050565b7f3c7061746820643d224d333420343934433334203438372e3337332033392e3360008201527f373236203438322034362034383248313435433135312e36323720343832203160208201527f3537203438372e33373320313537203439345634393443313537203530302e3660408201527f3237203135312e3632372035303620313435203530364834364333392e33373260608201527f3620353036203334203530302e36323720333420343934563439345a2220666960808201527f6c6c3d2223464630304337222066696c6c2d6f7061636974793d22302e34222f60a08201527f3e0000000000000000000000000000000000000000000000000000000000000060c082015250565b6000610ebb60c1836103e1565b9150610ec682610da1565b60c182019050919050565b7f3c7465787420666f6e742d66616d696c793d2253462050726f20446973706c6160008201527f792220783d2233342220793d22343530222066696c6c3d22776869746522206660208201527f6f6e742d73697a653d223332223e000000000000000000000000000000000000604082015250565b6000610f53604e836103e1565b9150610f5e82610ed1565b604e82019050919050565b7f2064617973206c6566743c2f746578743e000000000000000000000000000000600082015250565b6000610f9f6011836103e1565b9150610faa82610f69565b601182019050919050565b7f3c7465787420666f6e742d66616d696c793d2253462050726f20446973706c6160008201527f792220746578742d616e63686f723d22656e642220783d223531302220793d2260208201527f313036222066696c6c3d2277686974652220666f6e742d73697a653d2238302260408201527f3e24200000000000000000000000000000000000000000000000000000000000606082015250565b600061105d6063836103e1565b915061106882610fb5565b606382019050919050565b7f3c7061746820643d224d3431362e363438203134382e343639433432322e383760008201527f39203134382e343639203432372e353437203134342e363939203432382e343260208201527f36203133392e3039344c3432382e343435203133382e383938483432342e313060408201527f394c3432342e303531203133392e303734433432322e393936203134322e363460608201527f38203432302e333938203134342e363032203431362e363438203134342e363060808201527f32433431312e343334203134342e363032203430382e303535203134302e343260a08201527f32203430382e303535203133332e383938563133332e383739433430382e303560c08201527f35203132372e333535203431312e343134203132332e323135203431362e363460e08201527f38203132332e323135433432302e343338203132332e323135203432332e30356101008201527f35203132352e323237203432332e393932203132382e3532374c3432342e31306101208201527f39203132382e393138483432382e3434354c3432382e343036203132382e37346101408201527f32433432372e353237203132332e313736203432322e383539203131392e33346101608201527f38203431362e363438203131392e333438433430382e3636203131392e3334386101808201527f203430332e353832203132342e393334203430332e353832203133332e3837396101a08201527f563133332e383938433430332e353832203134322e383434203430382e3636206101c08201527f3134382e343639203431362e363438203134382e3436395a4d3433312e3530326101e08201527f20313438483433352e373231563133352e373534433433352e373231203133326102008201527f2e363838203433372e343031203133302e3931203434302e313136203133302e6102208201527f3931433434302e393336203133302e3931203434312e363738203133312e30306102408201527f38203434322e3031203133312e313435563132372e323139433434312e3637386102608201527f203132372e3136203434312e313531203132372e303632203434302e353435206102808201527f3132372e303632433433382e323032203132372e303632203433362e343833206102a08201527f3132382e353636203433352e383139203133302e393639483433352e373231566102c08201527f3132372e343533483433312e353032563134385a4d3435322e303938203134386102e08201527f2e3431433435372e303739203134382e3431203436302e323433203134352e346103008201527f3431203436302e393037203134322e31384c3436302e393436203134312e39366103208201527f35483435362e3934324c3435362e383834203134322e313231433435362e33356103408201527f36203134332e363634203435342e363936203134342e393533203435322e31396103608201527f36203134342e393533433434382e383337203134342e393533203434362e37306103808201527f38203134322e363838203434362e3633203133382e383031483436312e3138566103a08201527f3133372e333735433436312e3138203133312e323033203435372e36343520316103c08201527f32372e303632203435312e383834203132372e303632433434362e31323220316103e08201527f32372e303632203434322e343131203133312e333539203434322e34313120316104008201527f33372e373835563133372e383035433434322e343131203134342e32383920346104208201527f34362e303633203134382e3431203435322e303938203134382e34315a4d34356104408201527f312e393033203133302e3532433435342e363537203133302e3532203435362e6104608201527f363439203133322e323538203435372e303031203133352e383132483434362e6104808201527f363838433434372e303539203133322e333735203434392e313639203133302e6104a08201527f3532203435312e393033203133302e35325a4d3437312e373337203134382e346104c08201527f31433437342e363837203134382e3431203437362e393532203134362e3932366104e08201527f203437382e313833203134342e353233483437382e32363156313438483438326105008201527f2e343939563131392e383136483437382e323631563133302e393439483437386105208201527f2e313833433437362e393532203132382e353237203437342e363039203132376105408201527f2e303632203437312e363938203132372e303632433436362e353432203132376105608201527f2e303632203436332e313434203133312e313634203436332e313434203133376105808201527f2e373037563133372e373237433436332e313434203134342e3237203436362e6105a08201527f353033203134382e3431203437312e373337203134382e34315a4d3437322e386105c08201527f3531203134342e373737433436392e353131203134342e373737203436372e346105e08201527f36203134322e313032203436372e3436203133372e373237563133372e3730376106008201527f433436372e3436203133332e333731203436392e3533203133302e36373620346106208201527f37322e383531203133302e363736433437362e303135203133302e36373620346106408201527f37382e3238203133332e343439203437382e3238203133372e373037563133376106608201527f2e373237433437382e3238203134322e303034203437362e303334203134342e6106808201527f373737203437322e383531203134342e3737375a4d3438382e3732203132342e6106a08201527f323839433439302e313037203132342e323839203439312e313831203132332e6106c08201527f313935203439312e313831203132312e383637433439312e313831203132302e6106e08201527f3532203439302e313037203131392e343236203438382e3732203131392e34326107008201527f36433438372e333533203131392e343236203438362e323539203132302e35326107208201527f203438362e323539203132312e383637433438362e323539203132332e3139356107408201527f203438372e333533203132342e323839203438382e3732203132342e3238395a6107608201527f4d3438362e36313120313438483439302e3833563132372e343533483438362e6107808201527f363131563134385a4d3530312e393932203134382e3431433530322e383532206107a08201527f3134382e3431203530332e363532203134382e333132203530342e31343120316107c08201527f34382e323334563134342e393733433530332e383238203134352e30313220356107e08201527f30332e343537203134352e303531203530332e303038203134352e30353143356108008201527f30312e3233203134352e303531203530302e323933203134342e3432362035306108208201527f302e323933203134322e333336563133302e383132483530342e3134315631326108408201527f372e343533483530302e323933563132322e313032483439352e3937375631326108608201527f372e343533483439332e303237563133302e383132483439352e3937375631346108808201527f322e3539433439352e393737203134362e363931203439372e3933203134382e6108a08201527f3431203530312e393932203134382e34315a222066696c6c3d227768697465226108c08201527f2f3e0000000000000000000000000000000000000000000000000000000000006108e082015250565b6000611b746108e2836103e1565b9150611b7f82611073565b6108e282019050919050565b7f3c696d61676520783d2233342220793d2233342220687265663d220000000000600082015250565b6000611bc1601b836103e1565b9150611bcc82611b8b565b601b82019050919050565b7f222f3e0000000000000000000000000000000000000000000000000000000000600082015250565b6000611c0d6003836103e1565b9150611c1882611bd7565b600382019050919050565b7f3c646566733e0000000000000000000000000000000000000000000000000000600082015250565b6000611c596006836103e1565b9150611c6482611c23565b600682019050919050565b7f3c7374796c6520747970653d22746578742f637373223e40696d706f7274207560008201527f726c282268747470733a2f2f666f6e74732e63646e666f6e74732e636f6d2f6360208201527f73732f73662d70726f2d646973706c617922293b3c2f7374796c653e00000000604082015250565b6000611cf1605c836103e1565b9150611cfc82611c6f565b605c82019050919050565b7f3c6c696e6561724772616469656e742069643d227061696e74305f6c696e656160008201527f725f35345f313034222078313d2238302e35313736222079313d2239352e343260208201527f3834222078323d2239322e36383133222079323d2239312e353630352220677260408201527f616469656e74556e6974733d227573657253706163654f6e557365223e000000606082015250565b6000611daf607d836103e1565b9150611dba82611d07565b607d82019050919050565b7f3c73746f702073746f702d636f6c6f723d2223423230373130222f3e00000000600082015250565b6000611dfb601c836103e1565b9150611e0682611dc5565b601c82019050919050565b7f3c73746f70206f66667365743d22302e35222f3e000000000000000000000000600082015250565b6000611e476014836103e1565b9150611e5282611e11565b601482019050919050565b7f3c73746f70206f66667365743d2231222073746f702d636f6c6f723d2223423260008201527f30373130222f3e00000000000000000000000000000000000000000000000000602082015250565b6000611eb96027836103e1565b9150611ec482611e5d565b602782019050919050565b7f3c2f6c696e6561724772616469656e743e000000000000000000000000000000600082015250565b6000611f056011836103e1565b9150611f1082611ecf565b601182019050919050565b7f3c6c696e6561724772616469656e742069643d227061696e74315f6c696e656160008201527f725f35345f313034222078313d22353430222079313d222d332e39393239356560208201527f2d3035222078323d222d3130372e373332222079323d223636302e393836222060408201527f6772616469656e74556e6974733d227573657253706163654f6e557365223e00606082015250565b6000611fc3607f836103e1565b9150611fce82611f1b565b607f82019050919050565b7f3c73746f702073746f702d636f6c6f723d2223334137414638222f3e00000000600082015250565b600061200f601c836103e1565b915061201a82611fd9565b601c82019050919050565b7f3c73746f70206f66667365743d2231222073746f702d6f7061636974793d223060008201527f222f3e0000000000000000000000000000000000000000000000000000000000602082015250565b60006120816023836103e1565b915061208c82612025565b602382019050919050565b7f3c6c696e6561724772616469656e742069643d227061696e74325f6c696e656160008201527f725f35345f313034222078313d223132342e333532222079313d22343934222060208201527f78323d2235342e36343936222079323d2234393422206772616469656e74556e60408201527f6974733d227573657253706163654f6e557365223e0000000000000000000000606082015250565b600061213f6075836103e1565b915061214a82612097565b607582019050919050565b7f3c73746f702073746f702d636f6c6f723d2223373030304646222f3e00000000600082015250565b600061218b601c836103e1565b915061219682612155565b601c82019050919050565b7f3c73746f70206f66667365743d2231222073746f702d636f6c6f723d2223303060008201527f46463537222073746f702d6f7061636974793d2230222f3e0000000000000000602082015250565b60006121fd6038836103e1565b9150612208826121a1565b603882019050919050565b7f3c2f646566733e00000000000000000000000000000000000000000000000000600082015250565b60006122496007836103e1565b915061225482612213565b600782019050919050565b7f3c2f7376673e0000000000000000000000000000000000000000000000000000600082015250565b60006122956006836103e1565b91506122a08261225f565b600682019050919050565b60006122b6826104ad565b91506122c1826104f9565b91506122cc82610545565b91506122d88289610568565b91506122e3826105c2565b91506122ee8261060e565b91506122f9826107b2565b91506123048261090a565b915061230f8261097c565b915061231a82610a14565b915061232582610aac565b91506123318288610568565b915061233c82610af8565b91506123488287610568565b915061235382610b44565b915061235e82610c4e565b915061236982610d7e565b915061237482610eae565b915061237f82610f46565b915061238b8286610568565b915061239682610f92565b91506123a182611050565b91506123ad8285610568565b91506123b882610b44565b91506123c382611b66565b91506123ce82611bb4565b91506123da8284610568565b91506123e582611c00565b91506123f082611c4c565b91506123fb82611ce4565b915061240682611da2565b915061241182611dee565b915061241c82611e3a565b915061242782611eac565b915061243282611ef8565b915061243d82611fb6565b915061244882612002565b915061245382612074565b915061245e82611ef8565b915061246982612132565b91506124748261217e565b915061247f826121f0565b915061248a82611ef8565b91506124958261223c565b91506124a082612288565b915081905097965050505050505056fea26469706673582212207a76097c01a55829976a7bf108812e137caa20c074aaa21758de155ba3c0597664736f6c634300080d0033",
  "devdoc": {
    "kind": "dev",
    "methods": {},
    "version": 1
  },
  "userdoc": {
    "kind": "user",
    "methods": {},
    "version": 1
  },
  "storageLayout": {
    "storage": [],
    "types": null
  }
}