{
  "address": "0xCfeEbda9Cb2E2B641410196119C6e5794C7c3917",
  "abi": [
    {
      "inputs": [],
      "stateMutability": "nonpayable",
      "type": "constructor"
    },
    {
      "inputs": [],
      "name": "ApprovalCallerNotOwnerNorApproved",
      "type": "error"
    },
    {
      "inputs": [],
      "name": "ApprovalQueryForNonexistentToken",
      "type": "error"
    },
    {
      "inputs": [],
      "name": "ApprovalToCurrentOwner",
      "type": "error"
    },
    {
      "inputs": [],
      "name": "ApproveToCaller",
      "type": "error"
    },
    {
      "inputs": [],
      "name": "BalanceQueryForZeroAddress",
      "type": "error"
    },
    {
      "inputs": [],
      "name": "MintToZeroAddress",
      "type": "error"
    },
    {
      "inputs": [],
      "name": "MintZeroQuantity",
      "type": "error"
    },
    {
      "inputs": [],
      "name": "OwnerQueryForNonexistentToken",
      "type": "error"
    },
    {
      "inputs": [],
      "name": "TransferCallerNotOwnerNorApproved",
      "type": "error"
    },
    {
      "inputs": [],
      "name": "TransferFromIncorrectOwner",
      "type": "error"
    },
    {
      "inputs": [],
      "name": "TransferToNonERC721ReceiverImplementer",
      "type": "error"
    },
    {
      "inputs": [],
      "name": "TransferToZeroAddress",
      "type": "error"
    },
    {
      "anonymous": false,
      "inputs": [
        {
          "indexed": true,
          "internalType": "address",
          "name": "owner",
          "type": "address"
        },
        {
          "indexed": true,
          "internalType": "address",
          "name": "approved",
          "type": "address"
        },
        {
          "indexed": true,
          "internalType": "uint256",
          "name": "tokenId",
          "type": "uint256"
        }
      ],
      "name": "Approval",
      "type": "event"
    },
    {
      "anonymous": false,
      "inputs": [
        {
          "indexed": true,
          "internalType": "address",
          "name": "owner",
          "type": "address"
        },
        {
          "indexed": true,
          "internalType": "address",
          "name": "operator",
          "type": "address"
        },
        {
          "indexed": false,
          "internalType": "bool",
          "name": "approved",
          "type": "bool"
        }
      ],
      "name": "ApprovalForAll",
      "type": "event"
    },
    {
      "anonymous": false,
      "inputs": [
        {
          "indexed": true,
          "internalType": "address",
          "name": "from",
          "type": "address"
        },
        {
          "indexed": true,
          "internalType": "address",
          "name": "to",
          "type": "address"
        },
        {
          "indexed": true,
          "internalType": "uint256",
          "name": "tokenId",
          "type": "uint256"
        }
      ],
      "name": "Transfer",
      "type": "event"
    },
    {
      "inputs": [
        {
          "internalType": "address",
          "name": "to",
          "type": "address"
        },
        {
          "internalType": "uint256",
          "name": "tokenId",
          "type": "uint256"
        }
      ],
      "name": "approve",
      "outputs": [],
      "stateMutability": "nonpayable",
      "type": "function"
    },
    {
      "inputs": [
        {
          "internalType": "address",
          "name": "owner",
          "type": "address"
        }
      ],
      "name": "balanceOf",
      "outputs": [
        {
          "internalType": "uint256",
          "name": "",
          "type": "uint256"
        }
      ],
      "stateMutability": "view",
      "type": "function"
    },
    {
      "inputs": [
        {
          "internalType": "uint256",
          "name": "tokenId",
          "type": "uint256"
        },
        {
          "internalType": "uint256",
          "name": "flowRate",
          "type": "uint256"
        },
        {
          "internalType": "string",
          "name": "description",
          "type": "string"
        },
        {
          "internalType": "int256",
          "name": "senderBalance",
          "type": "int256"
        }
      ],
      "name": "generateSvg",
      "outputs": [
        {
          "internalType": "string",
          "name": "",
          "type": "string"
        }
      ],
      "stateMutability": "pure",
      "type": "function"
    },
    {
      "inputs": [
        {
          "internalType": "uint256",
          "name": "tokenId",
          "type": "uint256"
        }
      ],
      "name": "getApproved",
      "outputs": [
        {
          "internalType": "address",
          "name": "",
          "type": "address"
        }
      ],
      "stateMutability": "view",
      "type": "function"
    },
    {
      "inputs": [
        {
          "internalType": "address",
          "name": "owner",
          "type": "address"
        },
        {
          "internalType": "address",
          "name": "operator",
          "type": "address"
        }
      ],
      "name": "isApprovedForAll",
      "outputs": [
        {
          "internalType": "bool",
          "name": "",
          "type": "bool"
        }
      ],
      "stateMutability": "view",
      "type": "function"
    },
    {
      "inputs": [
        {
          "internalType": "address",
          "name": "sender",
          "type": "address"
        },
        {
          "internalType": "address",
          "name": "recipient",
          "type": "address"
        },
        {
          "internalType": "string",
          "name": "description",
          "type": "string"
        },
        {
          "internalType": "string",
          "name": "subscriptionType",
          "type": "string"
        },
        {
          "internalType": "uint256",
          "name": "flowRate",
          "type": "uint256"
        },
        {
          "internalType": "contract ISuperfluidToken",
          "name": "token",
          "type": "address"
        }
      ],
      "name": "mint",
      "outputs": [],
      "stateMutability": "payable",
      "type": "function"
    },
    {
      "inputs": [],
      "name": "name",
      "outputs": [
        {
          "internalType": "string",
          "name": "",
          "type": "string"
        }
      ],
      "stateMutability": "view",
      "type": "function"
    },
    {
      "inputs": [
        {
          "internalType": "uint256",
          "name": "tokenId",
          "type": "uint256"
        }
      ],
      "name": "ownerOf",
      "outputs": [
        {
          "internalType": "address",
          "name": "",
          "type": "address"
        }
      ],
      "stateMutability": "view",
      "type": "function"
    },
    {
      "inputs": [
        {
          "internalType": "address",
          "name": "from",
          "type": "address"
        },
        {
          "internalType": "address",
          "name": "to",
          "type": "address"
        },
        {
          "internalType": "uint256",
          "name": "tokenId",
          "type": "uint256"
        }
      ],
      "name": "safeTransferFrom",
      "outputs": [],
      "stateMutability": "nonpayable",
      "type": "function"
    },
    {
      "inputs": [
        {
          "internalType": "address",
          "name": "from",
          "type": "address"
        },
        {
          "internalType": "address",
          "name": "to",
          "type": "address"
        },
        {
          "internalType": "uint256",
          "name": "tokenId",
          "type": "uint256"
        },
        {
          "internalType": "bytes",
          "name": "_data",
          "type": "bytes"
        }
      ],
      "name": "safeTransferFrom",
      "outputs": [],
      "stateMutability": "nonpayable",
      "type": "function"
    },
    {
      "inputs": [
        {
          "internalType": "address",
          "name": "operator",
          "type": "address"
        },
        {
          "internalType": "bool",
          "name": "approved",
          "type": "bool"
        }
      ],
      "name": "setApprovalForAll",
      "outputs": [],
      "stateMutability": "nonpayable",
      "type": "function"
    },
    {
      "inputs": [
        {
          "internalType": "bytes4",
          "name": "interfaceId",
          "type": "bytes4"
        }
      ],
      "name": "supportsInterface",
      "outputs": [
        {
          "internalType": "bool",
          "name": "",
          "type": "bool"
        }
      ],
      "stateMutability": "view",
      "type": "function"
    },
    {
      "inputs": [],
      "name": "symbol",
      "outputs": [
        {
          "internalType": "string",
          "name": "",
          "type": "string"
        }
      ],
      "stateMutability": "view",
      "type": "function"
    },
    {
      "inputs": [
        {
          "internalType": "uint256",
          "name": "tokenId",
          "type": "uint256"
        }
      ],
      "name": "tokenURI",
      "outputs": [
        {
          "internalType": "string",
          "name": "",
          "type": "string"
        }
      ],
      "stateMutability": "view",
      "type": "function"
    },
    {
      "inputs": [],
      "name": "totalSupply",
      "outputs": [
        {
          "internalType": "uint256",
          "name": "",
          "type": "uint256"
        }
      ],
      "stateMutability": "view",
      "type": "function"
    },
    {
      "inputs": [
        {
          "internalType": "address",
          "name": "from",
          "type": "address"
        },
        {
          "internalType": "address",
          "name": "to",
          "type": "address"
        },
        {
          "internalType": "uint256",
          "name": "tokenId",
          "type": "uint256"
        }
      ],
      "name": "transferFrom",
      "outputs": [],
      "stateMutability": "nonpayable",
      "type": "function"
    }
  ],
  "transactionHash": "0x20d5eb5315b77b0b3cd9a5c2d7e865f19b47f73f8eae46f45a41cbc46f512074",
  "args": [],
  "numDeployments": 6,
  "solcInputHash": "bb87335f427146ff6ce85ca5e10ad8b9",
  "bytecode": "0x60806040523480156200001157600080fd5b506040518060400160405280601181526020017f41677265656d656e74506f736974696f6e0000000000000000000000000000008152506040518060400160405280600381526020017f4147500000000000000000000000000000000000000000000000000000000000815250816002908051906020019062000096929190620000d3565b508060039080519060200190620000af929190620000d3565b50620000c0620000ce60201b60201c565b6000819055505050620001e7565b600090565b828054620000e190620001b2565b90600052602060002090601f01602090048101928262000105576000855562000151565b82601f106200012057805160ff191683800117855562000151565b8280016001018555821562000151579182015b828111156200015057825182559160200191906001019062000133565b5b50905062000160919062000164565b5090565b5b808211156200017f57600081600090555060010162000165565b5090565b7f4e487b7100000000000000000000000000000000000000000000000000000000600052602260045260246000fd5b60006002820490506001821680620001cb57607f821691505b602082108103620001e157620001e062000183565b5b50919050565b613b9380620001f76000396000f3fe6080604052600436106100f35760003560e01c806347c94cb81161008a578063a22cb46511610059578063a22cb46514610341578063b88d4fde1461036a578063c87b56dd14610393578063e985e9c5146103d0576100f3565b806347c94cb8146102805780636352211e1461029c57806370a08231146102d957806395d89b4114610316576100f3565b806318160ddd116100c657806318160ddd146101c657806323b872dd146101f15780633743b6121461021a57806342842e0e14610257576100f3565b806301ffc9a7146100f857806306fdde0314610135578063081812fc14610160578063095ea7b31461019d575b600080fd5b34801561010457600080fd5b5061011f600480360381019061011a9190612438565b61040d565b60405161012c9190612480565b60405180910390f35b34801561014157600080fd5b5061014a6104ef565b6040516101579190612534565b60405180910390f35b34801561016c57600080fd5b506101876004803603810190610182919061258c565b610581565b60405161019491906125fa565b60405180910390f35b3480156101a957600080fd5b506101c460048036038101906101bf9190612641565b6105fd565b005b3480156101d257600080fd5b506101db610707565b6040516101e89190612690565b60405180910390f35b3480156101fd57600080fd5b50610218600480360381019061021391906126ab565b61071e565b005b34801561022657600080fd5b50610241600480360381019061023c9190612869565b61072e565b60405161024e9190612534565b60405180910390f35b34801561026357600080fd5b5061027e600480360381019061027991906126ab565b61077e565b005b61029a6004803603810190610295919061292a565b61079e565b005b3480156102a857600080fd5b506102c360048036038101906102be919061258c565b610996565b6040516102d091906125fa565b60405180910390f35b3480156102e557600080fd5b5061030060048036038101906102fb91906129ef565b6109ac565b60405161030d9190612690565b60405180910390f35b34801561032257600080fd5b5061032b610a7b565b6040516103389190612534565b60405180910390f35b34801561034d57600080fd5b5061036860048036038101906103639190612a48565b610b0d565b005b34801561037657600080fd5b50610391600480360381019061038c9190612b29565b610c84565b005b34801561039f57600080fd5b506103ba60048036038101906103b5919061258c565b610d00565b6040516103c79190612534565b60405180910390f35b3480156103dc57600080fd5b506103f760048036038101906103f29190612bac565b6110e5565b6040516104049190612480565b60405180910390f35b60007f80ac58cd000000000000000000000000000000000000000000000000000000007bffffffffffffffffffffffffffffffffffffffffffffffffffffffff1916827bffffffffffffffffffffffffffffffffffffffffffffffffffffffff191614806104d857507f5b5e139f000000000000000000000000000000000000000000000000000000007bffffffffffffffffffffffffffffffffffffffffffffffffffffffff1916827bffffffffffffffffffffffffffffffffffffffffffffffffffffffff1916145b806104e857506104e782611179565b5b9050919050565b6060600280546104fe90612c1b565b80601f016020809104026020016040519081016040528092919081815260200182805461052a90612c1b565b80156105775780601f1061054c57610100808354040283529160200191610577565b820191906000526020600020905b81548152906001019060200180831161055a57829003601f168201915b5050505050905090565b600061058c826111e3565b6105c2576040517fcf4700e400000000000000000000000000000000000000000000000000000000815260040160405180910390fd5b6006600083815260200190815260200160002060009054906101000a900473ffffffffffffffffffffffffffffffffffffffff169050919050565b600061060882610996565b90508073ffffffffffffffffffffffffffffffffffffffff168373ffffffffffffffffffffffffffffffffffffffff160361066f576040517f943f7b8c00000000000000000000000000000000000000000000000000000000815260040160405180910390fd5b8073ffffffffffffffffffffffffffffffffffffffff1661068e611231565b73ffffffffffffffffffffffffffffffffffffffff16141580156106c057506106be816106b9611231565b6110e5565b155b156106f7576040517fcfb3b94200000000000000000000000000000000000000000000000000000000815260040160405180910390fd5b610702838383611239565b505050565b60006107116112eb565b6001546000540303905090565b6107298383836112f0565b505050565b6060600061073b866117a4565b610744846117a4565b61074d876117a4565b866040516020016107619493929190613064565b604051602081830303815290604052905080915050949350505050565b61079983838360405180602001604052806000815250610c84565b505050565b60006107a8610707565b90506107b533600161192c565b6040518061010001604052808373ffffffffffffffffffffffffffffffffffffffff1681526020018773ffffffffffffffffffffffffffffffffffffffff1681526020018873ffffffffffffffffffffffffffffffffffffffff168152602001868152602001858152602001848152602001428152602001600115158152506008600083815260200190815260200160002060008201518160000160006101000a81548173ffffffffffffffffffffffffffffffffffffffff021916908373ffffffffffffffffffffffffffffffffffffffff16021790555060208201518160010160006101000a81548173ffffffffffffffffffffffffffffffffffffffff021916908373ffffffffffffffffffffffffffffffffffffffff16021790555060408201518160020160006101000a81548173ffffffffffffffffffffffffffffffffffffffff021916908373ffffffffffffffffffffffffffffffffffffffff16021790555060608201518160030190805190602001906109389291906122e6565b5060808201518160040190805190602001906109559291906122e6565b5060a0820151816005015560c0820151816006015560e08201518160070160006101000a81548160ff02191690831515021790555090505050505050505050565b60006109a18261194a565b600001519050919050565b60008073ffffffffffffffffffffffffffffffffffffffff168273ffffffffffffffffffffffffffffffffffffffff1603610a13576040517f8f4eb60400000000000000000000000000000000000000000000000000000000815260040160405180910390fd5b600560008373ffffffffffffffffffffffffffffffffffffffff1673ffffffffffffffffffffffffffffffffffffffff16815260200190815260200160002060000160009054906101000a900467ffffffffffffffff1667ffffffffffffffff169050919050565b606060038054610a8a90612c1b565b80601f0160208091040260200160405190810160405280929190818152602001828054610ab690612c1b565b8015610b035780601f10610ad857610100808354040283529160200191610b03565b820191906000526020600020905b815481529060010190602001808311610ae657829003601f168201915b5050505050905090565b610b15611231565b73ffffffffffffffffffffffffffffffffffffffff168273ffffffffffffffffffffffffffffffffffffffff1603610b79576040517fb06307db00000000000000000000000000000000000000000000000000000000815260040160405180910390fd5b8060076000610b86611231565b73ffffffffffffffffffffffffffffffffffffffff1673ffffffffffffffffffffffffffffffffffffffff16815260200190815260200160002060008473ffffffffffffffffffffffffffffffffffffffff1673ffffffffffffffffffffffffffffffffffffffff16815260200190815260200160002060006101000a81548160ff0219169083151502179055508173ffffffffffffffffffffffffffffffffffffffff16610c33611231565b73ffffffffffffffffffffffffffffffffffffffff167f17307eab39ab6107e8899845ad3d59bd9653f200f220920489ca2b5937696c3183604051610c789190612480565b60405180910390a35050565b610c8f8484846112f0565b610cae8373ffffffffffffffffffffffffffffffffffffffff16611bd9565b8015610cc35750610cc184848484611bfc565b155b15610cfa576040517fd1a57ed600000000000000000000000000000000000000000000000000000000815260040160405180910390fd5b50505050565b6060610d0b826111e3565b610d4a576040517f08c379a0000000000000000000000000000000000000000000000000000000008152600401610d4190613198565b60405180910390fd5b600060086000848152602001908152602001600020604051806101000160405290816000820160009054906101000a900473ffffffffffffffffffffffffffffffffffffffff1673ffffffffffffffffffffffffffffffffffffffff1673ffffffffffffffffffffffffffffffffffffffff1681526020016001820160009054906101000a900473ffffffffffffffffffffffffffffffffffffffff1673ffffffffffffffffffffffffffffffffffffffff1673ffffffffffffffffffffffffffffffffffffffff1681526020016002820160009054906101000a900473ffffffffffffffffffffffffffffffffffffffff1673ffffffffffffffffffffffffffffffffffffffff1673ffffffffffffffffffffffffffffffffffffffff168152602001600382018054610e7d90612c1b565b80601f0160208091040260200160405190810160405280929190818152602001828054610ea990612c1b565b8015610ef65780601f10610ecb57610100808354040283529160200191610ef6565b820191906000526020600020905b815481529060010190602001808311610ed957829003601f168201915b50505050508152602001600482018054610f0f90612c1b565b80601f0160208091040260200160405190810160405280929190818152602001828054610f3b90612c1b565b8015610f885780601f10610f5d57610100808354040283529160200191610f88565b820191906000526020600020905b815481529060010190602001808311610f6b57829003601f168201915b5050505050815260200160058201548152602001600682015481526020016007820160009054906101000a900460ff16151515158152505090506000816000015173ffffffffffffffffffffffffffffffffffffffff16632ec8eec783604001516040518263ffffffff1660e01b815260040161100591906125fa565b608060405180830381865afa158015611022573d6000803e3d6000fd5b505050506040513d601f19601f8201168201806040525081019061104691906131e2565b50505090506000611069611064868560a0015186606001518661072e565b611d4c565b9050600061107f8460a001518560600151611ec4565b90506110bb61108d876117a4565b856060015184846040516020016110a79493929190613483565b604051602081830303815290604052611d4c565b6040516020016110cb9190613570565b604051602081830303815290604052945050505050919050565b6000600760008473ffffffffffffffffffffffffffffffffffffffff1673ffffffffffffffffffffffffffffffffffffffff16815260200190815260200160002060008373ffffffffffffffffffffffffffffffffffffffff1673ffffffffffffffffffffffffffffffffffffffff16815260200190815260200160002060009054906101000a900460ff16905092915050565b60007f01ffc9a7000000000000000000000000000000000000000000000000000000007bffffffffffffffffffffffffffffffffffffffffffffffffffffffff1916827bffffffffffffffffffffffffffffffffffffffffffffffffffffffff1916149050919050565b6000816111ee6112eb565b111580156111fd575060005482105b801561122a575060046000838152602001908152602001600020600001601c9054906101000a900460ff16155b9050919050565b600033905090565b826006600084815260200190815260200160002060006101000a81548173ffffffffffffffffffffffffffffffffffffffff021916908373ffffffffffffffffffffffffffffffffffffffff160217905550818373ffffffffffffffffffffffffffffffffffffffff168273ffffffffffffffffffffffffffffffffffffffff167f8c5be1e5ebec7d5bd14f71427d1e84f3dd0314c0f7b2291e5b200ac8c7c3b92560405160405180910390a4505050565b600090565b60006112fb8261194a565b90508373ffffffffffffffffffffffffffffffffffffffff16816000015173ffffffffffffffffffffffffffffffffffffffff1614611366576040517fa114810000000000000000000000000000000000000000000000000000000000815260040160405180910390fd5b60008473ffffffffffffffffffffffffffffffffffffffff16611387611231565b73ffffffffffffffffffffffffffffffffffffffff1614806113b657506113b5856113b0611231565b6110e5565b5b806113fb57506113c4611231565b73ffffffffffffffffffffffffffffffffffffffff166113e384610581565b73ffffffffffffffffffffffffffffffffffffffff16145b905080611434576040517f59c896be00000000000000000000000000000000000000000000000000000000815260040160405180910390fd5b600073ffffffffffffffffffffffffffffffffffffffff168473ffffffffffffffffffffffffffffffffffffffff160361149a576040517fea553b3400000000000000000000000000000000000000000000000000000000815260040160405180910390fd5b6114a78585856001611efe565b6114b360008487611239565b6001600560008773ffffffffffffffffffffffffffffffffffffffff1673ffffffffffffffffffffffffffffffffffffffff16815260200190815260200160002060000160008282829054906101000a900467ffffffffffffffff160392506101000a81548167ffffffffffffffff021916908367ffffffffffffffff1602179055506001600560008673ffffffffffffffffffffffffffffffffffffffff1673ffffffffffffffffffffffffffffffffffffffff16815260200190815260200160002060000160008282829054906101000a900467ffffffffffffffff160192506101000a81548167ffffffffffffffff021916908367ffffffffffffffff1602179055506000600460008581526020019081526020016000209050848160000160006101000a81548173ffffffffffffffffffffffffffffffffffffffff021916908373ffffffffffffffffffffffffffffffffffffffff160217905550428160000160146101000a81548167ffffffffffffffff021916908367ffffffffffffffff16021790555060006001850190506000600460008381526020019081526020016000209050600073ffffffffffffffffffffffffffffffffffffffff168160000160009054906101000a900473ffffffffffffffffffffffffffffffffffffffff1673ffffffffffffffffffffffffffffffffffffffff160361173257600054821461173157878160000160006101000a81548173ffffffffffffffffffffffffffffffffffffffff021916908373ffffffffffffffffffffffffffffffffffffffff16021790555084602001518160000160146101000a81548167ffffffffffffffff021916908367ffffffffffffffff1602179055505b5b505050828473ffffffffffffffffffffffffffffffffffffffff168673ffffffffffffffffffffffffffffffffffffffff167fddf252ad1be2c89b69c2b068fc378daa952ba7f163c4a11628f55a4df523b3ef60405160405180910390a461179d8585856001611f04565b5050505050565b6060600082036117eb576040518060400160405280600181526020017f30000000000000000000000000000000000000000000000000000000000000008152509050611927565b600082905060005b6000821461181d578080611806906135c1565b915050600a826118169190613638565b91506117f3565b60008167ffffffffffffffff81111561183957611838612708565b5b6040519080825280601f01601f19166020018201604052801561186b5781602001600182028036833780820191505090505b50905060008290505b6000861461191f576001816118899190613669565b90506000600a808861189b9190613638565b6118a5919061369d565b876118b09190613669565b60306118bc9190613704565b905060008160f81b9050808484815181106118da576118d961373b565b5b60200101907effffffffffffffffffffffffffffffffffffffffffffffffffffffffffffff1916908160001a905350600a886119169190613638565b97505050611874565b819450505050505b919050565b611946828260405180602001604052806000815250611f0a565b5050565b61195261236c565b6000829050806119606112eb565b1115801561196f575060005481105b15611ba2576000600460008381526020019081526020016000206040518060600160405290816000820160009054906101000a900473ffffffffffffffffffffffffffffffffffffffff1673ffffffffffffffffffffffffffffffffffffffff1673ffffffffffffffffffffffffffffffffffffffff1681526020016000820160149054906101000a900467ffffffffffffffff1667ffffffffffffffff1667ffffffffffffffff16815260200160008201601c9054906101000a900460ff16151515158152505090508060400151611ba057600073ffffffffffffffffffffffffffffffffffffffff16816000015173ffffffffffffffffffffffffffffffffffffffff1614611a84578092505050611bd4565b5b600115611b9f57818060019003925050600460008381526020019081526020016000206040518060600160405290816000820160009054906101000a900473ffffffffffffffffffffffffffffffffffffffff1673ffffffffffffffffffffffffffffffffffffffff1673ffffffffffffffffffffffffffffffffffffffff1681526020016000820160149054906101000a900467ffffffffffffffff1667ffffffffffffffff1667ffffffffffffffff16815260200160008201601c9054906101000a900460ff1615151515815250509050600073ffffffffffffffffffffffffffffffffffffffff16816000015173ffffffffffffffffffffffffffffffffffffffff1614611b9a578092505050611bd4565b611a85565b5b505b6040517fdf2d9b4200000000000000000000000000000000000000000000000000000000815260040160405180910390fd5b919050565b6000808273ffffffffffffffffffffffffffffffffffffffff163b119050919050565b60008373ffffffffffffffffffffffffffffffffffffffff1663150b7a02611c22611231565b8786866040518563ffffffff1660e01b8152600401611c4494939291906137bf565b6020604051808303816000875af1925050508015611c8057506040513d601f19601f82011682018060405250810190611c7d9190613820565b60015b611cf9573d8060008114611cb0576040519150601f19603f3d011682016040523d82523d6000602084013e611cb5565b606091505b506000815103611cf1576040517fd1a57ed600000000000000000000000000000000000000000000000000000000815260040160405180910390fd5b805181602001fd5b63150b7a0260e01b7bffffffffffffffffffffffffffffffffffffffffffffffffffffffff1916817bffffffffffffffffffffffffffffffffffffffffffffffffffffffff191614915050949350505050565b60606000825103611d6e57604051806020016040528060008152509050611ebf565b6000604051806060016040528060408152602001613b1e6040913990506000600360028551611d9d919061384d565b611da79190613638565b6004611db3919061369d565b90506000602082611dc4919061384d565b67ffffffffffffffff811115611ddd57611ddc612708565b5b6040519080825280601f01601f191660200182016040528015611e0f5781602001600182028036833780820191505090505b509050818152600183018586518101602084015b81831015611e7e576003830192508251603f8160121c168501518253600182019150603f81600c1c168501518253600182019150603f8160061c168501518253600182019150603f8116850151825360018201915050611e23565b600389510660018114611e985760028114611ea857611eb3565b613d3d60f01b6002830352611eb3565b603d60f81b60018303525b50505050508093505050505b919050565b6060600082611ed2856117a4565b604051602001611ee3929190613ab7565b60405160208183030381529060405290508091505092915050565b50505050565b50505050565b611f178383836001611f1c565b505050565b600080549050600073ffffffffffffffffffffffffffffffffffffffff168573ffffffffffffffffffffffffffffffffffffffff1603611f88576040517f2e07630000000000000000000000000000000000000000000000000000000000815260040160405180910390fd5b60008403611fc2576040517fb562e8dd00000000000000000000000000000000000000000000000000000000815260040160405180910390fd5b611fcf6000868387611efe565b83600560008773ffffffffffffffffffffffffffffffffffffffff1673ffffffffffffffffffffffffffffffffffffffff16815260200190815260200160002060000160008282829054906101000a900467ffffffffffffffff160192506101000a81548167ffffffffffffffff021916908367ffffffffffffffff16021790555083600560008773ffffffffffffffffffffffffffffffffffffffff1673ffffffffffffffffffffffffffffffffffffffff16815260200190815260200160002060000160088282829054906101000a900467ffffffffffffffff160192506101000a81548167ffffffffffffffff021916908367ffffffffffffffff160217905550846004600083815260200190815260200160002060000160006101000a81548173ffffffffffffffffffffffffffffffffffffffff021916908373ffffffffffffffffffffffffffffffffffffffff160217905550426004600083815260200190815260200160002060000160146101000a81548167ffffffffffffffff021916908367ffffffffffffffff16021790555060008190506000858201905083801561219957506121988773ffffffffffffffffffffffffffffffffffffffff16611bd9565b5b1561225e575b818773ffffffffffffffffffffffffffffffffffffffff16600073ffffffffffffffffffffffffffffffffffffffff167fddf252ad1be2c89b69c2b068fc378daa952ba7f163c4a11628f55a4df523b3ef60405160405180910390a461220e6000888480600101955088611bfc565b612244576040517fd1a57ed600000000000000000000000000000000000000000000000000000000815260040160405180910390fd5b80820361219f57826000541461225957600080fd5b6122c9565b5b818060010192508773ffffffffffffffffffffffffffffffffffffffff16600073ffffffffffffffffffffffffffffffffffffffff167fddf252ad1be2c89b69c2b068fc378daa952ba7f163c4a11628f55a4df523b3ef60405160405180910390a480820361225f575b8160008190555050506122df6000868387611f04565b5050505050565b8280546122f290612c1b565b90600052602060002090601f016020900481019282612314576000855561235b565b82601f1061232d57805160ff191683800117855561235b565b8280016001018555821561235b579182015b8281111561235a57825182559160200191906001019061233f565b5b50905061236891906123af565b5090565b6040518060600160405280600073ffffffffffffffffffffffffffffffffffffffff168152602001600067ffffffffffffffff1681526020016000151581525090565b5b808211156123c85760008160009055506001016123b0565b5090565b6000604051905090565b600080fd5b600080fd5b60007fffffffff0000000000000000000000000000000000000000000000000000000082169050919050565b612415816123e0565b811461242057600080fd5b50565b6000813590506124328161240c565b92915050565b60006020828403121561244e5761244d6123d6565b5b600061245c84828501612423565b91505092915050565b60008115159050919050565b61247a81612465565b82525050565b60006020820190506124956000830184612471565b92915050565b600081519050919050565b600082825260208201905092915050565b60005b838110156124d55780820151818401526020810190506124ba565b838111156124e4576000848401525b50505050565b6000601f19601f8301169050919050565b60006125068261249b565b61251081856124a6565b93506125208185602086016124b7565b612529816124ea565b840191505092915050565b6000602082019050818103600083015261254e81846124fb565b905092915050565b6000819050919050565b61256981612556565b811461257457600080fd5b50565b60008135905061258681612560565b92915050565b6000602082840312156125a2576125a16123d6565b5b60006125b084828501612577565b91505092915050565b600073ffffffffffffffffffffffffffffffffffffffff82169050919050565b60006125e4826125b9565b9050919050565b6125f4816125d9565b82525050565b600060208201905061260f60008301846125eb565b92915050565b61261e816125d9565b811461262957600080fd5b50565b60008135905061263b81612615565b92915050565b60008060408385031215612658576126576123d6565b5b60006126668582860161262c565b925050602061267785828601612577565b9150509250929050565b61268a81612556565b82525050565b60006020820190506126a56000830184612681565b92915050565b6000806000606084860312156126c4576126c36123d6565b5b60006126d28682870161262c565b93505060206126e38682870161262c565b92505060406126f486828701612577565b9150509250925092565b600080fd5b600080fd5b7f4e487b7100000000000000000000000000000000000000000000000000000000600052604160045260246000fd5b612740826124ea565b810181811067ffffffffffffffff8211171561275f5761275e612708565b5b80604052505050565b60006127726123cc565b905061277e8282612737565b919050565b600067ffffffffffffffff82111561279e5761279d612708565b5b6127a7826124ea565b9050602081019050919050565b82818337600083830152505050565b60006127d66127d184612783565b612768565b9050828152602081018484840111156127f2576127f1612703565b5b6127fd8482856127b4565b509392505050565b600082601f83011261281a576128196126fe565b5b813561282a8482602086016127c3565b91505092915050565b6000819050919050565b61284681612833565b811461285157600080fd5b50565b6000813590506128638161283d565b92915050565b60008060008060808587031215612883576128826123d6565b5b600061289187828801612577565b94505060206128a287828801612577565b935050604085013567ffffffffffffffff8111156128c3576128c26123db565b5b6128cf87828801612805565b92505060606128e087828801612854565b91505092959194509250565b60006128f7826125d9565b9050919050565b612907816128ec565b811461291257600080fd5b50565b600081359050612924816128fe565b92915050565b60008060008060008060c08789031215612947576129466123d6565b5b600061295589828a0161262c565b965050602061296689828a0161262c565b955050604087013567ffffffffffffffff811115612987576129866123db565b5b61299389828a01612805565b945050606087013567ffffffffffffffff8111156129b4576129b36123db565b5b6129c089828a01612805565b93505060806129d189828a01612577565b92505060a06129e289828a01612915565b9150509295509295509295565b600060208284031215612a0557612a046123d6565b5b6000612a138482850161262c565b91505092915050565b612a2581612465565b8114612a3057600080fd5b50565b600081359050612a4281612a1c565b92915050565b60008060408385031215612a5f57612a5e6123d6565b5b6000612a6d8582860161262c565b9250506020612a7e85828601612a33565b9150509250929050565b600067ffffffffffffffff821115612aa357612aa2612708565b5b612aac826124ea565b9050602081019050919050565b6000612acc612ac784612a88565b612768565b905082815260208101848484011115612ae857612ae7612703565b5b612af38482856127b4565b509392505050565b600082601f830112612b1057612b0f6126fe565b5b8135612b20848260208601612ab9565b91505092915050565b60008060008060808587031215612b4357612b426123d6565b5b6000612b518782880161262c565b9450506020612b628782880161262c565b9350506040612b7387828801612577565b925050606085013567ffffffffffffffff811115612b9457612b936123db565b5b612ba087828801612afb565b91505092959194509250565b60008060408385031215612bc357612bc26123d6565b5b6000612bd18582860161262c565b9250506020612be28582860161262c565b9150509250929050565b7f4e487b7100000000000000000000000000000000000000000000000000000000600052602260045260246000fd5b60006002820490506001821680612c3357607f821691505b602082108103612c4657612c45612bec565b5b50919050565b600081905092915050565b7f3c7376672077696474683d2238303022206865696768743d223630302220786d60008201527f6c6e733d22687474703a2f2f7777772e77332e6f72672f323030302f7376672260208201527f3e00000000000000000000000000000000000000000000000000000000000000604082015250565b6000612cd9604183612c4c565b9150612ce482612c57565b604182019050919050565b7f3c673e0000000000000000000000000000000000000000000000000000000000600082015250565b6000612d25600383612c4c565b9150612d3082612cef565b600382019050919050565b7f3c7469746c653e537562736372697074696f6e20230000000000000000000000600082015250565b6000612d71601583612c4c565b9150612d7c82612d3b565b601582019050919050565b6000612d928261249b565b612d9c8185612c4c565b9350612dac8185602086016124b7565b80840191505092915050565b7f3c2f7469746c653e000000000000000000000000000000000000000000000000600082015250565b6000612dee600883612c4c565b9150612df982612db8565b600882019050919050565b7f3c2f673e00000000000000000000000000000000000000000000000000000000600082015250565b6000612e3a600483612c4c565b9150612e4582612e04565b600482019050919050565b7f3c7465787420783d2232302220793d22333522203e53656e6465722062616c6160008201527f6e63653a20000000000000000000000000000000000000000000000000000000602082015250565b6000612eac602583612c4c565b9150612eb782612e50565b602582019050919050565b7f3c2f746578743e00000000000000000000000000000000000000000000000000600082015250565b6000612ef8600783612c4c565b9150612f0382612ec2565b600782019050919050565b7f3c7465787420783d2232302220793d22373522203e466c6f773a200000000000600082015250565b6000612f44601b83612c4c565b9150612f4f82612f0e565b601b82019050919050565b7f2f7365633c2f746578743e000000000000000000000000000000000000000000600082015250565b6000612f90600b83612c4c565b9150612f9b82612f5a565b600b82019050919050565b7f3c7465787420783d2232302220793d2231323522203e6465736372697074696f60008201527f6e3a200000000000000000000000000000000000000000000000000000000000602082015250565b6000613002602383612c4c565b915061300d82612fa6565b602382019050919050565b7f3c2f7376673e0000000000000000000000000000000000000000000000000000600082015250565b600061304e600683612c4c565b915061305982613018565b600682019050919050565b600061306f82612ccc565b915061307a82612d18565b915061308582612d64565b91506130918287612d87565b915061309c82612de1565b91506130a782612e2d565b91506130b282612e9f565b91506130be8286612d87565b91506130c982612eeb565b91506130d482612f37565b91506130e08285612d87565b91506130eb82612f83565b91506130f682612ff5565b91506131028284612d87565b915061310d82612f83565b915061311882613041565b915081905095945050505050565b7f41677265656d656e74506f736974696f6e3a20506f73736974696f6e20646f6560008201527f73206e6f74206578697374000000000000000000000000000000000000000000602082015250565b6000613182602b836124a6565b915061318d82613126565b604082019050919050565b600060208201905081810360008301526131b181613175565b9050919050565b6000815190506131c78161283d565b92915050565b6000815190506131dc81612560565b92915050565b600080600080608085870312156131fc576131fb6123d6565b5b600061320a878288016131b8565b945050602061321b878288016131cd565b935050604061322c878288016131cd565b925050606061323d878288016131cd565b91505092959194509250565b7f7b00000000000000000000000000000000000000000000000000000000000000600082015250565b600061327f600183612c4c565b915061328a82613249565b600182019050919050565b7f226e616d65223a2241677265656d656e74506f736974696f6e20230000000000600082015250565b60006132cb601b83612c4c565b91506132d682613295565b601b82019050919050565b7f222c000000000000000000000000000000000000000000000000000000000000600082015250565b6000613317600283612c4c565b9150613322826132e1565b600282019050919050565b7f226465736372697074696f6e223a220000000000000000000000000000000000600082015250565b6000613363600f83612c4c565b915061336e8261332d565b600f82019050919050565b7f22696d6167655f64617461223a2022646174613a696d6167652f7376672b786d60008201527f6c3b6261736536342c0000000000000000000000000000000000000000000000602082015250565b60006133d5602983612c4c565b91506133e082613379565b602982019050919050565b7f2261747472696275746573223a20000000000000000000000000000000000000600082015250565b6000613421600e83612c4c565b915061342c826133eb565b600e82019050919050565b7f7d00000000000000000000000000000000000000000000000000000000000000600082015250565b600061346d600183612c4c565b915061347882613437565b600182019050919050565b600061348e82613272565b9150613499826132be565b91506134a58287612d87565b91506134b08261330a565b91506134bb82613356565b91506134c78286612d87565b91506134d28261330a565b91506134dd826133c8565b91506134e98285612d87565b91506134f48261330a565b91506134ff82613414565b915061350b8284612d87565b915061351682613460565b915081905095945050505050565b7f646174613a6170706c69636174696f6e2f6a736f6e3b6261736536342c000000600082015250565b600061355a601d83612c4c565b915061356582613524565b601d82019050919050565b600061357b8261354d565b91506135878284612d87565b915081905092915050565b7f4e487b7100000000000000000000000000000000000000000000000000000000600052601160045260246000fd5b60006135cc82612556565b91507fffffffffffffffffffffffffffffffffffffffffffffffffffffffffffffffff82036135fe576135fd613592565b5b600182019050919050565b7f4e487b7100000000000000000000000000000000000000000000000000000000600052601260045260246000fd5b600061364382612556565b915061364e83612556565b92508261365e5761365d613609565b5b828204905092915050565b600061367482612556565b915061367f83612556565b92508282101561369257613691613592565b5b828203905092915050565b60006136a882612556565b91506136b383612556565b9250817fffffffffffffffffffffffffffffffffffffffffffffffffffffffffffffffff04831182151516156136ec576136eb613592565b5b828202905092915050565b600060ff82169050919050565b600061370f826136f7565b915061371a836136f7565b92508260ff038211156137305761372f613592565b5b828201905092915050565b7f4e487b7100000000000000000000000000000000000000000000000000000000600052603260045260246000fd5b600081519050919050565b600082825260208201905092915050565b60006137918261376a565b61379b8185613775565b93506137ab8185602086016124b7565b6137b4816124ea565b840191505092915050565b60006080820190506137d460008301876125eb565b6137e160208301866125eb565b6137ee6040830185612681565b81810360608301526138008184613786565b905095945050505050565b60008151905061381a8161240c565b92915050565b600060208284031215613836576138356123d6565b5b60006138448482850161380b565b91505092915050565b600061385882612556565b915061386383612556565b9250827fffffffffffffffffffffffffffffffffffffffffffffffffffffffffffffffff0382111561389857613897613592565b5b828201905092915050565b7f5b00000000000000000000000000000000000000000000000000000000000000600082015250565b60006138d9600183612c4c565b91506138e4826138a3565b600182019050919050565b7f7b2274726169745f74797065223a226465736372697074696f6e222c2276616c60008201527f7565223a22000000000000000000000000000000000000000000000000000000602082015250565b600061394b602583612c4c565b9150613956826138ef565b602582019050919050565b7f227d2c0000000000000000000000000000000000000000000000000000000000600082015250565b6000613997600383612c4c565b91506139a282613961565b600382019050919050565b7f7b2274726169745f74797065223a22666c6f7752617465222c2276616c75652260008201527f3a22000000000000000000000000000000000000000000000000000000000000602082015250565b6000613a09602283612c4c565b9150613a14826139ad565b602282019050919050565b7f227d000000000000000000000000000000000000000000000000000000000000600082015250565b6000613a55600283612c4c565b9150613a6082613a1f565b600282019050919050565b7f5d00000000000000000000000000000000000000000000000000000000000000600082015250565b6000613aa1600183612c4c565b9150613aac82613a6b565b600182019050919050565b6000613ac2826138cc565b9150613acd8261393e565b9150613ad98285612d87565b9150613ae48261398a565b9150613aef826139fc565b9150613afb8284612d87565b9150613b0682613a48565b9150613b1182613a94565b9150819050939250505056fe4142434445464748494a4b4c4d4e4f505152535455565758595a6162636465666768696a6b6c6d6e6f707172737475767778797a303132333435363738392b2fa264697066735822122012a2701889439e02ddd6f74346827634e0ac1f19eda0b402d4564fc3ba1f5f6064736f6c634300080d0033",
  "devdoc": {
    "kind": "dev",
    "methods": {
      "approve(address,uint256)": {
        "details": "See {IERC721-approve}."
      },
      "balanceOf(address)": {
        "details": "See {IERC721-balanceOf}."
      },
      "getApproved(uint256)": {
        "details": "See {IERC721-getApproved}."
      },
      "isApprovedForAll(address,address)": {
        "details": "See {IERC721-isApprovedForAll}."
      },
      "name()": {
        "details": "See {IERC721Metadata-name}."
      },
      "ownerOf(uint256)": {
        "details": "See {IERC721-ownerOf}."
      },
      "safeTransferFrom(address,address,uint256)": {
        "details": "See {IERC721-safeTransferFrom}."
      },
      "safeTransferFrom(address,address,uint256,bytes)": {
        "details": "See {IERC721-safeTransferFrom}."
      },
      "setApprovalForAll(address,bool)": {
        "details": "See {IERC721-setApprovalForAll}."
      },
      "supportsInterface(bytes4)": {
        "details": "See {IERC165-supportsInterface}."
      },
      "symbol()": {
        "details": "See {IERC721Metadata-symbol}."
      },
      "tokenURI(uint256)": {
        "details": "See {IERC721Metadata-tokenURI}."
      },
      "totalSupply()": {
        "details": "Burned tokens are calculated here, use _totalMinted() if you want to count just minted tokens."
      },
      "transferFrom(address,address,uint256)": {
        "details": "See {IERC721-transferFrom}."
      }
    },
    "version": 1
  },
  "userdoc": {
    "kind": "user",
    "methods": {},
    "version": 1
  },
  "storageLayout": {
    "storage": [
      {
        "astId": 1551,
        "contract": "contracts/AgreementNFT.sol:AgreementNFT",
        "label": "_currentIndex",
        "offset": 0,
        "slot": "0",
        "type": "t_uint256"
      },
      {
        "astId": 1553,
        "contract": "contracts/AgreementNFT.sol:AgreementNFT",
        "label": "_burnCounter",
        "offset": 0,
        "slot": "1",
        "type": "t_uint256"
      },
      {
        "astId": 1555,
        "contract": "contracts/AgreementNFT.sol:AgreementNFT",
        "label": "_name",
        "offset": 0,
        "slot": "2",
        "type": "t_string_storage"
      },
      {
        "astId": 1557,
        "contract": "contracts/AgreementNFT.sol:AgreementNFT",
        "label": "_symbol",
        "offset": 0,
        "slot": "3",
        "type": "t_string_storage"
      },
      {
        "astId": 1562,
        "contract": "contracts/AgreementNFT.sol:AgreementNFT",
        "label": "_ownerships",
        "offset": 0,
        "slot": "4",
        "type": "t_mapping(t_uint256,t_struct(TokenOwnership)1540_storage)"
      },
      {
        "astId": 1567,
        "contract": "contracts/AgreementNFT.sol:AgreementNFT",
        "label": "_addressData",
        "offset": 0,
        "slot": "5",
        "type": "t_mapping(t_address,t_struct(AddressData)1549_storage)"
      },
      {
        "astId": 1571,
        "contract": "contracts/AgreementNFT.sol:AgreementNFT",
        "label": "_tokenApprovals",
        "offset": 0,
        "slot": "6",
        "type": "t_mapping(t_uint256,t_address)"
      },
      {
        "astId": 1577,
        "contract": "contracts/AgreementNFT.sol:AgreementNFT",
        "label": "_operatorApprovals",
        "offset": 0,
        "slot": "7",
        "type": "t_mapping(t_address,t_mapping(t_address,t_bool))"
      },
      {
        "astId": 869,
        "contract": "contracts/AgreementNFT.sol:AgreementNFT",
        "label": "_positionsById",
        "offset": 0,
        "slot": "8",
        "type": "t_mapping(t_uint256,t_struct(PositionData)864_storage)"
      }
    ],
    "types": {
      "t_address": {
        "encoding": "inplace",
        "label": "address",
        "numberOfBytes": "20"
      },
      "t_bool": {
        "encoding": "inplace",
        "label": "bool",
        "numberOfBytes": "1"
      },
      "t_contract(ISuperfluidToken)1483": {
        "encoding": "inplace",
        "label": "contract ISuperfluidToken",
        "numberOfBytes": "20"
      },
      "t_mapping(t_address,t_bool)": {
        "encoding": "mapping",
        "key": "t_address",
        "label": "mapping(address => bool)",
        "numberOfBytes": "32",
        "value": "t_bool"
      },
      "t_mapping(t_address,t_mapping(t_address,t_bool))": {
        "encoding": "mapping",
        "key": "t_address",
        "label": "mapping(address => mapping(address => bool))",
        "numberOfBytes": "32",
        "value": "t_mapping(t_address,t_bool)"
      },
      "t_mapping(t_address,t_struct(AddressData)1549_storage)": {
        "encoding": "mapping",
        "key": "t_address",
        "label": "mapping(address => struct ERC721A.AddressData)",
        "numberOfBytes": "32",
        "value": "t_struct(AddressData)1549_storage"
      },
      "t_mapping(t_uint256,t_address)": {
        "encoding": "mapping",
        "key": "t_uint256",
        "label": "mapping(uint256 => address)",
        "numberOfBytes": "32",
        "value": "t_address"
      },
      "t_mapping(t_uint256,t_struct(PositionData)864_storage)": {
        "encoding": "mapping",
        "key": "t_uint256",
        "label": "mapping(uint256 => struct AgreementNFT.PositionData)",
        "numberOfBytes": "32",
        "value": "t_struct(PositionData)864_storage"
      },
      "t_mapping(t_uint256,t_struct(TokenOwnership)1540_storage)": {
        "encoding": "mapping",
        "key": "t_uint256",
        "label": "mapping(uint256 => struct ERC721A.TokenOwnership)",
        "numberOfBytes": "32",
        "value": "t_struct(TokenOwnership)1540_storage"
      },
      "t_string_storage": {
        "encoding": "bytes",
        "label": "string",
        "numberOfBytes": "32"
      },
      "t_struct(AddressData)1549_storage": {
        "encoding": "inplace",
        "label": "struct ERC721A.AddressData",
        "members": [
          {
            "astId": 1542,
            "contract": "contracts/AgreementNFT.sol:AgreementNFT",
            "label": "balance",
            "offset": 0,
            "slot": "0",
            "type": "t_uint64"
          },
          {
            "astId": 1544,
            "contract": "contracts/AgreementNFT.sol:AgreementNFT",
            "label": "numberMinted",
            "offset": 8,
            "slot": "0",
            "type": "t_uint64"
          },
          {
            "astId": 1546,
            "contract": "contracts/AgreementNFT.sol:AgreementNFT",
            "label": "numberBurned",
            "offset": 16,
            "slot": "0",
            "type": "t_uint64"
          },
          {
            "astId": 1548,
            "contract": "contracts/AgreementNFT.sol:AgreementNFT",
            "label": "aux",
            "offset": 24,
            "slot": "0",
            "type": "t_uint64"
          }
        ],
        "numberOfBytes": "32"
      },
      "t_struct(PositionData)864_storage": {
        "encoding": "inplace",
        "label": "struct AgreementNFT.PositionData",
        "members": [
          {
            "astId": 849,
            "contract": "contracts/AgreementNFT.sol:AgreementNFT",
            "label": "token",
            "offset": 0,
            "slot": "0",
            "type": "t_contract(ISuperfluidToken)1483"
          },
          {
            "astId": 851,
            "contract": "contracts/AgreementNFT.sol:AgreementNFT",
            "label": "recipient",
            "offset": 0,
            "slot": "1",
            "type": "t_address"
          },
          {
            "astId": 853,
            "contract": "contracts/AgreementNFT.sol:AgreementNFT",
            "label": "sender",
            "offset": 0,
            "slot": "2",
            "type": "t_address"
          },
          {
            "astId": 855,
            "contract": "contracts/AgreementNFT.sol:AgreementNFT",
            "label": "description",
            "offset": 0,
            "slot": "3",
            "type": "t_string_storage"
          },
          {
            "astId": 857,
            "contract": "contracts/AgreementNFT.sol:AgreementNFT",
            "label": "subscriptionType",
            "offset": 0,
            "slot": "4",
            "type": "t_string_storage"
          },
          {
            "astId": 859,
            "contract": "contracts/AgreementNFT.sol:AgreementNFT",
            "label": "flowRate",
            "offset": 0,
            "slot": "5",
            "type": "t_uint256"
          },
          {
            "astId": 861,
            "contract": "contracts/AgreementNFT.sol:AgreementNFT",
            "label": "createdAt",
            "offset": 0,
            "slot": "6",
            "type": "t_uint256"
          },
          {
            "astId": 863,
            "contract": "contracts/AgreementNFT.sol:AgreementNFT",
            "label": "isActive",
            "offset": 0,
            "slot": "7",
            "type": "t_bool"
          }
        ],
        "numberOfBytes": "256"
      },
      "t_struct(TokenOwnership)1540_storage": {
        "encoding": "inplace",
        "label": "struct ERC721A.TokenOwnership",
        "members": [
          {
            "astId": 1535,
            "contract": "contracts/AgreementNFT.sol:AgreementNFT",
            "label": "addr",
            "offset": 0,
            "slot": "0",
            "type": "t_address"
          },
          {
            "astId": 1537,
            "contract": "contracts/AgreementNFT.sol:AgreementNFT",
            "label": "startTimestamp",
            "offset": 20,
            "slot": "0",
            "type": "t_uint64"
          },
          {
            "astId": 1539,
            "contract": "contracts/AgreementNFT.sol:AgreementNFT",
            "label": "burned",
            "offset": 28,
            "slot": "0",
            "type": "t_bool"
          }
        ],
        "numberOfBytes": "32"
      },
      "t_uint256": {
        "encoding": "inplace",
        "label": "uint256",
        "numberOfBytes": "32"
      },
      "t_uint64": {
        "encoding": "inplace",
        "label": "uint64",
        "numberOfBytes": "8"
      }
    }
  }
}