{
  "address": "0x47E5124199Ed51a5A6376682e53402Def1E395Ec",
  "abi": [
    {
      "anonymous": false,
      "inputs": [
        {
          "indexed": true,
          "internalType": "bytes32",
          "name": "role",
          "type": "bytes32"
        },
        {
          "indexed": true,
          "internalType": "bytes32",
          "name": "previousAdminRole",
          "type": "bytes32"
        },
        {
          "indexed": true,
          "internalType": "bytes32",
          "name": "newAdminRole",
          "type": "bytes32"
        }
      ],
      "name": "RoleAdminChanged",
      "type": "event"
    },
    {
      "anonymous": false,
      "inputs": [
        {
          "indexed": true,
          "internalType": "bytes32",
          "name": "role",
          "type": "bytes32"
        },
        {
          "indexed": true,
          "internalType": "address",
          "name": "account",
          "type": "address"
        },
        {
          "indexed": true,
          "internalType": "address",
          "name": "sender",
          "type": "address"
        }
      ],
      "name": "RoleGranted",
      "type": "event"
    },
    {
      "anonymous": false,
      "inputs": [
        {
          "indexed": true,
          "internalType": "bytes32",
          "name": "role",
          "type": "bytes32"
        },
        {
          "indexed": true,
          "internalType": "address",
          "name": "account",
          "type": "address"
        },
        {
          "indexed": true,
          "internalType": "address",
          "name": "sender",
          "type": "address"
        }
      ],
      "name": "RoleRevoked",
      "type": "event"
    },
    {
      "inputs": [],
      "name": "CONTROLLER_ROLE",
      "outputs": [
        {
          "internalType": "bytes32",
          "name": "",
          "type": "bytes32"
        }
      ],
      "stateMutability": "view",
      "type": "function"
    },
    {
      "inputs": [],
      "name": "DEFAULT_ADMIN_ROLE",
      "outputs": [
        {
          "internalType": "bytes32",
          "name": "",
          "type": "bytes32"
        }
      ],
      "stateMutability": "view",
      "type": "function"
    },
    {
      "inputs": [
        {
          "internalType": "address",
          "name": "account",
          "type": "address"
        }
      ],
      "name": "addController",
      "outputs": [],
      "stateMutability": "nonpayable",
      "type": "function"
    },
    {
      "inputs": [
        {
          "internalType": "bytes32",
          "name": "role",
          "type": "bytes32"
        }
      ],
      "name": "getRoleAdmin",
      "outputs": [
        {
          "internalType": "bytes32",
          "name": "",
          "type": "bytes32"
        }
      ],
      "stateMutability": "view",
      "type": "function"
    },
    {
      "inputs": [
        {
          "internalType": "bytes32",
          "name": "role",
          "type": "bytes32"
        },
        {
          "internalType": "address",
          "name": "account",
          "type": "address"
        }
      ],
      "name": "grantRole",
      "outputs": [],
      "stateMutability": "nonpayable",
      "type": "function"
    },
    {
      "inputs": [
        {
          "internalType": "bytes32",
          "name": "role",
          "type": "bytes32"
        },
        {
          "internalType": "address",
          "name": "account",
          "type": "address"
        }
      ],
      "name": "hasRole",
      "outputs": [
        {
          "internalType": "bool",
          "name": "",
          "type": "bool"
        }
      ],
      "stateMutability": "view",
      "type": "function"
    },
    {
      "inputs": [
        {
          "internalType": "contract BurpERC20Token",
          "name": "rewardToken_",
          "type": "address"
        }
      ],
      "name": "initialize",
      "outputs": [],
      "stateMutability": "nonpayable",
      "type": "function"
    },
    {
      "inputs": [
        {
          "internalType": "bytes32",
          "name": "role",
          "type": "bytes32"
        },
        {
          "internalType": "address",
          "name": "account",
          "type": "address"
        }
      ],
      "name": "renounceRole",
      "outputs": [],
      "stateMutability": "nonpayable",
      "type": "function"
    },
    {
      "inputs": [
        {
          "internalType": "bytes32",
          "name": "role",
          "type": "bytes32"
        },
        {
          "internalType": "address",
          "name": "account",
          "type": "address"
        }
      ],
      "name": "revokeRole",
      "outputs": [],
      "stateMutability": "nonpayable",
      "type": "function"
    },
    {
      "inputs": [],
      "name": "rewardToken",
      "outputs": [
        {
          "internalType": "contract BurpERC20Token",
          "name": "",
          "type": "address"
        }
      ],
      "stateMutability": "view",
      "type": "function"
    },
    {
      "inputs": [
        {
          "internalType": "address",
          "name": "to",
          "type": "address"
        },
        {
          "internalType": "uint256",
          "name": "amount",
          "type": "uint256"
        }
      ],
      "name": "sendReward",
      "outputs": [],
      "stateMutability": "nonpayable",
      "type": "function"
    },
    {
      "inputs": [
        {
          "internalType": "bytes4",
          "name": "interfaceId",
          "type": "bytes4"
        }
      ],
      "name": "supportsInterface",
      "outputs": [
        {
          "internalType": "bool",
          "name": "",
          "type": "bool"
        }
      ],
      "stateMutability": "view",
      "type": "function"
    }
  ],
  "transactionHash": "0x48308bf384521c8d2bc37f1219b74eafb461f01830aac1c39c123969f056eed4",
  "args": [],
  "numDeployments": 1,
  "solcInputHash": "fe8f9e716402864f59357fe5be9a50e1",
  "bytecode": "0x608060405234801561001057600080fd5b506115b1806100206000396000f3fe608060405234801561001057600080fd5b50600436106100b45760003560e01c806391d148541161007157806391d148541461018b578063a217fddf146101bb578063a7fc7a07146101d9578063c4d66de8146101f5578063d547741f14610211578063f7c618c11461022d576100b4565b806301ffc9a7146100b957806307420a41146100e9578063092c5b3b14610105578063248a9ca3146101235780632f2ff15d1461015357806336568abe1461016f575b600080fd5b6100d360048036038101906100ce9190610ccc565b61024b565b6040516100e09190610d14565b60405180910390f35b61010360048036038101906100fe9190610dc3565b6102c5565b005b61010d61038b565b60405161011a9190610e1c565b60405180910390f35b61013d60048036038101906101389190610e63565b6103af565b60405161014a9190610e1c565b60405180910390f35b61016d60048036038101906101689190610e90565b6103cf565b005b61018960048036038101906101849190610e90565b6103f8565b005b6101a560048036038101906101a09190610e90565b61047b565b6040516101b29190610d14565b60405180910390f35b6101c36104e6565b6040516101d09190610e1c565b60405180910390f35b6101f360048036038101906101ee9190610ed0565b6104ed565b005b61020f600480360381019061020a9190610f3b565b61051a565b005b61022b60048036038101906102269190610e90565b61067f565b005b6102356106a8565b6040516102429190610fc7565b60405180910390f35b60007f7965db0b000000000000000000000000000000000000000000000000000000007bffffffffffffffffffffffffffffffffffffffffffffffffffffffff1916827bffffffffffffffffffffffffffffffffffffffffffffffffffffffff191614806102be57506102bd826106ce565b5b9050919050565b7f7b765e0e932d348852a6f810bfa1ab891e259123f02db8cdcde614c5702233576102f7816102f2610738565b610740565b609760009054906101000a900473ffffffffffffffffffffffffffffffffffffffff1673ffffffffffffffffffffffffffffffffffffffff16639a49090e84846040518363ffffffff1660e01b8152600401610354929190611000565b600060405180830381600087803b15801561036e57600080fd5b505af1158015610382573d6000803e3d6000fd5b50505050505050565b7f7b765e0e932d348852a6f810bfa1ab891e259123f02db8cdcde614c57022335781565b600060656000838152602001908152602001600020600101549050919050565b6103d8826103af565b6103e9816103e4610738565b610740565b6103f383836107dd565b505050565b610400610738565b73ffffffffffffffffffffffffffffffffffffffff168173ffffffffffffffffffffffffffffffffffffffff161461046d576040517f08c379a0000000000000000000000000000000000000000000000000000000008152600401610464906110ac565b60405180910390fd5b61047782826108be565b5050565b60006065600084815260200190815260200160002060000160008373ffffffffffffffffffffffffffffffffffffffff1673ffffffffffffffffffffffffffffffffffffffff16815260200190815260200160002060009054906101000a900460ff16905092915050565b6000801b81565b6105177f7b765e0e932d348852a6f810bfa1ab891e259123f02db8cdcde614c570223357826103cf565b50565b600060019054906101000a900460ff166105425760008054906101000a900460ff161561054b565b61054a6109a0565b5b61058a576040517f08c379a00000000000000000000000000000000000000000000000000000000081526004016105819061113e565b60405180910390fd5b60008060019054906101000a900460ff1615905080156105da576001600060016101000a81548160ff02191690831515021790555060016000806101000a81548160ff0219169083151502179055505b6105e26109b1565b6105ef6000801b33610a02565b6106197f7b765e0e932d348852a6f810bfa1ab891e259123f02db8cdcde614c57022335733610a02565b81609760006101000a81548173ffffffffffffffffffffffffffffffffffffffff021916908373ffffffffffffffffffffffffffffffffffffffff160217905550801561067b5760008060016101000a81548160ff0219169083151502179055505b5050565b610688826103af565b61069981610694610738565b610740565b6106a383836108be565b505050565b609760009054906101000a900473ffffffffffffffffffffffffffffffffffffffff1681565b60007f01ffc9a7000000000000000000000000000000000000000000000000000000007bffffffffffffffffffffffffffffffffffffffffffffffffffffffff1916827bffffffffffffffffffffffffffffffffffffffffffffffffffffffff1916149050919050565b600033905090565b61074a828261047b565b6107d95761076f8173ffffffffffffffffffffffffffffffffffffffff166014610a10565b61077d8360001c6020610a10565b60405160200161078e929190611270565b6040516020818303038152906040526040517f08c379a00000000000000000000000000000000000000000000000000000000081526004016107d091906112f4565b60405180910390fd5b5050565b6107e7828261047b565b6108ba5760016065600084815260200190815260200160002060000160008373ffffffffffffffffffffffffffffffffffffffff1673ffffffffffffffffffffffffffffffffffffffff16815260200190815260200160002060006101000a81548160ff02191690831515021790555061085f610738565b73ffffffffffffffffffffffffffffffffffffffff168173ffffffffffffffffffffffffffffffffffffffff16837f2f8788117e7eff1d82e926ec794901d17c78024a50270940304540a733656f0d60405160405180910390a45b5050565b6108c8828261047b565b1561099c5760006065600084815260200190815260200160002060000160008373ffffffffffffffffffffffffffffffffffffffff1673ffffffffffffffffffffffffffffffffffffffff16815260200190815260200160002060006101000a81548160ff021916908315150217905550610941610738565b73ffffffffffffffffffffffffffffffffffffffff168173ffffffffffffffffffffffffffffffffffffffff16837ff6391f5c32d9c69d2a47ea670b442974b53935d1edc7fd64eb21e047a839171b60405160405180910390a45b5050565b60006109ab30610c4c565b15905090565b600060019054906101000a900460ff16610a00576040517f08c379a00000000000000000000000000000000000000000000000000000000081526004016109f790611388565b60405180910390fd5b565b610a0c82826107dd565b5050565b606060006002836002610a2391906113d7565b610a2d9190611431565b67ffffffffffffffff811115610a4657610a45611487565b5b6040519080825280601f01601f191660200182016040528015610a785781602001600182028036833780820191505090505b5090507f300000000000000000000000000000000000000000000000000000000000000081600081518110610ab057610aaf6114b6565b5b60200101907effffffffffffffffffffffffffffffffffffffffffffffffffffffffffffff1916908160001a9053507f780000000000000000000000000000000000000000000000000000000000000081600181518110610b1457610b136114b6565b5b60200101907effffffffffffffffffffffffffffffffffffffffffffffffffffffffffffff1916908160001a90535060006001846002610b5491906113d7565b610b5e9190611431565b90505b6001811115610bfe577f3031323334353637383961626364656600000000000000000000000000000000600f861660108110610ba057610b9f6114b6565b5b1a60f81b828281518110610bb757610bb66114b6565b5b60200101907effffffffffffffffffffffffffffffffffffffffffffffffffffffffffffff1916908160001a905350600485901c945080610bf7906114e5565b9050610b61565b5060008414610c42576040517f08c379a0000000000000000000000000000000000000000000000000000000008152600401610c399061155b565b60405180910390fd5b8091505092915050565b6000808273ffffffffffffffffffffffffffffffffffffffff163b119050919050565b600080fd5b60007fffffffff0000000000000000000000000000000000000000000000000000000082169050919050565b610ca981610c74565b8114610cb457600080fd5b50565b600081359050610cc681610ca0565b92915050565b600060208284031215610ce257610ce1610c6f565b5b6000610cf084828501610cb7565b91505092915050565b60008115159050919050565b610d0e81610cf9565b82525050565b6000602082019050610d296000830184610d05565b92915050565b600073ffffffffffffffffffffffffffffffffffffffff82169050919050565b6000610d5a82610d2f565b9050919050565b610d6a81610d4f565b8114610d7557600080fd5b50565b600081359050610d8781610d61565b92915050565b6000819050919050565b610da081610d8d565b8114610dab57600080fd5b50565b600081359050610dbd81610d97565b92915050565b60008060408385031215610dda57610dd9610c6f565b5b6000610de885828601610d78565b9250506020610df985828601610dae565b9150509250929050565b6000819050919050565b610e1681610e03565b82525050565b6000602082019050610e316000830184610e0d565b92915050565b610e4081610e03565b8114610e4b57600080fd5b50565b600081359050610e5d81610e37565b92915050565b600060208284031215610e7957610e78610c6f565b5b6000610e8784828501610e4e565b91505092915050565b60008060408385031215610ea757610ea6610c6f565b5b6000610eb585828601610e4e565b9250506020610ec685828601610d78565b9150509250929050565b600060208284031215610ee657610ee5610c6f565b5b6000610ef484828501610d78565b91505092915050565b6000610f0882610d4f565b9050919050565b610f1881610efd565b8114610f2357600080fd5b50565b600081359050610f3581610f0f565b92915050565b600060208284031215610f5157610f50610c6f565b5b6000610f5f84828501610f26565b91505092915050565b6000819050919050565b6000610f8d610f88610f8384610d2f565b610f68565b610d2f565b9050919050565b6000610f9f82610f72565b9050919050565b6000610fb182610f94565b9050919050565b610fc181610fa6565b82525050565b6000602082019050610fdc6000830184610fb8565b92915050565b610feb81610d4f565b82525050565b610ffa81610d8d565b82525050565b60006040820190506110156000830185610fe2565b6110226020830184610ff1565b9392505050565b600082825260208201905092915050565b7f416363657373436f6e74726f6c3a2063616e206f6e6c792072656e6f756e636560008201527f20726f6c657320666f722073656c660000000000000000000000000000000000602082015250565b6000611096602f83611029565b91506110a18261103a565b604082019050919050565b600060208201905081810360008301526110c581611089565b9050919050565b7f496e697469616c697a61626c653a20636f6e747261637420697320616c72656160008201527f647920696e697469616c697a6564000000000000000000000000000000000000602082015250565b6000611128602e83611029565b9150611133826110cc565b604082019050919050565b600060208201905081810360008301526111578161111b565b9050919050565b600081905092915050565b7f416363657373436f6e74726f6c3a206163636f756e7420000000000000000000600082015250565b600061119f60178361115e565b91506111aa82611169565b601782019050919050565b600081519050919050565b60005b838110156111de5780820151818401526020810190506111c3565b838111156111ed576000848401525b50505050565b60006111fe826111b5565b611208818561115e565b93506112188185602086016111c0565b80840191505092915050565b7f206973206d697373696e6720726f6c6520000000000000000000000000000000600082015250565b600061125a60118361115e565b915061126582611224565b601182019050919050565b600061127b82611192565b915061128782856111f3565b91506112928261124d565b915061129e82846111f3565b91508190509392505050565b6000601f19601f8301169050919050565b60006112c6826111b5565b6112d08185611029565b93506112e08185602086016111c0565b6112e9816112aa565b840191505092915050565b6000602082019050818103600083015261130e81846112bb565b905092915050565b7f496e697469616c697a61626c653a20636f6e7472616374206973206e6f74206960008201527f6e697469616c697a696e67000000000000000000000000000000000000000000602082015250565b6000611372602b83611029565b915061137d82611316565b604082019050919050565b600060208201905081810360008301526113a181611365565b9050919050565b7f4e487b7100000000000000000000000000000000000000000000000000000000600052601160045260246000fd5b60006113e282610d8d565b91506113ed83610d8d565b9250817fffffffffffffffffffffffffffffffffffffffffffffffffffffffffffffffff0483118215151615611426576114256113a8565b5b828202905092915050565b600061143c82610d8d565b915061144783610d8d565b9250827fffffffffffffffffffffffffffffffffffffffffffffffffffffffffffffffff0382111561147c5761147b6113a8565b5b828201905092915050565b7f4e487b7100000000000000000000000000000000000000000000000000000000600052604160045260246000fd5b7f4e487b7100000000000000000000000000000000000000000000000000000000600052603260045260246000fd5b60006114f082610d8d565b91506000821415611504576115036113a8565b5b600182039050919050565b7f537472696e67733a20686578206c656e67746820696e73756666696369656e74600082015250565b6000611545602083611029565b91506115508261150f565b602082019050919050565b6000602082019050818103600083015261157481611538565b905091905056fea26469706673582212201987e94bde2a880527b9019364e0619c238ec6b9e1e9b2cc111ac1150c9c26a564736f6c634300080a0033",
  "devdoc": {
    "kind": "dev",
    "methods": {
      "getRoleAdmin(bytes32)": {
        "details": "Returns the admin role that controls `role`. See {grantRole} and {revokeRole}. To change a role's admin, use {_setRoleAdmin}."
      },
      "grantRole(bytes32,address)": {
        "details": "Grants `role` to `account`. If `account` had not been already granted `role`, emits a {RoleGranted} event. Requirements: - the caller must have ``role``'s admin role."
      },
      "hasRole(bytes32,address)": {
        "details": "Returns `true` if `account` has been granted `role`."
      },
      "renounceRole(bytes32,address)": {
        "details": "Revokes `role` from the calling account. Roles are often managed via {grantRole} and {revokeRole}: this function's purpose is to provide a mechanism for accounts to lose their privileges if they are compromised (such as when a trusted device is misplaced). If the calling account had been revoked `role`, emits a {RoleRevoked} event. Requirements: - the caller must be `account`."
      },
      "revokeRole(bytes32,address)": {
        "details": "Revokes `role` from `account`. If `account` had been granted `role`, emits a {RoleRevoked} event. Requirements: - the caller must have ``role``'s admin role."
      },
      "supportsInterface(bytes4)": {
        "details": "See {IERC165-supportsInterface}."
      }
    },
    "version": 1
  },
  "userdoc": {
    "kind": "user",
    "methods": {
      "initialize(address)": {
        "notice": "Initializes the contract"
      }
    },
    "version": 1
  },
  "storageLayout": {
    "storage": [
      {
        "astId": 578,
        "contract": "contracts/Staking/RewardVault.sol:RewardVault",
        "label": "_initialized",
        "offset": 0,
        "slot": "0",
        "type": "t_bool"
      },
      {
        "astId": 581,
        "contract": "contracts/Staking/RewardVault.sol:RewardVault",
        "label": "_initializing",
        "offset": 1,
        "slot": "0",
        "type": "t_bool"
      },
      {
        "astId": 3639,
        "contract": "contracts/Staking/RewardVault.sol:RewardVault",
        "label": "__gap",
        "offset": 0,
        "slot": "1",
        "type": "t_array(t_uint256)50_storage"
      },
      {
        "astId": 3886,
        "contract": "contracts/Staking/RewardVault.sol:RewardVault",
        "label": "__gap",
        "offset": 0,
        "slot": "51",
        "type": "t_array(t_uint256)50_storage"
      },
      {
        "astId": 184,
        "contract": "contracts/Staking/RewardVault.sol:RewardVault",
        "label": "_roles",
        "offset": 0,
        "slot": "101",
        "type": "t_mapping(t_bytes32,t_struct(RoleData)179_storage)"
      },
      {
        "astId": 472,
        "contract": "contracts/Staking/RewardVault.sol:RewardVault",
        "label": "__gap",
        "offset": 0,
        "slot": "102",
        "type": "t_array(t_uint256)49_storage"
      },
      {
        "astId": 9482,
        "contract": "contracts/Staking/RewardVault.sol:RewardVault",
        "label": "rewardToken",
        "offset": 0,
        "slot": "151",
        "type": "t_contract(BurpERC20Token)8862"
      }
    ],
    "types": {
      "t_address": {
        "encoding": "inplace",
        "label": "address",
        "numberOfBytes": "20"
      },
      "t_array(t_uint256)49_storage": {
        "base": "t_uint256",
        "encoding": "inplace",
        "label": "uint256[49]",
        "numberOfBytes": "1568"
      },
      "t_array(t_uint256)50_storage": {
        "base": "t_uint256",
        "encoding": "inplace",
        "label": "uint256[50]",
        "numberOfBytes": "1600"
      },
      "t_bool": {
        "encoding": "inplace",
        "label": "bool",
        "numberOfBytes": "1"
      },
      "t_bytes32": {
        "encoding": "inplace",
        "label": "bytes32",
        "numberOfBytes": "32"
      },
      "t_contract(BurpERC20Token)8862": {
        "encoding": "inplace",
        "label": "contract BurpERC20Token",
        "numberOfBytes": "20"
      },
      "t_mapping(t_address,t_bool)": {
        "encoding": "mapping",
        "key": "t_address",
        "label": "mapping(address => bool)",
        "numberOfBytes": "32",
        "value": "t_bool"
      },
      "t_mapping(t_bytes32,t_struct(RoleData)179_storage)": {
        "encoding": "mapping",
        "key": "t_bytes32",
        "label": "mapping(bytes32 => struct AccessControlUpgradeable.RoleData)",
        "numberOfBytes": "32",
        "value": "t_struct(RoleData)179_storage"
      },
      "t_struct(RoleData)179_storage": {
        "encoding": "inplace",
        "label": "struct AccessControlUpgradeable.RoleData",
        "members": [
          {
            "astId": 176,
            "contract": "contracts/Staking/RewardVault.sol:RewardVault",
            "label": "members",
            "offset": 0,
            "slot": "0",
            "type": "t_mapping(t_address,t_bool)"
          },
          {
            "astId": 178,
            "contract": "contracts/Staking/RewardVault.sol:RewardVault",
            "label": "adminRole",
            "offset": 0,
            "slot": "1",
            "type": "t_bytes32"
          }
        ],
        "numberOfBytes": "64"
      },
      "t_uint256": {
        "encoding": "inplace",
        "label": "uint256",
        "numberOfBytes": "32"
      }
    }
  }
}