{
  "address": "0x2d8a3ABd2155c018296Fc4a4D48E77B14232E524",
  "abi": [
    {
      "anonymous": false,
      "inputs": [
        {
          "indexed": true,
          "internalType": "address",
          "name": "account",
          "type": "address"
        }
      ],
      "name": "ManagerAdded",
      "type": "event"
    },
    {
      "anonymous": false,
      "inputs": [
        {
          "indexed": true,
          "internalType": "address",
          "name": "account",
          "type": "address"
        }
      ],
      "name": "ManagerRemoved",
      "type": "event"
    },
    {
      "anonymous": false,
      "inputs": [
        {
          "indexed": true,
          "internalType": "address",
          "name": "account",
          "type": "address"
        }
      ],
      "name": "MigratorAdded",
      "type": "event"
    },
    {
      "anonymous": false,
      "inputs": [
        {
          "indexed": true,
          "internalType": "address",
          "name": "account",
          "type": "address"
        }
      ],
      "name": "MigratorRemoved",
      "type": "event"
    },
    {
      "anonymous": false,
      "inputs": [
        {
          "indexed": true,
          "internalType": "address",
          "name": "user",
          "type": "address"
        },
        {
          "indexed": false,
          "internalType": "uint256",
          "name": "tokenId",
          "type": "uint256"
        },
        {
          "indexed": false,
          "internalType": "address",
          "name": "tokenAddress",
          "type": "address"
        },
        {
          "indexed": false,
          "internalType": "uint256",
          "name": "stakeIndex",
          "type": "uint256"
        }
      ],
      "name": "NftAdded",
      "type": "event"
    },
    {
      "anonymous": false,
      "inputs": [
        {
          "indexed": true,
          "internalType": "address",
          "name": "user",
          "type": "address"
        },
        {
          "indexed": false,
          "internalType": "uint256",
          "name": "amount",
          "type": "uint256"
        },
        {
          "indexed": false,
          "internalType": "uint256",
          "name": "fromStakeIndex",
          "type": "uint256"
        },
        {
          "indexed": false,
          "internalType": "uint256",
          "name": "newStakeIndex",
          "type": "uint256"
        }
      ],
      "name": "ReStaked",
      "type": "event"
    },
    {
      "anonymous": false,
      "inputs": [
        {
          "indexed": true,
          "internalType": "bytes32",
          "name": "role",
          "type": "bytes32"
        },
        {
          "indexed": true,
          "internalType": "bytes32",
          "name": "previousAdminRole",
          "type": "bytes32"
        },
        {
          "indexed": true,
          "internalType": "bytes32",
          "name": "newAdminRole",
          "type": "bytes32"
        }
      ],
      "name": "RoleAdminChanged",
      "type": "event"
    },
    {
      "anonymous": false,
      "inputs": [
        {
          "indexed": true,
          "internalType": "bytes32",
          "name": "role",
          "type": "bytes32"
        },
        {
          "indexed": true,
          "internalType": "address",
          "name": "account",
          "type": "address"
        },
        {
          "indexed": true,
          "internalType": "address",
          "name": "sender",
          "type": "address"
        }
      ],
      "name": "RoleGranted",
      "type": "event"
    },
    {
      "anonymous": false,
      "inputs": [
        {
          "indexed": true,
          "internalType": "bytes32",
          "name": "role",
          "type": "bytes32"
        },
        {
          "indexed": true,
          "internalType": "address",
          "name": "account",
          "type": "address"
        },
        {
          "indexed": true,
          "internalType": "address",
          "name": "sender",
          "type": "address"
        }
      ],
      "name": "RoleRevoked",
      "type": "event"
    },
    {
      "anonymous": false,
      "inputs": [
        {
          "indexed": true,
          "internalType": "address",
          "name": "user",
          "type": "address"
        },
        {
          "indexed": false,
          "internalType": "uint256",
          "name": "amount",
          "type": "uint256"
        },
        {
          "indexed": false,
          "internalType": "uint256",
          "name": "stakeIndex",
          "type": "uint256"
        }
      ],
      "name": "StakeCompounded",
      "type": "event"
    },
    {
      "anonymous": false,
      "inputs": [
        {
          "indexed": true,
          "internalType": "address",
          "name": "user",
          "type": "address"
        },
        {
          "indexed": false,
          "internalType": "uint256",
          "name": "amount",
          "type": "uint256"
        },
        {
          "indexed": false,
          "internalType": "uint256",
          "name": "stakeIndex",
          "type": "uint256"
        }
      ],
      "name": "StakeCreated",
      "type": "event"
    },
    {
      "anonymous": false,
      "inputs": [
        {
          "indexed": true,
          "internalType": "address",
          "name": "user",
          "type": "address"
        },
        {
          "indexed": false,
          "internalType": "uint256",
          "name": "amount",
          "type": "uint256"
        },
        {
          "indexed": false,
          "internalType": "uint256",
          "name": "stakeIndex",
          "type": "uint256"
        },
        {
          "indexed": false,
          "internalType": "bool",
          "name": "isEmergencyWithdrawal",
          "type": "bool"
        }
      ],
      "name": "StakeWithdrawn",
      "type": "event"
    },
    {
      "anonymous": false,
      "inputs": [
        {
          "indexed": true,
          "internalType": "address",
          "name": "user",
          "type": "address"
        },
        {
          "indexed": false,
          "internalType": "uint256",
          "name": "amount",
          "type": "uint256"
        },
        {
          "indexed": false,
          "internalType": "uint256",
          "name": "stakeIndex",
          "type": "uint256"
        }
      ],
      "name": "TicketsClaimed",
      "type": "event"
    },
    {
      "inputs": [],
      "name": "DEFAULT_ADMIN_ROLE",
      "outputs": [
        {
          "internalType": "bytes32",
          "name": "",
          "type": "bytes32"
        }
      ],
      "stateMutability": "view",
      "type": "function"
    },
    {
      "inputs": [],
      "name": "MANAGER_ROLE",
      "outputs": [
        {
          "internalType": "bytes32",
          "name": "",
          "type": "bytes32"
        }
      ],
      "stateMutability": "view",
      "type": "function"
    },
    {
      "inputs": [],
      "name": "MIGRATOR_ROLE",
      "outputs": [
        {
          "internalType": "bytes32",
          "name": "",
          "type": "bytes32"
        }
      ],
      "stateMutability": "view",
      "type": "function"
    },
    {
      "inputs": [
        {
          "internalType": "address",
          "name": "owner",
          "type": "address"
        }
      ],
      "name": "__StakingAccessControl_init",
      "outputs": [],
      "stateMutability": "nonpayable",
      "type": "function"
    },
    {
      "inputs": [
        {
          "internalType": "address",
          "name": "account",
          "type": "address"
        }
      ],
      "name": "addManager",
      "outputs": [],
      "stateMutability": "nonpayable",
      "type": "function"
    },
    {
      "inputs": [
        {
          "internalType": "address",
          "name": "account",
          "type": "address"
        }
      ],
      "name": "addMigrator",
      "outputs": [],
      "stateMutability": "nonpayable",
      "type": "function"
    },
    {
      "inputs": [
        {
          "internalType": "uint256",
          "name": "stakeIndex",
          "type": "uint256"
        },
        {
          "internalType": "address",
          "name": "tokenAddress",
          "type": "address"
        },
        {
          "internalType": "uint256",
          "name": "tokenId",
          "type": "uint256"
        }
      ],
      "name": "addNftToStake",
      "outputs": [],
      "stateMutability": "nonpayable",
      "type": "function"
    },
    {
      "inputs": [
        {
          "internalType": "uint256",
          "name": "endTs",
          "type": "uint256"
        },
        {
          "internalType": "uint256",
          "name": "periodRewardsPerSecond",
          "type": "uint256"
        }
      ],
      "name": "addPeriod",
      "outputs": [],
      "stateMutability": "nonpayable",
      "type": "function"
    },
    {
      "inputs": [
        {
          "internalType": "uint256",
          "name": "stakeIndex",
          "type": "uint256"
        }
      ],
      "name": "claimTickets",
      "outputs": [],
      "stateMutability": "nonpayable",
      "type": "function"
    },
    {
      "inputs": [
        {
          "internalType": "uint256",
          "name": "stakeIndex",
          "type": "uint256"
        },
        {
          "internalType": "uint256",
          "name": "newLevel",
          "type": "uint256"
        }
      ],
      "name": "compound",
      "outputs": [],
      "stateMutability": "nonpayable",
      "type": "function"
    },
    {
      "inputs": [
        {
          "internalType": "uint256",
          "name": "tokenId",
          "type": "uint256"
        }
      ],
      "name": "deposit",
      "outputs": [],
      "stateMutability": "nonpayable",
      "type": "function"
    },
    {
      "inputs": [
        {
          "internalType": "uint256",
          "name": "stakeIndex",
          "type": "uint256"
        }
      ],
      "name": "emergencyWithdraw",
      "outputs": [],
      "stateMutability": "nonpayable",
      "type": "function"
    },
    {
      "inputs": [],
      "name": "emergencyWithdrawEnabled",
      "outputs": [
        {
          "internalType": "bool",
          "name": "",
          "type": "bool"
        }
      ],
      "stateMutability": "view",
      "type": "function"
    },
    {
      "inputs": [
        {
          "internalType": "bytes32",
          "name": "role",
          "type": "bytes32"
        }
      ],
      "name": "getRoleAdmin",
      "outputs": [
        {
          "internalType": "bytes32",
          "name": "",
          "type": "bytes32"
        }
      ],
      "stateMutability": "view",
      "type": "function"
    },
    {
      "inputs": [
        {
          "internalType": "bytes32",
          "name": "role",
          "type": "bytes32"
        },
        {
          "internalType": "uint256",
          "name": "index",
          "type": "uint256"
        }
      ],
      "name": "getRoleMember",
      "outputs": [
        {
          "internalType": "address",
          "name": "",
          "type": "address"
        }
      ],
      "stateMutability": "view",
      "type": "function"
    },
    {
      "inputs": [
        {
          "internalType": "bytes32",
          "name": "role",
          "type": "bytes32"
        }
      ],
      "name": "getRoleMemberCount",
      "outputs": [
        {
          "internalType": "uint256",
          "name": "",
          "type": "uint256"
        }
      ],
      "stateMutability": "view",
      "type": "function"
    },
    {
      "inputs": [],
      "name": "getTotalStakingUnits",
      "outputs": [
        {
          "internalType": "uint256",
          "name": "",
          "type": "uint256"
        }
      ],
      "stateMutability": "view",
      "type": "function"
    },
    {
      "inputs": [
        {
          "internalType": "uint256",
          "name": "stakeIndex",
          "type": "uint256"
        }
      ],
      "name": "getUserStake",
      "outputs": [
        {
          "components": [
            {
              "internalType": "uint256",
              "name": "amount",
              "type": "uint256"
            },
            {
              "internalType": "uint256",
              "name": "stakingUnits",
              "type": "uint256"
            },
            {
              "internalType": "uint256",
              "name": "rewardDebt",
              "type": "uint256"
            },
            {
              "internalType": "uint256",
              "name": "enteredAtTs",
              "type": "uint256"
            },
            {
              "internalType": "uint256",
              "name": "lastTicketClaimTs",
              "type": "uint256"
            },
            {
              "internalType": "uint256",
              "name": "currentLockDurationIndex",
              "type": "uint256"
            },
            {
              "internalType": "uint256",
              "name": "lockedTillTs",
              "type": "uint256"
            },
            {
              "internalType": "address",
              "name": "stakedNftAddress",
              "type": "address"
            },
            {
              "internalType": "uint256",
              "name": "stakedNftId",
              "type": "uint256"
            },
            {
              "internalType": "uint256",
              "name": "pendingRewards",
              "type": "uint256"
            },
            {
              "internalType": "uint256",
              "name": "cursor",
              "type": "uint256"
            },
            {
              "components": [
                {
                  "internalType": "uint256",
                  "name": "ticketsMintingRatioWhenEntered",
                  "type": "uint256"
                },
                {
                  "internalType": "uint256",
                  "name": "ticketsMintingCooldownPeriodRatioWhenEntered",
                  "type": "uint256"
                },
                {
                  "internalType": "uint256",
                  "name": "ticketsClaimedForCurrentStake",
                  "type": "uint256"
                },
                {
                  "internalType": "uint256",
                  "name": "pendingTickets",
                  "type": "uint256"
                }
              ],
              "internalType": "struct StakingTypes.TicketInfo",
              "name": "ticketInfo",
              "type": "tuple"
            }
          ],
          "internalType": "struct StakingTypes.StakeInfo",
          "name": "",
          "type": "tuple"
        }
      ],
      "stateMutability": "view",
      "type": "function"
    },
    {
      "inputs": [
        {
          "internalType": "bytes32",
          "name": "role",
          "type": "bytes32"
        },
        {
          "internalType": "address",
          "name": "account",
          "type": "address"
        }
      ],
      "name": "grantRole",
      "outputs": [],
      "stateMutability": "nonpayable",
      "type": "function"
    },
    {
      "inputs": [
        {
          "internalType": "bytes32",
          "name": "role",
          "type": "bytes32"
        },
        {
          "internalType": "address",
          "name": "account",
          "type": "address"
        }
      ],
      "name": "hasRole",
      "outputs": [
        {
          "internalType": "bool",
          "name": "",
          "type": "bool"
        }
      ],
      "stateMutability": "view",
      "type": "function"
    },
    {
      "inputs": [
        {
          "internalType": "contract IERC20Upgradeable",
          "name": "token",
          "type": "address"
        },
        {
          "internalType": "uint256",
          "name": "_endTs",
          "type": "uint256"
        },
        {
          "internalType": "uint256",
          "name": "_ticketsMintingRatio",
          "type": "uint256"
        },
        {
          "internalType": "uint256",
          "name": "_ticketsMintingCooldownPeriod",
          "type": "uint256"
        },
        {
          "internalType": "uint256[]",
          "name": "periodsStartTs",
          "type": "uint256[]"
        },
        {
          "internalType": "uint256[]",
          "name": "periodsRewardsPerSecond",
          "type": "uint256[]"
        },
        {
          "internalType": "contract RewardVault",
          "name": "_rewardVault",
          "type": "address"
        },
        {
          "internalType": "contract Minepunks",
          "name": "_minepunks",
          "type": "address"
        }
      ],
      "name": "initialize",
      "outputs": [],
      "stateMutability": "nonpayable",
      "type": "function"
    },
    {
      "inputs": [
        {
          "internalType": "address",
          "name": "account",
          "type": "address"
        }
      ],
      "name": "isManager",
      "outputs": [
        {
          "internalType": "bool",
          "name": "",
          "type": "bool"
        }
      ],
      "stateMutability": "view",
      "type": "function"
    },
    {
      "inputs": [
        {
          "internalType": "address",
          "name": "account",
          "type": "address"
        }
      ],
      "name": "isMigrator",
      "outputs": [
        {
          "internalType": "bool",
          "name": "",
          "type": "bool"
        }
      ],
      "stateMutability": "view",
      "type": "function"
    },
    {
      "inputs": [],
      "name": "minepunks",
      "outputs": [
        {
          "internalType": "contract Minepunks",
          "name": "",
          "type": "address"
        }
      ],
      "stateMutability": "view",
      "type": "function"
    },
    {
      "inputs": [
        {
          "internalType": "address",
          "name": "",
          "type": "address"
        },
        {
          "internalType": "address",
          "name": "",
          "type": "address"
        },
        {
          "internalType": "uint256[]",
          "name": "",
          "type": "uint256[]"
        },
        {
          "internalType": "uint256[]",
          "name": "",
          "type": "uint256[]"
        },
        {
          "internalType": "bytes",
          "name": "",
          "type": "bytes"
        }
      ],
      "name": "onERC1155BatchReceived",
      "outputs": [
        {
          "internalType": "bytes4",
          "name": "",
          "type": "bytes4"
        }
      ],
      "stateMutability": "nonpayable",
      "type": "function"
    },
    {
      "inputs": [
        {
          "internalType": "address",
          "name": "",
          "type": "address"
        },
        {
          "internalType": "address",
          "name": "",
          "type": "address"
        },
        {
          "internalType": "uint256",
          "name": "",
          "type": "uint256"
        },
        {
          "internalType": "uint256",
          "name": "",
          "type": "uint256"
        },
        {
          "internalType": "bytes",
          "name": "",
          "type": "bytes"
        }
      ],
      "name": "onERC1155Received",
      "outputs": [
        {
          "internalType": "bytes4",
          "name": "",
          "type": "bytes4"
        }
      ],
      "stateMutability": "nonpayable",
      "type": "function"
    },
    {
      "inputs": [
        {
          "internalType": "uint256",
          "name": "stakeIndex",
          "type": "uint256"
        }
      ],
      "name": "pendingReward",
      "outputs": [
        {
          "internalType": "uint256",
          "name": "",
          "type": "uint256"
        }
      ],
      "stateMutability": "view",
      "type": "function"
    },
    {
      "inputs": [],
      "name": "poolInfo",
      "outputs": [
        {
          "internalType": "uint256",
          "name": "globalPeriodCursor",
          "type": "uint256"
        },
        {
          "internalType": "uint256",
          "name": "totalStakingUnits",
          "type": "uint256"
        },
        {
          "internalType": "uint256",
          "name": "lastRewardTs",
          "type": "uint256"
        },
        {
          "internalType": "uint256",
          "name": "ticketsMintingRatio",
          "type": "uint256"
        },
        {
          "internalType": "uint256",
          "name": "ticketsMintingCooldownPeriod",
          "type": "uint256"
        },
        {
          "internalType": "contract RewardVault",
          "name": "rewardVault",
          "type": "address"
        },
        {
          "internalType": "contract IERC20Upgradeable",
          "name": "token",
          "type": "address"
        },
        {
          "internalType": "contract Minepunks",
          "name": "minepunks",
          "type": "address"
        }
      ],
      "stateMutability": "view",
      "type": "function"
    },
    {
      "inputs": [
        {
          "internalType": "address",
          "name": "manager",
          "type": "address"
        }
      ],
      "name": "removeManager",
      "outputs": [],
      "stateMutability": "nonpayable",
      "type": "function"
    },
    {
      "inputs": [
        {
          "internalType": "address",
          "name": "migrator",
          "type": "address"
        }
      ],
      "name": "removeMigrator",
      "outputs": [],
      "stateMutability": "nonpayable",
      "type": "function"
    },
    {
      "inputs": [],
      "name": "renounceManager",
      "outputs": [],
      "stateMutability": "nonpayable",
      "type": "function"
    },
    {
      "inputs": [],
      "name": "renounceMigrator",
      "outputs": [],
      "stateMutability": "nonpayable",
      "type": "function"
    },
    {
      "inputs": [
        {
          "internalType": "bytes32",
          "name": "role",
          "type": "bytes32"
        },
        {
          "internalType": "address",
          "name": "account",
          "type": "address"
        }
      ],
      "name": "renounceRole",
      "outputs": [],
      "stateMutability": "nonpayable",
      "type": "function"
    },
    {
      "inputs": [
        {
          "internalType": "bytes32",
          "name": "role",
          "type": "bytes32"
        },
        {
          "internalType": "address",
          "name": "account",
          "type": "address"
        }
      ],
      "name": "revokeRole",
      "outputs": [],
      "stateMutability": "nonpayable",
      "type": "function"
    },
    {
      "inputs": [
        {
          "internalType": "uint256",
          "name": "index",
          "type": "uint256"
        }
      ],
      "name": "rewardPeriods",
      "outputs": [
        {
          "components": [
            {
              "internalType": "uint256",
              "name": "startTs",
              "type": "uint256"
            },
            {
              "internalType": "uint256",
              "name": "endTs",
              "type": "uint256"
            },
            {
              "internalType": "uint256",
              "name": "lastRewardTs",
              "type": "uint256"
            },
            {
              "internalType": "uint256",
              "name": "rewardPerSecond",
              "type": "uint256"
            },
            {
              "internalType": "uint256",
              "name": "accRewardPerShare",
              "type": "uint256"
            },
            {
              "internalType": "uint256",
              "name": "endAccRewardPerShare",
              "type": "uint256"
            }
          ],
          "internalType": "struct StakingTypes.RewardPeriodInfo",
          "name": "",
          "type": "tuple"
        }
      ],
      "stateMutability": "view",
      "type": "function"
    },
    {
      "inputs": [
        {
          "internalType": "uint256",
          "name": "",
          "type": "uint256"
        }
      ],
      "name": "stakeInfo",
      "outputs": [
        {
          "internalType": "uint256",
          "name": "amount",
          "type": "uint256"
        },
        {
          "internalType": "uint256",
          "name": "stakingUnits",
          "type": "uint256"
        },
        {
          "internalType": "uint256",
          "name": "rewardDebt",
          "type": "uint256"
        },
        {
          "internalType": "uint256",
          "name": "enteredAtTs",
          "type": "uint256"
        },
        {
          "internalType": "uint256",
          "name": "lastTicketClaimTs",
          "type": "uint256"
        },
        {
          "internalType": "uint256",
          "name": "currentLockDurationIndex",
          "type": "uint256"
        },
        {
          "internalType": "uint256",
          "name": "lockedTillTs",
          "type": "uint256"
        },
        {
          "internalType": "address",
          "name": "stakedNftAddress",
          "type": "address"
        },
        {
          "internalType": "uint256",
          "name": "stakedNftId",
          "type": "uint256"
        },
        {
          "internalType": "uint256",
          "name": "pendingRewards",
          "type": "uint256"
        },
        {
          "internalType": "uint256",
          "name": "cursor",
          "type": "uint256"
        },
        {
          "components": [
            {
              "internalType": "uint256",
              "name": "ticketsMintingRatioWhenEntered",
              "type": "uint256"
            },
            {
              "internalType": "uint256",
              "name": "ticketsMintingCooldownPeriodRatioWhenEntered",
              "type": "uint256"
            },
            {
              "internalType": "uint256",
              "name": "ticketsClaimedForCurrentStake",
              "type": "uint256"
            },
            {
              "internalType": "uint256",
              "name": "pendingTickets",
              "type": "uint256"
            }
          ],
          "internalType": "struct StakingTypes.TicketInfo",
          "name": "ticketInfo",
          "type": "tuple"
        }
      ],
      "stateMutability": "view",
      "type": "function"
    },
    {
      "inputs": [
        {
          "internalType": "bytes4",
          "name": "interfaceID",
          "type": "bytes4"
        }
      ],
      "name": "supportsInterface",
      "outputs": [
        {
          "internalType": "bool",
          "name": "",
          "type": "bool"
        }
      ],
      "stateMutability": "pure",
      "type": "function"
    },
    {
      "inputs": [],
      "name": "toggleEmergencyWithdraw",
      "outputs": [],
      "stateMutability": "nonpayable",
      "type": "function"
    },
    {
      "inputs": [
        {
          "internalType": "contract IERC20Upgradeable",
          "name": "_token",
          "type": "address"
        },
        {
          "internalType": "contract RewardVault",
          "name": "_rewardVault",
          "type": "address"
        },
        {
          "internalType": "contract Minepunks",
          "name": "_minepunks",
          "type": "address"
        }
      ],
      "name": "updateContracts",
      "outputs": [],
      "stateMutability": "nonpayable",
      "type": "function"
    },
    {
      "inputs": [
        {
          "internalType": "uint256[]",
          "name": "_lockPeriods",
          "type": "uint256[]"
        },
        {
          "internalType": "uint256[]",
          "name": "_lockPeriodMultipliers",
          "type": "uint256[]"
        }
      ],
      "name": "updateLockPeriods",
      "outputs": [],
      "stateMutability": "nonpayable",
      "type": "function"
    },
    {
      "inputs": [
        {
          "internalType": "uint256",
          "name": "startTs",
          "type": "uint256"
        },
        {
          "internalType": "uint256",
          "name": "endTs",
          "type": "uint256"
        },
        {
          "internalType": "uint256",
          "name": "periodRewardsPerSecond",
          "type": "uint256"
        }
      ],
      "name": "updatePeriod",
      "outputs": [],
      "stateMutability": "nonpayable",
      "type": "function"
    },
    {
      "inputs": [
        {
          "internalType": "uint256",
          "name": "ticketsMintingRatio",
          "type": "uint256"
        },
        {
          "internalType": "uint256",
          "name": "ticketsMintingCooldownPeriod",
          "type": "uint256"
        }
      ],
      "name": "updateTickerMintingConfig",
      "outputs": [],
      "stateMutability": "nonpayable",
      "type": "function"
    },
    {
      "inputs": [
        {
          "internalType": "uint256",
          "name": "tokenId",
          "type": "uint256"
        }
      ],
      "name": "withdraw",
      "outputs": [],
      "stateMutability": "nonpayable",
      "type": "function"
    }
  ],
  "transactionHash": "0xee5c5162a6765da35475683fb1c4cf2dca4707aa5bae3cd2a563897f6095e819",
  "args": [],
  "numDeployments": 1,
  "solcInputHash": "516b1f9e0012059874c822ec79b2f669",
  "bytecode": "0x608060405234801561001057600080fd5b50614978806100206000396000f3fe608060405234801561001057600080fd5b50600436106102695760003560e01c80636fae2e1511610151578063bff1208d116100c3578063dea0153611610087578063dea015361461073c578063e3638d6514610758578063ec87621c14610788578063f23a6e61146107a6578063f3ae2415146107d6578063f8b91abe1461080657610269565b8063bff1208d1461069c578063ca15c873146106b8578063ca8df110146106e8578063d081f36214610704578063d547741f1461072057610269565b80639c5303eb116101155780639c5303eb146105ca578063a217fddf146105e6578063a9d48b4314610604578063ac18de4314610634578063b6b55f2514610650578063bc197c811461066c57610269565b80636fae2e15146105005780638252097d1461051e5780638dcd3de41461054e5780639010d07c1461056a57806391d148541461059a57610269565b80632e1a7d4d116101ea5780635312ea8e116101ae5780635312ea8e1461044b5780635747e69f146104675780635a2f3d09146104855780635df69d13146104aa57806360393a55146104c85780636dca4d44146104e457610269565b80632e1a7d4d146103a05780632f2ff15d146103bc57806336568abe146103d857806337f380dd146103f45780634e5335721461041057610269565b8063136d7fa111610231578063136d7fa1146102fe5780631b3e870a1461031a578063248a9ca3146103365780632c8d7a5e146103665780632d06177a1461038457610269565b8063011f09bb1461026e57806301ffc9a71461028a57806304c6a864146102ba578063093cf18f146102c457806312f7086c146102ce575b600080fd5b610288600480360381019061028391906128b9565b610810565b005b6102a4600480360381019061029f9190612964565b6108ec565b6040516102b191906129ac565b60405180910390f35b6102c261094e565b005b6102cc6109bd565b005b6102e860048036038101906102e391906129c7565b6109eb565b6040516102f59190612a03565b60405180910390f35b61031860048036038101906103139190612b77565b610a87565b005b610334600480360381019061032f9190612c4d565b610b28565b005b610350600480360381019061034b9190612cb0565b610b98565b60405161035d9190612cec565b60405180910390f35b61036e610bb8565b60405161037b9190612a03565b60405180910390f35b61039e60048036038101906103999190612c4d565b610bc5565b005b6103ba60048036038101906103b591906129c7565b610c35565b005b6103d660048036038101906103d19190612d07565b610d29565b005b6103f260048036038101906103ed9190612d07565b610d52565b005b61040e60048036038101906104099190612c4d565b610dd5565b005b61042a600480360381019061042591906129c7565b610f23565b6040516104429c9b9a99989796959493929190612dba565b60405180910390f35b610465600480360381019061046091906129c7565b610fd6565b005b61046f611159565b60405161047c91906129ac565b60405180910390f35b61048d61116d565b6040516104a1989796959493929190612f15565b60405180910390f35b6104b2611203565b6040516104bf9190612f93565b60405180910390f35b6104e260048036038101906104dd9190612fae565b61122a565b005b6104fe60048036038101906104f991906130a8565b611303565b005b61050861143d565b6040516105159190612cec565b60405180910390f35b610538600480360381019061053391906129c7565b611461565b6040516105459190613176565b60405180910390f35b61056860048036038101906105639190613191565b6114dc565b005b610584600480360381019061057f919061327f565b611649565b60405161059191906132bf565b60405180910390f35b6105b460048036038101906105af9190612d07565b611678565b6040516105c191906129ac565b60405180910390f35b6105e460048036038101906105df9190612c4d565b6116e3565b005b6105ee611753565b6040516105fb9190612cec565b60405180910390f35b61061e600480360381019061061991906129c7565b61175a565b60405161062b9190613434565b60405180910390f35b61064e60048036038101906106499190612c4d565b61187f565b005b61066a600480360381019061066591906129c7565b6118ef565b005b610686600480360381019061068191906134ab565b6119ee565b604051610693919061358c565b60405180910390f35b6106b660048036038101906106b19190612fae565b611a04565b005b6106d260048036038101906106cd9190612cb0565b611b3f565b6040516106df9190612a03565b60405180910390f35b61070260048036038101906106fd91906129c7565b611b63565b005b61071e60048036038101906107199190612fae565b611c2c565b005b61073a60048036038101906107359190612d07565b611cad565b005b610756600480360381019061075191906135a7565b611cd6565b005b610772600480360381019061076d9190612c4d565b611e0a565b60405161077f91906129ac565b60405180910390f35b610790611e3d565b60405161079d9190612cec565b60405180910390f35b6107c060048036038101906107bb91906135fa565b611e61565b6040516107cd919061358c565b60405180910390f35b6107f060048036038101906107eb9190612c4d565b611e77565b6040516107fd91906129ac565b60405180910390f35b61080e611eaa565b005b61083a7f241ecf16d79d0f8dbfb92cbc07fe17840425976cf0667f022fe9877caa831b0833611678565b610879576040517f08c379a000000000000000000000000000000000000000000000000000000000815260040161087090613717565b60405180910390fd5b73F6a2f4C4966be689448A9882Fe11F2abD0907ad4630bc44df084848460fb6040518563ffffffff1660e01b81526004016108b7949392919061374d565b60006040518083038186803b1580156108cf57600080fd5b505af41580156108e3573d6000803e3d6000fd5b50505050505050565b60006301ffc9a760e01b827bffffffffffffffffffffffffffffffffffffffffffffffffffffffff191614806109475750634e2312e060e01b827bffffffffffffffffffffffffffffffffffffffffffffffffffffffff1916145b9050919050565b6109787f600e5f1c60beb469a3fa6dd3814a4ae211cc6259a6d033bae218a742f2af01d333610d52565b3373ffffffffffffffffffffffffffffffffffffffff167f9fcee921c6450ef694b979a304ea9ba28b41add99fa88bf202e575231817f54060405160405180910390a2565b61010760009054906101000a900460ff161561010760006101000a81548160ff021916908315150217905550565b6000806101066000848152602001908152602001600020905073F6a2f4C4966be689448A9882Fe11F2abD0907ad463ab714cb98260fb6040518363ffffffff1660e01b8152600401610a3e929190613a0a565b602060405180830381865af4158015610a5b573d6000803e3d6000fd5b505050506040513d601f19601f82011682018060405250810190610a7f9190613a4a565b915050919050565b610ab17f241ecf16d79d0f8dbfb92cbc07fe17840425976cf0667f022fe9877caa831b0833611678565b610af0576040517f08c379a0000000000000000000000000000000000000000000000000000000008152600401610ae790613717565b60405180910390fd5b8060fb6006019080519060200190610b0992919061272a565b508160fb6005019080519060200190610b2392919061272a565b505050565b610b527f600e5f1c60beb469a3fa6dd3814a4ae211cc6259a6d033bae218a742f2af01d382611cad565b8073ffffffffffffffffffffffffffffffffffffffff167f9fcee921c6450ef694b979a304ea9ba28b41add99fa88bf202e575231817f54060405160405180910390a250565b600060656000838152602001908152602001600020600101549050919050565b600060fb60010154905090565b610bef7f241ecf16d79d0f8dbfb92cbc07fe17840425976cf0667f022fe9877caa831b0882610d29565b8073ffffffffffffffffffffffffffffffffffffffff167f3b4a40cccf2058c593542587329dd385be4f0b588db5471fbd9598e56dd7093a60405160405180910390a250565b600260c9541415610c7b576040517f08c379a0000000000000000000000000000000000000000000000000000000008152600401610c7290613ac3565b60405180910390fd5b600260c98190555060006101066000838152602001908152602001600020905060007377c3E825a5002736269958a2299F1163239458A4636823d59d838560fb6040518463ffffffff1660e01b8152600401610cd993929190613aea565b602060405180830381865af4158015610cf6573d6000803e3d6000fd5b505050506040513d601f19601f82011682018060405250810190610d1a9190613a4a565b90505050600160c98190555050565b610d3282610b98565b610d4381610d3e611f19565b611f21565b610d4d8383611fbe565b505050565b610d5a611f19565b73ffffffffffffffffffffffffffffffffffffffff168173ffffffffffffffffffffffffffffffffffffffff1614610dc7576040517f08c379a0000000000000000000000000000000000000000000000000000000008152600401610dbe90613b93565b60405180910390fd5b610dd18282611ff2565b5050565b600060019054906101000a900460ff16610dfd5760008054906101000a900460ff1615610e06565b610e05612026565b5b610e45576040517f08c379a0000000000000000000000000000000000000000000000000000000008152600401610e3c90613c25565b60405180910390fd5b60008060019054906101000a900460ff161590508015610e95576001600060016101000a81548160ff02191690831515021790555060016000806101000a81548160ff0219169083151502179055505b610e9d612037565b610eaa6000801b83612088565b610ed47f241ecf16d79d0f8dbfb92cbc07fe17840425976cf0667f022fe9877caa831b0883612088565b610efe7f600e5f1c60beb469a3fa6dd3814a4ae211cc6259a6d033bae218a742f2af01d383612088565b8015610f1f5760008060016101000a81548160ff0219169083151502179055505b5050565b6101066020528060005260406000206000915090508060000154908060010154908060020154908060030154908060040154908060050154908060060154908060070160009054906101000a900473ffffffffffffffffffffffffffffffffffffffff169080600801549080600901549080600a01549080600b0160405180608001604052908160008201548152602001600182015481526020016002820154815260200160038201548152505090508c565b61010760009054906101000a900460ff16611026576040517f08c379a000000000000000000000000000000000000000000000000000000000815260040161101d90613cb7565b60405180910390fd5b600260c954141561106c576040517f08c379a000000000000000000000000000000000000000000000000000000000815260040161106390613ac3565b60405180910390fd5b600260c9819055506000610106600083815260200190815260200160002090507377c3E825a5002736269958a2299F1163239458A463a60f4dfe8260fb6040518363ffffffff1660e01b81526004016110c6929190614143565b60006040518083038186803b1580156110de57600080fd5b505af41580156110f2573d6000803e3d6000fd5b505050503373ffffffffffffffffffffffffffffffffffffffff167fa4fee3b86fa591d4905a1160a23c8cde8fa5a4a2ff04dcd8fac6a3496ec058a4826000015484600160405161114593929190614173565b60405180910390a250600160c98190555050565b61010760009054906101000a900460ff1681565b60fb8060000154908060010154908060020154908060030154908060040154908060080160009054906101000a900473ffffffffffffffffffffffffffffffffffffffff16908060090160009054906101000a900473ffffffffffffffffffffffffffffffffffffffff169080600a0160009054906101000a900473ffffffffffffffffffffffffffffffffffffffff16905088565b61010760019054906101000a900473ffffffffffffffffffffffffffffffffffffffff1681565b6112547f241ecf16d79d0f8dbfb92cbc07fe17840425976cf0667f022fe9877caa831b0833611678565b611293576040517f08c379a000000000000000000000000000000000000000000000000000000000815260040161128a90613717565b60405180910390fd5b73F6a2f4C4966be689448A9882Fe11F2abD0907ad463e1d93ac860fb84846040518463ffffffff1660e01b81526004016112cf939291906141aa565b60006040518083038186803b1580156112e757600080fd5b505af41580156112fb573d6000803e3d6000fd5b505050505050565b61132d7f241ecf16d79d0f8dbfb92cbc07fe17840425976cf0667f022fe9877caa831b0833611678565b61136c576040517f08c379a000000000000000000000000000000000000000000000000000000000815260040161136390613717565b60405180910390fd5b8260fb60090160006101000a81548173ffffffffffffffffffffffffffffffffffffffff021916908373ffffffffffffffffffffffffffffffffffffffff1602179055508160fb60080160006101000a81548173ffffffffffffffffffffffffffffffffffffffff021916908373ffffffffffffffffffffffffffffffffffffffff1602179055508060fb600a0160006101000a81548173ffffffffffffffffffffffffffffffffffffffff021916908373ffffffffffffffffffffffffffffffffffffffff160217905550505050565b7f600e5f1c60beb469a3fa6dd3814a4ae211cc6259a6d033bae218a742f2af01d381565b611469612777565b60fb60070182815481106114805761147f6141e1565b5b90600052602060002090600602016040518060c001604052908160008201548152602001600182015481526020016002820154815260200160038201548152602001600482015481526020016005820154815250509050919050565b600060019054906101000a900460ff166115045760008054906101000a900460ff161561150d565b61150c612026565b5b61154c576040517f08c379a000000000000000000000000000000000000000000000000000000000815260040161154390613c25565b60405180910390fd5b60008060019054906101000a900460ff16159050801561159c576001600060016101000a81548160ff02191690831515021790555060016000806101000a81548160ff0219169083151502179055505b6115a533610dd5565b73F6a2f4C4966be689448A9882Fe11F2abD0907ad4632f0e5a1e8a8a8a8a8a8a8a8a60fb6040518a63ffffffff1660e01b81526004016115ed999897969594939291906142d4565b60006040518083038186803b15801561160557600080fd5b505af4158015611619573d6000803e3d6000fd5b50505050801561163e5760008060016101000a81548160ff0219169083151502179055505b505050505050505050565b6000611670826097600086815260200190815260200160002061209690919063ffffffff16565b905092915050565b60006065600084815260200190815260200160002060000160008373ffffffffffffffffffffffffffffffffffffffff1673ffffffffffffffffffffffffffffffffffffffff16815260200190815260200160002060009054906101000a900460ff16905092915050565b61170d7f600e5f1c60beb469a3fa6dd3814a4ae211cc6259a6d033bae218a742f2af01d382610d29565b8073ffffffffffffffffffffffffffffffffffffffff167f3f3e6d173147e88d1e5b10aeb43533723cdb45f5fd44658caf5a103ce601911260405160405180910390a250565b6000801b81565b6117626127ad565b610106600083815260200190815260200160002060405180610180016040529081600082015481526020016001820154815260200160028201548152602001600382015481526020016004820154815260200160058201548152602001600682015481526020016007820160009054906101000a900473ffffffffffffffffffffffffffffffffffffffff1673ffffffffffffffffffffffffffffffffffffffff1673ffffffffffffffffffffffffffffffffffffffff1681526020016008820154815260200160098201548152602001600a8201548152602001600b8201604051806080016040529081600082015481526020016001820154815260200160028201548152602001600382015481525050815250509050919050565b6118a97f241ecf16d79d0f8dbfb92cbc07fe17840425976cf0667f022fe9877caa831b0882611cad565b8073ffffffffffffffffffffffffffffffffffffffff167fef69f7d97228658c92417be1b16b19058315de71fecb435d07b7d23728b6bd3160405160405180910390a250565b600260c9541415611935576040517f08c379a000000000000000000000000000000000000000000000000000000000815260040161192c90613ac3565b60405180910390fd5b600260c9819055506000806001905060006101066000858152602001908152602001600020905060007377c3E825a5002736269958a2299F1163239458A46314a04aa084868560fb6040518563ffffffff1660e01b815260040161199c949392919061436f565b602060405180830381865af41580156119b9573d6000803e3d6000fd5b505050506040513d601f19601f820116820180604052508101906119dd9190613a4a565b905050505050600160c98190555050565b600063f23a6e6160e01b90509695505050505050565b600260c9541415611a4a576040517f08c379a0000000000000000000000000000000000000000000000000000000008152600401611a4190613ac3565b60405180910390fd5b600260c98190555060006101066000848152602001908152602001600020905081816000015410611ab0576040517f08c379a0000000000000000000000000000000000000000000000000000000008152600401611aa790614426565b60405180910390fd5b60007377c3E825a5002736269958a2299F1163239458A4636e38066b8360fb866040518463ffffffff1660e01b8152600401611aee93929190614446565b602060405180830381865af4158015611b0b573d6000803e3d6000fd5b505050506040513d601f19601f82011682018060405250810190611b2f9190613a4a565b90505050600160c9819055505050565b6000611b5c609760008481526020019081526020016000206120b0565b9050919050565b600260c9541415611ba9576040517f08c379a0000000000000000000000000000000000000000000000000000000008152600401611ba090613ac3565b60405180910390fd5b600260c9819055506000610106600083815260200190815260200160002090506000606490503373ffffffffffffffffffffffffffffffffffffffff167f525920036f8ef01fec7151b5da9efc5c2cc8ddc66fe134d0a4472ec0fa3be3e98285604051611c1792919061447d565b60405180910390a25050600160c98190555050565b611c567f241ecf16d79d0f8dbfb92cbc07fe17840425976cf0667f022fe9877caa831b0833611678565b611c95576040517f08c379a0000000000000000000000000000000000000000000000000000000008152600401611c8c90613717565b60405180910390fd5b8160fb600301819055508060fb600401819055505050565b611cb682610b98565b611cc781611cc2611f19565b611f21565b611cd18383611ff2565b505050565b600260c9541415611d1c576040517f08c379a0000000000000000000000000000000000000000000000000000000008152600401611d1390613ac3565b60405180910390fd5b600260c9819055506000610106600085815260200190815260200160002090507377c3E825a5002736269958a2299F1163239458A4635ef4b8b482858560fb6040518563ffffffff1660e01b8152600401611d7a94939291906144b5565b60006040518083038186803b158015611d9257600080fd5b505af4158015611da6573d6000803e3d6000fd5b505050503373ffffffffffffffffffffffffffffffffffffffff167fd0077e383202d19b2efa91667848da2805ce64ce47d8ae18e6672608f14402bf838587604051611df4939291906144fa565b60405180910390a250600160c981905550505050565b6000611e367f600e5f1c60beb469a3fa6dd3814a4ae211cc6259a6d033bae218a742f2af01d383611678565b9050919050565b7f241ecf16d79d0f8dbfb92cbc07fe17840425976cf0667f022fe9877caa831b0881565b600063f23a6e6160e01b90509695505050505050565b6000611ea37f241ecf16d79d0f8dbfb92cbc07fe17840425976cf0667f022fe9877caa831b0883611678565b9050919050565b611ed47f241ecf16d79d0f8dbfb92cbc07fe17840425976cf0667f022fe9877caa831b0833610d52565b3373ffffffffffffffffffffffffffffffffffffffff167fef69f7d97228658c92417be1b16b19058315de71fecb435d07b7d23728b6bd3160405160405180910390a2565b600033905090565b611f2b8282611678565b611fba57611f508173ffffffffffffffffffffffffffffffffffffffff1660146120c5565b611f5e8360001c60206120c5565b604051602001611f6f929190614643565b6040516020818303038152906040526040517f08c379a0000000000000000000000000000000000000000000000000000000008152600401611fb191906146b6565b60405180910390fd5b5050565b611fc88282612301565b611fed81609760008581526020019081526020016000206123e290919063ffffffff16565b505050565b611ffc8282612412565b61202181609760008581526020019081526020016000206124f490919063ffffffff16565b505050565b600061203130612524565b15905090565b600060019054906101000a900460ff16612086576040517f08c379a000000000000000000000000000000000000000000000000000000000815260040161207d9061474a565b60405180910390fd5b565b6120928282611fbe565b5050565b60006120a58360000183612547565b60001c905092915050565b60006120be82600001612572565b9050919050565b6060600060028360026120d89190614799565b6120e291906147f3565b67ffffffffffffffff8111156120fb576120fa612a34565b5b6040519080825280601f01601f19166020018201604052801561212d5781602001600182028036833780820191505090505b5090507f300000000000000000000000000000000000000000000000000000000000000081600081518110612165576121646141e1565b5b60200101907effffffffffffffffffffffffffffffffffffffffffffffffffffffffffffff1916908160001a9053507f7800000000000000000000000000000000000000000000000000000000000000816001815181106121c9576121c86141e1565b5b60200101907effffffffffffffffffffffffffffffffffffffffffffffffffffffffffffff1916908160001a905350600060018460026122099190614799565b61221391906147f3565b90505b60018111156122b3577f3031323334353637383961626364656600000000000000000000000000000000600f861660108110612255576122546141e1565b5b1a60f81b82828151811061226c5761226b6141e1565b5b60200101907effffffffffffffffffffffffffffffffffffffffffffffffffffffffffffff1916908160001a905350600485901c9450806122ac90614849565b9050612216565b50600084146122f7576040517f08c379a00000000000000000000000000000000000000000000000000000000081526004016122ee906148bf565b60405180910390fd5b8091505092915050565b61230b8282611678565b6123de5760016065600084815260200190815260200160002060000160008373ffffffffffffffffffffffffffffffffffffffff1673ffffffffffffffffffffffffffffffffffffffff16815260200190815260200160002060006101000a81548160ff021916908315150217905550612383611f19565b73ffffffffffffffffffffffffffffffffffffffff168173ffffffffffffffffffffffffffffffffffffffff16837f2f8788117e7eff1d82e926ec794901d17c78024a50270940304540a733656f0d60405160405180910390a45b5050565b600061240a836000018373ffffffffffffffffffffffffffffffffffffffff1660001b612583565b905092915050565b61241c8282611678565b156124f05760006065600084815260200190815260200160002060000160008373ffffffffffffffffffffffffffffffffffffffff1673ffffffffffffffffffffffffffffffffffffffff16815260200190815260200160002060006101000a81548160ff021916908315150217905550612495611f19565b73ffffffffffffffffffffffffffffffffffffffff168173ffffffffffffffffffffffffffffffffffffffff16837ff6391f5c32d9c69d2a47ea670b442974b53935d1edc7fd64eb21e047a839171b60405160405180910390a45b5050565b600061251c836000018373ffffffffffffffffffffffffffffffffffffffff1660001b6125f3565b905092915050565b6000808273ffffffffffffffffffffffffffffffffffffffff163b119050919050565b600082600001828154811061255f5761255e6141e1565b5b9060005260206000200154905092915050565b600081600001805490509050919050565b600061258f8383612707565b6125e85782600001829080600181540180825580915050600190039060005260206000200160009091909190915055826000018054905083600101600084815260200190815260200160002081905550600190506125ed565b600090505b92915050565b600080836001016000848152602001908152602001600020549050600081146126fb57600060018261262591906148df565b905060006001866000018054905061263d91906148df565b90508181146126ac57600086600001828154811061265e5761265d6141e1565b5b9060005260206000200154905080876000018481548110612682576126816141e1565b5b90600052602060002001819055508387600101600083815260200190815260200160002081905550505b856000018054806126c0576126bf614913565b5b600190038181906000526020600020016000905590558560010160008681526020019081526020016000206000905560019350505050612701565b60009150505b92915050565b600080836001016000848152602001908152602001600020541415905092915050565b828054828255906000526020600020908101928215612766579160200282015b8281111561276557825182559160200191906001019061274a565b5b509050612773919061282a565b5090565b6040518060c001604052806000815260200160008152602001600081526020016000815260200160008152602001600081525090565b60405180610180016040528060008152602001600081526020016000815260200160008152602001600081526020016000815260200160008152602001600073ffffffffffffffffffffffffffffffffffffffff168152602001600081526020016000815260200160008152602001612824612847565b81525090565b5b8082111561284357600081600090555060010161282b565b5090565b6040518060800160405280600081526020016000815260200160008152602001600081525090565b6000604051905090565b600080fd5b600080fd5b6000819050919050565b61289681612883565b81146128a157600080fd5b50565b6000813590506128b38161288d565b92915050565b6000806000606084860312156128d2576128d1612879565b5b60006128e0868287016128a4565b93505060206128f1868287016128a4565b9250506040612902868287016128a4565b9150509250925092565b60007fffffffff0000000000000000000000000000000000000000000000000000000082169050919050565b6129418161290c565b811461294c57600080fd5b50565b60008135905061295e81612938565b92915050565b60006020828403121561297a57612979612879565b5b60006129888482850161294f565b91505092915050565b60008115159050919050565b6129a681612991565b82525050565b60006020820190506129c1600083018461299d565b92915050565b6000602082840312156129dd576129dc612879565b5b60006129eb848285016128a4565b91505092915050565b6129fd81612883565b82525050565b6000602082019050612a1860008301846129f4565b92915050565b600080fd5b6000601f19601f8301169050919050565b7f4e487b7100000000000000000000000000000000000000000000000000000000600052604160045260246000fd5b612a6c82612a23565b810181811067ffffffffffffffff82111715612a8b57612a8a612a34565b5b80604052505050565b6000612a9e61286f565b9050612aaa8282612a63565b919050565b600067ffffffffffffffff821115612aca57612ac9612a34565b5b602082029050602081019050919050565b600080fd5b6000612af3612aee84612aaf565b612a94565b90508083825260208201905060208402830185811115612b1657612b15612adb565b5b835b81811015612b3f5780612b2b88826128a4565b845260208401935050602081019050612b18565b5050509392505050565b600082601f830112612b5e57612b5d612a1e565b5b8135612b6e848260208601612ae0565b91505092915050565b60008060408385031215612b8e57612b8d612879565b5b600083013567ffffffffffffffff811115612bac57612bab61287e565b5b612bb885828601612b49565b925050602083013567ffffffffffffffff811115612bd957612bd861287e565b5b612be585828601612b49565b9150509250929050565b600073ffffffffffffffffffffffffffffffffffffffff82169050919050565b6000612c1a82612bef565b9050919050565b612c2a81612c0f565b8114612c3557600080fd5b50565b600081359050612c4781612c21565b92915050565b600060208284031215612c6357612c62612879565b5b6000612c7184828501612c38565b91505092915050565b6000819050919050565b612c8d81612c7a565b8114612c9857600080fd5b50565b600081359050612caa81612c84565b92915050565b600060208284031215612cc657612cc5612879565b5b6000612cd484828501612c9b565b91505092915050565b612ce681612c7a565b82525050565b6000602082019050612d016000830184612cdd565b92915050565b60008060408385031215612d1e57612d1d612879565b5b6000612d2c85828601612c9b565b9250506020612d3d85828601612c38565b9150509250929050565b612d5081612c0f565b82525050565b612d5f81612883565b82525050565b608082016000820151612d7b6000850182612d56565b506020820151612d8e6020850182612d56565b506040820151612da16040850182612d56565b506060820151612db46060850182612d56565b50505050565b60006101e082019050612dd0600083018f6129f4565b612ddd602083018e6129f4565b612dea604083018d6129f4565b612df7606083018c6129f4565b612e04608083018b6129f4565b612e1160a083018a6129f4565b612e1e60c08301896129f4565b612e2b60e0830188612d47565b612e396101008301876129f4565b612e476101208301866129f4565b612e556101408301856129f4565b612e63610160830184612d65565b9d9c50505050505050505050505050565b6000819050919050565b6000612e99612e94612e8f84612bef565b612e74565b612bef565b9050919050565b6000612eab82612e7e565b9050919050565b6000612ebd82612ea0565b9050919050565b612ecd81612eb2565b82525050565b6000612ede82612ea0565b9050919050565b612eee81612ed3565b82525050565b6000612eff82612ea0565b9050919050565b612f0f81612ef4565b82525050565b600061010082019050612f2b600083018b6129f4565b612f38602083018a6129f4565b612f4560408301896129f4565b612f5260608301886129f4565b612f5f60808301876129f4565b612f6c60a0830186612ec4565b612f7960c0830185612ee5565b612f8660e0830184612f06565b9998505050505050505050565b6000602082019050612fa86000830184612f06565b92915050565b60008060408385031215612fc557612fc4612879565b5b6000612fd3858286016128a4565b9250506020612fe4858286016128a4565b9150509250929050565b6000612ff982612c0f565b9050919050565b61300981612fee565b811461301457600080fd5b50565b60008135905061302681613000565b92915050565b600061303782612c0f565b9050919050565b6130478161302c565b811461305257600080fd5b50565b6000813590506130648161303e565b92915050565b600061307582612c0f565b9050919050565b6130858161306a565b811461309057600080fd5b50565b6000813590506130a28161307c565b92915050565b6000806000606084860312156130c1576130c0612879565b5b60006130cf86828701613017565b93505060206130e086828701613055565b92505060406130f186828701613093565b9150509250925092565b60c0820160008201516131116000850182612d56565b5060208201516131246020850182612d56565b5060408201516131376040850182612d56565b50606082015161314a6060850182612d56565b50608082015161315d6080850182612d56565b5060a082015161317060a0850182612d56565b50505050565b600060c08201905061318b60008301846130fb565b92915050565b600080600080600080600080610100898b0312156131b2576131b1612879565b5b60006131c08b828c01613017565b98505060206131d18b828c016128a4565b97505060406131e28b828c016128a4565b96505060606131f38b828c016128a4565b955050608089013567ffffffffffffffff8111156132145761321361287e565b5b6132208b828c01612b49565b94505060a089013567ffffffffffffffff8111156132415761324061287e565b5b61324d8b828c01612b49565b93505060c061325e8b828c01613055565b92505060e061326f8b828c01613093565b9150509295985092959890939650565b6000806040838503121561329657613295612879565b5b60006132a485828601612c9b565b92505060206132b5858286016128a4565b9150509250929050565b60006020820190506132d46000830184612d47565b92915050565b6132e381612c0f565b82525050565b6080820160008201516132ff6000850182612d56565b5060208201516133126020850182612d56565b5060408201516133256040850182612d56565b5060608201516133386060850182612d56565b50505050565b6101e0820160008201516133556000850182612d56565b5060208201516133686020850182612d56565b50604082015161337b6040850182612d56565b50606082015161338e6060850182612d56565b5060808201516133a16080850182612d56565b5060a08201516133b460a0850182612d56565b5060c08201516133c760c0850182612d56565b5060e08201516133da60e08501826132da565b506101008201516133ef610100850182612d56565b50610120820151613404610120850182612d56565b50610140820151613419610140850182612d56565b5061016082015161342e6101608501826132e9565b50505050565b60006101e08201905061344a600083018461333e565b92915050565b600080fd5b60008083601f84011261346b5761346a612a1e565b5b8235905067ffffffffffffffff81111561348857613487613450565b5b6020830191508360018202830111156134a4576134a3612adb565b5b9250929050565b60008060008060008060a087890312156134c8576134c7612879565b5b60006134d689828a01612c38565b96505060206134e789828a01612c38565b955050604087013567ffffffffffffffff8111156135085761350761287e565b5b61351489828a01612b49565b945050606087013567ffffffffffffffff8111156135355761353461287e565b5b61354189828a01612b49565b935050608087013567ffffffffffffffff8111156135625761356161287e565b5b61356e89828a01613455565b92509250509295509295509295565b6135868161290c565b82525050565b60006020820190506135a1600083018461357d565b92915050565b6000806000606084860312156135c0576135bf612879565b5b60006135ce868287016128a4565b93505060206135df86828701612c38565b92505060406135f0868287016128a4565b9150509250925092565b60008060008060008060a0878903121561361757613616612879565b5b600061362589828a01612c38565b965050602061363689828a01612c38565b955050604061364789828a016128a4565b945050606061365889828a016128a4565b935050608087013567ffffffffffffffff8111156136795761367861287e565b5b61368589828a01613455565b92509250509295509295509295565b600082825260208201905092915050565b7f5374616b696e67416363657373436f6e74726f6c3a204f6e6c79206d616e616760008201527f657220726f6c6500000000000000000000000000000000000000000000000000602082015250565b6000613701602783613694565b915061370c826136a5565b604082019050919050565b60006020820190508181036000830152613730816136f4565b9050919050565b61374081612883565b82525050565b8082525050565b60006080820190506137626000830187613737565b61376f6020830186613737565b61377c6040830185613737565b6137896060830184613746565b95945050505050565b60008160001c9050919050565b6000819050919050565b60006137bc6137b783613792565b61379f565b9050919050565b6137cc81612883565b82525050565b600073ffffffffffffffffffffffffffffffffffffffff82169050919050565b600061380561380083613792565b6137d2565b9050919050565b61381581612c0f565b82525050565b608082016000808301549050613830816137a9565b61383d60008601826137c3565b506001830154905061384e816137a9565b61385b60208601826137c3565b506002830154905061386c816137a9565b61387960408601826137c3565b506003830154905061388a816137a9565b61389760608601826137c3565b5050505050565b6101e0820160008083015490506138b4816137a9565b6138c160008601826137c3565b50600183015490506138d2816137a9565b6138df60208601826137c3565b50600283015490506138f0816137a9565b6138fd60408601826137c3565b506003830154905061390e816137a9565b61391b60608601826137c3565b506004830154905061392c816137a9565b61393960808601826137c3565b506005830154905061394a816137a9565b61395760a08601826137c3565b5060068301549050613968816137a9565b61397560c08601826137c3565b5060078301549050613986816137f2565b61399360e086018261380c565b50600883015490506139a4816137a9565b6139b26101008601826137c3565b50600983015490506139c3816137a9565b6139d16101208601826137c3565b50600a83015490506139e2816137a9565b6139f06101408601826137c3565b50600b8301613a0361016086018261381b565b5050505050565b600061020082019050613a20600083018561389e565b613a2e6101e0830184613746565b9392505050565b600081519050613a448161288d565b92915050565b600060208284031215613a6057613a5f612879565b5b6000613a6e84828501613a35565b91505092915050565b7f5265656e7472616e637947756172643a207265656e7472616e742063616c6c00600082015250565b6000613aad601f83613694565b9150613ab882613a77565b602082019050919050565b60006020820190508181036000830152613adc81613aa0565b9050919050565b8082525050565b6000606082019050613aff6000830186613ae3565b613b0c6020830185613737565b613b196040830184613746565b949350505050565b7f416363657373436f6e74726f6c3a2063616e206f6e6c792072656e6f756e636560008201527f20726f6c657320666f722073656c660000000000000000000000000000000000602082015250565b6000613b7d602f83613694565b9150613b8882613b21565b604082019050919050565b60006020820190508181036000830152613bac81613b70565b9050919050565b7f496e697469616c697a61626c653a20636f6e747261637420697320616c72656160008201527f647920696e697469616c697a6564000000000000000000000000000000000000602082015250565b6000613c0f602e83613694565b9150613c1a82613bb3565b604082019050919050565b60006020820190508181036000830152613c3e81613c02565b9050919050565b7f5374616b696e673a20656d657267656e6379207769746864726177206973206460008201527f697361626c656400000000000000000000000000000000000000000000000000602082015250565b6000613ca1602783613694565b9150613cac82613c45565b604082019050919050565b60006020820190508181036000830152613cd081613c94565b9050919050565b600081549050919050565b600082825260208201905092915050565b60008190508160005260206000209050919050565b6000613d1483836137c3565b60208301905092915050565b6000613d2c82546137a9565b9050919050565b6000600182019050919050565b6000613d4b82613cd7565b613d558185613ce2565b9350613d6083613cf3565b8060005b83811015613d9857613d7582613d20565b613d7f8882613d08565b9750613d8a83613d33565b925050600181019050613d64565b5085935050505092915050565b600081549050919050565b600082825260208201905092915050565b60008190508160005260206000209050919050565b60c082016000808301549050613deb816137a9565b613df860008601826137c3565b5060018301549050613e09816137a9565b613e1660208601826137c3565b5060028301549050613e27816137a9565b613e3460408601826137c3565b5060038301549050613e45816137a9565b613e5260608601826137c3565b5060048301549050613e63816137a9565b613e7060808601826137c3565b5060058301549050613e81816137a9565b613e8e60a08601826137c3565b5050505050565b6000613ea18383613dd6565b60c08301905092915050565b6000600682019050919050565b6000613ec582613da5565b613ecf8185613db0565b9350613eda83613dc1565b8060005b83811015613f0a5781613ef18882613e95565b9750613efc83613ead565b925050600181019050613ede565b5085935050505092915050565b600073ffffffffffffffffffffffffffffffffffffffff82169050919050565b6000613f4a613f4583613792565b613f17565b9050919050565b613f5a81612eb2565b82525050565b600073ffffffffffffffffffffffffffffffffffffffff82169050919050565b6000613f93613f8e83613792565b613f60565b9050919050565b613fa381612ed3565b82525050565b600073ffffffffffffffffffffffffffffffffffffffff82169050919050565b6000613fdc613fd783613792565b613fa9565b9050919050565b613fec81612ef4565b82525050565b60006101608301600080840154905061400a816137a9565b61401760008701826137c3565b5060018401549050614028816137a9565b61403560208701826137c3565b5060028401549050614046816137a9565b61405360408701826137c3565b5060038401549050614064816137a9565b61407160608701826137c3565b5060048401549050614082816137a9565b61408f60808701826137c3565b506005840185830360a08701526140a68382613d40565b9250506006840185830360c08701526140bf8382613d40565b9250506007840185830360e08701526140d88382613eba565b925050600884015490506140eb81613f37565b6140f9610100870182613f51565b506009840154905061410a81613f80565b614118610120870182613f9a565b50600a840154905061412981613fc9565b614137610140870182613fe3565b50819250505092915050565b60006040820190506141586000830185613ae3565b818103602083015261416a8184613ff2565b90509392505050565b600060608201905061418860008301866129f4565b61419560208301856129f4565b6141a2604083018461299d565b949350505050565b60006060820190506141bf6000830186613746565b6141cc6020830185613737565b6141d96040830184613737565b949350505050565b7f4e487b7100000000000000000000000000000000000000000000000000000000600052603260045260246000fd5b61421981612ed3565b82525050565b600081519050919050565b600082825260208201905092915050565b6000819050602082019050919050565b6000602082019050919050565b60006142638261421f565b61426d818561422a565b93506142788361423b565b8060005b838110156142a95781516142908882613d08565b975061429b8361424b565b92505060018101905061427c565b5085935050505092915050565b6142bf81612eb2565b82525050565b6142ce81612ef4565b82525050565b6000610120820190506142ea600083018c614210565b6142f7602083018b613737565b614304604083018a613737565b6143116060830189613737565b81810360808301526143238188614258565b905081810360a08301526143378187614258565b905061434660c08301866142b6565b61435360e08301856142c5565b614361610100830184613746565b9a9950505050505050505050565b60006080820190506143846000830187613737565b6143916020830186613737565b61439e6040830185613ae3565b6143ab6060830184613746565b95945050505050565b7f4e6577206c6576656c206d75737420626520686967686572207468616e20657860008201527f697374696e67206f6e6500000000000000000000000000000000000000000000602082015250565b6000614410602a83613694565b915061441b826143b4565b604082019050919050565b6000602082019050818103600083015261443f81614403565b9050919050565b600060608201905061445b6000830186613ae3565b6144686020830185613746565b6144756040830184613737565b949350505050565b600060408201905061449260008301856129f4565b61449f60208301846129f4565b9392505050565b6144af81612c0f565b82525050565b60006080820190506144ca6000830187613ae3565b6144d760208301866144a6565b6144e46040830185613737565b6144f16060830184613746565b95945050505050565b600060608201905061450f60008301866129f4565b61451c6020830185612d47565b61452960408301846129f4565b949350505050565b600081905092915050565b7f416363657373436f6e74726f6c3a206163636f756e7420000000000000000000600082015250565b6000614572601783614531565b915061457d8261453c565b601782019050919050565b600081519050919050565b60005b838110156145b1578082015181840152602081019050614596565b838111156145c0576000848401525b50505050565b60006145d182614588565b6145db8185614531565b93506145eb818560208601614593565b80840191505092915050565b7f206973206d697373696e6720726f6c6520000000000000000000000000000000600082015250565b600061462d601183614531565b9150614638826145f7565b601182019050919050565b600061464e82614565565b915061465a82856145c6565b915061466582614620565b915061467182846145c6565b91508190509392505050565b600061468882614588565b6146928185613694565b93506146a2818560208601614593565b6146ab81612a23565b840191505092915050565b600060208201905081810360008301526146d0818461467d565b905092915050565b7f496e697469616c697a61626c653a20636f6e7472616374206973206e6f74206960008201527f6e697469616c697a696e67000000000000000000000000000000000000000000602082015250565b6000614734602b83613694565b915061473f826146d8565b604082019050919050565b6000602082019050818103600083015261476381614727565b9050919050565b7f4e487b7100000000000000000000000000000000000000000000000000000000600052601160045260246000fd5b60006147a482612883565b91506147af83612883565b9250817fffffffffffffffffffffffffffffffffffffffffffffffffffffffffffffffff04831182151516156147e8576147e761476a565b5b828202905092915050565b60006147fe82612883565b915061480983612883565b9250827fffffffffffffffffffffffffffffffffffffffffffffffffffffffffffffffff0382111561483e5761483d61476a565b5b828201905092915050565b600061485482612883565b915060008214156148685761486761476a565b5b600182039050919050565b7f537472696e67733a20686578206c656e67746820696e73756666696369656e74600082015250565b60006148a9602083613694565b91506148b482614873565b602082019050919050565b600060208201905081810360008301526148d88161489c565b9050919050565b60006148ea82612883565b91506148f583612883565b9250828210156149085761490761476a565b5b828203905092915050565b7f4e487b7100000000000000000000000000000000000000000000000000000000600052603160045260246000fdfea2646970667358221220a469be001d4ccbf519da9e993a891f0f40cb758fa2db1602c266062727470cd364736f6c634300080a0033",
  "deployedBytecode": "0x608060405234801561001057600080fd5b50600436106102695760003560e01c80636fae2e1511610151578063bff1208d116100c3578063dea0153611610087578063dea015361461073c578063e3638d6514610758578063ec87621c14610788578063f23a6e61146107a6578063f3ae2415146107d6578063f8b91abe1461080657610269565b8063bff1208d1461069c578063ca15c873146106b8578063ca8df110146106e8578063d081f36214610704578063d547741f1461072057610269565b80639c5303eb116101155780639c5303eb146105ca578063a217fddf146105e6578063a9d48b4314610604578063ac18de4314610634578063b6b55f2514610650578063bc197c811461066c57610269565b80636fae2e15146105005780638252097d1461051e5780638dcd3de41461054e5780639010d07c1461056a57806391d148541461059a57610269565b80632e1a7d4d116101ea5780635312ea8e116101ae5780635312ea8e1461044b5780635747e69f146104675780635a2f3d09146104855780635df69d13146104aa57806360393a55146104c85780636dca4d44146104e457610269565b80632e1a7d4d146103a05780632f2ff15d146103bc57806336568abe146103d857806337f380dd146103f45780634e5335721461041057610269565b8063136d7fa111610231578063136d7fa1146102fe5780631b3e870a1461031a578063248a9ca3146103365780632c8d7a5e146103665780632d06177a1461038457610269565b8063011f09bb1461026e57806301ffc9a71461028a57806304c6a864146102ba578063093cf18f146102c457806312f7086c146102ce575b600080fd5b610288600480360381019061028391906128b9565b610810565b005b6102a4600480360381019061029f9190612964565b6108ec565b6040516102b191906129ac565b60405180910390f35b6102c261094e565b005b6102cc6109bd565b005b6102e860048036038101906102e391906129c7565b6109eb565b6040516102f59190612a03565b60405180910390f35b61031860048036038101906103139190612b77565b610a87565b005b610334600480360381019061032f9190612c4d565b610b28565b005b610350600480360381019061034b9190612cb0565b610b98565b60405161035d9190612cec565b60405180910390f35b61036e610bb8565b60405161037b9190612a03565b60405180910390f35b61039e60048036038101906103999190612c4d565b610bc5565b005b6103ba60048036038101906103b591906129c7565b610c35565b005b6103d660048036038101906103d19190612d07565b610d29565b005b6103f260048036038101906103ed9190612d07565b610d52565b005b61040e60048036038101906104099190612c4d565b610dd5565b005b61042a600480360381019061042591906129c7565b610f23565b6040516104429c9b9a99989796959493929190612dba565b60405180910390f35b610465600480360381019061046091906129c7565b610fd6565b005b61046f611159565b60405161047c91906129ac565b60405180910390f35b61048d61116d565b6040516104a1989796959493929190612f15565b60405180910390f35b6104b2611203565b6040516104bf9190612f93565b60405180910390f35b6104e260048036038101906104dd9190612fae565b61122a565b005b6104fe60048036038101906104f991906130a8565b611303565b005b61050861143d565b6040516105159190612cec565b60405180910390f35b610538600480360381019061053391906129c7565b611461565b6040516105459190613176565b60405180910390f35b61056860048036038101906105639190613191565b6114dc565b005b610584600480360381019061057f919061327f565b611649565b60405161059191906132bf565b60405180910390f35b6105b460048036038101906105af9190612d07565b611678565b6040516105c191906129ac565b60405180910390f35b6105e460048036038101906105df9190612c4d565b6116e3565b005b6105ee611753565b6040516105fb9190612cec565b60405180910390f35b61061e600480360381019061061991906129c7565b61175a565b60405161062b9190613434565b60405180910390f35b61064e60048036038101906106499190612c4d565b61187f565b005b61066a600480360381019061066591906129c7565b6118ef565b005b610686600480360381019061068191906134ab565b6119ee565b604051610693919061358c565b60405180910390f35b6106b660048036038101906106b19190612fae565b611a04565b005b6106d260048036038101906106cd9190612cb0565b611b3f565b6040516106df9190612a03565b60405180910390f35b61070260048036038101906106fd91906129c7565b611b63565b005b61071e60048036038101906107199190612fae565b611c2c565b005b61073a60048036038101906107359190612d07565b611cad565b005b610756600480360381019061075191906135a7565b611cd6565b005b610772600480360381019061076d9190612c4d565b611e0a565b60405161077f91906129ac565b60405180910390f35b610790611e3d565b60405161079d9190612cec565b60405180910390f35b6107c060048036038101906107bb91906135fa565b611e61565b6040516107cd919061358c565b60405180910390f35b6107f060048036038101906107eb9190612c4d565b611e77565b6040516107fd91906129ac565b60405180910390f35b61080e611eaa565b005b61083a7f241ecf16d79d0f8dbfb92cbc07fe17840425976cf0667f022fe9877caa831b0833611678565b610879576040517f08c379a000000000000000000000000000000000000000000000000000000000815260040161087090613717565b60405180910390fd5b73__$0f06bfc1ac327fe78385bcd9f9da99d300$__630bc44df084848460fb6040518563ffffffff1660e01b81526004016108b7949392919061374d565b60006040518083038186803b1580156108cf57600080fd5b505af41580156108e3573d6000803e3d6000fd5b50505050505050565b60006301ffc9a760e01b827bffffffffffffffffffffffffffffffffffffffffffffffffffffffff191614806109475750634e2312e060e01b827bffffffffffffffffffffffffffffffffffffffffffffffffffffffff1916145b9050919050565b6109787f600e5f1c60beb469a3fa6dd3814a4ae211cc6259a6d033bae218a742f2af01d333610d52565b3373ffffffffffffffffffffffffffffffffffffffff167f9fcee921c6450ef694b979a304ea9ba28b41add99fa88bf202e575231817f54060405160405180910390a2565b61010760009054906101000a900460ff161561010760006101000a81548160ff021916908315150217905550565b6000806101066000848152602001908152602001600020905073__$0f06bfc1ac327fe78385bcd9f9da99d300$__63ab714cb98260fb6040518363ffffffff1660e01b8152600401610a3e929190613a0a565b602060405180830381865af4158015610a5b573d6000803e3d6000fd5b505050506040513d601f19601f82011682018060405250810190610a7f9190613a4a565b915050919050565b610ab17f241ecf16d79d0f8dbfb92cbc07fe17840425976cf0667f022fe9877caa831b0833611678565b610af0576040517f08c379a0000000000000000000000000000000000000000000000000000000008152600401610ae790613717565b60405180910390fd5b8060fb6006019080519060200190610b0992919061272a565b508160fb6005019080519060200190610b2392919061272a565b505050565b610b527f600e5f1c60beb469a3fa6dd3814a4ae211cc6259a6d033bae218a742f2af01d382611cad565b8073ffffffffffffffffffffffffffffffffffffffff167f9fcee921c6450ef694b979a304ea9ba28b41add99fa88bf202e575231817f54060405160405180910390a250565b600060656000838152602001908152602001600020600101549050919050565b600060fb60010154905090565b610bef7f241ecf16d79d0f8dbfb92cbc07fe17840425976cf0667f022fe9877caa831b0882610d29565b8073ffffffffffffffffffffffffffffffffffffffff167f3b4a40cccf2058c593542587329dd385be4f0b588db5471fbd9598e56dd7093a60405160405180910390a250565b600260c9541415610c7b576040517f08c379a0000000000000000000000000000000000000000000000000000000008152600401610c7290613ac3565b60405180910390fd5b600260c981905550600061010660008381526020019081526020016000209050600073__$226831abb046116d747f95d91e9063c6cc$__636823d59d838560fb6040518463ffffffff1660e01b8152600401610cd993929190613aea565b602060405180830381865af4158015610cf6573d6000803e3d6000fd5b505050506040513d601f19601f82011682018060405250810190610d1a9190613a4a565b90505050600160c98190555050565b610d3282610b98565b610d4381610d3e611f19565b611f21565b610d4d8383611fbe565b505050565b610d5a611f19565b73ffffffffffffffffffffffffffffffffffffffff168173ffffffffffffffffffffffffffffffffffffffff1614610dc7576040517f08c379a0000000000000000000000000000000000000000000000000000000008152600401610dbe90613b93565b60405180910390fd5b610dd18282611ff2565b5050565b600060019054906101000a900460ff16610dfd5760008054906101000a900460ff1615610e06565b610e05612026565b5b610e45576040517f08c379a0000000000000000000000000000000000000000000000000000000008152600401610e3c90613c25565b60405180910390fd5b60008060019054906101000a900460ff161590508015610e95576001600060016101000a81548160ff02191690831515021790555060016000806101000a81548160ff0219169083151502179055505b610e9d612037565b610eaa6000801b83612088565b610ed47f241ecf16d79d0f8dbfb92cbc07fe17840425976cf0667f022fe9877caa831b0883612088565b610efe7f600e5f1c60beb469a3fa6dd3814a4ae211cc6259a6d033bae218a742f2af01d383612088565b8015610f1f5760008060016101000a81548160ff0219169083151502179055505b5050565b6101066020528060005260406000206000915090508060000154908060010154908060020154908060030154908060040154908060050154908060060154908060070160009054906101000a900473ffffffffffffffffffffffffffffffffffffffff169080600801549080600901549080600a01549080600b0160405180608001604052908160008201548152602001600182015481526020016002820154815260200160038201548152505090508c565b61010760009054906101000a900460ff16611026576040517f08c379a000000000000000000000000000000000000000000000000000000000815260040161101d90613cb7565b60405180910390fd5b600260c954141561106c576040517f08c379a000000000000000000000000000000000000000000000000000000000815260040161106390613ac3565b60405180910390fd5b600260c98190555060006101066000838152602001908152602001600020905073__$226831abb046116d747f95d91e9063c6cc$__63a60f4dfe8260fb6040518363ffffffff1660e01b81526004016110c6929190614143565b60006040518083038186803b1580156110de57600080fd5b505af41580156110f2573d6000803e3d6000fd5b505050503373ffffffffffffffffffffffffffffffffffffffff167fa4fee3b86fa591d4905a1160a23c8cde8fa5a4a2ff04dcd8fac6a3496ec058a4826000015484600160405161114593929190614173565b60405180910390a250600160c98190555050565b61010760009054906101000a900460ff1681565b60fb8060000154908060010154908060020154908060030154908060040154908060080160009054906101000a900473ffffffffffffffffffffffffffffffffffffffff16908060090160009054906101000a900473ffffffffffffffffffffffffffffffffffffffff169080600a0160009054906101000a900473ffffffffffffffffffffffffffffffffffffffff16905088565b61010760019054906101000a900473ffffffffffffffffffffffffffffffffffffffff1681565b6112547f241ecf16d79d0f8dbfb92cbc07fe17840425976cf0667f022fe9877caa831b0833611678565b611293576040517f08c379a000000000000000000000000000000000000000000000000000000000815260040161128a90613717565b60405180910390fd5b73__$0f06bfc1ac327fe78385bcd9f9da99d300$__63e1d93ac860fb84846040518463ffffffff1660e01b81526004016112cf939291906141aa565b60006040518083038186803b1580156112e757600080fd5b505af41580156112fb573d6000803e3d6000fd5b505050505050565b61132d7f241ecf16d79d0f8dbfb92cbc07fe17840425976cf0667f022fe9877caa831b0833611678565b61136c576040517f08c379a000000000000000000000000000000000000000000000000000000000815260040161136390613717565b60405180910390fd5b8260fb60090160006101000a81548173ffffffffffffffffffffffffffffffffffffffff021916908373ffffffffffffffffffffffffffffffffffffffff1602179055508160fb60080160006101000a81548173ffffffffffffffffffffffffffffffffffffffff021916908373ffffffffffffffffffffffffffffffffffffffff1602179055508060fb600a0160006101000a81548173ffffffffffffffffffffffffffffffffffffffff021916908373ffffffffffffffffffffffffffffffffffffffff160217905550505050565b7f600e5f1c60beb469a3fa6dd3814a4ae211cc6259a6d033bae218a742f2af01d381565b611469612777565b60fb60070182815481106114805761147f6141e1565b5b90600052602060002090600602016040518060c001604052908160008201548152602001600182015481526020016002820154815260200160038201548152602001600482015481526020016005820154815250509050919050565b600060019054906101000a900460ff166115045760008054906101000a900460ff161561150d565b61150c612026565b5b61154c576040517f08c379a000000000000000000000000000000000000000000000000000000000815260040161154390613c25565b60405180910390fd5b60008060019054906101000a900460ff16159050801561159c576001600060016101000a81548160ff02191690831515021790555060016000806101000a81548160ff0219169083151502179055505b6115a533610dd5565b73__$0f06bfc1ac327fe78385bcd9f9da99d300$__632f0e5a1e8a8a8a8a8a8a8a8a60fb6040518a63ffffffff1660e01b81526004016115ed999897969594939291906142d4565b60006040518083038186803b15801561160557600080fd5b505af4158015611619573d6000803e3d6000fd5b50505050801561163e5760008060016101000a81548160ff0219169083151502179055505b505050505050505050565b6000611670826097600086815260200190815260200160002061209690919063ffffffff16565b905092915050565b60006065600084815260200190815260200160002060000160008373ffffffffffffffffffffffffffffffffffffffff1673ffffffffffffffffffffffffffffffffffffffff16815260200190815260200160002060009054906101000a900460ff16905092915050565b61170d7f600e5f1c60beb469a3fa6dd3814a4ae211cc6259a6d033bae218a742f2af01d382610d29565b8073ffffffffffffffffffffffffffffffffffffffff167f3f3e6d173147e88d1e5b10aeb43533723cdb45f5fd44658caf5a103ce601911260405160405180910390a250565b6000801b81565b6117626127ad565b610106600083815260200190815260200160002060405180610180016040529081600082015481526020016001820154815260200160028201548152602001600382015481526020016004820154815260200160058201548152602001600682015481526020016007820160009054906101000a900473ffffffffffffffffffffffffffffffffffffffff1673ffffffffffffffffffffffffffffffffffffffff1673ffffffffffffffffffffffffffffffffffffffff1681526020016008820154815260200160098201548152602001600a8201548152602001600b8201604051806080016040529081600082015481526020016001820154815260200160028201548152602001600382015481525050815250509050919050565b6118a97f241ecf16d79d0f8dbfb92cbc07fe17840425976cf0667f022fe9877caa831b0882611cad565b8073ffffffffffffffffffffffffffffffffffffffff167fef69f7d97228658c92417be1b16b19058315de71fecb435d07b7d23728b6bd3160405160405180910390a250565b600260c9541415611935576040517f08c379a000000000000000000000000000000000000000000000000000000000815260040161192c90613ac3565b60405180910390fd5b600260c98190555060008060019050600061010660008581526020019081526020016000209050600073__$226831abb046116d747f95d91e9063c6cc$__6314a04aa084868560fb6040518563ffffffff1660e01b815260040161199c949392919061436f565b602060405180830381865af41580156119b9573d6000803e3d6000fd5b505050506040513d601f19601f820116820180604052508101906119dd9190613a4a565b905050505050600160c98190555050565b600063f23a6e6160e01b90509695505050505050565b600260c9541415611a4a576040517f08c379a0000000000000000000000000000000000000000000000000000000008152600401611a4190613ac3565b60405180910390fd5b600260c98190555060006101066000848152602001908152602001600020905081816000015410611ab0576040517f08c379a0000000000000000000000000000000000000000000000000000000008152600401611aa790614426565b60405180910390fd5b600073__$226831abb046116d747f95d91e9063c6cc$__636e38066b8360fb866040518463ffffffff1660e01b8152600401611aee93929190614446565b602060405180830381865af4158015611b0b573d6000803e3d6000fd5b505050506040513d601f19601f82011682018060405250810190611b2f9190613a4a565b90505050600160c9819055505050565b6000611b5c609760008481526020019081526020016000206120b0565b9050919050565b600260c9541415611ba9576040517f08c379a0000000000000000000000000000000000000000000000000000000008152600401611ba090613ac3565b60405180910390fd5b600260c9819055506000610106600083815260200190815260200160002090506000606490503373ffffffffffffffffffffffffffffffffffffffff167f525920036f8ef01fec7151b5da9efc5c2cc8ddc66fe134d0a4472ec0fa3be3e98285604051611c1792919061447d565b60405180910390a25050600160c98190555050565b611c567f241ecf16d79d0f8dbfb92cbc07fe17840425976cf0667f022fe9877caa831b0833611678565b611c95576040517f08c379a0000000000000000000000000000000000000000000000000000000008152600401611c8c90613717565b60405180910390fd5b8160fb600301819055508060fb600401819055505050565b611cb682610b98565b611cc781611cc2611f19565b611f21565b611cd18383611ff2565b505050565b600260c9541415611d1c576040517f08c379a0000000000000000000000000000000000000000000000000000000008152600401611d1390613ac3565b60405180910390fd5b600260c98190555060006101066000858152602001908152602001600020905073__$226831abb046116d747f95d91e9063c6cc$__635ef4b8b482858560fb6040518563ffffffff1660e01b8152600401611d7a94939291906144b5565b60006040518083038186803b158015611d9257600080fd5b505af4158015611da6573d6000803e3d6000fd5b505050503373ffffffffffffffffffffffffffffffffffffffff167fd0077e383202d19b2efa91667848da2805ce64ce47d8ae18e6672608f14402bf838587604051611df4939291906144fa565b60405180910390a250600160c981905550505050565b6000611e367f600e5f1c60beb469a3fa6dd3814a4ae211cc6259a6d033bae218a742f2af01d383611678565b9050919050565b7f241ecf16d79d0f8dbfb92cbc07fe17840425976cf0667f022fe9877caa831b0881565b600063f23a6e6160e01b90509695505050505050565b6000611ea37f241ecf16d79d0f8dbfb92cbc07fe17840425976cf0667f022fe9877caa831b0883611678565b9050919050565b611ed47f241ecf16d79d0f8dbfb92cbc07fe17840425976cf0667f022fe9877caa831b0833610d52565b3373ffffffffffffffffffffffffffffffffffffffff167fef69f7d97228658c92417be1b16b19058315de71fecb435d07b7d23728b6bd3160405160405180910390a2565b600033905090565b611f2b8282611678565b611fba57611f508173ffffffffffffffffffffffffffffffffffffffff1660146120c5565b611f5e8360001c60206120c5565b604051602001611f6f929190614643565b6040516020818303038152906040526040517f08c379a0000000000000000000000000000000000000000000000000000000008152600401611fb191906146b6565b60405180910390fd5b5050565b611fc88282612301565b611fed81609760008581526020019081526020016000206123e290919063ffffffff16565b505050565b611ffc8282612412565b61202181609760008581526020019081526020016000206124f490919063ffffffff16565b505050565b600061203130612524565b15905090565b600060019054906101000a900460ff16612086576040517f08c379a000000000000000000000000000000000000000000000000000000000815260040161207d9061474a565b60405180910390fd5b565b6120928282611fbe565b5050565b60006120a58360000183612547565b60001c905092915050565b60006120be82600001612572565b9050919050565b6060600060028360026120d89190614799565b6120e291906147f3565b67ffffffffffffffff8111156120fb576120fa612a34565b5b6040519080825280601f01601f19166020018201604052801561212d5781602001600182028036833780820191505090505b5090507f300000000000000000000000000000000000000000000000000000000000000081600081518110612165576121646141e1565b5b60200101907effffffffffffffffffffffffffffffffffffffffffffffffffffffffffffff1916908160001a9053507f7800000000000000000000000000000000000000000000000000000000000000816001815181106121c9576121c86141e1565b5b60200101907effffffffffffffffffffffffffffffffffffffffffffffffffffffffffffff1916908160001a905350600060018460026122099190614799565b61221391906147f3565b90505b60018111156122b3577f3031323334353637383961626364656600000000000000000000000000000000600f861660108110612255576122546141e1565b5b1a60f81b82828151811061226c5761226b6141e1565b5b60200101907effffffffffffffffffffffffffffffffffffffffffffffffffffffffffffff1916908160001a905350600485901c9450806122ac90614849565b9050612216565b50600084146122f7576040517f08c379a00000000000000000000000000000000000000000000000000000000081526004016122ee906148bf565b60405180910390fd5b8091505092915050565b61230b8282611678565b6123de5760016065600084815260200190815260200160002060000160008373ffffffffffffffffffffffffffffffffffffffff1673ffffffffffffffffffffffffffffffffffffffff16815260200190815260200160002060006101000a81548160ff021916908315150217905550612383611f19565b73ffffffffffffffffffffffffffffffffffffffff168173ffffffffffffffffffffffffffffffffffffffff16837f2f8788117e7eff1d82e926ec794901d17c78024a50270940304540a733656f0d60405160405180910390a45b5050565b600061240a836000018373ffffffffffffffffffffffffffffffffffffffff1660001b612583565b905092915050565b61241c8282611678565b156124f05760006065600084815260200190815260200160002060000160008373ffffffffffffffffffffffffffffffffffffffff1673ffffffffffffffffffffffffffffffffffffffff16815260200190815260200160002060006101000a81548160ff021916908315150217905550612495611f19565b73ffffffffffffffffffffffffffffffffffffffff168173ffffffffffffffffffffffffffffffffffffffff16837ff6391f5c32d9c69d2a47ea670b442974b53935d1edc7fd64eb21e047a839171b60405160405180910390a45b5050565b600061251c836000018373ffffffffffffffffffffffffffffffffffffffff1660001b6125f3565b905092915050565b6000808273ffffffffffffffffffffffffffffffffffffffff163b119050919050565b600082600001828154811061255f5761255e6141e1565b5b9060005260206000200154905092915050565b600081600001805490509050919050565b600061258f8383612707565b6125e85782600001829080600181540180825580915050600190039060005260206000200160009091909190915055826000018054905083600101600084815260200190815260200160002081905550600190506125ed565b600090505b92915050565b600080836001016000848152602001908152602001600020549050600081146126fb57600060018261262591906148df565b905060006001866000018054905061263d91906148df565b90508181146126ac57600086600001828154811061265e5761265d6141e1565b5b9060005260206000200154905080876000018481548110612682576126816141e1565b5b90600052602060002001819055508387600101600083815260200190815260200160002081905550505b856000018054806126c0576126bf614913565b5b600190038181906000526020600020016000905590558560010160008681526020019081526020016000206000905560019350505050612701565b60009150505b92915050565b600080836001016000848152602001908152602001600020541415905092915050565b828054828255906000526020600020908101928215612766579160200282015b8281111561276557825182559160200191906001019061274a565b5b509050612773919061282a565b5090565b6040518060c001604052806000815260200160008152602001600081526020016000815260200160008152602001600081525090565b60405180610180016040528060008152602001600081526020016000815260200160008152602001600081526020016000815260200160008152602001600073ffffffffffffffffffffffffffffffffffffffff168152602001600081526020016000815260200160008152602001612824612847565b81525090565b5b8082111561284357600081600090555060010161282b565b5090565b6040518060800160405280600081526020016000815260200160008152602001600081525090565b6000604051905090565b600080fd5b600080fd5b6000819050919050565b61289681612883565b81146128a157600080fd5b50565b6000813590506128b38161288d565b92915050565b6000806000606084860312156128d2576128d1612879565b5b60006128e0868287016128a4565b93505060206128f1868287016128a4565b9250506040612902868287016128a4565b9150509250925092565b60007fffffffff0000000000000000000000000000000000000000000000000000000082169050919050565b6129418161290c565b811461294c57600080fd5b50565b60008135905061295e81612938565b92915050565b60006020828403121561297a57612979612879565b5b60006129888482850161294f565b91505092915050565b60008115159050919050565b6129a681612991565b82525050565b60006020820190506129c1600083018461299d565b92915050565b6000602082840312156129dd576129dc612879565b5b60006129eb848285016128a4565b91505092915050565b6129fd81612883565b82525050565b6000602082019050612a1860008301846129f4565b92915050565b600080fd5b6000601f19601f8301169050919050565b7f4e487b7100000000000000000000000000000000000000000000000000000000600052604160045260246000fd5b612a6c82612a23565b810181811067ffffffffffffffff82111715612a8b57612a8a612a34565b5b80604052505050565b6000612a9e61286f565b9050612aaa8282612a63565b919050565b600067ffffffffffffffff821115612aca57612ac9612a34565b5b602082029050602081019050919050565b600080fd5b6000612af3612aee84612aaf565b612a94565b90508083825260208201905060208402830185811115612b1657612b15612adb565b5b835b81811015612b3f5780612b2b88826128a4565b845260208401935050602081019050612b18565b5050509392505050565b600082601f830112612b5e57612b5d612a1e565b5b8135612b6e848260208601612ae0565b91505092915050565b60008060408385031215612b8e57612b8d612879565b5b600083013567ffffffffffffffff811115612bac57612bab61287e565b5b612bb885828601612b49565b925050602083013567ffffffffffffffff811115612bd957612bd861287e565b5b612be585828601612b49565b9150509250929050565b600073ffffffffffffffffffffffffffffffffffffffff82169050919050565b6000612c1a82612bef565b9050919050565b612c2a81612c0f565b8114612c3557600080fd5b50565b600081359050612c4781612c21565b92915050565b600060208284031215612c6357612c62612879565b5b6000612c7184828501612c38565b91505092915050565b6000819050919050565b612c8d81612c7a565b8114612c9857600080fd5b50565b600081359050612caa81612c84565b92915050565b600060208284031215612cc657612cc5612879565b5b6000612cd484828501612c9b565b91505092915050565b612ce681612c7a565b82525050565b6000602082019050612d016000830184612cdd565b92915050565b60008060408385031215612d1e57612d1d612879565b5b6000612d2c85828601612c9b565b9250506020612d3d85828601612c38565b9150509250929050565b612d5081612c0f565b82525050565b612d5f81612883565b82525050565b608082016000820151612d7b6000850182612d56565b506020820151612d8e6020850182612d56565b506040820151612da16040850182612d56565b506060820151612db46060850182612d56565b50505050565b60006101e082019050612dd0600083018f6129f4565b612ddd602083018e6129f4565b612dea604083018d6129f4565b612df7606083018c6129f4565b612e04608083018b6129f4565b612e1160a083018a6129f4565b612e1e60c08301896129f4565b612e2b60e0830188612d47565b612e396101008301876129f4565b612e476101208301866129f4565b612e556101408301856129f4565b612e63610160830184612d65565b9d9c50505050505050505050505050565b6000819050919050565b6000612e99612e94612e8f84612bef565b612e74565b612bef565b9050919050565b6000612eab82612e7e565b9050919050565b6000612ebd82612ea0565b9050919050565b612ecd81612eb2565b82525050565b6000612ede82612ea0565b9050919050565b612eee81612ed3565b82525050565b6000612eff82612ea0565b9050919050565b612f0f81612ef4565b82525050565b600061010082019050612f2b600083018b6129f4565b612f38602083018a6129f4565b612f4560408301896129f4565b612f5260608301886129f4565b612f5f60808301876129f4565b612f6c60a0830186612ec4565b612f7960c0830185612ee5565b612f8660e0830184612f06565b9998505050505050505050565b6000602082019050612fa86000830184612f06565b92915050565b60008060408385031215612fc557612fc4612879565b5b6000612fd3858286016128a4565b9250506020612fe4858286016128a4565b9150509250929050565b6000612ff982612c0f565b9050919050565b61300981612fee565b811461301457600080fd5b50565b60008135905061302681613000565b92915050565b600061303782612c0f565b9050919050565b6130478161302c565b811461305257600080fd5b50565b6000813590506130648161303e565b92915050565b600061307582612c0f565b9050919050565b6130858161306a565b811461309057600080fd5b50565b6000813590506130a28161307c565b92915050565b6000806000606084860312156130c1576130c0612879565b5b60006130cf86828701613017565b93505060206130e086828701613055565b92505060406130f186828701613093565b9150509250925092565b60c0820160008201516131116000850182612d56565b5060208201516131246020850182612d56565b5060408201516131376040850182612d56565b50606082015161314a6060850182612d56565b50608082015161315d6080850182612d56565b5060a082015161317060a0850182612d56565b50505050565b600060c08201905061318b60008301846130fb565b92915050565b600080600080600080600080610100898b0312156131b2576131b1612879565b5b60006131c08b828c01613017565b98505060206131d18b828c016128a4565b97505060406131e28b828c016128a4565b96505060606131f38b828c016128a4565b955050608089013567ffffffffffffffff8111156132145761321361287e565b5b6132208b828c01612b49565b94505060a089013567ffffffffffffffff8111156132415761324061287e565b5b61324d8b828c01612b49565b93505060c061325e8b828c01613055565b92505060e061326f8b828c01613093565b9150509295985092959890939650565b6000806040838503121561329657613295612879565b5b60006132a485828601612c9b565b92505060206132b5858286016128a4565b9150509250929050565b60006020820190506132d46000830184612d47565b92915050565b6132e381612c0f565b82525050565b6080820160008201516132ff6000850182612d56565b5060208201516133126020850182612d56565b5060408201516133256040850182612d56565b5060608201516133386060850182612d56565b50505050565b6101e0820160008201516133556000850182612d56565b5060208201516133686020850182612d56565b50604082015161337b6040850182612d56565b50606082015161338e6060850182612d56565b5060808201516133a16080850182612d56565b5060a08201516133b460a0850182612d56565b5060c08201516133c760c0850182612d56565b5060e08201516133da60e08501826132da565b506101008201516133ef610100850182612d56565b50610120820151613404610120850182612d56565b50610140820151613419610140850182612d56565b5061016082015161342e6101608501826132e9565b50505050565b60006101e08201905061344a600083018461333e565b92915050565b600080fd5b60008083601f84011261346b5761346a612a1e565b5b8235905067ffffffffffffffff81111561348857613487613450565b5b6020830191508360018202830111156134a4576134a3612adb565b5b9250929050565b60008060008060008060a087890312156134c8576134c7612879565b5b60006134d689828a01612c38565b96505060206134e789828a01612c38565b955050604087013567ffffffffffffffff8111156135085761350761287e565b5b61351489828a01612b49565b945050606087013567ffffffffffffffff8111156135355761353461287e565b5b61354189828a01612b49565b935050608087013567ffffffffffffffff8111156135625761356161287e565b5b61356e89828a01613455565b92509250509295509295509295565b6135868161290c565b82525050565b60006020820190506135a1600083018461357d565b92915050565b6000806000606084860312156135c0576135bf612879565b5b60006135ce868287016128a4565b93505060206135df86828701612c38565b92505060406135f0868287016128a4565b9150509250925092565b60008060008060008060a0878903121561361757613616612879565b5b600061362589828a01612c38565b965050602061363689828a01612c38565b955050604061364789828a016128a4565b945050606061365889828a016128a4565b935050608087013567ffffffffffffffff8111156136795761367861287e565b5b61368589828a01613455565b92509250509295509295509295565b600082825260208201905092915050565b7f5374616b696e67416363657373436f6e74726f6c3a204f6e6c79206d616e616760008201527f657220726f6c6500000000000000000000000000000000000000000000000000602082015250565b6000613701602783613694565b915061370c826136a5565b604082019050919050565b60006020820190508181036000830152613730816136f4565b9050919050565b61374081612883565b82525050565b8082525050565b60006080820190506137626000830187613737565b61376f6020830186613737565b61377c6040830185613737565b6137896060830184613746565b95945050505050565b60008160001c9050919050565b6000819050919050565b60006137bc6137b783613792565b61379f565b9050919050565b6137cc81612883565b82525050565b600073ffffffffffffffffffffffffffffffffffffffff82169050919050565b600061380561380083613792565b6137d2565b9050919050565b61381581612c0f565b82525050565b608082016000808301549050613830816137a9565b61383d60008601826137c3565b506001830154905061384e816137a9565b61385b60208601826137c3565b506002830154905061386c816137a9565b61387960408601826137c3565b506003830154905061388a816137a9565b61389760608601826137c3565b5050505050565b6101e0820160008083015490506138b4816137a9565b6138c160008601826137c3565b50600183015490506138d2816137a9565b6138df60208601826137c3565b50600283015490506138f0816137a9565b6138fd60408601826137c3565b506003830154905061390e816137a9565b61391b60608601826137c3565b506004830154905061392c816137a9565b61393960808601826137c3565b506005830154905061394a816137a9565b61395760a08601826137c3565b5060068301549050613968816137a9565b61397560c08601826137c3565b5060078301549050613986816137f2565b61399360e086018261380c565b50600883015490506139a4816137a9565b6139b26101008601826137c3565b50600983015490506139c3816137a9565b6139d16101208601826137c3565b50600a83015490506139e2816137a9565b6139f06101408601826137c3565b50600b8301613a0361016086018261381b565b5050505050565b600061020082019050613a20600083018561389e565b613a2e6101e0830184613746565b9392505050565b600081519050613a448161288d565b92915050565b600060208284031215613a6057613a5f612879565b5b6000613a6e84828501613a35565b91505092915050565b7f5265656e7472616e637947756172643a207265656e7472616e742063616c6c00600082015250565b6000613aad601f83613694565b9150613ab882613a77565b602082019050919050565b60006020820190508181036000830152613adc81613aa0565b9050919050565b8082525050565b6000606082019050613aff6000830186613ae3565b613b0c6020830185613737565b613b196040830184613746565b949350505050565b7f416363657373436f6e74726f6c3a2063616e206f6e6c792072656e6f756e636560008201527f20726f6c657320666f722073656c660000000000000000000000000000000000602082015250565b6000613b7d602f83613694565b9150613b8882613b21565b604082019050919050565b60006020820190508181036000830152613bac81613b70565b9050919050565b7f496e697469616c697a61626c653a20636f6e747261637420697320616c72656160008201527f647920696e697469616c697a6564000000000000000000000000000000000000602082015250565b6000613c0f602e83613694565b9150613c1a82613bb3565b604082019050919050565b60006020820190508181036000830152613c3e81613c02565b9050919050565b7f5374616b696e673a20656d657267656e6379207769746864726177206973206460008201527f697361626c656400000000000000000000000000000000000000000000000000602082015250565b6000613ca1602783613694565b9150613cac82613c45565b604082019050919050565b60006020820190508181036000830152613cd081613c94565b9050919050565b600081549050919050565b600082825260208201905092915050565b60008190508160005260206000209050919050565b6000613d1483836137c3565b60208301905092915050565b6000613d2c82546137a9565b9050919050565b6000600182019050919050565b6000613d4b82613cd7565b613d558185613ce2565b9350613d6083613cf3565b8060005b83811015613d9857613d7582613d20565b613d7f8882613d08565b9750613d8a83613d33565b925050600181019050613d64565b5085935050505092915050565b600081549050919050565b600082825260208201905092915050565b60008190508160005260206000209050919050565b60c082016000808301549050613deb816137a9565b613df860008601826137c3565b5060018301549050613e09816137a9565b613e1660208601826137c3565b5060028301549050613e27816137a9565b613e3460408601826137c3565b5060038301549050613e45816137a9565b613e5260608601826137c3565b5060048301549050613e63816137a9565b613e7060808601826137c3565b5060058301549050613e81816137a9565b613e8e60a08601826137c3565b5050505050565b6000613ea18383613dd6565b60c08301905092915050565b6000600682019050919050565b6000613ec582613da5565b613ecf8185613db0565b9350613eda83613dc1565b8060005b83811015613f0a5781613ef18882613e95565b9750613efc83613ead565b925050600181019050613ede565b5085935050505092915050565b600073ffffffffffffffffffffffffffffffffffffffff82169050919050565b6000613f4a613f4583613792565b613f17565b9050919050565b613f5a81612eb2565b82525050565b600073ffffffffffffffffffffffffffffffffffffffff82169050919050565b6000613f93613f8e83613792565b613f60565b9050919050565b613fa381612ed3565b82525050565b600073ffffffffffffffffffffffffffffffffffffffff82169050919050565b6000613fdc613fd783613792565b613fa9565b9050919050565b613fec81612ef4565b82525050565b60006101608301600080840154905061400a816137a9565b61401760008701826137c3565b5060018401549050614028816137a9565b61403560208701826137c3565b5060028401549050614046816137a9565b61405360408701826137c3565b5060038401549050614064816137a9565b61407160608701826137c3565b5060048401549050614082816137a9565b61408f60808701826137c3565b506005840185830360a08701526140a68382613d40565b9250506006840185830360c08701526140bf8382613d40565b9250506007840185830360e08701526140d88382613eba565b925050600884015490506140eb81613f37565b6140f9610100870182613f51565b506009840154905061410a81613f80565b614118610120870182613f9a565b50600a840154905061412981613fc9565b614137610140870182613fe3565b50819250505092915050565b60006040820190506141586000830185613ae3565b818103602083015261416a8184613ff2565b90509392505050565b600060608201905061418860008301866129f4565b61419560208301856129f4565b6141a2604083018461299d565b949350505050565b60006060820190506141bf6000830186613746565b6141cc6020830185613737565b6141d96040830184613737565b949350505050565b7f4e487b7100000000000000000000000000000000000000000000000000000000600052603260045260246000fd5b61421981612ed3565b82525050565b600081519050919050565b600082825260208201905092915050565b6000819050602082019050919050565b6000602082019050919050565b60006142638261421f565b61426d818561422a565b93506142788361423b565b8060005b838110156142a95781516142908882613d08565b975061429b8361424b565b92505060018101905061427c565b5085935050505092915050565b6142bf81612eb2565b82525050565b6142ce81612ef4565b82525050565b6000610120820190506142ea600083018c614210565b6142f7602083018b613737565b614304604083018a613737565b6143116060830189613737565b81810360808301526143238188614258565b905081810360a08301526143378187614258565b905061434660c08301866142b6565b61435360e08301856142c5565b614361610100830184613746565b9a9950505050505050505050565b60006080820190506143846000830187613737565b6143916020830186613737565b61439e6040830185613ae3565b6143ab6060830184613746565b95945050505050565b7f4e6577206c6576656c206d75737420626520686967686572207468616e20657860008201527f697374696e67206f6e6500000000000000000000000000000000000000000000602082015250565b6000614410602a83613694565b915061441b826143b4565b604082019050919050565b6000602082019050818103600083015261443f81614403565b9050919050565b600060608201905061445b6000830186613ae3565b6144686020830185613746565b6144756040830184613737565b949350505050565b600060408201905061449260008301856129f4565b61449f60208301846129f4565b9392505050565b6144af81612c0f565b82525050565b60006080820190506144ca6000830187613ae3565b6144d760208301866144a6565b6144e46040830185613737565b6144f16060830184613746565b95945050505050565b600060608201905061450f60008301866129f4565b61451c6020830185612d47565b61452960408301846129f4565b949350505050565b600081905092915050565b7f416363657373436f6e74726f6c3a206163636f756e7420000000000000000000600082015250565b6000614572601783614531565b915061457d8261453c565b601782019050919050565b600081519050919050565b60005b838110156145b1578082015181840152602081019050614596565b838111156145c0576000848401525b50505050565b60006145d182614588565b6145db8185614531565b93506145eb818560208601614593565b80840191505092915050565b7f206973206d697373696e6720726f6c6520000000000000000000000000000000600082015250565b600061462d601183614531565b9150614638826145f7565b601182019050919050565b600061464e82614565565b915061465a82856145c6565b915061466582614620565b915061467182846145c6565b91508190509392505050565b600061468882614588565b6146928185613694565b93506146a2818560208601614593565b6146ab81612a23565b840191505092915050565b600060208201905081810360008301526146d0818461467d565b905092915050565b7f496e697469616c697a61626c653a20636f6e7472616374206973206e6f74206960008201527f6e697469616c697a696e67000000000000000000000000000000000000000000602082015250565b6000614734602b83613694565b915061473f826146d8565b604082019050919050565b6000602082019050818103600083015261476381614727565b9050919050565b7f4e487b7100000000000000000000000000000000000000000000000000000000600052601160045260246000fd5b60006147a482612883565b91506147af83612883565b9250817fffffffffffffffffffffffffffffffffffffffffffffffffffffffffffffffff04831182151516156147e8576147e761476a565b5b828202905092915050565b60006147fe82612883565b915061480983612883565b9250827fffffffffffffffffffffffffffffffffffffffffffffffffffffffffffffffff0382111561483e5761483d61476a565b5b828201905092915050565b600061485482612883565b915060008214156148685761486761476a565b5b600182039050919050565b7f537472696e67733a20686578206c656e67746820696e73756666696369656e74600082015250565b60006148a9602083613694565b91506148b482614873565b602082019050919050565b600060208201905081810360008301526148d88161489c565b9050919050565b60006148ea82612883565b91506148f583612883565b9250828210156149085761490761476a565b5b828203905092915050565b7f4e487b7100000000000000000000000000000000000000000000000000000000600052603160045260246000fdfea2646970667358221220a469be001d4ccbf519da9e993a891f0f40cb758fa2db1602c266062727470cd364736f6c634300080a0033",
  "libraries": {
    "StakingLibV2Core": "0x77c3E825a5002736269958a2299F1163239458A4",
    "StakingLibV2Base": "0xF6a2f4C4966be689448A9882Fe11F2abD0907ad4"
  },
  "devdoc": {
    "kind": "dev",
    "methods": {
      "addManager(address)": {
        "details": "Adds a new account to the manager role",
        "params": {
          "account": "The account that will have the manager role"
        }
      },
      "addMigrator(address)": {
        "details": "Adds a new account to the migrator role",
        "params": {
          "account": "The account that will have the migrator role"
        }
      },
      "addNftToStake(uint256,address,uint256)": {
        "params": {
          "stakeIndex": "The stake to which the NFT will be added",
          "tokenAddress": "The address of the token contract",
          "tokenId": "The id of the token to be staked"
        }
      },
      "addPeriod(uint256,uint256)": {
        "params": {
          "endTs": "The timestamp at which the period will end in seconds",
          "periodRewardsPerSecond": "The rewards per second that will be distributed by the period"
        }
      },
      "claimTickets(uint256)": {
        "params": {
          "stakeIndex": "The stake from which to claim tickets"
        }
      },
      "compound(uint256,uint256)": {
        "params": {
          "newLevel": "The new levelcompounded",
          "stakeIndex": "The stake that will be compounded"
        }
      },
      "deposit(uint256)": {
        "params": {
          "tokenId": "The tokenId that owns this stake"
        }
      },
      "emergencyWithdraw(uint256)": {
        "params": {
          "stakeIndex": "The stake which to withdraw"
        }
      },
      "getRoleAdmin(bytes32)": {
        "details": "Returns the admin role that controls `role`. See {grantRole} and {revokeRole}. To change a role's admin, use {_setRoleAdmin}."
      },
      "getRoleMember(bytes32,uint256)": {
        "details": "Returns one of the accounts that have `role`. `index` must be a value between 0 and {getRoleMemberCount}, non-inclusive. Role bearers are not sorted in any particular way, and their ordering may change at any point. WARNING: When using {getRoleMember} and {getRoleMemberCount}, make sure you perform all queries on the same block. See the following https://forum.openzeppelin.com/t/iterating-over-elements-on-enumerableset-in-openzeppelin-contracts/2296[forum post] for more information."
      },
      "getRoleMemberCount(bytes32)": {
        "details": "Returns the number of accounts that have `role`. Can be used together with {getRoleMember} to enumerate all bearers of a role."
      },
      "grantRole(bytes32,address)": {
        "details": "Grants `role` to `account`. If `account` had not been already granted `role`, emits a {RoleGranted} event. Requirements: - the caller must have ``role``'s admin role."
      },
      "hasRole(bytes32,address)": {
        "details": "Returns `true` if `account` has been granted `role`."
      },
      "initialize(address,uint256,uint256,uint256,uint256[],uint256[],address,address)": {
        "params": {
          "_endTs": "The timestamp that the last period will end",
          "_rewardVault": "The address of the reward vault that holds the reward tokens",
          "_ticketsMintingCooldownPeriod": "Cooldown period for ticket minting",
          "_ticketsMintingRatio": "Minting ration for the raffle tickets",
          "periodsRewardsPerSecond": "Rewards per second for each period. 1-1 with periodsStartTs",
          "periodsStartTs": "Array of timestamps for when each period will start. Each period will end 1 sec before the next starts and the last period will end at _endTs",
          "token": "The reward/staking token address"
        }
      },
      "isManager(address)": {
        "details": "checks if the given account is a manager",
        "params": {
          "account": "The account that will be checked"
        }
      },
      "isMigrator(address)": {
        "details": "checks if the given account is a manager",
        "params": {
          "account": "The account that will be checked"
        }
      },
      "pendingReward(uint256)": {
        "params": {
          "stakeIndex": "The stake for which we want the pending rewards"
        }
      },
      "removeManager(address)": {
        "details": "Removes the given account from the manager role, if msg.sender is admin",
        "params": {
          "manager": "The account that will have the manager role removed"
        }
      },
      "removeMigrator(address)": {
        "details": "Removes the given account from the migrator role, if msg.sender is admin",
        "params": {
          "migrator": "The account that will have the migrator role removed"
        }
      },
      "renounceManager()": {
        "details": "Removes the sender from the list the manager role"
      },
      "renounceMigrator()": {
        "details": "Removes the sender from the list the migrator role"
      },
      "renounceRole(bytes32,address)": {
        "details": "Revokes `role` from the calling account. Roles are often managed via {grantRole} and {revokeRole}: this function's purpose is to provide a mechanism for accounts to lose their privileges if they are compromised (such as when a trusted device is misplaced). If the calling account had been revoked `role`, emits a {RoleRevoked} event. Requirements: - the caller must be `account`."
      },
      "revokeRole(bytes32,address)": {
        "details": "Revokes `role` from `account`. If `account` had been granted `role`, emits a {RoleRevoked} event. Requirements: - the caller must have ``role``'s admin role."
      },
      "updateLockPeriods(uint256[],uint256[])": {
        "params": {
          "_lockPeriodMultipliers": "The new multipliers for each lock period",
          "_lockPeriods": "The new lock periods"
        }
      },
      "updatePeriod(uint256,uint256,uint256)": {
        "params": {
          "endTs": "The timestamp in seconds where the period will end",
          "periodRewardsPerSecond": "The rewards per second that will be distributed by the period",
          "startTs": "The timestamp in seconds where the period will start"
        }
      },
      "withdraw(uint256)": {
        "params": {
          "tokenId": "The Stake from which to withdraw"
        }
      }
    },
    "version": 1
  },
  "userdoc": {
    "kind": "user",
    "methods": {
      "addNftToStake(uint256,address,uint256)": {
        "notice": "Will add an NFT to a stake applying the relative multiplier. The NFT must be in the rarity registry."
      },
      "addPeriod(uint256,uint256)": {
        "notice": "Will add a new period at the end of the periods array"
      },
      "claimTickets(uint256)": {
        "notice": "Will send any available tickets to the user"
      },
      "compound(uint256,uint256)": {
        "notice": "Will claim pending rewards on behalf of the user and add the to the user's stake"
      },
      "deposit(uint256)": {
        "notice": "Will depposit tokens from the caller's account to this contract. The user must have previously approved the tokens for this contracts address"
      },
      "emergencyWithdraw(uint256)": {
        "notice": "Used to withdraw the users stake from the contract in the case of an emergency. This will simply return the stake to the user without any rewards"
      },
      "initialize(address,uint256,uint256,uint256,uint256[],uint256[],address,address)": {
        "notice": "Constructor"
      },
      "pendingReward(uint256)": {
        "notice": "Used to get the pending rewards for a user at the given time. Will do all the calculation for the reward per share so it will always return up to date data"
      },
      "updateLockPeriods(uint256[],uint256[])": {
        "notice": "Will update all the lock periods and their multipliers. All the existing periods will be ovewritten"
      },
      "updatePeriod(uint256,uint256,uint256)": {
        "notice": "Will update an existing period by splitting it into 3 new periods or 2 if it is the last period"
      },
      "withdraw(uint256)": {
        "notice": "Will withdraw a stake and send the staked tokens plus any pending rewards to the user and any NFTs in this stake"
      }
    },
    "version": 1
  },
  "storageLayout": {
    "storage": [
      {
        "astId": 578,
        "contract": "contracts/Staking/StakingV2.sol:StakingV2",
        "label": "_initialized",
        "offset": 0,
        "slot": "0",
        "type": "t_bool"
      },
      {
        "astId": 581,
        "contract": "contracts/Staking/StakingV2.sol:StakingV2",
        "label": "_initializing",
        "offset": 1,
        "slot": "0",
        "type": "t_bool"
      },
      {
        "astId": 3639,
        "contract": "contracts/Staking/StakingV2.sol:StakingV2",
        "label": "__gap",
        "offset": 0,
        "slot": "1",
        "type": "t_array(t_uint256)50_storage"
      },
      {
        "astId": 3886,
        "contract": "contracts/Staking/StakingV2.sol:StakingV2",
        "label": "__gap",
        "offset": 0,
        "slot": "51",
        "type": "t_array(t_uint256)50_storage"
      },
      {
        "astId": 184,
        "contract": "contracts/Staking/StakingV2.sol:StakingV2",
        "label": "_roles",
        "offset": 0,
        "slot": "101",
        "type": "t_mapping(t_bytes32,t_struct(RoleData)179_storage)"
      },
      {
        "astId": 472,
        "contract": "contracts/Staking/StakingV2.sol:StakingV2",
        "label": "__gap",
        "offset": 0,
        "slot": "102",
        "type": "t_array(t_uint256)49_storage"
      },
      {
        "astId": 33,
        "contract": "contracts/Staking/StakingV2.sol:StakingV2",
        "label": "_roleMembers",
        "offset": 0,
        "slot": "151",
        "type": "t_mapping(t_bytes32,t_struct(AddressSet)4299_storage)"
      },
      {
        "astId": 143,
        "contract": "contracts/Staking/StakingV2.sol:StakingV2",
        "label": "__gap",
        "offset": 0,
        "slot": "152",
        "type": "t_array(t_uint256)49_storage"
      },
      {
        "astId": 770,
        "contract": "contracts/Staking/StakingV2.sol:StakingV2",
        "label": "_status",
        "offset": 0,
        "slot": "201",
        "type": "t_uint256"
      },
      {
        "astId": 814,
        "contract": "contracts/Staking/StakingV2.sol:StakingV2",
        "label": "__gap",
        "offset": 0,
        "slot": "202",
        "type": "t_array(t_uint256)49_storage"
      },
      {
        "astId": 12237,
        "contract": "contracts/Staking/StakingV2.sol:StakingV2",
        "label": "poolInfo",
        "offset": 0,
        "slot": "251",
        "type": "t_struct(PoolInfo)12152_storage"
      },
      {
        "astId": 12242,
        "contract": "contracts/Staking/StakingV2.sol:StakingV2",
        "label": "stakeInfo",
        "offset": 0,
        "slot": "262",
        "type": "t_mapping(t_uint256,t_struct(StakeInfo)12100_storage)"
      },
      {
        "astId": 12244,
        "contract": "contracts/Staking/StakingV2.sol:StakingV2",
        "label": "emergencyWithdrawEnabled",
        "offset": 0,
        "slot": "263",
        "type": "t_bool"
      },
      {
        "astId": 12247,
        "contract": "contracts/Staking/StakingV2.sol:StakingV2",
        "label": "minepunks",
        "offset": 1,
        "slot": "263",
        "type": "t_contract(Minepunks)9411"
      }
    ],
    "types": {
      "t_address": {
        "encoding": "inplace",
        "label": "address",
        "numberOfBytes": "20"
      },
      "t_array(t_bytes32)dyn_storage": {
        "base": "t_bytes32",
        "encoding": "dynamic_array",
        "label": "bytes32[]",
        "numberOfBytes": "32"
      },
      "t_array(t_struct(RewardPeriodInfo)12113_storage)dyn_storage": {
        "base": "t_struct(RewardPeriodInfo)12113_storage",
        "encoding": "dynamic_array",
        "label": "struct StakingTypes.RewardPeriodInfo[]",
        "numberOfBytes": "32"
      },
      "t_array(t_uint256)49_storage": {
        "base": "t_uint256",
        "encoding": "inplace",
        "label": "uint256[49]",
        "numberOfBytes": "1568"
      },
      "t_array(t_uint256)50_storage": {
        "base": "t_uint256",
        "encoding": "inplace",
        "label": "uint256[50]",
        "numberOfBytes": "1600"
      },
      "t_array(t_uint256)dyn_storage": {
        "base": "t_uint256",
        "encoding": "dynamic_array",
        "label": "uint256[]",
        "numberOfBytes": "32"
      },
      "t_bool": {
        "encoding": "inplace",
        "label": "bool",
        "numberOfBytes": "1"
      },
      "t_bytes32": {
        "encoding": "inplace",
        "label": "bytes32",
        "numberOfBytes": "32"
      },
      "t_contract(IERC20Upgradeable)2802": {
        "encoding": "inplace",
        "label": "contract IERC20Upgradeable",
        "numberOfBytes": "20"
      },
      "t_contract(Minepunks)9411": {
        "encoding": "inplace",
        "label": "contract Minepunks",
        "numberOfBytes": "20"
      },
      "t_contract(RewardVault)9537": {
        "encoding": "inplace",
        "label": "contract RewardVault",
        "numberOfBytes": "20"
      },
      "t_mapping(t_address,t_bool)": {
        "encoding": "mapping",
        "key": "t_address",
        "label": "mapping(address => bool)",
        "numberOfBytes": "32",
        "value": "t_bool"
      },
      "t_mapping(t_bytes32,t_struct(AddressSet)4299_storage)": {
        "encoding": "mapping",
        "key": "t_bytes32",
        "label": "mapping(bytes32 => struct EnumerableSetUpgradeable.AddressSet)",
        "numberOfBytes": "32",
        "value": "t_struct(AddressSet)4299_storage"
      },
      "t_mapping(t_bytes32,t_struct(RoleData)179_storage)": {
        "encoding": "mapping",
        "key": "t_bytes32",
        "label": "mapping(bytes32 => struct AccessControlUpgradeable.RoleData)",
        "numberOfBytes": "32",
        "value": "t_struct(RoleData)179_storage"
      },
      "t_mapping(t_bytes32,t_uint256)": {
        "encoding": "mapping",
        "key": "t_bytes32",
        "label": "mapping(bytes32 => uint256)",
        "numberOfBytes": "32",
        "value": "t_uint256"
      },
      "t_mapping(t_uint256,t_struct(StakeInfo)12100_storage)": {
        "encoding": "mapping",
        "key": "t_uint256",
        "label": "mapping(uint256 => struct StakingTypes.StakeInfo)",
        "numberOfBytes": "32",
        "value": "t_struct(StakeInfo)12100_storage"
      },
      "t_struct(AddressSet)4299_storage": {
        "encoding": "inplace",
        "label": "struct EnumerableSetUpgradeable.AddressSet",
        "members": [
          {
            "astId": 4298,
            "contract": "contracts/Staking/StakingV2.sol:StakingV2",
            "label": "_inner",
            "offset": 0,
            "slot": "0",
            "type": "t_struct(Set)3998_storage"
          }
        ],
        "numberOfBytes": "64"
      },
      "t_struct(PoolInfo)12152_storage": {
        "encoding": "inplace",
        "label": "struct StakingTypes.PoolInfo",
        "members": [
          {
            "astId": 12124,
            "contract": "contracts/Staking/StakingV2.sol:StakingV2",
            "label": "globalPeriodCursor",
            "offset": 0,
            "slot": "0",
            "type": "t_uint256"
          },
          {
            "astId": 12126,
            "contract": "contracts/Staking/StakingV2.sol:StakingV2",
            "label": "totalStakingUnits",
            "offset": 0,
            "slot": "1",
            "type": "t_uint256"
          },
          {
            "astId": 12128,
            "contract": "contracts/Staking/StakingV2.sol:StakingV2",
            "label": "lastRewardTs",
            "offset": 0,
            "slot": "2",
            "type": "t_uint256"
          },
          {
            "astId": 12130,
            "contract": "contracts/Staking/StakingV2.sol:StakingV2",
            "label": "ticketsMintingRatio",
            "offset": 0,
            "slot": "3",
            "type": "t_uint256"
          },
          {
            "astId": 12132,
            "contract": "contracts/Staking/StakingV2.sol:StakingV2",
            "label": "ticketsMintingCooldownPeriod",
            "offset": 0,
            "slot": "4",
            "type": "t_uint256"
          },
          {
            "astId": 12135,
            "contract": "contracts/Staking/StakingV2.sol:StakingV2",
            "label": "lockPeriods",
            "offset": 0,
            "slot": "5",
            "type": "t_array(t_uint256)dyn_storage"
          },
          {
            "astId": 12138,
            "contract": "contracts/Staking/StakingV2.sol:StakingV2",
            "label": "lockPeriodMultipliers",
            "offset": 0,
            "slot": "6",
            "type": "t_array(t_uint256)dyn_storage"
          },
          {
            "astId": 12142,
            "contract": "contracts/Staking/StakingV2.sol:StakingV2",
            "label": "rewardPeriods",
            "offset": 0,
            "slot": "7",
            "type": "t_array(t_struct(RewardPeriodInfo)12113_storage)dyn_storage"
          },
          {
            "astId": 12145,
            "contract": "contracts/Staking/StakingV2.sol:StakingV2",
            "label": "rewardVault",
            "offset": 0,
            "slot": "8",
            "type": "t_contract(RewardVault)9537"
          },
          {
            "astId": 12148,
            "contract": "contracts/Staking/StakingV2.sol:StakingV2",
            "label": "token",
            "offset": 0,
            "slot": "9",
            "type": "t_contract(IERC20Upgradeable)2802"
          },
          {
            "astId": 12151,
            "contract": "contracts/Staking/StakingV2.sol:StakingV2",
            "label": "minepunks",
            "offset": 0,
            "slot": "10",
            "type": "t_contract(Minepunks)9411"
          }
        ],
        "numberOfBytes": "352"
      },
      "t_struct(RewardPeriodInfo)12113_storage": {
        "encoding": "inplace",
        "label": "struct StakingTypes.RewardPeriodInfo",
        "members": [
          {
            "astId": 12102,
            "contract": "contracts/Staking/StakingV2.sol:StakingV2",
            "label": "startTs",
            "offset": 0,
            "slot": "0",
            "type": "t_uint256"
          },
          {
            "astId": 12104,
            "contract": "contracts/Staking/StakingV2.sol:StakingV2",
            "label": "endTs",
            "offset": 0,
            "slot": "1",
            "type": "t_uint256"
          },
          {
            "astId": 12106,
            "contract": "contracts/Staking/StakingV2.sol:StakingV2",
            "label": "lastRewardTs",
            "offset": 0,
            "slot": "2",
            "type": "t_uint256"
          },
          {
            "astId": 12108,
            "contract": "contracts/Staking/StakingV2.sol:StakingV2",
            "label": "rewardPerSecond",
            "offset": 0,
            "slot": "3",
            "type": "t_uint256"
          },
          {
            "astId": 12110,
            "contract": "contracts/Staking/StakingV2.sol:StakingV2",
            "label": "accRewardPerShare",
            "offset": 0,
            "slot": "4",
            "type": "t_uint256"
          },
          {
            "astId": 12112,
            "contract": "contracts/Staking/StakingV2.sol:StakingV2",
            "label": "endAccRewardPerShare",
            "offset": 0,
            "slot": "5",
            "type": "t_uint256"
          }
        ],
        "numberOfBytes": "192"
      },
      "t_struct(RoleData)179_storage": {
        "encoding": "inplace",
        "label": "struct AccessControlUpgradeable.RoleData",
        "members": [
          {
            "astId": 176,
            "contract": "contracts/Staking/StakingV2.sol:StakingV2",
            "label": "members",
            "offset": 0,
            "slot": "0",
            "type": "t_mapping(t_address,t_bool)"
          },
          {
            "astId": 178,
            "contract": "contracts/Staking/StakingV2.sol:StakingV2",
            "label": "adminRole",
            "offset": 0,
            "slot": "1",
            "type": "t_bytes32"
          }
        ],
        "numberOfBytes": "64"
      },
      "t_struct(Set)3998_storage": {
        "encoding": "inplace",
        "label": "struct EnumerableSetUpgradeable.Set",
        "members": [
          {
            "astId": 3993,
            "contract": "contracts/Staking/StakingV2.sol:StakingV2",
            "label": "_values",
            "offset": 0,
            "slot": "0",
            "type": "t_array(t_bytes32)dyn_storage"
          },
          {
            "astId": 3997,
            "contract": "contracts/Staking/StakingV2.sol:StakingV2",
            "label": "_indexes",
            "offset": 0,
            "slot": "1",
            "type": "t_mapping(t_bytes32,t_uint256)"
          }
        ],
        "numberOfBytes": "64"
      },
      "t_struct(StakeInfo)12100_storage": {
        "encoding": "inplace",
        "label": "struct StakingTypes.StakeInfo",
        "members": [
          {
            "astId": 12076,
            "contract": "contracts/Staking/StakingV2.sol:StakingV2",
            "label": "amount",
            "offset": 0,
            "slot": "0",
            "type": "t_uint256"
          },
          {
            "astId": 12078,
            "contract": "contracts/Staking/StakingV2.sol:StakingV2",
            "label": "stakingUnits",
            "offset": 0,
            "slot": "1",
            "type": "t_uint256"
          },
          {
            "astId": 12080,
            "contract": "contracts/Staking/StakingV2.sol:StakingV2",
            "label": "rewardDebt",
            "offset": 0,
            "slot": "2",
            "type": "t_uint256"
          },
          {
            "astId": 12082,
            "contract": "contracts/Staking/StakingV2.sol:StakingV2",
            "label": "enteredAtTs",
            "offset": 0,
            "slot": "3",
            "type": "t_uint256"
          },
          {
            "astId": 12084,
            "contract": "contracts/Staking/StakingV2.sol:StakingV2",
            "label": "lastTicketClaimTs",
            "offset": 0,
            "slot": "4",
            "type": "t_uint256"
          },
          {
            "astId": 12086,
            "contract": "contracts/Staking/StakingV2.sol:StakingV2",
            "label": "currentLockDurationIndex",
            "offset": 0,
            "slot": "5",
            "type": "t_uint256"
          },
          {
            "astId": 12088,
            "contract": "contracts/Staking/StakingV2.sol:StakingV2",
            "label": "lockedTillTs",
            "offset": 0,
            "slot": "6",
            "type": "t_uint256"
          },
          {
            "astId": 12090,
            "contract": "contracts/Staking/StakingV2.sol:StakingV2",
            "label": "stakedNftAddress",
            "offset": 0,
            "slot": "7",
            "type": "t_address"
          },
          {
            "astId": 12092,
            "contract": "contracts/Staking/StakingV2.sol:StakingV2",
            "label": "stakedNftId",
            "offset": 0,
            "slot": "8",
            "type": "t_uint256"
          },
          {
            "astId": 12094,
            "contract": "contracts/Staking/StakingV2.sol:StakingV2",
            "label": "pendingRewards",
            "offset": 0,
            "slot": "9",
            "type": "t_uint256"
          },
          {
            "astId": 12096,
            "contract": "contracts/Staking/StakingV2.sol:StakingV2",
            "label": "cursor",
            "offset": 0,
            "slot": "10",
            "type": "t_uint256"
          },
          {
            "astId": 12099,
            "contract": "contracts/Staking/StakingV2.sol:StakingV2",
            "label": "ticketInfo",
            "offset": 0,
            "slot": "11",
            "type": "t_struct(TicketInfo)12122_storage"
          }
        ],
        "numberOfBytes": "480"
      },
      "t_struct(TicketInfo)12122_storage": {
        "encoding": "inplace",
        "label": "struct StakingTypes.TicketInfo",
        "members": [
          {
            "astId": 12115,
            "contract": "contracts/Staking/StakingV2.sol:StakingV2",
            "label": "ticketsMintingRatioWhenEntered",
            "offset": 0,
            "slot": "0",
            "type": "t_uint256"
          },
          {
            "astId": 12117,
            "contract": "contracts/Staking/StakingV2.sol:StakingV2",
            "label": "ticketsMintingCooldownPeriodRatioWhenEntered",
            "offset": 0,
            "slot": "1",
            "type": "t_uint256"
          },
          {
            "astId": 12119,
            "contract": "contracts/Staking/StakingV2.sol:StakingV2",
            "label": "ticketsClaimedForCurrentStake",
            "offset": 0,
            "slot": "2",
            "type": "t_uint256"
          },
          {
            "astId": 12121,
            "contract": "contracts/Staking/StakingV2.sol:StakingV2",
            "label": "pendingTickets",
            "offset": 0,
            "slot": "3",
            "type": "t_uint256"
          }
        ],
        "numberOfBytes": "128"
      },
      "t_uint256": {
        "encoding": "inplace",
        "label": "uint256",
        "numberOfBytes": "32"
      }
    }
  }
}