{
  "address": "0x3F7Ddc6d90266aB7CF0578d470E0ba47aF8d40dd",
  "abi": [
    {
      "inputs": [
        {
          "internalType": "address",
          "name": "tokenAddress",
          "type": "address"
        },
        {
          "internalType": "uint256",
          "name": "tokenId",
          "type": "uint256"
        }
      ],
      "name": "ownerOf",
      "outputs": [
        {
          "internalType": "address",
          "name": "",
          "type": "address"
        }
      ],
      "stateMutability": "view",
      "type": "function"
    }
  ],
  "transactionHash": "0x0bc1e9e1e9ccdd7faa44f079fd3812b4f0c58d2a0ed325f95b210de3c059147a",
  "args": [],
  "numDeployments": 1,
  "solcInputHash": "e5cb316cfb49c243438d542b1d510f55",
  "bytecode": "0x611284610053600b82828239805160001a607314610046577f4e487b7100000000000000000000000000000000000000000000000000000000600052600060045260246000fd5b30600052607381538281f3fe73000000000000000000000000000000000000000030146080604052600436106100875760003560e01c80635043eee6116100655780635043eee6146101365780639059b1541461015f578063a1c011241461019c578063e59fdd36146101c557610087565b806316b780ee1461008c5780631f29d2dc146100c957806325b69537146100f9575b600080fd5b81801561009857600080fd5b506100b360048036038101906100ae9190610afb565b6101ee565b6040516100c09190610bbf565b60405180910390f35b6100e360048036038101906100de9190610bda565b6102c3565b6040516100f09190610c29565b60405180910390f35b81801561010557600080fd5b50610120600480360381019061011b9190610afb565b610347565b60405161012d9190610bbf565b60405180910390f35b81801561014257600080fd5b5061015d60048036038101906101589190610c44565b610440565b005b81801561016b57600080fd5b5061018660048036038101906101819190610c97565b61056d565b6040516101939190610bbf565b60405180910390f35b8180156101a857600080fd5b506101c360048036038101906101be9190610cfe565b610660565b005b8180156101d157600080fd5b506101ec60048036038101906101e79190610c44565b6107b8565b005b6000808773ffffffffffffffffffffffffffffffffffffffff166301ffc9a77fd9b67a26000000000000000000000000000000000000000000000000000000006040518263ffffffff1660e01b815260040161024a9190610da0565b602060405180830381865afa158015610267573d6000803e3d6000fd5b505050506040513d601f19601f8201168201806040525081019061028b9190610de7565b905080156102a9576102a1888888888888610347565b9150506102b9565b6102b58888868661056d565b9150505b9695505050505050565b60008273ffffffffffffffffffffffffffffffffffffffff16636352211e836040518263ffffffff1660e01b81526004016102fe9190610e23565b602060405180830381865afa15801561031b573d6000803e3d6000fd5b505050506040513d601f19601f8201168201806040525081019061033f9190610e53565b905092915050565b6000808773ffffffffffffffffffffffffffffffffffffffff1663f242432a60e01b85858a8a8a604051602401610382959493929190610f17565b604051602081830303815290604052907bffffffffffffffffffffffffffffffffffffffffffffffffffffffff19166020820180517bffffffffffffffffffffffffffffffffffffffffffffffffffffffff83818316178352505050506040516103ec9190610fad565b6000604051808303816000865af19150503d8060008114610429576040519150601f19603f3d011682016040523d82523d6000602084013e61042e565b606091505b50509050809150509695505050505050565b60008373ffffffffffffffffffffffffffffffffffffffff1663156e29f660e01b8460008560405160240161047793929190611016565b604051602081830303815290604052907bffffffffffffffffffffffffffffffffffffffffffffffffffffffff19166020820180517bffffffffffffffffffffffffffffffffffffffffffffffffffffffff83818316178352505050506040516104e19190610fad565b6000604051808303816000865af19150503d806000811461051e576040519150601f19603f3d011682016040523d82523d6000602084013e610523565b606091505b5050905080610567576040517f08c379a000000000000000000000000000000000000000000000000000000000815260040161055e906110aa565b60405180910390fd5b50505050565b6000808573ffffffffffffffffffffffffffffffffffffffff166323b872dd60e01b8585886040516024016105a4939291906110ca565b604051602081830303815290604052907bffffffffffffffffffffffffffffffffffffffffffffffffffffffff19166020820180517bffffffffffffffffffffffffffffffffffffffffffffffffffffffff838183161783525050505060405161060e9190610fad565b6000604051808303816000865af19150503d806000811461064b576040519150601f19603f3d011682016040523d82523d6000602084013e610650565b606091505b5050905080915050949350505050565b6000808573ffffffffffffffffffffffffffffffffffffffff166323b872dd60e01b868686604051602401610697939291906110ca565b604051602081830303815290604052907bffffffffffffffffffffffffffffffffffffffffffffffffffffffff19166020820180517bffffffffffffffffffffffffffffffffffffffffffffffffffffffff83818316178352505050506040516107019190610fad565b6000604051808303816000865af19150503d806000811461073e576040519150601f19603f3d011682016040523d82523d6000602084013e610743565b606091505b5091509150818015610771575060008151148061077057508080602001905181019061076f9190610de7565b5b5b6107b0576040517f08c379a00000000000000000000000000000000000000000000000000000000081526004016107a790611173565b60405180910390fd5b505050505050565b6000808473ffffffffffffffffffffffffffffffffffffffff1663a9059cbb60e01b85856040516024016107ed929190611193565b604051602081830303815290604052907bffffffffffffffffffffffffffffffffffffffffffffffffffffffff19166020820180517bffffffffffffffffffffffffffffffffffffffffffffffffffffffff83818316178352505050506040516108579190610fad565b6000604051808303816000865af19150503d8060008114610894576040519150601f19603f3d011682016040523d82523d6000602084013e610899565b606091505b50915091508180156108c757506000815114806108c65750808060200190518101906108c59190610de7565b5b5b610906576040517f08c379a00000000000000000000000000000000000000000000000000000000081526004016108fd9061122e565b60405180910390fd5b5050505050565b6000604051905090565b600080fd5b600080fd5b600073ffffffffffffffffffffffffffffffffffffffff82169050919050565b600061094c82610921565b9050919050565b61095c81610941565b811461096757600080fd5b50565b60008135905061097981610953565b92915050565b6000819050919050565b6109928161097f565b811461099d57600080fd5b50565b6000813590506109af81610989565b92915050565b600080fd5b600080fd5b6000601f19601f8301169050919050565b7f4e487b7100000000000000000000000000000000000000000000000000000000600052604160045260246000fd5b610a08826109bf565b810181811067ffffffffffffffff82111715610a2757610a266109d0565b5b80604052505050565b6000610a3a61090d565b9050610a4682826109ff565b919050565b600067ffffffffffffffff821115610a6657610a656109d0565b5b610a6f826109bf565b9050602081019050919050565b82818337600083830152505050565b6000610a9e610a9984610a4b565b610a30565b905082815260208101848484011115610aba57610ab96109ba565b5b610ac5848285610a7c565b509392505050565b600082601f830112610ae257610ae16109b5565b5b8135610af2848260208601610a8b565b91505092915050565b60008060008060008060c08789031215610b1857610b17610917565b5b6000610b2689828a0161096a565b9650506020610b3789828a016109a0565b9550506040610b4889828a016109a0565b945050606087013567ffffffffffffffff811115610b6957610b6861091c565b5b610b7589828a01610acd565b9350506080610b8689828a0161096a565b92505060a0610b9789828a0161096a565b9150509295509295509295565b60008115159050919050565b610bb981610ba4565b82525050565b6000602082019050610bd46000830184610bb0565b92915050565b60008060408385031215610bf157610bf0610917565b5b6000610bff8582860161096a565b9250506020610c10858286016109a0565b9150509250929050565b610c2381610941565b82525050565b6000602082019050610c3e6000830184610c1a565b92915050565b600080600060608486031215610c5d57610c5c610917565b5b6000610c6b8682870161096a565b9350506020610c7c8682870161096a565b9250506040610c8d868287016109a0565b9150509250925092565b60008060008060808587031215610cb157610cb0610917565b5b6000610cbf8782880161096a565b9450506020610cd0878288016109a0565b9350506040610ce18782880161096a565b9250506060610cf28782880161096a565b91505092959194509250565b60008060008060808587031215610d1857610d17610917565b5b6000610d268782880161096a565b9450506020610d378782880161096a565b9350506040610d488782880161096a565b9250506060610d59878288016109a0565b91505092959194509250565b60007fffffffff0000000000000000000000000000000000000000000000000000000082169050919050565b610d9a81610d65565b82525050565b6000602082019050610db56000830184610d91565b92915050565b610dc481610ba4565b8114610dcf57600080fd5b50565b600081519050610de181610dbb565b92915050565b600060208284031215610dfd57610dfc610917565b5b6000610e0b84828501610dd2565b91505092915050565b610e1d8161097f565b82525050565b6000602082019050610e386000830184610e14565b92915050565b600081519050610e4d81610953565b92915050565b600060208284031215610e6957610e68610917565b5b6000610e7784828501610e3e565b91505092915050565b610e8981610941565b82525050565b600081519050919050565b600082825260208201905092915050565b60005b83811015610ec9578082015181840152602081019050610eae565b83811115610ed8576000848401525b50505050565b6000610ee982610e8f565b610ef38185610e9a565b9350610f03818560208601610eab565b610f0c816109bf565b840191505092915050565b600060a082019050610f2c6000830188610e80565b610f396020830187610e80565b610f466040830186610e14565b610f536060830185610e14565b8181036080830152610f658184610ede565b90509695505050505050565b600081905092915050565b6000610f8782610e8f565b610f918185610f71565b9350610fa1818560208601610eab565b80840191505092915050565b6000610fb98284610f7c565b915081905092915050565b6000819050919050565b600060ff82169050919050565b6000819050919050565b6000611000610ffb610ff684610fc4565b610fdb565b610fce565b9050919050565b61101081610fe5565b82525050565b600060608201905061102b6000830186610e80565b6110386020830185611007565b6110456040830184610e14565b949350505050565b600082825260208201905092915050565b7f455243313135353a206d696e74206661696c6564000000000000000000000000600082015250565b600061109460148361104d565b915061109f8261105e565b602082019050919050565b600060208201905081810360008301526110c381611087565b9050919050565b60006060820190506110df6000830186610e80565b6110ec6020830185610e80565b6110f96040830184610e14565b949350505050565b7f45524332303a207472616e7366657220616d6f756e742065786365656473206260008201527f616c616e6365206f7220616c6c6f77616e636500000000000000000000000000602082015250565b600061115d60338361104d565b915061116882611101565b604082019050919050565b6000602082019050818103600083015261118c81611150565b9050919050565b60006040820190506111a86000830185610e80565b6111b56020830184610e14565b9392505050565b7f45524332303a207472616e7366657220616d6f756e742065786365656473206260008201527f616c616e63650000000000000000000000000000000000000000000000000000602082015250565b600061121860268361104d565b9150611223826111bc565b604082019050919050565b600060208201905081810360008301526112478161120b565b905091905056fea264697066735822122093ae11cb65a7a58ca55c48c38b6bdc7b9b71c0bd179c52300fcd4a9a6318b24864736f6c634300080a0033",
  "devdoc": {
    "kind": "dev",
    "methods": {},
    "version": 1
  },
  "userdoc": {
    "kind": "user",
    "methods": {},
    "version": 1
  },
  "storageLayout": {
    "storage": [],
    "types": null
  }
}